:1000000000000020FD0400008B66000091660000E7
:10001000976600009D660000A366000000000000D7
:100020000000000000000000000000006D0500005E
:10003000A96600000000000013060000730600001F
:1000400049650000576500006565000073650000A4
:10005000816500008F6500009D650000AB650000B4
:10006000B9650000C7650000D5650000E3650000C4
:10007000F1650000FF6500000D6600001B660000D2
:1000800029660000AF660000B5660000BB66000090
:10009000C1660000C7660000CD660000D3660000A0
:1000A000D9660000DF660000E5660000EB66000030
:1000B000F1660000F7660000FD660000376600008C
:1000C00003670000456600000967000053660000F2
:1000D0000F67000061660000156700001B670000E5
:1000E00021670000276700002D67000033670000CC
:1000F000396700003F670000456700004B6700005C
:100100000D0500000D0500000D0500000D050000A7
:1001100051670000576700005D67000063670000DB
:10012000696700006F670000756700007B6700006B
:1001300081670000876700008D67000093670000FB
:10014000996700009F6700006F660000A5670000C8
:100150007D660000AB670000B1670000B767000074
:10016000BD670000C3670000C9670000CF670000DB
:10017000D5670000DB670000E1670000E76700006B
:10018000ED6700000D0500000D0500000D050000E5
:100190000D0500000D0500000D0500000D05000017
:1001A0000D0500000D0500000D0500000D05000007
:1001B0000D0500000D0500000D0500000D050000F7
:1001C0000D0500000D0500000D0500000D050000E7
:1003F0000D0500000D0500000D050000FFFFFFFFCB
:10040000FFFFFFFFFFFFFFFFFFFFFFFFFEFFFFFFFD
:1004400010B5054C237833B9044B13B10448AFF30E
:1004500000800123237010BDF80D00200000000073
:1004600098E2000008B5034B1BB103490348AFF302
:10047000008008BD00000000FC0D002098E2000094
:10048000A3F5803A704700BF174B002B08BF134BF2
:100490009D46FFF7F5FF00218B460F461348144A8F
:1004A000121A0AF03BFC0E4B002B00D098470D4B64
:1004B000002B00D098470020002104000D000D48BB
:1004C000002802D00C480AF005F90AF049F920008A
:1004D000290003F0E3FA0AF009F900BF0000080060
:1004E000000000007569000000000020F80D0020E9
:1004F0006C460020D5A600000DA7000072B605F0DE
:100500003BFC05F0D1FB62B6FFF7BEFFFFF7FEBF75
:1005100080F309887047EFF309807047684680F3DD
:1005200009885A480078C00714BF0220032080F3CE
:1005300014887047DFF858C1EFF305831B0618BF16
:100540006047EFF31483DB0708BF604700DF7047A5
:10055000DFF840C1EFF305831B0618BF6047EFF3D8
:100560001483DB0708BF604700DF7047EFF30980A3
:10057000816911F8021CE1BB90E80F1010B5E0474B
:10058000BDE81040EFF3098C8CE80700424B93E87C
:100590000600914208BF704741B91EF0100F16D1F6
:1005A0003E49086820F00100086010E01EF0100FBE
:1005B00006BF2CED108A0120002081F825002CE9CF
:1005C000F00FC1F828C00CB407F0D6FC0CBC1A60C0
:1005D000D2F828C0BCE8F00F92F8250000280EBF22
:1005E0006FF0020E6FF0120EBCEC108A8CF30988CB
:1005F000704710B52A4A1268914209D8294C54F81C
:10060000214090E80F10A047EFF3098C8CE80F0011
:1006100010BD10B507F022FCBDE810401E4B93E85A
:100620000600914208BF7047EFF3098C1EF0100FCF
:1006300006BF2CED108A0120002081F825002CE94E
:10064000F00FC1F828C00CB407F096FC0CBC1A607F
:10065000D2F828C0BCE8F00F92F8250000280EBFA1
:100660006FF0020E6FF0120EBCEC108A8CF309884A
:10067000704710B507F062FCFFF7CEBF10B507F06A
:100680005BFC07F05BFCFFF7C7BF000054D5000020
:10069000E9770000057800000846002034EF00E00C
:1006A00000000000FCFFFFFF81F0004102E000BFFE
:1006B00083F0004330B54FEA41044FEA430594EA22
:1006C000050F08BF90EA020F1FBF54EA000C55EA5D
:1006D000020C7FEA645C7FEA655C00F0E2804FEA2E
:1006E0005454D4EB5555B8BF6D420CDD2C4480EA10
:1006F000020281EA030382EA000083EA010180EA40
:10070000020281EA0303362D88BF30BD11F0004F8D
:100710004FEA01314FF4801C4CEA113102D04042C3
:1007200061EB410113F0004F4FEA03334CEA1333FE
:1007300002D0524263EB430394EA050F00F0A78016
:10074000A4F10104D5F1200E0DDB02FA0EFC22FA11
:1007500005F2801841F1000103FA0EF2801843FA05
:1007600005F359410EE0A5F120050EF1200E012AF6
:1007700003FA0EFC28BF4CF0020C43FA05F3C01834
:1007800051EBE37101F0004507D54FF0000EDCF1AD
:10079000000C7EEB00006EEB0101B1F5801F1BD356
:1007A000B1F5001F0CD349085FEA30004FEA3C0C5A
:1007B00004F101044FEA445212F5800F80F09A8050
:1007C000BCF1004F08BF5FEA500C50F1000041EB54
:1007D000045141EA050130BD5FEA4C0C404141EB58
:1007E0000101013C28BFB1F5801FE9D291F0000F53
:1007F00004BF01460020B1FA81F308BF2033A3F102
:100800000B03B3F120020CDA0C3208DD02F1140CF8
:10081000C2F10C0201FA0CF021FA02F10CE002F133
:100820001402D8BFC2F1200C01FA02F120FA0CFC2C
:10083000DCBF41EA0C019040E41AA2BF01EB045175
:10084000294330BD6FEA04041F3C1CDA0C340EDC73
:1008500004F11404C4F1200220FA04F001FA02F3B6
:1008600040EA030021FA04F345EA030130BDC4F174
:100870000C04C4F1200220FA02F001FA04F340EA69
:100880000300294630BD21FA04F0294630BD94F01A
:10089000000F83F4801306BF81F480110134013D01
:1008A0004EE77FEA645C18BF7FEA655C29D094EA72
:1008B000050F08BF90EA020F05D054EA000C04BFF0
:1008C0001946104630BD91EA030F1EBF00210020DB
:1008D00030BD5FEA545C05D14000494128BF41F07A
:1008E000004130BD14F580043CBF01F5801130BDDE
:1008F00001F0004545F0FE4141F470014FF0000069
:1009000030BD7FEA645C1ABF194610467FEA655C19
:100910001CBF0B46024650EA013406BF52EA0335BB
:1009200091EA030F41F4002130BD00BF90F0000FA9
:1009300004BF0021704730B54FF4806404F13204E5
:100940004FF000054FF0000150E700BF90F0000F9E
:1009500004BF0021704730B54FF4806404F13204C5
:1009600010F0004548BF40424FF000013EE700BF95
:1009700042004FEAE2014FEA31014FEA02701FBF25
:1009800012F07F4393F07F4F81F06051704732F057
:100990007F4208BF704793F07F4F04BF41F40021AE
:1009A000704730B54FF4607401F0004521F000410C
:1009B0001CE700BF50EA010208BF704730B54FF096
:1009C00000050AE050EA010208BF704730B511F097
:1009D000004502D5404261EB41014FF4806404F1CF
:1009E00032045FEA915C3FF4D8AE4FF003025FEA55
:1009F000DC0C18BF03325FEADC0C18BF033202EBD9
:100A0000DC02C2F1200300FA03FC20FA02F001FA32
:100A100003FE40EA0E0021FA02F11444BDE600BFD5
:100A200070B54FF0FF0C4CF4E06C1CEA11541DBF84
:100A30001CEA135594EA0C0F95EA0C0F00F0DEF84F
:100A40002C4481EA030621EA4C5123EA4C5350EA34
:100A5000013518BF52EA033541F4801143F4801385
:100A600038D0A0FB02CE4FF00005E1FB02E506F016
:100A70000042E0FB03E54FF00006E1FB03569CF06B
:100A8000000F18BF4EF0010EA4F1FF04B6F5007F71
:100A900064F5407404D25FEA4E0E6D4146EB0606E3
:100AA00042EAC62141EA55514FEAC52040EA5E506C
:100AB0004FEACE2EB4F1FD0C88BFBCF5E06F1ED816
:100AC000BEF1004F08BF5FEA500E50F1000041EB4D
:100AD000045170BD06F0004646EA010140EA0200FA
:100AE00081EA0301B4EB5C04C2BFD4EB0C0541EA1C
:100AF000045170BD41F480114FF0000E013C00F331
:100B0000AB8014F1360FDEBF002001F0004170BD54
:100B1000C4F10004203C35DA0C341BDC04F114046D
:100B2000C4F1200500FA05F320FA04F001FA05F2F9
:100B300040EA020001F0004221F0004110EBD370C6
:100B400021FA04F642EB06015EEA430E08BF20EAF2
:100B5000D37070BDC4F10C04C4F1200500FA04F395
:100B600020FA05F001FA04F240EA020001F0004127
:100B700010EBD37041F100015EEA430E08BF20EA9A
:100B8000D37070BDC4F1200500FA05F24EEA020EE2
:100B900020FA04F301FA05F243EA020321FA04F011
:100BA00001F0004121FA04F220EA020000EBD370C8
:100BB0005EEA430E08BF20EAD37070BD94F0000FC8
:100BC0000FD101F00046400041EB010111F4801FFC
:100BD00008BF013CF7D041EA060195F0000F18BFAD
:100BE000704703F00046520043EB030313F4801FE9
:100BF00008BF013DF7D043EA0603704794EA0C0FA3
:100C00000CEA135518BF95EA0C0F0CD050EA4106B8
:100C100018BF52EA4306D1D181EA030101F0004135
:100C20004FF0000070BD50EA410606BF104619465D
:100C300052EA430619D094EA0C0F02D150EA013669
:100C400013D195EA0C0F05D152EA03361CBF1046AA
:100C500019460AD181EA030101F0004141F0FE4149
:100C600041F470014FF0000070BD41F0FE4141F4CD
:100C7000780170BD70B54FF0FF0C4CF4E06C1CEACD
:100C800011541DBF1CEA135594EA0C0F95EA0C0F82
:100C900000F0A7F8A4EB050481EA030E52EA03353D
:100CA0004FEA013100F088804FEA03334FF080555E
:100CB00045EA131343EA12634FEA022245EA11158B
:100CC00045EA10654FEA00260EF000419D4208BF3C
:100CD000964244F1FD0404F5407402D25B084FEAE9
:100CE0003202B61A65EB03055B084FEA32024FF495
:100CF00080104FF4002CB6EB020E75EB030E22BFF2
:100D0000B61A754640EA0C005B084FEA3202B6EBB1
:100D1000020E75EB030E22BFB61A754640EA5C0060
:100D20005B084FEA3202B6EB020E75EB030E22BFF0
:100D3000B61A754640EA9C005B084FEA3202B6EBF1
:100D4000020E75EB030E22BFB61A754640EADC00B0
:100D500055EA060E18D04FEA051545EA16754FEA12
:100D600006164FEAC30343EA52734FEAC2025FEA30
:100D70001C1CC0D111F4801F0BD141EA00014FF0BF
:100D800000004FF0004CB6E711F4801F04BF014390
:100D90000020B4F1FD0C88BFBCF5E06F3FF6AFAEAC
:100DA000B5EB030C04BFB6EB020C5FEA500C50F13C
:100DB000000041EB045170BD0EF0004E4EEA1131BF
:100DC00014EB5C04C2BFD4EB0C0541EA045170BDC6
:100DD00041F480114FF0000E013C90E645EA060E0A
:100DE0008DE60CEA135594EA0C0F08BF95EA0C0F38
:100DF0003FF43BAF94EA0C0F0AD150EA01347FF480
:100E000034AF95EA0C0F7FF425AF104619462CE756
:100E100095EA0C0F06D152EA03353FF4FDAE1046B9
:100E2000194622E750EA410618BF52EA43067FF40A
:100E3000C5AE50EA41047FF40DAF52EA43057FF49A
:100E4000EBAE12E74FF0FF3C06E000BF4FF0010CA5
:100E500002E000BF4FF0010C4DF804CD4FEA410C09
:100E60007FEA6C5C4FEA430C18BF7FEA6C5C1BD0D6
:100E700001B050EA410C0CBF52EA430C91EA030F57
:100E800002BF90EA020F0020704710F1000F91EAB4
:100E9000030F58BF994208BF90422CBFD8176FEA82
:100EA000E37040F0010070474FEA410C7FEA6C5C50
:100EB00002D150EA013C07D14FEA430C7FEA6C5C57
:100EC000D6D152EA033CD3D05DF8040B704700BF83
:100ED0008446104662468C461946634600E000BFD1
:100EE00001B5FFF7B7FF002848BF10F1000F01BDA3
:100EF0004DF808EDFFF7F4FF0CBF012000205DF86E
:100F000008FB00BF4DF808EDFFF7EAFF34BF0120F2
:100F100000205DF808FB00BF4DF808EDFFF7E0FF8B
:100F200094BF012000205DF808FB00BF4DF808EDDC
:100F3000FFF7CEFF94BF012000205DF808FB00BF43
:100F40004DF808EDFFF7C4FF34BF012000205DF825
:100F500008FB00BF4FEA410212F5001215D211D56D
:100F60006FF47873B3EB625212D94FEAC12343F0A6
:100F7000004343EA505311F0004F23FA02F018BF28
:100F8000404270474FF00000704750EA013005D1F1
:100F900011F0004008BF6FF0004070474FF00000B4
:100FA000704700BF4A0011D212F5001211D20DD5C0
:100FB0006FF47873B3EB62520ED44FEAC12343F05F
:100FC000004343EA505323FA02F070474FF0000009
:100FD000704750EA013002D14FF0FF3070474FF0B8
:100FE0000000704753B94AB9002908BF00281CBF48
:100FF0004FF0FF314FF0FF3001F0C0B8ADF1080CF9
:101000006DE904CE00F006F8DDF804E0DDE9022326
:1010100004B070472DE9F047089D04468C46002B2C
:1010200040F083808A42174647D9B2FA82F242B131
:10103000C2F1200024FA00F09140974040EA010CF0
:1010400094404FEA1748230CBCFBF8F61FFA87FEC2
:1010500008FB16C143EA014306FB0EF1994209D988
:10106000FB1806F1FF3080F01981994240F2168199
:10107000023E3B445B1AA4B2B3FBF8F008FB10330A
:1010800044EA034400FB0EFEA64509D93C1900F1D1
:10109000FF3380F00581A64540F2028102383C44CE
:1010A00040EA0640A4EB0E0400261DB1D440002304
:1010B000C5E900433146BDE8F08702B9FFDEB2FA68
:1010C00082F2002A50D1CB1B4FEA174E1FFA87F845
:1010D0000126B3FBFEFC210C0EFB1C3341EA03414D
:1010E00008FB0CF38B4207D979180CF1FF3002D2C0
:1010F0008B4200F2E9808446C91AA3B2B1FBFEF02C
:101100000EFB101143EA014408FB00F8A04507D983
:101110003C1900F1FF3302D2A04500F2D9801846F5
:10112000A4EB080440EA0C40BFE78B4209D9002D2C
:1011300000F0B1800026C5E9000130463146BDE827
:10114000F087B3FA83F6002E4AD18B4202D3824253
:1011500000F2B880841A61EB030101208C46002D57
:10116000A8D0C5E9004CA5E7C2F1200320FA03F698
:10117000974001FA02F04FEA174ED9403043030C72
:10118000B1FBFEF61FFA87F80EFB161143EA014386
:1011900006FB08F1994204FA02F409D9FB1806F19A
:1011A000FF3C80F08D80994240F28A80023E3B44B1
:1011B0005B1A81B2B3FBFEF00EFB103341EA034130
:1011C00000FB08F38B4207D9791800F1FF3C73D27A
:1011D0008B4271D902383944CB1A40EA064678E787
:1011E000C6F1200C03FA06F422FA0CF31C4320FA91
:1011F0000CF701FA06F34FEA144E21FA0CF11F43E3
:101200003B0CB1FBFEF91FFA84F80EFB191143EAFF
:10121000014109FB08FA8A4502FA06F200FA06F3D0
:1012200008D9611809F1FF3048D28A4546D9A9F199
:1012300002092144A1EB0A01BFB2B1FBFEF00EFB93
:10124000101147EA014700FB08F8B84507D9E7192C
:1012500000F1FF312ED2B8452CD90238274440EA9C
:101260000940A7EB0807A0FB02894F45C64649463F
:101270001AD317D05DB1B3EB0E0267EB010707FA83
:101280000CFCF2404CEA0202F740C5E900270026B8
:101290003146BDE8F0872E4628460BE70646E9E6CC
:1012A0001846FDE64345E5D2B8EB020E69EB0401B2
:1012B0000138DFE70846D2E760468DE78146B9E7A7
:1012C000664675E730464AE7ACF1020C394413E74D
:1012D00002383C4424E700BF03685A004CBF43F087
:1012E000004323F000431844704700BF2DE9F84342
:1012F00029B34F1E044615463E464FF0000808EB42
:10130000060101EBD171491004EBC1094846FFF712
:10131000E3FF0346C80008308F42204409D0AB42A7
:1013200009D8FFF7D9FF0138A8420AD201F1010814
:10133000E5E7AB4205D9884501D04E1EDFE74FF007
:1013400000094846BDE8F883012807D0022807D0E5
:10135000044B00280CBF1846002070470248704715
:10136000024870470D1A0000111A0000151A0000FB
:1013700030B5234B83B004468D1E3BB301A92846EC
:10138000AFF30080E8B101992A46FFF7AFFF0146AD
:10139000B8B1FFF7A1FF4B68A064012B2BD0002B45
:1013A00001F1040023DBFFF797FF0023C4E91303D7
:1013B0000368002B10DBFFF78FFF2061002003B0D4
:1013C00030BD00230920236103B030BD0D490E4814
:1013D000091AC9100191D7E7C3F30360FFF7B4FFFF
:1013E0000028206114BF0020092003B030BD012374
:1013F000C4E91303DCE7002323610520DFE700BF16
:1014000000000000E0E8000098E500000368DA074B
:1014100010B5044606D49B0700F1480009D500F03A
:101420004BFC2368590709D51A070ED5DB0613D5DF
:1014300010BD00F039FC23685907F5D404F1D00041
:1014400000F042FC23681A07F0D404F5A87000F0FD
:1014500043FC2368DB06EBD404F5E870BDE81040DC
:1014600000F07EBC0346006800B11844704700BF1E
:1014700009207047704700BF70B504460E46316CB6
:101480002046FFF775FF054688B9336C6361324625
:1014900023692146012098470828F0D0072806D163
:1014A0002846316CFFF7E6FF301D00F0F1FB09F034
:1014B000EBF800BF2DE9F0470D1D064614460FCD91
:1014C000ADF5727D0DF10C0CACE80F000FCDACE862
:1014D0000F000FCDACE80F0095E80F0002ADF768E4
:1014E000D6F818808CE80F0000232B6021E02B6CCD
:1014F00073614FF4F07229467AA800F041FE336917
:101500007AAA314650469847889BCDE90058214633
:101510006B648146334632460120B8470446E8B939
:101520004FF4F0727AA9284600F02AFEB9F1080FAC
:101530001BD1296C3046FFF71BFF09345FFA84FA90
:1015400081460028D3D0AB6B4AF01001CDE900589A
:1015500032466B6401203346B84708B14FF00909A1
:1015600048460DF5727DBDE8F087B9F1070FF5D15A
:101570002046296CFFF77EFF03A800F089FB00BF1F
:10158000406C7047F0B5CB6B0B640E1D0F460546E3
:101590000FCEF9B001AC0FC40FCE0FC40FCE0FC4E5
:1015A00096E80F004FF0FF3684E80F00009606E043
:1015B0002B696A46294698470828044608D110999D
:1015C0002846FFF7D5FE0028F2D0092079B0F0BDFB
:1015D0006846FFF71BFF062CF7D139462846FFF770
:1015E0004BFF00BF30B4DD6BC160826119461D64E2
:1015F000002230BC5EE700BF70B5C66843690B646B
:10160000AEB903690A4604460D46014602209847D2
:10161000072805D008280FD129462046FFF72CFFC0
:101620003046296CFFF726FF281D00F031FB012210
:10163000FFF740FF09F028F809F026F8C2681AB150
:10164000CA6B0A64002235E79CE700BF704700BF01
:10165000836801460BB1012018477047012912D059
:1016600009D873B90F2A0CD800EB820218465368C8
:10167000009A136070470339012994BF01200220AA
:101680007047022070470846704700BF10B584B00D
:10169000002303AC0A4600941946FFF7DFFF0398C6
:1016A00004B010BD012912D009D873B90F2A0CD883
:1016B00000EB8200009A12684260184670470339B6
:1016C000012994BF0120022070470220704708467C
:1016D000704700BF10B584B0002303AC03920094A0
:1016E0000A461946FFF7DEFF04B010BDF0B5D36B14
:1016F0001364151D8C4606460FCDADF50F7D17AC56
:101700000FC40FCD0FC40FCD0FC495E80F004FF0DD
:10171000FF3784E80F006546169710E0FFF7DAFF01
:10172000294616A8B047034616AA6946082083B979
:10173000049B9847052804460CD0092809D026990F
:101740006846FFF715FE03466A460C2116A8002BD3
:10175000E4D0092416A8FFF759FE20460DF50F7DA9
:10176000F0BD00BF2DE9F04FCC6C89B00D4654F8A8
:10177000041B0694174600F003081E46002B79D080
:101780000B0CDAB209048DF81D30022304EB82043D
:1017900005918DF81C302B6DB8F1020F08BFAC6BB2
:1017A00013F001030CD0384605A900F073FB18B9FB
:1017B000082009B0BDE8F08F092009B0BDE8F08F1E
:1017C000D4F800A0BAF1000FEDD0019300F00803A7
:1017D0000293022E4AD0B4F800A0B4F80290043468
:1017E000AA6C29F0010B0F2138469344FFF74EFFF6
:1017F000834539D82AF001025A44824294BF00201E
:1018000001204FEA490303F002030AF0010A43EA08
:101810000A03012B49D0022B32D0002BCCD1B8F1D6
:10182000000F02D0002840F0CD800434D4F800A08E
:10183000BAF1000FCDD105A9384600F02BFB0028E6
:10184000BAD1019B002BB3D00F213846FFF71EFF02
:101850000E2102463846FFF73DFF38466A4A0F21FF
:10186000FFF738FF0720A8E70020CAE7D4F8049064
:101870000834B5E7090203230591ADF81C308AE767
:10188000236823F0004BB8F1000F45D128B1029A2C
:10189000002A5CD0BBF1000F74D0002B00DA0434B6
:1018A0000BF1010B04EB8B04C0E7B8F1000F19D169
:1018B000B0B1D4E90023991C4FEAD2723FF47CAF57
:1018C00005F158010133049100F09080201DFFF7CD
:1018D000C9FD04AB01462846AFF3008000285BD168
:1018E0000834A3E70D213846D5F82090FFF7CEFE47
:1018F0008145F5D1AB6A9C42F2D12046FFF7ECFC62
:101900000F2102463846FFF7E5FE38462A460021F9
:10191000FFF7E0FE072050E70D213846D5F820906C
:10192000FFF7B4FE814501D02368B6E7AB6A9C425D
:10193000FAD104220021C5E90B12A318C5F828B07A
:101940006B6323688B4259DB01230193A8E705F100
:101950005803CDF80C8004F1040AB04691461E46A7
:101960000DE00496FFF77EFD04AB014600222846F9
:10197000AFF3008009F101090AF1040AE8B9D94579
:101980005046EED138460D21FFF780FE049B2862B9
:10199000C5E90934062010E781460D213846FFF7D6
:1019A00075FEB9F1020F286225D12B46049A43F83F
:1019B0002C2F6B62AC620620FFE646462368DDF8FA
:1019C0000C806AE72046FFF787FC04340246AC63CC
:1019D00028461446AFF3008000283FF4EDAE3846A9
:1019E00022460F21FFF776FE0720E6E638460D2156
:1019F000FFF74CFE2862049B6B62DBE70BF10100F2
:101A000004EB80007AE700BF000000000023A9E695
:101A10000123A7E60223A5E62DE9F0430646C3B05D
:101A200015461C46042900F2B980DFE801F09A53FC
:101A3000B7290300002C40F0B180102A00F2AE80DC
:101A40000368D80600F1F38020AF384600F092F921
:101A5000B06B0023012404FA03F22A42014604D0A9
:101A600051F8042B47F8232008460133042BF2D108
:101A7000B063384600F074F9002043B0BDE8F0834D
:101A8000032C40F08B8094B204EB1243102B4FEAEE
:101A9000124500F2838003681F0700F1D08020AF59
:101AA000384600F03BF907EBC501B56B54B10B4666
:101AB000E81A01EBC401E4001A5843F8042B8B42E6
:101AC000FAD125443846B56300F006F9002043B04A
:101AD000BDE8F083012C4FEA124895B25AD0052C8C
:101AE0005CD108EB0509B9F1200F57D8B8F10F0FF9
:101AF00077D9A946002D40F08880B36B6DB320AF35
:101B00004FF0000907EBC807043F03EBC50553F886
:101B1000041B47F8041FAB42F9D1B9F1000F0FD0F5
:101B20006F464146102938BF102107EBC1018439A7
:101B300003EBC90553F8040B41F8040FAB42F9D18C
:101B4000012C00F08480B8F10F0FB56345D9B9F1CD
:101B5000000F02D0684600F0B7F8002043B0BDE89F
:101B6000F083DCB9876B2346012094B206F1040CA4
:101B700000FA03F22242394604D051F8042B4CF803
:101B800023200F460133102BF2D115F40050E4D17D
:101B9000B76304E008EB0503102B03D9022043B020
:101BA000BDE8F083B8F10F0FF8D83368DA0706D52F
:101BB000304623F0030340F8483B00F079F820AFAB
:101BC000384600F075F8B36B002D99D11D460435E9
:101BD000B563384600F068F8BFE720A800F06CF85D
:101BE000B5E7B9F1100F40D9A9F110093368D90749
:101BF00008D523F00103304643F0020340F8483B88
:101C000000F05EF8B9F1000F32D033685A0720D4E3
:101C1000B8F10F0F25D96F463846C8F1100500F00E
:101C200057F8002DB36B7FF77CAF20AF6AE723F046
:101C30001003336006F5E87000F09CF804E723F029
:101C40000803036000F5A87000F068F827E720AFEC
:101C5000BDE7304623F0040340F8D03B00F038F8ED
:101C6000D6E720A800F02CF8D5E74FF00009BDE733
:101C7000B8F10F0F3FF641AF20AF384600F020F823
:101C8000B36B002D7FF43CAF384600F015F864E7E5
:101C900000F1340191E838009C46A6464CF8045DFA
:101CA00090E8FF0FE54600BD90EC210B704700BFA8
:101CB00080EC210B704700BF90EC200B704700BFF9
:101CC00080EC200B704700BFD0EC200B704700BFAA
:101CD000C0EC200B704700BFF0EC0201F0EC0211E9
:101CE000F0EC0221F0EC0231F0EC0241F0EC025198
:101CF000F0EC0261F0EC0271F0EC0281F0EC029188
:101D0000F0EC02A1F0EC02B1F0EC02C1F0EC02D177
:101D1000F0EC02E1F0EC02F1704700BFE0EC0201F0
:101D2000E0EC0211E0EC0221E0EC0231E0EC0241D7
:101D3000E0EC0251E0EC0261E0EC0271E0EC0281C7
:101D4000E0EC0291E0EC02A1E0EC02B1E0EC02C1B7
:101D5000E0EC02D1E0EC02E1E0EC02F1704700BF00
:101D6000B0FC0181B0FC0191B0FC01A1B0FC01B15B
:101D7000704700BFA0FC0181A0FC0191A0FC01A163
:101D8000A0FC01B1704700BFEC4600B52DE9005042
:101D90002DE9FF1F4FF000032DE90C0001A9FFF70B
:101DA000F1FBDDF840E012B0704700BFEC4600B533
:101DB0002DE900502DE9FF1F4FF000032DE90C0025
:101DC00001A9FFF719FCDDF840E012B0704700BF31
:101DD000EC4600B52DE900502DE9FF1F4FF0000340
:101DE0002DE90C0001A9FFF729FCDDF840E012B055
:101DF000704700BFEC4600B52DE900502DE9FF1FEC
:101E00004FF000032DE90C0001ABFFF7EBFBDDF811
:101E100040E012B0704700BFEC4600B52DE900501D
:101E20002DE9FF1F4FF000032DE90C0001AAFFF779
:101E30005DFCDDF840E012B0704700BF027A7AB96D
:101E4000437AA3B14268013B10B443721368032183
:101E5000141D01721A024460026010BC180E704713
:101E60000368013A02721A020260180E7047B0202D
:101E7000704700BF00B585B003AA00230092194641
:101E80000C22FFF7EBFB039805B05DF804FB00BFE5
:101E9000F0E700BF2DE9F043054685B00E464FF050
:101EA00000083046FFF7CAFFB028044600F0B280B1
:101EB000070620D500F0F003802B4DD0902B36D0B4
:101EC000A02B60D0B02B74D0C02B00F08B8000F022
:101ED000F803D02B0BD100F00702013242F40022AC
:101EE000052301212846FFF797FD0028D9D00920B6
:101EF00005B0BDE8F0830DF10C09002319468700F9
:101F0000CDF800900D222846FFF7A8FBFFB2039BF7
:101F1000CDF80090043760064CBFDF1BFF1800238C
:101F200019460D2228460397FFF7BCFBB9E700F0DE
:101F30000D030D2BDBD003AF002300F00F02194679
:101F400000972846FFF78AFB0023009719460D22C9
:101F50002846FFF7A7FBA4E73046FFF76FFF2402F0
:101F60002043B0F5004FC2D004010023A2B21946AD
:101F70002846FFF751FD0028B9D114F4004F18BFCF
:101F80004FF001088DE7C24302F007034FF47F6270
:101F90001A41010702F47F624FF0000348BF42F488
:101FA000804219462846FFF737FD00283FF479AFF5
:101FB0009DE7B12833D0B22800F08B80B32839D008
:101FC00000F0FC03B42B92D000F007020132012391
:101FD00042F4002219462846FFF71EFD00283FF470
:101FE00060AF84E7C62842D0C7284CD000F0F80381
:101FF000C02B5BD0C82860D0C9287FF478AF3046AA
:10200000FFF71CFF020300F00F0002F47022013002
:10201000024365E7B8F1000F18D0002068E73046AA
:10202000FFF70CFF024600283FF461AF10F0F00309
:10203000D0D05CE73046FFF701FF010300F00F004E
:1020400001F47021421C01230A43C3E703AC434659
:102050000E22414600942846FFF700FB00942846D4
:1020600043460F224146FFF71DFB404640E73046FE
:10207000FFF7E4FE010300F00F0001F47021421CA1
:1020800003230A43A6E73046FFF7D8FE024600289E
:102090003FF42DAF10F0F0037FF429AF0421284660
:1020A000FFF7BAFC00283FF4FCAE20E700F00F0277
:1020B0000132032342F420228CE73046FFF7BEFEB4
:1020C00000F0F00200F00F031032013343EA023255
:1020D00006E700230DF10C090D221946CDF80090FA
:1020E0002846FFF7BBFA3046FFF7A8FE02064FF07E
:1020F00002070CD5039B00F07F00B8400344304634
:102100000393FFF79BFE030607F10707F2D4039B37
:10211000CDF8009000F07F0403F50172BC4000236D
:10212000144419460D2228460394FFF7BBFAB8E67B
:1021300010B5C26C84B0536803248DF80C401B02A8
:1021400002F108040846D279019301A902948DF89E
:102150000D20FFF79FFE04B010BD00BF08B5FFF7CC
:1021600097FE806C08BD00BF08B5FFF791FEC06CFC
:10217000C379023300EB830008BD00BF704700BF86
:10218000844641EA000313F003036DD1403A41D382
:1021900051F8043B40F8043B51F8043B40F8043B41
:1021A00051F8043B40F8043B51F8043B40F8043B31
:1021B00051F8043B40F8043B51F8043B40F8043B21
:1021C00051F8043B40F8043B51F8043B40F8043B11
:1021D00051F8043B40F8043B51F8043B40F8043B01
:1021E00051F8043B40F8043B51F8043B40F8043BF1
:1021F00051F8043B40F8043B51F8043B40F8043BE1
:1022000051F8043B40F8043B51F8043B40F8043BD0
:10221000403ABDD2303211D351F8043B40F8043B70
:1022200051F8043B40F8043B51F8043B40F8043BB0
:1022300051F8043B40F8043B103AEDD20C3205D380
:1022400051F8043B40F8043B043AF9D2043208D078
:10225000D2071CBF11F8013B00F8013B01D30B88EA
:1022600003806046704700BF082A13D38B078DD0C8
:1022700010F003038AD0C3F10403D21ADB071CBF9A
:1022800011F8013B00F8013B80D331F8023B20F804
:10229000023B7BE7043AD9D3013A11F8013B00F83D
:1022A000013BF9D20B7803704B7843708B788370C5
:1022B00060467047000000000000000000000000C1
:1022C00001F0FF01102A2BDB10F0070F08D010F8E7
:1022D000013B013A8B422DD010F0070F42B3F6D1EB
:1022E000F0B441EA012141EA014122F007047FF004
:1022F00000070023F0E80256083C85EA010586EA5B
:10230000010685FA47F5A3FA87F586FA47F6A5FA96
:1023100087F68EB9EED1F0BC01F0FF0102F00702A2
:1023200032B110F8013B013A83EA010313B1F8D14D
:102330000020704701387047002D06BF354603382E
:10234000073815F0010F07D1013015F4807F02BF67
:10235000013015F4C03F0130F0BC0138704700BFB8
:10236000000000000000000000000000000000006D
:10237000000000000000000000000000000000005D
:1023800090F800F06DE9024520F007016FF0000CB5
:1023900010F0070491F820F040F049804FF000045D
:1023A0006FF00700D1E9002391F840F000F1080038
:1023B00082FA4CF2A4FA8CF283FA4CF3A2FA8CF370
:1023C0004BBBD1E9022382FA4CF200F10800A4FAD7
:1023D0008CF283FA4CF3A2FA8CF3E3B9D1E904232B
:1023E00082FA4CF200F10800A4FA8CF283FA4CF362
:1023F000A2FA8CF37BB9D1E9062301F1200182FA1C
:102400004CF200F10800A4FA8CF283FA4CF3A2FA21
:102410008CF3002BC6D0002A04BF04301A4612BA2F
:10242000B2FA82F2FDE8024500EBD2007047D1E932
:10243000002304F00305C4F100004FEAC50514F0C1
:10244000040F91F840F00CFA05F562EA05021CBF92
:1024500063EA050362464FF00004A9E780B586B041
:1024600000AF786026497A6813465B0013449B00EE
:102470000B4409331B78002B27D107F108031846BA
:1024800006F036FB0323FB721D497A6813465B0096
:1024900013449B000B441B6807F1080211461846C1
:1024A00006F038FB16497A6813465B0013449B001C
:1024B0000B44093303221A707A6813465B001344F5
:1024C0009B000F4A13447B6115E00D497A6813465F
:1024D0005B0013449B000B4409331B78032B08D18A
:1024E0007A6813465B0013449B00054A13447B61E2
:1024F00001E000237B617B6918461837BD4680BD2B
:102500007801002080B485B000AFF8600B467A6097
:10251000FB7200BF1437BD465DF8047B70470000B6
:1025200080B58AB000AFF860B9601346FB71FB68F4
:10253000FB61FB69002B3AD0FB691B7A3B750023DA
:10254000BB7500237B75FB691B680121184606F0EB
:1025500029FBFB691868FB695B6807F114021946DF
:1025600006F040FBFB691A68FB695B681946104678
:1025700006F054FBFB691A68FB695B681946104654
:1025800006F070FB03467B837B8B07EE903AF8EEF8
:10259000677A17EE900AFEF7EBF90DA3D3E9002353
:1025A000FEF73EFA02460B46C7E9082305E04FF066
:1025B00000024FF00003C7E90823B968D7E90823F0
:1025C000C1E9002300BF2837BD4680BDAFF30080BE
:1025D000100010001000F03E80B483B000AF7860AF
:1025E00000BF0C37BD465DF8047B704780B483B0F4
:1025F00000AF786000BF0C37BD465DF8047B7047C4
:1026000080B483B000AF786000BF0C37BD465DF882
:10261000047B704780B584B000AFF860B9607A6021
:10262000BB680F2B06D90A4B0A4A40F2E2210A483E
:1026300008F032F8FA68BB685B01134403F5805375
:1026400010337A681A6000BF1037BD4680BD00BFE6
:1026500088D2000070D40000B4D2000080B584B0ED
:1026600000AFF860B9601346FB71BB680F2B06D949
:102670000D4B0E4A4FF460710D4808F00DF8BB6821
:102680005B0103F580531833FA681344043303F1F4
:10269000424303F580135B010433FA7992B21A8046
:1026A00000BF1037BD4680BD88D200008CD400002A
:1026B000B4D2000090B587B000AFF8607A603B609C
:1026C0000B46FB7200237B61FB681B68032B00F049
:1026D000E481032B05D8012B00F09880022B00F039
:1026E0004781954B00221A60934B1B68934A52F81E
:1026F0002330002B41D1904B1B68914ADB001344DF
:1027000000229A718C4B1B688D4ADB001344002217
:102710001A71894B1B688A4ADB00134400225A71E4
:10272000854B1B68864A4FF4E13142F83310824BE7
:102730001B68184603F03EFE7F4B1B689B01814AD5
:1027400013448149184606F091FC7B4B18687A4B7C
:102750001A6813461B019B1A9B007C4A9918764BFA
:102760001B68DB00764A13441A4607F055FB724B90
:102770001B68724A012142F823107B68B3F1FF3FC6
:1027800020D06D4B1A68724913469B0013449B007E
:102790000B4400221A60684B1A686D4913469B006F
:1027A00013449B000B4408336A4A1A60624B1A6850
:1027B000674913469B0013449B000B440C33664A45
:1027C0001A6015E05C4B1A68614913469B0013447C
:1027D0009B000B44043300221A60574B1A685C4973
:1027E00013469B0013449B000B4410335B4A1A6052
:1027F000514B1B68504A1268594941F823204E4BEF
:102800001B689B00564A13447B61DBE14A4B012263
:102810001A60494B1B68494A52F82330002B41D1BA
:10282000454B1B68464ADB00134400229A71424B19
:102830001B68434ADB00134400221A713E4B1B689D
:102840003F4ADB00134400225A713B4B1B683C4A51
:102850004FF4E13142F83310374B1B68184603F050
:10286000A9FD354B1B689B01364A1344364918466F
:1028700006F0FCFB304B18682F4B1A6813461B01FF
:102880009B1A9B00314A99182B4B1B68DB002C4A82
:1028900013441A4607F0C0FA274B1B68274A012148
:1028A00042F823107B68B3F1FF3F20D0224B1A6817
:1028B000274913469B0013449B000B4444221A6093
:1028C0001D4B1A68224913469B0013449B000B447E
:1028D0000833244A1A60184B1A681D4913469B0096
:1028E00013449B000B440C331F4A1A6015E0124B33
:1028F0001A68174913469B0013449B000B4404338A
:1029000042221A600C4B1A68114913469B0013446B
:102910009B000B441033154A1A60074B1B68064A8C
:1029200012680F4941F82320034B1B689B000C4A97
:1029300013447B6146E100BFAC120020B0120020BE
:10294000CC110020E40E0020B80300206410002009
:1029500004120020180E0020180E0020A00E0020E7
:1029600094120020180E00205C0E0020A00E002003
:10297000AD4B02221A60AC4B1B68AC4A52F82330B4
:10298000002B41D1A84B1B68A94ADB00134400224D
:102990009A71A54B1B68A64ADB00134400221A71EA
:1029A000A14B1B68A24ADB00134400225A719E4BC4
:1029B0001B689F4A4FF4E13142F833109A4B1B6871
:1029C000184603F0F7FC984B1B689B01994A134487
:1029D0009949184606F04AFB934B1868924B1A68BF
:1029E00013461B019B1A9B00944A99188E4B1B6837
:1029F000DB008F4A13441A4607F00EFA8A4B1B6815
:102A00008A4A012142F823107B68B3F1FF3F20D0AE
:102A1000854B1A688A4913469B0013449B000B445C
:102A200000221A60804B1A68854913469B001344A4
:102A30009B000B440833834A1A607B4B1A68804919
:102A400013469B0013449B000B440C337E4A1A60D0
:102A500015E0754B1A687A4913469B0013449B0096
:102A60000B44043300221A606F4B1A6874491346F2
:102A70009B0013449B000B441033744A1A606A4B4A
:102A80001B68694A1268724941F82320664B1B682B
:102A90009B006F4A13447B6194E0634B03221A60EE
:102AA000614B1B68614A52F82330002B41D15E4BC9
:102AB0001B685F4ADB00134400229A715A4B1B6863
:102AC0005B4ADB00134400221A71574B1B68584ABB
:102AD000DB00134400225A71534B1B68544A4FF4D5
:102AE000E13142F83310504B1B68184603F062FC8A
:102AF0004D4B1B689B014F4A13444F49184606F043
:102B0000B5FA494B1868484B1A6813461B019B1AC3
:102B10009B004A4A9918444B1B68DB00444A134403
:102B20001A4607F079F9404B1B68404A012142F8E8
:102B300023107B68B3F1FF3F20D03B4B1A6840491C
:102B400013469B0013449B000B4400221A60364B33
:102B50001A683B4913469B0013449B000B440833FF
:102B60003C4A1A60304B1A68354913469B0013449F
:102B70009B000B440C33384A1A6015E02A4B1A6844
:102B80002F4913469B0013449B000B44043300223F
:102B90001A60254B1A682A4913469B0013449B0070
:102BA0000B4410332D4A1A601F4B1B681E4A1268D3
:102BB000274941F823201C4B1B689B00244A1344DF
:102BC0007B6100BF7B68B3F1FF3F27D0164B1A68CB
:102BD00013461B019B1A9B002833184A13440433E5
:102BE000114A12681E49184606F082FA0E4B186800
:102BF0000D4B1A68124913469B0013449B000B446B
:102C000008331968084B1A680D4C13469B0013448F
:102C10009B0023441B681A4600F0E0F87B691846C5
:102C20001C37BD4690BD00BFAC120020B012002082
:102C3000CC110020E40E0020B80300206410002016
:102C400004120020A00E0020A00E0020E40E0020A0
:102C500094120020A00E0020A00E0020E40E002000
:102C6000892E000080B483B000AF78603960002303
:102C700018460C37BD465DF8047B704780B483B0BE
:102C800000AF7860084611461A460346FB700B46B3
:102C9000BB7013467B70002318460C37BD465DF8A9
:102CA000047B704780B586B000AFF860B9607A6089
:102CB000FB683B613B69002B33D03B691B681F4AB3
:102CC000D35C012B2DD13B691B681D4A52F8233080
:102CD000012B0FD13B691A681A4913469B00134414
:102CE0009B000B4408331B687A681946B868FFF7E5
:102CF00047FA0EE03B691A68124913469B001344D9
:102D00009B000B440C331B687A681946B868FFF7C0
:102D100037FA3B691B68094A0021D1540023FB752F
:102D200006E07A680021B86807F0F8FF2023FB75F9
:102D3000FB7D18461837BD4680BD00BFFC11002042
:102D40007C1200200412002080B586B000AFF8602D
:102D5000B9607A60FB683B613B69002B2AD03B6914
:102D60001B680021184607F0ABF90346082B21D059
:102D70003B691A68134913469B0013449B000B449C
:102D800010331B687A68B9681846FFF7F9F93B6990
:102D900018683B691A680B4913469B0013449B0053
:102DA0000B4410331B687A68194607F065F903462F
:102DB000FB7501E02023FB75FB7D18461837BD46E7
:102DC00080BD00BF0412002080B483B000AF7860E3
:102DD00000BF0C37BD465DF8047B704780B588B0F6
:102DE00000AFF860B9607A60FB68052B06D9214B0B
:102DF000214A40F28911214807F04EFC204AFB6825
:102E000052F82330FB61FB6993F82C301B09DBB2CD
:102E10001A461C4B53F82230BB61FB6993F82C30E7
:102E200003F00F037B61FB695B78DBB2002B01D001
:102E300009231AE0FB6901225A70BB681A467969B6
:102E4000B869FFF7E7FB7A687969B86906F04CF86A
:102E500001227969B869FFF701FC7B69DBB20122C5
:102E60001946B86905F02BFF002318462037BD46E8
:102E700080BD00BFECD200004CD400000CD3000099
:102E800078450020DCDB000080B582B000AF7860C0
:102E90000B46FB707B68184600F004F800BF08374B
:102EA000BD4680BD80B586B000AF78607B68052BDD
:102EB00006D93C4B3C4A40F2AD113C4807F0ECFBD4
:102EC0003B4A7B6852F823307B617B6993F82C3056
:102ED0001B09DBB21A46374B53F822303B617B6942
:102EE00093F82C3003F00F03FB600022F968386977
:102EF000FFF7B4FBFB68DBB200221946386905F026
:102F0000DEFE7B69DB78DBB2002B04D07B691033FB
:102F1000184605F045FB7B6900225A70264A7B68FB
:102F2000134401221A70254A7B6852F82330002B83
:102F30001AD123497A6813469B0013449B000B4423
:102F40000C3319681E487A6813469B0013449B0093
:102F500003441B681A467868FFF740FF174A7B68EE
:102F6000012142F8231019E015497A6813469B00A5
:102F700013449B000B440833196811487A681346C0
:102F80009B0013449B0003441B681A467868FFF7B4
:102F900025FF0A4A7B68002142F8231000BF18373A
:102FA000BD4680BDECD20000A4D400000CD30000CC
:102FB00078450020DCDB0000FC1100207C120020A2
:102FC0000412002080B590B000AF78600B46FB7013
:102FD000FB78002B27D107F1240300221A605A60E6
:102FE0009A60DA601A615A612D4A7B6852F8333070
:102FF0007B62012387F82830012387F829304FF0BE
:10300000FF333B6307F12403184606F019F9244AFD
:103010007B68DB00134401221A717B68DB00204AC5
:103020001344FB6336E0FB78012B31D107F10C032D
:1030300000221A605A609A60DA601A615A61184A6E
:103040007B6852F83330FB6001233B754FF0FF3350
:10305000BB6107F10C03184606F064F9104A7B685F
:10306000DB00134402221A717B68292B0AD97B6882
:103070002C2B07D80A4A7B6852F8333001211846B6
:1030800006F08CF97B68DB00054A1344FB6301E022
:103090000023FB63FB6B18464037BD4680BD00BF75
:1030A0000000002080B586B000AF78607B683B618F
:1030B0003B69002B0BD03B691B79012B07D13B6986
:1030C0001B68184606F078F90346FB7501E00023FB
:1030D000FB753B691B681B0ADBB2FB603B691B6825
:1030E000DBB2BB60FB68022B02D1BB68062B05D0AC
:1030F000FB68002B09D1BB68042B06D1FB7D002B9C
:103100000CBF01230023DBB2FB75FB7D184618378B
:10311000BD4680BD80B586B000AF78600B46FB70C1
:103120007B687B617B69002B2FD07B691B79022B2D
:103130002BD17B691B681B0ADBB23B617B691B6877
:10314000DBB2FB603B69012B05D1FB68162B08D075
:10315000FB68152B05D03B69042B0FD1FB681A2B9C
:103160000CD17B691A68FB78012B14BF0123002363
:10317000DBB21946104606F011F906E07B691B68C0
:10318000FA781146184606F009F900BF1837BD460F
:1031900080BD80B485B000AF78607B68FB60FB6861
:1031A000002B0ED0FB681B79022B03D1FB68002299
:1031B0001A7106E0FB681B79012B02D1FB68002223
:1031C0001A7100BF1437BD465DF8047B704780B5A7
:1031D00082B000AF786005F0EDFB03461846083773
:1031E000BD4680BD80B483B000AF78607B68023399
:1031F00003F1424303F580135B011C3301221A7073
:1032000000BF0C37BD465DF8047B704780B483B0C7
:1032100000AF78607B68023303F1424303F580130B
:103220005B010C3300221A7000BF0C37BD465DF8FD
:10323000047B704780B483B000AF78607B68023352
:1032400003F1424303F580135B010C3301221A7032
:1032500000BF0C37BD465DF8047B704780B483B077
:1032600000AF78600B46FB707B68023303F142438A
:1032700003F580135B0110331A46FB78137000BF0F
:103280000C37BD465DF8047B704780B483B000AF57
:1032900078607B681B79DBB218460C37BD465DF859
:1032A000047B704780B483B000AF78600B46FB703E
:1032B0007B68FA781A7100BF0C37BD465DF8047B55
:1032C000704780B483B000AF78600B46FB707B68BA
:1032D000DB78DBB21A46FB7842FA03F303F0010312
:1032E000002B14BF01230023DBB218460C37BD4668
:1032F0005DF8047B704780B483B000AF78607B6872
:10330000023303F1424303F580135B0114331B784E
:10331000DBB2002B14BF01230023DBB218460C37AD
:10332000BD465DF8047B704780B483B000AF786021
:103330000B46FB707B68023303F1424303F58013B5
:103340005B011833FA781A7000BF0C37BD465DF880
:10335000047B704780B483B000AF78607B68022242
:10336000DA7000BF0C37BD465DF8047B7047000083
:1033700080B584B000AFF860B9601346FB71BB68DC
:103380001F2B05D90B4B0C4AD9210C4807F084F9A7
:10339000BB689B00FA68134403F1424303F58013B2
:1033A0005B0114331A46FB79136000BF1037BD462A
:1033B00080BD00BF74D30000E8D4000080D30000BB
:1033C00080B584B000AFF860B9601346FB71BB688C
:1033D0001F2B05D90D4B0E4AFF210E4807F05CF953
:1033E000FB68BA6853F8223023F0807323F4E0635B
:1033F000FA79120202F4E06243EA0201FB68BA6859
:1034000043F8221000BF1037BD4680BD74D30000C2
:10341000D4D4000080D3000080B584B000AF7860C1
:103420007B681B680F4A52F82330FB607B681B687F
:10343000184600F0EFF97B681B68184605F008FB9A
:10344000F86805F0D7FFF868FFF7CCFE0121F868AF
:10345000FFF76AFF0449786800F0FCF800BF1037F6
:10346000BD4680BDC8D40000A086010080B584B0F0
:1034700000AF78607B681B68054A52F82330FB6018
:10348000F86805F0FDFF002318461037BD4680BDE3
:10349000C8D4000080B584B000AF78600023BB6062
:1034A0007B681B680E4A52F82330FB60F868FFF710
:1034B00022FF0346002B02D0F86805F0F1FF00233D
:1034C000BB6004E000BF00BFBB680133BB60BB68EA
:1034D000C72BF7D9002318461037BD4680BD00BF63
:1034E000C8D4000080B586B000AF78600B46FB7092
:1034F000104B3B617B681B680F4A52F82330FB601E
:1035000000237B610CE0FB781946F868FFF7D9FED1
:103510000346002B01D0002307E07B6901337B6168
:103520007A693B699A42EED3012318461837BD46A3
:1035300080BD00BFA0860100C8D4000080B584B063
:1035400000AF78607B681B68104A52F82330FB603C
:1035500001217868FFF7C6FF0346002B01D0022344
:1035600010E0F868FFF7F6FE07217868FFF7BAFF6A
:103570000346002B01D0022304E00021F868FFF786
:10358000A0FE034618461037BD4680BDC8D40000D3
:1035900080B584B000AF78607B681B680A4A52F837
:1035A0002330FB6001217868FFF79CFF0346002B66
:1035B00001D0012303E0F868FFF7CCFE0023184692
:1035C0001037BD4680BD00BFC8D4000080B584B0B0
:1035D00000AF786039607B681B68094A52F8233075
:1035E000FB603B68DBB21946F868FFF75BFE786862
:1035F000FFF7A4FF034618461037BD4680BD00BF45
:10360000C8D4000080B586B000AFF860B9607A60B9
:10361000FB681B680E4A52F823307B617B68002BE5
:1036200003D07869FFF706FE02E07869FFF7EEFD48
:103630007869FFF72AFE03461A46BB681A70F868D5
:10364000FFF7A6FF034618461837BD4680BD00BFEA
:10365000C8D4000080B584B000AF786039607B6862
:103660001B680E4A52F82330FB607B681B681846C3
:10367000FFF7ADFD0346BB603B68094A82FB0312BE
:103680009211DB17D31A1A460023B968F86805F0BF
:10369000BFFE00BF1037BD4680BD00BFC8D40000CC
:1036A000D34D621090B589B000AFF860B9607A6010
:1036B0003B60F868FFF7DAFE0346002B05D0F86898
:1036C000FFF7E8FE6FF0010355E0BB6843F001032C
:1036D0001946F868FFF77AFF0346002B05D0F86813
:1036E000FFF7D8FE4FF0FF3345E0FB681B68244A24
:1036F00052F82330BB610021B869FFF7AFFD00230A
:10370000FB6124E0FB69002B02D107F1120303E007
:10371000FB69013B7A6813447B613B68013BFA69B2
:103720009A420CBF01230023DBB2FB74FB7C1A46D8
:103730007969F868FFF766FF0346002B04D0F86844
:10374000FFF7A8FEFB6916E0FB690133FB61FA692C
:103750003B689A42D6DB3B6B002B02D0F868FFF740
:1037600099FEFB69013B7A68D418B869FFF78DFDB3
:10377000034623703B6818462437BD4690BD00BF02
:10378000C8D4000080B586B000AFF860B9607A6038
:103790003B60F868FFF76AFE0346002B05D0F86827
:1037A000FFF778FE6FF0010330E0BB6803F0FE0323
:1037B0001946F868FFF70AFF0346002B05D0F868A2
:1037C000FFF768FE4FF0FF3320E000237B6112E03B
:1037D0007B697A6813441B781946F868FFF7F6FE90
:1037E0000346002B04D0F868FFF754FE7B690DE018
:1037F0007B6901337B617A693B689A42E8DB3B6A0B
:10380000002B02D0F868FFF745FE3B6818461837D2
:10381000BD4680BD80B582B000AF78607B68002B6C
:1038200003D07B68012B15D029E00522182116480A
:10383000FFF7C6FD012218211348FFF799FD052265
:1038400019211148FFF7BCFD012219210E48FFF78D
:103850008FFD14E002220A210C48FFF7B1FD01227E
:103860000A210A48FFF784FD02220B210748FFF7CF
:10387000A7FD01220B210548FFF77AFD00BF00BF1D
:103880000837BD4680BD00BF00D0044000B00440F2
:1038900080B584B000AF78600B46FB707B68012B6D
:1038A00011D80C497B687A6841F823207B689B001B
:1038B000084A13441846FFF7AFFD7B689B00054A92
:1038C0001344FB6001E00023FB60FB6818461037DF
:1038D000BD4680BDC812002080B584B000AF7860BE
:1038E00039607B68002B07D03B6819467868FFF782
:1038F000B1FE0023FB7301E00823FB73FB7B18463A
:103900001037BD4680BD80B588B002AFF8607A60E0
:103910003B600B467B8100237B6197F82030002BB6
:103920000CBF01230023DBB23B61FB68002B19D0E5
:103930007B8959003A683B69009313467A68F868B6
:10394000FFF7B0FE03467B617B6913F1020F01D1E3
:10395000012308E07B69B3F1FF3F01D1042302E0BA
:10396000002300E0082318461837BD4680BD80B507
:1039700088B002AFF8607A603B600B467B81002321
:103980007B6197F82030002B0CBF01230023DBB2B2
:103990003B61FB68002B19D07B8959003A683B6971
:1039A000009313467A68F868FFF7ECFE03467B61E4
:1039B0007B6913F1020F01D1012308E07B69B3F1A8
:1039C000FF3F01D1042302E0002300E00823184652
:1039D0001837BD4680BD80B483B000AF786000BFAB
:1039E0000C37BD465DF8047B7047000080B586B09B
:1039F00000AF7861184B1B681B68002B0CBF0123BC
:103A00000023DBB21A46154B1A7011E03B461449ED
:103A1000184603F0A0F800F08FFF0F4B1B681B68DF
:103A2000002B14BF01230023DBB21A460D4B1A7082
:103A30000A4B1B78DBB2002BE8D1084B00221A702E
:103A4000786900F011F8002002F0DEFF002318462C
:103A50001837BD4680BD00BF04D50000BA03002062
:103A6000DC120020D012002080B582B000AF786058
:103A7000074B01221A60074B00221A7002F02EF841
:103A8000054803F055F8002318460837BD4680BDA9
:103A9000F8120020BA030020D412002080B586B0AE
:103AA00000AF7861396102F055FA02F01DFC0A4B53
:103AB0001B6800221A6001F0B7FE00209FED070A84
:103AC00002F0F4FE3B460649184603F044F8002392
:103AD00018461837BD4680BD04D500006F12833AE2
:103AE000D412002080B586B000AF78607B680022D9
:103AF0001A727B6801225A604FF0FF337B61012309
:103B0000FB6007F10C000A237A690021FEF7D2FD61
:103B100002467B681A617B681B694FF4E1311846E5
:103B2000FFF7A0F80123FB740023BB747B681869BE
:103B3000FB7CBA7C0821FFF7A1F87B6801221A728E
:103B400000BF1837BD4680BD80B500AF064B0022D0
:103B5000C3F8D420044B002283F8D0200348FFF799
:103B6000C1FF00BF80BD00BFF8140020C8150020B1
:103B700080B582B000AFB24BB3F89A21B04BA3F836
:103B80008021AF4BB3F89C21AD4BA3F88221AC4B05
:103B9000B3F89E21AA4BA3F88421A94BB3F8A02126
:103BA000A74BA3F88621A64BB3F8A221A44BA3F8F8
:103BB0008821A34BB3F8A421A14BA3F88A21A04BE1
:103BC000B3F8A6219E4BA3F88C219D4BD3E9542337
:103BD0009B49C1E94A239A4BB3F8A821984BA3F813
:103BE0008E21974BB3F8AA21954BA3F89021944BC3
:103BF000D3E956239249C1E94C23914BB3F8AC2148
:103C00008F4BA3F892218E4BB3F8AE218C4BA3F8C7
:103C100094218B4BD3E958238949C1E94E23884B22
:103C2000D3E95A238649C1E95023854BB3F8B02123
:103C3000834BA3F89621824BB3F8B221804BA3F8B3
:103C400098217F4BD3E95C237D49C1E952230222AD
:103C50007C497D48FEF794FA02227C497C48FEF7B5
:103C60008FFA02227B497C48FEF78AFA02227B49BE
:103C70007B48FEF785FA02227A497B48FEF780FAF4
:103C800002227A497A48FEF77BFA022279497A4879
:103C9000FEF776FA082279497948FEF771FA02228E
:103CA00078497948FEF76CFA022278497848FEF79D
:103CB00067FA082277497848FEF762FA02227749C4
:103CC0007748FEF75DFA022276497748FEF758FA00
:103CD000082276497648FEF753FA08227549764855
:103CE000FEF74EFA022275497548FEF749FA02229C
:103CF00074497548FEF744FA082274497448FEF77F
:103D00003FFA4F4B93F8B4214D4B83F8CA204C4BEC
:103D100093F8B6214A4B83F8CC20494B93F8B8214D
:103D2000474B83F8CE20464B93F8BA21444B83F897
:103D3000D020434B93F8BC21414B83F8D220404B19
:103D400093F8BE213E4B83F8D4203D4B93F8C0211D
:103D50003B4B83F8D6203A4B93F8B521384B83F888
:103D6000CB20374B93F8B721354B83F8CD20344B1C
:103D700093F8B921324B83F8CF20314B93F8BB2114
:103D80002F4B83F8D1202E4B93F8BD212C4B83F879
:103D9000D3202B4B93F8BF21294B83F8D520284BF8
:103DA00093F8C121264B83F8D720254B93F8CA21DD
:103DB000234B83F8E020224B93F8CC21204B83F84F
:103DC000E2201F4B93F8CB211D4B83F8E1201C4BC5
:103DD00093F8CD211A4B83F8E320194B93F8D621A1
:103DE000174B83F8EC20164B93F8D821144B83F82B
:103DF000EE20134B93F8D721114B83F8ED20104B95
:103E000093F8D9210E4B83F8EF200D4B93F8EA215C
:103E10000B4B83F800210A4B93F8EC21084B83F8F5
:103E20000221074B93F8EB21054B83F80121044B4A
:103E300093F8ED21024B83F8032100237B608DE092
:103E40000013002086140020B414002080140020E9
:103E5000B614002082140020B8140020841400201E
:103E6000BA14002088140020BC1400208A140020FA
:103E7000BE1400208C140020C01400202814002040
:103E8000C21400208E140020CA14002090140020B8
:103E9000CC14002030140020CE14002092140020F6
:103EA000D614002094140020D814002038140020C8
:103EB000DA14002040140020E214002096140020A0
:103EC000EA14002098140020EC140020481400206C
:103ED000EE1400207B680E332F497A680A4402F5FD
:103EE000E17211782C4A13440A4683F8CA207B6891
:103EF0001A3329497A680A4402F5E7721178264A8A
:103F000013440A4683F8CA207B68263322497A681C
:103F10000A4402F5ED7211781F4A13440A4683F8E9
:103F2000CA207B682E331C497A680A4402F5F17274
:103F30001178194A13440A4683F8CA207B683A3339
:103F400015497A680A4402F5F7721178124A134447
:103F50000A4683F8CA207B6801337B607B68072BA5
:103F6000B8DD0123FB700EE042220C490C48FEF73D
:103F700007F90C4BD3F8E030422209491846FEF706
:103F8000E3FE0346FB70FB78002BEDD100BF00BFC2
:103F90000837BD4680BD00BF00130020CA130020B3
:103FA00088130020F814002080B500AF0D4B93F863
:103FB000D030002B13D10B4B012283F8D020094BBA
:103FC000D3F8D430012B0AD1064B93F8D830002B0C
:103FD00005D0044BD3F8E0301846FEF7F5FE00BFDD
:103FE00080BD00BFF8140020F0B587B000AF0346D5
:103FF00087ED000BFB814FF000024FF00003D7E983
:104000000001FCF793FF0346002B18D04FF000028D
:10401000204BD7E90001FCF77FFF0346002B0BD0B4
:10402000B7F90E40D7E90001FCF7BCFF0346DBB24D
:1040300004FA03F3FB8226E00023FB8223E04FF027
:104040000002154BD7E90001FCF770FF0346002B77
:104050000FD0B7F90E603C687B6883F000452046BE
:104060002946FCF79FFF0346DBB246FA03F3FB82C7
:1040700009E0B7F90E30002B03DA4FF6FF73FB822D
:1040800001E00023FB82B7F9163018461C37BD4605
:10409000F0BD00BF00002E4000002EC080B586B0ED
:1040A00000AF78603960644B93F81031C3F30213AA
:1040B000DBB2032B00F08B80032B00F39D80012BE0
:1040C00002D0022B59D097E03B681B78002B0CD014
:1040D000594A92F81031042161F3061382F8103125
:1040E000554B0022C3F80C219BE07B681B881846C7
:1040F000FCF71CFC4FF00002504BFCF791FC024611
:104100000B4643EC172BB0EE470AF0EE670A02F0BD
:104110003DFD53EC102B10461946FCF71BFF0346E0
:10412000FB60FB68464AB2F8B0219B1A3B61FB6812
:104130003A699A4201D900233B61414BB3F8B2314D
:104140001A463B699B1A7B617A693B699A4201D99D
:1041500000237B61384BD3F80C317A699A4260D8DE
:10416000354A92F81031032161F3061382F81031B9
:10417000314B0022C3F80C2153E02F4BD3F80C3104
:104180002F4AB2F8B22193420CD32B4A92F8103145
:10419000012161F3061382F81031274B0022C3F886
:1041A0000C2140E0264BB3F8A031062B3BD0224A2D
:1041B00092F810316FF3061382F810311E4A92F80C
:1041C0001031052161F3030382F810312BE01A4B03
:1041D000D3F80C311A4AB2F8B021934225D3164ACB
:1041E00092F81031022161F3061382F81031124B5C
:1041F0000022C3F80C2118E00F4BD3F80C31104A01
:10420000B2F8B221934212D30B4A92F81031012135
:1042100061F3061382F81031074B0022C3F80C211A
:1042200005E000BF04E000BF02E000BF00E000BF07
:1042300000BF1837BD4680BDF81400200000E03FE5
:104240000013002080B586B000AF78603960644B01
:10425000B3F81031C3F3C213DBB2032B76D0032BB8
:1042600000F39E80012B02D0022B16D098E05C4B0D
:10427000D3F80C315B4AB2F8AE219342C0F0A5806E
:10428000574AB2F81031022161F3C913A2F8103174
:10429000534B0022C3F80C2197E03B681B78002B9E
:1042A0000CD04F4AB2F81031012161F3C913A2F8C2
:1042B00010314B4B0022C3F80C2188E07B681B882F
:1042C0001846FCF733FB4FF00002474BFCF7A8FB06
:1042D00002460B4643EC172BB0EE470AF0EE670A96
:1042E00002F054FC53EC102B10461946FCF732FE3A
:1042F0000346FB60FB683B4AB2F8AC219B1A3B616A
:10430000FB683A699A4201D900233B61354BB3F807
:10431000AE311A463B699B1A7B617A693B699A42C6
:1043200001D900237B612E4BD3F80C317A699A4274
:104330004DD82B4AB2F81031042161F3C913A2F809
:104340001031274B0022C3F80C2140E0244BD3F856
:104350000C31244AB2F8AE2193420CD3204AB2F871
:104360001031022161F3C913A2F810311C4B002255
:10437000C3F80C212DE01B4BB3F8A031072B28D03C
:10438000174AB2F810316FF3C913A2F81031144A6A
:1043900092F81031052161F3030382F8103118E01F
:1043A0000F4BD3F80C310F4AB2F8AC21934212D321
:1043B0000B4AB2F81031032161F3C913A2F810318E
:1043C000074B0022C3F80C2105E000BF04E000BF4A
:1043D00002E000BF00E000BF00BF1837BD4680BD4F
:1043E000F8140020001300200000E03F80B400AF6C
:1043F000634BB3F8A031072B00F2BC8001A252F846
:1044000023F000BF4F440000A3440000CD4400004F
:10441000214500002544000079440000F7440000D5
:104420004B450000574A92F81031072161F303030E
:1044300082F81031534A92F81231012161F3C4031A
:1044400082F812314F4B0022C3F80C2192E04D4A02
:1044500092F81031062161F3030382F81031494AC2
:10446000B2F81231012161F3C813A2F81231454BA1
:104470000022C3F80C217DE0424A92F81031042159
:1044800061F3030382F810313E4A92F812310121A0
:1044900061F3461382F812313A4B0022C3F80C2123
:1044A00068E0384A92F81031032161F3030382F87F
:1044B0001031344A92F81331012161F3420382F83A
:1044C0001331304B0022C3F80C2153E02D4A92F8EF
:1044D0001031082161F3030382F81031294A92F860
:1044E0001131022161F3840382F81131254B00223E
:1044F000C3F80C213EE0234A92F81031092161F300
:10450000030382F810311F4A92F81031022161F33F
:10451000061382F810311B4B0022C3F80C2129E04E
:10452000184A92F81031012161F3030382F8103127
:10453000144A92F81131032161F3471382F81131C3
:10454000104B0022C3F80C2114E00E4A92F81031EF
:10455000022161F3030382F810310A4AB2F81031E4
:10456000032161F3C913A2F81031064B0022C3F8EE
:104570000C2100BF00BFBD465DF8047B704700BF43
:1045800000130020F8140020B0B586B000AF7860AA
:1045900039606A4B93F81131C3F38203DBB2032B0A
:1045A00000F09780032B00F3A980012B02D0022B8F
:1045B00065D0A3E03B681B78002B0CD05F4A92F8D3
:1045C0001131042161F3840382F811315B4B002225
:1045D000C3F80C21A7E07B68D3E90045584BB3F83A
:1045E000B2311846FCF7A2F902460B46204629468E
:1045F000FCF75EF802460B4643EC172BB0EE470A79
:10460000F0EE670A02F0C2FAB0EE407AF0EE607A9D
:1046100087ED027B4FF000024A4BD7E90201FCF71D
:1046200071FC0346002B14D04FF000024FF0000342
:10463000D7E90201FCF77AFC0346002B06D0D7E944
:104640000201FCF7AFFC0346FB8205E00023FB827E
:1046500002E04FF6FF73FB82384BD3F80C21FB8A44
:104660009A4260D3354A92F81131032161F38403F1
:1046700082F81131314B0022C3F80C2153E02F4B4B
:10468000D3F80C312E4AB2F8B22193420CD32B4A04
:1046900092F81131012161F3840382F81131274B23
:1046A0000022C3F80C2140E0254BB3F8A031022BC7
:1046B0003BD0224A92F811316FF3840382F8113112
:1046C0001E4A92F81031052161F3030382F810317C
:1046D0002BE01A4BD3F80C31194AB2F8B0219342AF
:1046E00025D3164A92F81131022161F3840382F82E
:1046F0001131124B0022C3F80C2118E00F4BD3F8F4
:104700000C310F4AB2F8B221934212D30B4A92F8FD
:104710001131012161F3840382F81131074B00222A
:10472000C3F80C2105E000BF04E000BF02E000BFB9
:1047300000E000BF00BF1837BD46B0BDF814002030
:10474000001300200000F04080B586B002AF786012
:104750007B6800221A727B6801225A60534B002248
:1047600083F81921514B0022C3F81C214F4BD3F879
:104770001C314E4A92F8192111461846FFF788F865
:1047800002467B689A627B68494A5A627B689A6AE9
:104790007B685B6A19461046FFF79EF82B233B7334
:1047A00040237B737B68986A07F10C020023019316
:1047B0000023009302231D21FFF7D9F84FF4FA706C
:1047C00003F02EFF2A23BB727B68986A07F10A0266
:1047D000002301930123009301231D21FFF7C7F854
:1047E0000346BB72BB7A002B14D17B68986A07F131
:1047F0000A02012301930023009301231D21FFF7E7
:1048000082F807F10A0107F10B0301221846FDF7B0
:10481000B7FC01E00023FB722A233B73FB7A23F0F1
:104820000103DBB27B737B68986A07F10C020023FB
:1048300001930023009302231D21FFF798F80E2314
:104840003B7301237B737B68986A07F10C0200239A
:1048500001930023009302231D21FFF788F85B23B7
:104860003B7300237B737B68986A07F10C0200237B
:1048700001930023009302231D21FFF778F82A23D8
:104880003B7319237B737B68986A07F10C02002342
:1048900001930023009302231D21FFF768F87B6832
:1048A00001221A7200BF1037BD4680BD00130020E0
:1048B000A086010080B584B000AF78607B680022DC
:1048C0001A727B6801225A60184B4FF0FF32C3F80E
:1048D0001021164B0122C3F81421144BD3F81031C8
:1048E0000A2200211248FDF7E5FE02467B681A61A4
:1048F0007B681B694FF4E1311846FEF7B3F90B4BA7
:10490000012283F818210023FB737B681869074B89
:1049100093F81831FA7B0821FEF7B0F97B68012281
:104920001A7200BF1037BD4680BD00BF00130020C3
:104930001414002000000000B0B590B002AFB64BD8
:10494000D3E91A01B54BD3E90023FCF7D1FA0346AA
:10495000002B05D1B14BD3E90023AF49C1E91A239C
:10496000AD4B1B6E1846FDF737FEAB4B1B6E072297
:10497000AB491846FDF7D4FDA74BD3E92201A74B5D
:10498000D3E90223FCF7B4FA0346002B05D1A34B6D
:10499000D3E90223A049C1E922239F4BD3F88030F9
:1049A0004422A0491846FEF77DF90346FB714422D4
:1049B0009C499D48FDF7E4FB974B93F8133103F0B6
:1049C0001003DBB2002B61D1934A92F8133143F00C
:1049D000100382F81331904A92F81231012161F3E9
:1049E000020382F81231904B0622A3F8A0218E4BCD
:1049F0003C22A3F89A218C4B7822A3F89C218A4B65
:104A0000FA22A3F89E21884B9622A3F8A221864B76
:104A10000A22A3F8A421844B1022A3F8A6218249DC
:104A200077A3D3E90023C1E954237F4B1422A3F8D1
:104A3000A8217D4BB422A3F8AA217B494FF00002A4
:104A40007A4BC1E95623784B0A22A3F8AC21764B66
:104A5000C822A3F8AE2174496BA3D3E90023C1E9AE
:104A6000582371494FF00002704BC1E95A236E4B35
:104A70000A22A3F8B0216C4BC822A3F8B2216A49DC
:104A800063A3D3E90023C1E95C231AE1624B93F8E5
:104A90001231C3F30203DBB2032B18D0032B1FDC4C
:104AA000012B02D0022B09D01AE05B4A92F8123196
:104AB000042161F3020382F8123102E1564A92F8AE
:104AC0001231042161F3020382F81231F9E0524AF3
:104AD00092F81231042161F3020382F81231F0E0FE
:104AE000FB79002B40F0EC804F4B1B78162B7DD1CF
:104AF0004D4B5B78222B02D0552B0BD06DE0464AF4
:104B000092F81231022161F3020382F81231FFF7A9
:104B10002FF8D5E0404A92F81231032161F30203E5
:104B200082F81231022242494248FDF729FB022253
:104B300041494248FDF724FB022241494148FDF723
:104B40001FFB022240494148FDF71AFB022240495F
:104B50004048FDF715FB02223F494048FDF710FB96
:104B600002223F493F48FDF70BFB08223E493F48E0
:104B7000FDF706FB02223E493E48FDF701FB0222FB
:104B80003D493E48FDF7FCFA08223D493D48FDF706
:104B9000F7FA02223C493D48FDF7F2FA02223C496D
:104BA0003C48FDF7EDFA08223B493C48FDF7E8FA9E
:104BB00008223B493B48FDF7E3FA02223A493B48C9
:104BC000FDF7DEFA02223A493A48FDF7D9FA0822FF
:104BD00039493A48FDF7D4FA72E00F4A92F8123197
:104BE000042161F3020382F8123169E00A4A92F863
:104BF0001231042161F3020382F8123160E000BF38
:104C00009A9999999999C93FCDCCCCCCCCCCFC3F01
:104C10009A99999999990140F8140020C0030020AD
:104C200078140020441300200013002000000C40E2
:104C300002130020A0140020041300209A14002066
:104C4000061300209C140020081300209E1400204E
:104C50000A130020A21400200C130020A41400202A
:104C60000E130020A6140020101300205014002062
:104C700018130020A81400201A130020AA140020E2
:104C80001C1300205814002024130020AC14002012
:104C900026130020AE1400202813002060140020EA
:104CA000301300206814002038130020B0140020B6
:104CB0003A130020B21400203C130020701400208E
:104CC00000BF7E4BD3E912017D4BD3E90423FCF7EF
:104CD0000FF90346002B05D1794BD3E9042377491B
:104CE000C1E91223754B1B6C1846FDF775FC734B1D
:104CF0001B6C072273491846FDF712FC6F4BD3E972
:104D000032016F4BD3E90623FCF7F2F80346002B80
:104D100005D16B4BD3E906236849C1E93223674BC0
:104D2000D3F8C0301846FEF7BDF903467B71644BDB
:104D3000D3E91C45644BB3F89A311846FBF7F6FDEE
:104D400002460B4620462946FBF794FF02460B46D7
:104D5000C7E90823594BD3E92A01594BD3E9122358
:104D6000FCF7C6F80346002B05D1554BD3E91223B7
:104D70005249C1E92A23514BD3F8A0301846FEF717
:104D800091F90346BB71504BB3F8A0214C4BB3F8DB
:104D90007A309A4206D34A4BD3E90E234A49C1E9F5
:104DA0005E2305E0464BD3E910234749C1E95E2362
:104DB000454BD3E95E014FF000024FF00003FCF7D2
:104DC000BFF80346002B00F028813C4BD3E90401D7
:104DD0003B4BD3E90823FCF78BF80346002B05D1A6
:104DE000374BD3E908233549C1E904230123FB717B
:104DF000324B986AFA1D002301930123009301238B
:104E00001D21FEF7B4FD0346FB71FB79002B5DD13C
:104E10002A4B986A07F110020123019300230093A3
:104E200006231D21FEF76FFD07F1100107F118039E
:104E300006221846FDF7A4F907F1180107F1080347
:104E400002221846FDF79CF97B7A3B733B7A7B7311
:104E500007F10C0107F1180302221846FDF790F93B
:104E600007F11803991C07F1080302221846FDF701
:104E700087F97B7A3B733B7A7B7307F10C0107F16F
:104E80001803023302221846FDF77AF907F11803D6
:104E9000191D07F1080302221846FDF771F97B7A04
:104EA0003B733B7A7B7307F10C0107F11803043362
:104EB00002221846FDF764F90EE000BFF814002046
:104EC000C0030020781400200013002000233B833F
:104ED00000237B830023BB83B7F918309FEDC60BFB
:104EE0001846FFF781F803461846FBF72FFD0246E8
:104EF0000B46FBF7DFFB02460B4610461946C0A3E4
:104F0000D3E90023FBF78CFD02460B4610461946F9
:104F10004FF00002BC4BFBF7ADFE02460B4643ECE4
:104F2000172BB0EE470AF0EE670A05F01DFB55ECB3
:104F3000104BB7F91A309FEDB00B1846FFF754F835
:104F400003461846FBF702FD02460B46FBF7B2FB91
:104F500002460B4610461946A9A3D3E90023FBF7E6
:104F60005FFD02460B46104619464FF00002A64B65
:104F7000FBF780FE02460B4643EC172BB0EE470AC8
:104F8000F0EE670A05F0F0FA53EC102B20462946A4
:104F9000FBF790FB02460B4614461D46B7F91C3042
:104FA0009FED950B1846FFF71FF803461846FBF7D1
:104FB000CDFC02460B46FBF77DFB02460B46104636
:104FC00019468FA3D3E90023FBF72AFD02460B46BF
:104FD000104619464FF000028B4BFBF74BFE024682
:104FE0000B4610461946894BD3E90C23FBF760FBAF
:104FF00002460B4643EC172BB0EE470AF0EE670A69
:1050000005F0B2FA53EC102B20462946FBF752FB71
:1050100002460B467E49C1E948237D4BD3E948014E
:105020007B4BD3E954230124FBF780FF0346002B7D
:1050300001D100231C46E3B287F83130744BB3F83A
:10504000AA311A46724BB3F89A31D31A7B63704B6C
:10505000B3F8AA311A467B6B934201D900237B63D4
:105060006B4BB3F8A431002B0AD17B6B9BB2002BA6
:1050700002D100237B862BE04FF6FF737B8627E06F
:105080007B6B9AB2624BB3F8A431B2FBF3F37B862D
:105090007B6B9AB25E4BB3F8A431798E11FB03F3AC
:1050A0009BB2D31AFB85FB8D002B11D0FA8D584B88
:1050B000B3F8A4315B089BB21946554BB3F8A43141
:1050C00003F001030B449A4202DB7B8E01337B86A3
:1050D000504BB3F81431002B05D14D4BB3F89A2146
:1050E0004C4BA3F8142197F83130002B20D0494BBA
:1050F000B3F814311A467B8E13447B637B6BB3F594
:10510000803F02D34FF6FF737B637B6B9AB2414BB8
:10511000A3F814217B6B9AB23D4BB3F8AA319A42A3
:1051200014D93B4BB3F8AA213A4BA3F814210DE054
:10513000384BB3F81421364BB3F89A319A4205D262
:10514000334BB3F89A21334BA3F81421314BD3F8E6
:105150000C31B3F1FF3F06D02E4BD3F80C310133A5
:105160002C4AC2F80C312B4B93F8133103F008038F
:10517000DBB2002B0FD1274A92F8133143F008031A
:1051800082F81331234A92F81031052161F30303A9
:1051900082F810312FE31F4B93F81031C3F3030350
:1051A000DBB2013B072B00F20F8301A252F823F080
:1051B000D1510000A5530000B1530000DD540000A0
:1051C000BD550000C3550000DD560000B957000072
:1051D000104B93F81131C3F34213DBB2032B00F0F1
:1051E0009A80032B00F3C180012B15D0022B29D00C
:1051F000BBE000BFAFF3008000000000000000C073
:1052000008AC1C5A643BCF3F00408F40C0030020D5
:1052100000130020F8140020AC4BD3F80C31AC4A3A
:10522000B2F8AE219342C0F0B580A84A92F811318D
:10523000022161F3471382F81131A44B0022C3F815
:105240000C21A7E07B79002B0CD0A04A92F81131F9
:10525000012161F3471382F811319C4B0022C3F8FE
:105260000C2199E0D7E90845994BB3F8AE311846BF
:10527000FBF75CFB02460B4620462946FBF718FA73
:1052800002460B4643EC172BB0EE470AF0EE670AD6
:1052900001F07CFCB0EE407AF0EE607A8C4B83ED4E
:1052A0005E7B8B4BD3E95E014FF00002894BFBF72D
:1052B00029FE0346002B18D0854BD3E95E014FF041
:1052C00000024FF00003FBF731FE0346002B09D02C
:1052D0007F4BD3E95E2310461946FBF763FE034676
:1052E0007B8605E000237B8602E04FF6FF737B861A
:1052F000764BD3F80C217B8E9A424DD3734A92F8A9
:105300001131042161F3471382F811316F4B0022F0
:10531000C3F80C2140E06D4BD3F80C316C4AB2F865
:10532000AE2193420CD3694A92F81131022161F304
:10533000471382F81131654B0022C3F80C212DE090
:10534000634BB3F8A031032B28D0604A92F8113197
:105350006FF3471382F811315C4A92F8103105213E
:1053600061F3030382F8103118E0584BD3F80C3185
:10537000574AB2F8AC21934212D3544A92F81131F1
:10538000032161F3471382F81131504B0022C3F817
:105390000C2105E000BF2EE200BF2CE200BF2AE294
:1053A00000BF28E27B1D19464B48FEF74BFF22E267
:1053B000464B93F8133103F00603DBB2022B6ED198
:1053C000D7E90845424BB3F8AC311846FBF7AEFAC3
:1053D00002460B4620462946FBF76AF902460B4671
:1053E00043EC172BB0EE470AF0EE670A01F0CEFB54
:1053F000B0EE407AF0EE607A354B83ED5E7B344B55
:10540000D3E95E014FF00002324BFBF77BFD034610
:10541000002B18D02E4BD3E95E014FF000024FF065
:105420000003FBF783FD0346002B09D0284BD3E98B
:105430005E2310461946FBF7B5FD03467B8605E063
:1054400000237B8602E04FF6FF737B861F4BD3F869
:105450000C217B8E9A420CD31C4A92F81331022104
:1054600061F3420382F81331184B0022C3F80C2178
:10547000B0E1174BB3F8A031012B00F0AB81134A18
:1054800092F813316FF3420382F813310F4A92F806
:105490001031052161F3030382F810319AE10B4BBF
:1054A000D3F80C310A4AB2F8AC219342C0F0928191
:1054B000064A92F81331012161F3420382F8133155
:1054C000024B0022C3F80C2184E100BFF814002035
:1054D000001300200000F0400C160020C04B93F891
:1054E000123103F06003DBB2202B51D1BC4BB3F877
:1054F00014311846FBF71AFA4FF00002B94BFBF7CC
:105500008FFA02460B4643EC172BB0EE470AF0EE3B
:10551000670A01F03BFB53EC102B10461946FBF7D2
:1055200019FD0346BB62BB6AAF4AB2F8AC219B1AB5
:105530007B63BB6A7A6B9A4201D900237B63A84BD9
:10554000D3F80C317A6B9A420CD8A54A92F81231F2
:10555000022161F3461382F81231A14B0022C3F8F5
:105560000C2139E1A04BB3F8A031052B00F03481B8
:105570009B4A92F812316FF3461382F81231984A1F
:1055800092F81031052161F3030382F8103123E111
:10559000934BD3F80C31944AB2F8AC219342C0F04B
:1055A0001B818F4A92F81231012161F3461382F870
:1055B00012318B4B0022C3F80C210DE1FEF716FFD0
:1055C00019E1874BB3F8123103F4C0739BB2802BFF
:1055D0006ED1D7E90845844BB3F8B0311846FBF7D4
:1055E000A5F902460B4620462946FBF761F802461C
:1055F0000B4643EC172BB0EE470AF0EE670A01F0BA
:10560000C5FAB0EE407AF0EE607A774B83ED5E7BC0
:10561000754BD3E95E014FF00002744BFBF772FC4F
:105620000346002B18D0704BD3E95E014FF0000207
:105630004FF00003FBF77AFC0346002B09D06A4BBE
:10564000D3E95E2310461946FBF7ACFC03467B8684
:1056500005E000237B8602E04FF6FF737B86604BFC
:10566000D3F80C217B8E9A420CD35D4AB2F81231EA
:10567000022161F3C813A2F81231594B0022C3F87A
:105680000C21ABE0584BB3F8A031002B00F0A68002
:10569000534AB2F812316FF3C813A2F81231504ACC
:1056A00092F81031052161F3030382F8103195E07F
:1056B0004B4BD3F80C314C4AB2F8B0219342C0F0B6
:1056C0008D80474AB2F81231012161F3C813A2F864
:1056D0001231434B0022C3F80C217FE0404B93F87A
:1056E000123103F01803DBB2082B50D13E4BB3F854
:1056F000A031042B0FD03A4A92F812316FF3C40351
:1057000082F81231364A92F81031052161F3030311
:1057100082F810316EE0324BB3F814311846FBF7C3
:1057200005F94FF000022F4BFBF77AF902460B46C2
:1057300043EC172BB0EE470AF0EE670A01F026FAA9
:1057400053EC102B10461946FBF704FC0346BB62D2
:10575000BB6A254AB2F8B0219B1A7B63BB6A7A6B9D
:105760009A4201D900237B631D4BD3F80C317A6B2D
:105770009A423FD81A4A92F81231022161F3C403C7
:1057800082F81231164B0022C3F80C2132E0144B80
:10579000D3F80C31144AB2F8B02193422AD3104AFC
:1057A00092F81231012161F3C40382F812310C4BDB
:1057B0000022C3F80C211DE0BA1D07F12003114699
:1057C0001846FEF7E1FE16E0BB1D19460848FEF735
:1057D00065FC10E000BF0EE000BF0CE000BF0AE077
:1057E000F81400200000E03F001300200000F0400B
:1057F0000C16002000BF0B4BD3F8083197F831206E
:1058000011461846FDF786FC064BD3F8F43097F89E
:10581000312011461846FDF77DFC00BF3837BD46E4
:10582000B0BD00BFF814002080B584B000AFA04B1D
:10583000B3F878209F4BA3F81421FEF785F99D4B10
:1058400000225A609B4B0022DA619A4B00221A76A2
:10585000984B00221A70964BD3E908239549C1E969
:1058600004239448FEF770FF914BD3E90A23924931
:10587000C1E948238F4B012283F850208D4B002231
:105880005A658C494FF000028C4BC1E91A23894BB1
:10589000002283F85020864BD3E900238549C1E9D3
:1058A0001A23874BFB60834B002283F85820814BDF
:1058B00001225A651020FCF7D1FD0246FB681A61EF
:1058C0007D4B002283F80C217A4B1B6E7A4A92F8AA
:1058D0000C1100221846FCF715FE764B012283F8C6
:1058E0005820744B00225A67724B002283F87020B4
:1058F0006F4BD3E902236F49C1E922237148FEF7B8
:10590000D9FF6C4B012283F830206A4B00225A6386
:1059100068494FF00002694BC1E91223654B002230
:1059200083F83020624BD3E904236249C1E9122392
:10593000654BFB605F4B002283F838205D4B0122F2
:105940005A631120FCF78AFD0246FB681A615A4B24
:10595000002283F80C21574B1B6C574A92F80C110C
:1059600000221846FCF7CEFD524B012283F8382066
:10597000504B012283F8B0204E4B0022C3F8B420D4
:105980004C494FF000024D4BC1E93223494B0022F4
:1059900083F8B020464BD3E906234649C1E93223B8
:1059A0004A4BBB60434B002283F8B820414B012295
:1059B000C3F8B42000210020FDF704FB0246BB68B9
:1059C0001A613C4B012283F8B8203A4B012283F83C
:1059D0009020384B0022C3F8942036494FF0000243
:1059E000364BC1E92A23334B002283F89020304BF9
:1059F000D3E912232F49C1E92A23354BBB602D4B34
:105A0000002283F898202B4B0122C3F89420002118
:105A10000120FDF7D7FA0246BB681A61254B012227
:105A200083F89820234B012283F8F820214B002291
:105A3000C3F8FC201F4B002283F8F820254B7B6025
:105A40001C4B002283F800211A4B0122C3F8FC20D2
:105A500001212B20FDF7B6FA02467B681A61154B2F
:105A6000012283F80021134B012283F8E420114B1B
:105A70000022C3F8E8200F4B002283F8E420164BE5
:105A80007B600C4B002283F8EC200A4B0122C3F808
:105A9000E82001212C20FDF795FA02467B681A6167
:105AA000044B012283F8EC2000BF1037BD4680BDB7
:105AB000C0030020F8140020001300200000F0BFF5
:105AC000481500206815002028150020A815002082
:105AD00088150020F0150020DC15002080B582B06C
:105AE00000AF6F4B93F85030002B16D16C4B012256
:105AF00083F850206A4B5B6D012B0ED1684B93F8F5
:105B00005830002B09D0664B1B6E1846FCF76EFD13
:105B1000634B1B6E1846FCF773FD614B93F87030B6
:105B2000002B12D15E4B012283F870205C4B5B6F1F
:105B3000012B0AD15A4B93F87830002B05D0584BE3
:105B4000D3F880301846FDF73FF9FEF72DFA544B95
:105B500093F83030002B16D1514B012283F83020BE
:105B60004F4B5B6B012B0ED14D4B93F83830002B14
:105B700009D04B4B1B6C1846FCF738FD484B1B6C8F
:105B80001846FCF73DFD464B93F8B030002B13D17F
:105B9000434B012283F8B020414BD3F8B430012BA2
:105BA0000AD13F4B93F8B830002B05D03C4BD3F8CB
:105BB000C0301846FDF7EDFA394B93F89030002BC2
:105BC00013D1374B012283F89020354BD3F8943012
:105BD000012B0AD1324B93F89830002B05D0304B73
:105BE000D3F8A0301846FDF7D4FA2D4B1B78002BC4
:105BF0000FD12B4B01221A70294B5B68012B08D166
:105C0000274B1B7A002B04D0254B9B6A1846FDF7C7
:105C1000E2FE244B7B607B681B78002B09D17B68FC
:105C200001221A707B685B68012B02D17B6802221B
:105C30005A601B4B93F8F830002B13D1184B0122FC
:105C400083F8F820164BD3F8FC30012B0AD1144B03
:105C500093F80031002B05D0114BD3F808311846CA
:105C6000FDF797FA0E4B93F8E430002B13D10C4B51
:105C7000012283F8E4200A4BD3F8E830012B0AD143
:105C8000074B93F8EC30002B05D0054BD3F8F430DC
:105C90001846FDF77EFA00BF0837BD4680BD00BF3D
:105CA000F81400201015002080B489B000AF294BF3
:105CB000FB60294A294B9A4216D00023FB610AE077
:105CC000264AFB6952F823202349FB6941F8232027
:105CD000FB690133FB61FB689B08FA699A42EFD3C9
:105CE0001F4B1D4A9A6002E01D4B1C4A9A601D4BD7
:105CF000BB611D4B7B611D4BBB60BA687B69D31ACE
:105D0000FB6107E07A69531C7B61BB69591CB9616F
:105D100012781A70FB695A1EFA61002BF2D1144BEB
:105D20003B61144B7B607A683B69D31AFB6104E0EA
