:1000000000000020FD0400001375000019750000B9
:100010001F750000257500002B7500000000000012
:100020000000000000000000000000006D0500005E
:100030003175000000000000130600007306000088
:10004000D1730000DF730000ED730000FB7300004C
:100050000974000017740000257400003374000058
:10006000417400004F7400005D7400006B74000068
:10007000797400008774000095740000A374000078
:10008000B1740000377500003D7500004375000035
:10009000497500004F750000557500005B75000044
:1000A00061750000677500006D75000073750000D4
:1000B000797500007F75000085750000BF74000031
:1000C0008B750000CD74000091750000DB7400009A
:1000D00097750000E97400009D750000A37500008D
:1000E000A9750000AF750000B5750000BB75000074
:1000F000C1750000C7750000CD750000D375000004
:100100000D0500000D0500000D0500000D050000A7
:10011000D9750000DF750000E5750000EB75000083
:10012000F1750000F7750000FD7500000376000012
:10013000097600000F760000157600001B7600009F
:100140002176000027760000F77400002D7600006D
:100150000575000033760000397600003F76000018
:10016000457600004B76000051760000577600007F
:100170005D76000063760000697600006F7600000F
:10018000757600000D0500000D0500000D0500004E
:100190000D0500000D0500000D0500000D05000017
:1001A0000D0500000D0500000D0500000D05000007
:1001B0000D0500000D0500000D0500000D050000F7
:1001C0000D0500000D0500000D0500000D050000E7
:1003F0000D0500000D0500000D050000FFFFFFFFCB
:10040000FFFFFFFFFFFFFFFFFFFFFFFFFEFFFFFFFD
:1004400010B5054C237833B9044B13B10448AFF30E
:1004500000800123237010BDE81000200000000080
:10046000CCFC000008B5034B1BB103490348AFF3B4
:10047000008008BD00000000EC100020CCFC000053
:10048000A3F5803A704700BF174B002B08BF134BF2
:100490009D46FFF7F5FF00218B460F461348144A8F
:1004A000121A0BF0E3FE0E4B002B00D098470D4BB9
:1004B000002B00D098470020002104000D000D48BB
:1004C000002802D00C480BF0ADFB0BF0F1FB200034
:1004D000290003F041FC0BF0B1FB00BF0000080055
:1004E00000000000FD77000000000020E810002060
:1004F000884A002025BC00005DBC000072B606F0F2
:100500007FFB06F015FB62B6FFF7BEFFFFF7FEBFED
:1005100080F309887047EFF309807047684680F3DD
:1005200009885A480078C00714BF0220032080F3CE
:1005300014887047DFF858C1EFF305831B0618BF16
:100540006047EFF31483DB0708BF604700DF7047A5
:10055000DFF840C1EFF305831B0618BF6047EFF3D8
:100560001483DB0708BF604700DF7047EFF30980A3
:10057000816911F8021CE1BB90E80F1010B5E0474B
:10058000BDE81040EFF3098C8CE80700424B93E87C
:100590000600914208BF704741B91EF0100F16D1F6
:1005A0003E49086820F00100086010E01EF0100FBE
:1005B00006BF2CED108A0120002081F825002CE9CF
:1005C000F00FC1F828C00CB408F01AFC0CBC1A607B
:1005D000D2F828C0BCE8F00F92F8250000280EBF22
:1005E0006FF0020E6FF0120EBCEC108A8CF30988CB
:1005F000704710B52A4A1268914209D8294C54F81C
:10060000214090E80F10A047EFF3098C8CE80F0011
:1006100010BD10B508F066FBBDE810401E4B93E816
:100620000600914208BF7047EFF3098C1EF0100FCF
:1006300006BF2CED108A0120002081F825002CE94E
:10064000F00FC1F828C00CB408F0DAFB0CBC1A603B
:10065000D2F828C0BCE8F00F92F8250000280EBFA1
:100660006FF0020E6FF0120EBCEC108A8CF309884A
:10067000704710B508F0A6FBFFF7CEBF10B508F025
:100680009FFB08F09FFBFFF7C7BF0000FCEA0000DC
:10069000718600008D860000244A002034EF00E0BF
:1006A00000000000FCFFFFFF81F0004102E000BFFE
:1006B00083F0004330B54FEA41044FEA430594EA22
:1006C000050F08BF90EA020F1FBF54EA000C55EA5D
:1006D000020C7FEA645C7FEA655C00F0E2804FEA2E
:1006E0005454D4EB5555B8BF6D420CDD2C4480EA10
:1006F000020281EA030382EA000083EA010180EA40
:10070000020281EA0303362D88BF30BD11F0004F8D
:100710004FEA01314FF4801C4CEA113102D04042C3
:1007200061EB410113F0004F4FEA03334CEA1333FE
:1007300002D0524263EB430394EA050F00F0A78016
:10074000A4F10104D5F1200E0DDB02FA0EFC22FA11
:1007500005F2801841F1000103FA0EF2801843FA05
:1007600005F359410EE0A5F120050EF1200E012AF6
:1007700003FA0EFC28BF4CF0020C43FA05F3C01834
:1007800051EBE37101F0004507D54FF0000EDCF1AD
:10079000000C7EEB00006EEB0101B1F5801F1BD356
:1007A000B1F5001F0CD349085FEA30004FEA3C0C5A
:1007B00004F101044FEA445212F5800F80F09A8050
:1007C000BCF1004F08BF5FEA500C50F1000041EB54
:1007D000045141EA050130BD5FEA4C0C404141EB58
:1007E0000101013C28BFB1F5801FE9D291F0000F53
:1007F00004BF01460020B1FA81F308BF2033A3F102
:100800000B03B3F120020CDA0C3208DD02F1140CF8
:10081000C2F10C0201FA0CF021FA02F10CE002F133
:100820001402D8BFC2F1200C01FA02F120FA0CFC2C
:10083000DCBF41EA0C019040E41AA2BF01EB045175
:10084000294330BD6FEA04041F3C1CDA0C340EDC73
:1008500004F11404C4F1200220FA04F001FA02F3B6
:1008600040EA030021FA04F345EA030130BDC4F174
:100870000C04C4F1200220FA02F001FA04F340EA69
:100880000300294630BD21FA04F0294630BD94F01A
:10089000000F83F4801306BF81F480110134013D01
:1008A0004EE77FEA645C18BF7FEA655C29D094EA72
:1008B000050F08BF90EA020F05D054EA000C04BFF0
:1008C0001946104630BD91EA030F1EBF00210020DB
:1008D00030BD5FEA545C05D14000494128BF41F07A
:1008E000004130BD14F580043CBF01F5801130BDDE
:1008F00001F0004545F0FE4141F470014FF0000069
:1009000030BD7FEA645C1ABF194610467FEA655C19
:100910001CBF0B46024650EA013406BF52EA0335BB
:1009200091EA030F41F4002130BD00BF90F0000FA9
:1009300004BF0021704730B54FF4806404F13204E5
:100940004FF000054FF0000150E700BF90F0000F9E
:1009500004BF0021704730B54FF4806404F13204C5
:1009600010F0004548BF40424FF000013EE700BF95
:1009700042004FEAE2014FEA31014FEA02701FBF25
:1009800012F07F4393F07F4F81F06051704732F057
:100990007F4208BF704793F07F4F04BF41F40021AE
:1009A000704730B54FF4607401F0004521F000410C
:1009B0001CE700BF50EA010208BF704730B54FF096
:1009C00000050AE050EA010208BF704730B511F097
:1009D000004502D5404261EB41014FF4806404F1CF
:1009E00032045FEA915C3FF4D8AE4FF003025FEA55
:1009F000DC0C18BF03325FEADC0C18BF033202EBD9
:100A0000DC02C2F1200300FA03FC20FA02F001FA32
:100A100003FE40EA0E0021FA02F11444BDE600BFD5
:100A200070B54FF0FF0C4CF4E06C1CEA11541DBF84
:100A30001CEA135594EA0C0F95EA0C0F00F0DEF84F
:100A40002C4481EA030621EA4C5123EA4C5350EA34
:100A5000013518BF52EA033541F4801143F4801385
:100A600038D0A0FB02CE4FF00005E1FB02E506F016
:100A70000042E0FB03E54FF00006E1FB03569CF06B
:100A8000000F18BF4EF0010EA4F1FF04B6F5007F71
:100A900064F5407404D25FEA4E0E6D4146EB0606E3
:100AA00042EAC62141EA55514FEAC52040EA5E506C
:100AB0004FEACE2EB4F1FD0C88BFBCF5E06F1ED816
:100AC000BEF1004F08BF5FEA500E50F1000041EB4D
:100AD000045170BD06F0004646EA010140EA0200FA
:100AE00081EA0301B4EB5C04C2BFD4EB0C0541EA1C
:100AF000045170BD41F480114FF0000E013C00F331
:100B0000AB8014F1360FDEBF002001F0004170BD54
:100B1000C4F10004203C35DA0C341BDC04F114046D
:100B2000C4F1200500FA05F320FA04F001FA05F2F9
:100B300040EA020001F0004221F0004110EBD370C6
:100B400021FA04F642EB06015EEA430E08BF20EAF2
:100B5000D37070BDC4F10C04C4F1200500FA04F395
:100B600020FA05F001FA04F240EA020001F0004127
:100B700010EBD37041F100015EEA430E08BF20EA9A
:100B8000D37070BDC4F1200500FA05F24EEA020EE2
:100B900020FA04F301FA05F243EA020321FA04F011
:100BA00001F0004121FA04F220EA020000EBD370C8
:100BB0005EEA430E08BF20EAD37070BD94F0000FC8
:100BC0000FD101F00046400041EB010111F4801FFC
:100BD00008BF013CF7D041EA060195F0000F18BFAD
:100BE000704703F00046520043EB030313F4801FE9
:100BF00008BF013DF7D043EA0603704794EA0C0FA3
:100C00000CEA135518BF95EA0C0F0CD050EA4106B8
:100C100018BF52EA4306D1D181EA030101F0004135
:100C20004FF0000070BD50EA410606BF104619465D
:100C300052EA430619D094EA0C0F02D150EA013669
:100C400013D195EA0C0F05D152EA03361CBF1046AA
:100C500019460AD181EA030101F0004141F0FE4149
:100C600041F470014FF0000070BD41F0FE4141F4CD
:100C7000780170BD70B54FF0FF0C4CF4E06C1CEACD
:100C800011541DBF1CEA135594EA0C0F95EA0C0F82
:100C900000F0A7F8A4EB050481EA030E52EA03353D
:100CA0004FEA013100F088804FEA03334FF080555E
:100CB00045EA131343EA12634FEA022245EA11158B
:100CC00045EA10654FEA00260EF000419D4208BF3C
:100CD000964244F1FD0404F5407402D25B084FEAE9
:100CE0003202B61A65EB03055B084FEA32024FF495
:100CF00080104FF4002CB6EB020E75EB030E22BFF2
:100D0000B61A754640EA0C005B084FEA3202B6EBB1
:100D1000020E75EB030E22BFB61A754640EA5C0060
:100D20005B084FEA3202B6EB020E75EB030E22BFF0
:100D3000B61A754640EA9C005B084FEA3202B6EBF1
:100D4000020E75EB030E22BFB61A754640EADC00B0
:100D500055EA060E18D04FEA051545EA16754FEA12
:100D600006164FEAC30343EA52734FEAC2025FEA30
:100D70001C1CC0D111F4801F0BD141EA00014FF0BF
:100D800000004FF0004CB6E711F4801F04BF014390
:100D90000020B4F1FD0C88BFBCF5E06F3FF6AFAEAC
:100DA000B5EB030C04BFB6EB020C5FEA500C50F13C
:100DB000000041EB045170BD0EF0004E4EEA1131BF
:100DC00014EB5C04C2BFD4EB0C0541EA045170BDC6
:100DD00041F480114FF0000E013C90E645EA060E0A
:100DE0008DE60CEA135594EA0C0F08BF95EA0C0F38
:100DF0003FF43BAF94EA0C0F0AD150EA01347FF480
:100E000034AF95EA0C0F7FF425AF104619462CE756
:100E100095EA0C0F06D152EA03353FF4FDAE1046B9
:100E2000194622E750EA410618BF52EA43067FF40A
:100E3000C5AE50EA41047FF40DAF52EA43057FF49A
:100E4000EBAE12E74FF0FF3C06E000BF4FF0010CA5
:100E500002E000BF4FF0010C4DF804CD4FEA410C09
:100E60007FEA6C5C4FEA430C18BF7FEA6C5C1BD0D6
:100E700001B050EA410C0CBF52EA430C91EA030F57
:100E800002BF90EA020F0020704710F1000F91EAB4
:100E9000030F58BF994208BF90422CBFD8176FEA82
:100EA000E37040F0010070474FEA410C7FEA6C5C50
:100EB00002D150EA013C07D14FEA430C7FEA6C5C57
:100EC000D6D152EA033CD3D05DF8040B704700BF83
:100ED0008446104662468C461946634600E000BFD1
:100EE00001B5FFF7B7FF002848BF10F1000F01BDA3
:100EF0004DF808EDFFF7F4FF0CBF012000205DF86E
:100F000008FB00BF4DF808EDFFF7EAFF34BF0120F2
:100F100000205DF808FB00BF4DF808EDFFF7E0FF8B
:100F200094BF012000205DF808FB00BF4DF808EDDC
:100F3000FFF7CEFF94BF012000205DF808FB00BF43
:100F40004DF808EDFFF7C4FF34BF012000205DF825
:100F500008FB00BF4FEA410212F5001215D211D56D
:100F60006FF47873B3EB625212D94FEAC12343F0A6
:100F7000004343EA505311F0004F23FA02F018BF28
:100F8000404270474FF00000704750EA013005D1F1
:100F900011F0004008BF6FF0004070474FF00000B4
:100FA000704700BF4A0011D212F5001211D20DD5C0
:100FB0006FF47873B3EB62520ED44FEAC12343F05F
:100FC000004343EA505323FA02F070474FF0000009
:100FD000704750EA013002D14FF0FF3070474FF0B8
:100FE0000000704753B94AB9002908BF00281CBF48
:100FF0004FF0FF314FF0FF3001F0C0B8ADF1080CF9
:101000006DE904CE00F006F8DDF804E0DDE9022326
:1010100004B070472DE9F047089D04468C46002B2C
:1010200040F083808A42174647D9B2FA82F242B131
:10103000C2F1200024FA00F09140974040EA010CF0
:1010400094404FEA1748230CBCFBF8F61FFA87FEC2
:1010500008FB16C143EA014306FB0EF1994209D988
:10106000FB1806F1FF3080F01981994240F2168199
:10107000023E3B445B1AA4B2B3FBF8F008FB10330A
:1010800044EA034400FB0EFEA64509D93C1900F1D1
:10109000FF3380F00581A64540F2028102383C44CE
:1010A00040EA0640A4EB0E0400261DB1D440002304
:1010B000C5E900433146BDE8F08702B9FFDEB2FA68
:1010C00082F2002A50D1CB1B4FEA174E1FFA87F845
:1010D0000126B3FBFEFC210C0EFB1C3341EA03414D
:1010E00008FB0CF38B4207D979180CF1FF3002D2C0
:1010F0008B4200F2E9808446C91AA3B2B1FBFEF02C
:101100000EFB101143EA014408FB00F8A04507D983
:101110003C1900F1FF3302D2A04500F2D9801846F5
:10112000A4EB080440EA0C40BFE78B4209D9002D2C
:1011300000F0B1800026C5E9000130463146BDE827
:10114000F087B3FA83F6002E4AD18B4202D3824253
:1011500000F2B880841A61EB030101208C46002D57
:10116000A8D0C5E9004CA5E7C2F1200320FA03F698
:10117000974001FA02F04FEA174ED9403043030C72
:10118000B1FBFEF61FFA87F80EFB161143EA014386
:1011900006FB08F1994204FA02F409D9FB1806F19A
:1011A000FF3C80F08D80994240F28A80023E3B44B1
:1011B0005B1A81B2B3FBFEF00EFB103341EA034130
:1011C00000FB08F38B4207D9791800F1FF3C73D27A
:1011D0008B4271D902383944CB1A40EA064678E787
:1011E000C6F1200C03FA06F422FA0CF31C4320FA91
:1011F0000CF701FA06F34FEA144E21FA0CF11F43E3
:101200003B0CB1FBFEF91FFA84F80EFB191143EAFF
:10121000014109FB08FA8A4502FA06F200FA06F3D0
:1012200008D9611809F1FF3048D28A4546D9A9F199
:1012300002092144A1EB0A01BFB2B1FBFEF00EFB93
:10124000101147EA014700FB08F8B84507D9E7192C
:1012500000F1FF312ED2B8452CD90238274440EA9C
:101260000940A7EB0807A0FB02894F45C64649463F
:101270001AD317D05DB1B3EB0E0267EB010707FA83
:101280000CFCF2404CEA0202F740C5E900270026B8
:101290003146BDE8F0872E4628460BE70646E9E6CC
:1012A0001846FDE64345E5D2B8EB020E69EB0401B2
:1012B0000138DFE70846D2E760468DE78146B9E7A7
:1012C000664675E730464AE7ACF1020C394413E74D
:1012D00002383C4424E700BF03685A004CBF43F087
:1012E000004323F000431844704700BF2DE9F84342
:1012F00029B34F1E044615463E464FF0000808EB42
:10130000060101EBD171491004EBC1094846FFF712
:10131000E3FF0346C80008308F42204409D0AB42A7
:1013200009D8FFF7D9FF0138A8420AD201F1010814
:10133000E5E7AB4205D9884501D04E1EDFE74FF007
:1013400000094846BDE8F883012807D0022807D0E5
:10135000044B00280CBF1846002070470248704715
:10136000024870470D1A0000111A0000151A0000FB
:1013700030B5234B83B004468D1E3BB301A92846EC
:10138000AFF30080E8B101992A46FFF7AFFF0146AD
:10139000B8B1FFF7A1FF4B68A064012B2BD0002B45
:1013A00001F1040023DBFFF797FF0023C4E91303D7
:1013B0000368002B10DBFFF78FFF2061002003B0D4
:1013C00030BD00230920236103B030BD0D490E4814
:1013D000091AC9100191D7E7C3F30360FFF7B4FFFF
:1013E0000028206114BF0020092003B030BD012374
:1013F000C4E91303DCE7002323610520DFE700BF16
:101400000000000064030100E4FF00000368DA0745
:1014100010B5044606D49B0700F1480009D500F03A
:101420004BFC2368590709D51A070ED5DB0613D5DF
:1014300010BD00F039FC23685907F5D404F1D00041
:1014400000F042FC23681A07F0D404F5A87000F0FD
:1014500043FC2368DB06EBD404F5E870BDE81040DC
:1014600000F07EBC0346006800B11844704700BF1E
:1014700009207047704700BF70B504460E46316CB6
:101480002046FFF775FF054688B9336C6361324625
:1014900023692146012098470828F0D0072806D163
:1014A0002846316CFFF7E6FF301D00F0F1FB0AF033
:1014B00093FB00BF2DE9F0470D1D064614460FCDE6
:1014C000ADF5727D0DF10C0CACE80F000FCDACE862
:1014D0000F000FCDACE80F0095E80F0002ADF768E4
:1014E000D6F818808CE80F0000232B6021E02B6CCD
:1014F00073614FF4F07229467AA800F041FE336917
:101500007AAA314650469847889BCDE90058214633
:101510006B648146334632460120B8470446E8B939
:101520004FF4F0727AA9284600F02AFEB9F1080FAC
:101530001BD1296C3046FFF71BFF09345FFA84FA90
:1015400081460028D3D0AB6B4AF01001CDE900589A
:1015500032466B6401203346B84708B14FF00909A1
:1015600048460DF5727DBDE8F087B9F1070FF5D15A
:101570002046296CFFF77EFF03A800F089FB00BF1F
:10158000406C7047F0B5CB6B0B640E1D0F460546E3
:101590000FCEF9B001AC0FC40FCE0FC40FCE0FC4E5
:1015A00096E80F004FF0FF3684E80F00009606E043
:1015B0002B696A46294698470828044608D110999D
:1015C0002846FFF7D5FE0028F2D0092079B0F0BDFB
:1015D0006846FFF71BFF062CF7D139462846FFF770
:1015E0004BFF00BF30B4DD6BC160826119461D64E2
:1015F000002230BC5EE700BF70B5C66843690B646B
:10160000AEB903690A4604460D46014602209847D2
:10161000072805D008280FD129462046FFF72CFFC0
:101620003046296CFFF726FF281D00F031FB012210
:10163000FFF740FF0AF0D0FA0AF0CEFAC2681AB1FA
:10164000CA6B0A64002235E79CE700BF704700BF01
:10165000836801460BB1012018477047012912D059
:1016600009D873B90F2A0CD800EB820218465368C8
:10167000009A136070470339012994BF01200220AA
:101680007047022070470846704700BF10B584B00D
:10169000002303AC0A4600941946FFF7DFFF0398C6
:1016A00004B010BD012912D009D873B90F2A0CD883
:1016B00000EB8200009A12684260184670470339B6
:1016C000012994BF0120022070470220704708467C
:1016D000704700BF10B584B0002303AC03920094A0
:1016E0000A461946FFF7DEFF04B010BDF0B5D36B14
:1016F0001364151D8C4606460FCDADF50F7D17AC56
:101700000FC40FCD0FC40FCD0FC495E80F004FF0DD
:10171000FF3784E80F006546169710E0FFF7DAFF01
:10172000294616A8B047034616AA6946082083B979
:10173000049B9847052804460CD0092809D026990F
:101740006846FFF715FE03466A460C2116A8002BD3
:10175000E4D0092416A8FFF759FE20460DF50F7DA9
:10176000F0BD00BF2DE9F04FCC6C89B00D4654F8A8
:10177000041B0694174600F003081E46002B79D080
:101780000B0CDAB209048DF81D30022304EB82043D
:1017900005918DF81C302B6DB8F1020F08BFAC6BB2
:1017A00013F001030CD0384605A900F073FB18B9FB
:1017B000082009B0BDE8F08F092009B0BDE8F08F1E
:1017C000D4F800A0BAF1000FEDD0019300F00803A7
:1017D0000293022E4AD0B4F800A0B4F80290043468
:1017E000AA6C29F0010B0F2138469344FFF74EFFF6
:1017F000834539D82AF001025A44824294BF00201E
:1018000001204FEA490303F002030AF0010A43EA08
:101810000A03012B49D0022B32D0002BCCD1B8F1D6
:10182000000F02D0002840F0CD800434D4F800A08E
:10183000BAF1000FCDD105A9384600F02BFB0028E6
:10184000BAD1019B002BB3D00F213846FFF71EFF02
:101850000E2102463846FFF73DFF38466A4A0F21FF
:10186000FFF738FF0720A8E70020CAE7D4F8049064
:101870000834B5E7090203230591ADF81C308AE767
:10188000236823F0004BB8F1000F45D128B1029A2C
:10189000002A5CD0BBF1000F74D0002B00DA0434B6
:1018A0000BF1010B04EB8B04C0E7B8F1000F19D169
:1018B000B0B1D4E90023991C4FEAD2723FF47CAF57
:1018C00005F158010133049100F09080201DFFF7CD
:1018D000C9FD04AB01462846AFF3008000285BD168
:1018E0000834A3E70D213846D5F82090FFF7CEFE47
:1018F0008145F5D1AB6A9C42F2D12046FFF7ECFC62
:101900000F2102463846FFF7E5FE38462A460021F9
:10191000FFF7E0FE072050E70D213846D5F820906C
:10192000FFF7B4FE814501D02368B6E7AB6A9C425D
:10193000FAD104220021C5E90B12A318C5F828B07A
:101940006B6323688B4259DB01230193A8E705F100
:101950005803CDF80C8004F1040AB04691461E46A7
:101960000DE00496FFF77EFD04AB014600222846F9
:10197000AFF3008009F101090AF1040AE8B9D94579
:101980005046EED138460D21FFF780FE049B2862B9
:10199000C5E90934062010E781460D213846FFF7D6
:1019A00075FEB9F1020F286225D12B46049A43F83F
:1019B0002C2F6B62AC620620FFE646462368DDF8FA
:1019C0000C806AE72046FFF787FC04340246AC63CC
:1019D00028461446AFF3008000283FF4EDAE3846A9
:1019E00022460F21FFF776FE0720E6E638460D2156
:1019F000FFF74CFE2862049B6B62DBE70BF10100F2
:101A000004EB80007AE700BF000000000023A9E695
:101A10000123A7E60223A5E62DE9F0430646C3B05D
:101A200015461C46042900F2B980DFE801F09A53FC
:101A3000B7290300002C40F0B180102A00F2AE80DC
:101A40000368D80600F1F38020AF384600F092F921
:101A5000B06B0023012404FA03F22A42014604D0A9
:101A600051F8042B47F8232008460133042BF2D108
:101A7000B063384600F074F9002043B0BDE8F0834D
:101A8000032C40F08B8094B204EB1243102B4FEAEE
:101A9000124500F2838003681F0700F1D08020AF59
:101AA000384600F03BF907EBC501B56B54B10B4666
:101AB000E81A01EBC401E4001A5843F8042B8B42E6
:101AC000FAD125443846B56300F006F9002043B04A
:101AD000BDE8F083012C4FEA124895B25AD0052C8C
:101AE0005CD108EB0509B9F1200F57D8B8F10F0FF9
:101AF00077D9A946002D40F08880B36B6DB320AF35
:101B00004FF0000907EBC807043F03EBC50553F886
:101B1000041B47F8041FAB42F9D1B9F1000F0FD0F5
:101B20006F464146102938BF102107EBC1018439A7
:101B300003EBC90553F8040B41F8040FAB42F9D18C
:101B4000012C00F08480B8F10F0FB56345D9B9F1CD
:101B5000000F02D0684600F0B7F8002043B0BDE89F
:101B6000F083DCB9876B2346012094B206F1040CA4
:101B700000FA03F22242394604D051F8042B4CF803
:101B800023200F460133102BF2D115F40050E4D17D
:101B9000B76304E008EB0503102B03D9022043B020
:101BA000BDE8F083B8F10F0FF8D83368DA0706D52F
:101BB000304623F0030340F8483B00F079F820AFAB
:101BC000384600F075F8B36B002D99D11D460435E9
:101BD000B563384600F068F8BFE720A800F06CF85D
:101BE000B5E7B9F1100F40D9A9F110093368D90749
:101BF00008D523F00103304643F0020340F8483B88
:101C000000F05EF8B9F1000F32D033685A0720D4E3
:101C1000B8F10F0F25D96F463846C8F1100500F00E
:101C200057F8002DB36B7FF77CAF20AF6AE723F046
:101C30001003336006F5E87000F09CF804E723F029
:101C40000803036000F5A87000F068F827E720AFEC
:101C5000BDE7304623F0040340F8D03B00F038F8ED
:101C6000D6E720A800F02CF8D5E74FF00009BDE733
:101C7000B8F10F0F3FF641AF20AF384600F020F823
:101C8000B36B002D7FF43CAF384600F015F864E7E5
:101C900000F1340191E838009C46A6464CF8045DFA
:101CA00090E8FF0FE54600BD90EC210B704700BFA8
:101CB00080EC210B704700BF90EC200B704700BFF9
:101CC00080EC200B704700BFD0EC200B704700BFAA
:101CD000C0EC200B704700BFF0EC0201F0EC0211E9
:101CE000F0EC0221F0EC0231F0EC0241F0EC025198
:101CF000F0EC0261F0EC0271F0EC0281F0EC029188
:101D0000F0EC02A1F0EC02B1F0EC02C1F0EC02D177
:101D1000F0EC02E1F0EC02F1704700BFE0EC0201F0
:101D2000E0EC0211E0EC0221E0EC0231E0EC0241D7
:101D3000E0EC0251E0EC0261E0EC0271E0EC0281C7
:101D4000E0EC0291E0EC02A1E0EC02B1E0EC02C1B7
:101D5000E0EC02D1E0EC02E1E0EC02F1704700BF00
:101D6000B0FC0181B0FC0191B0FC01A1B0FC01B15B
:101D7000704700BFA0FC0181A0FC0191A0FC01A163
:101D8000A0FC01B1704700BFEC4600B52DE9005042
:101D90002DE9FF1F4FF000032DE90C0001A9FFF70B
:101DA000F1FBDDF840E012B0704700BFEC4600B533
:101DB0002DE900502DE9FF1F4FF000032DE90C0025
:101DC00001A9FFF719FCDDF840E012B0704700BF31
:101DD000EC4600B52DE900502DE9FF1F4FF0000340
:101DE0002DE90C0001A9FFF729FCDDF840E012B055
:101DF000704700BFEC4600B52DE900502DE9FF1FEC
:101E00004FF000032DE90C0001ABFFF7EBFBDDF811
:101E100040E012B0704700BFEC4600B52DE900501D
:101E20002DE9FF1F4FF000032DE90C0001AAFFF779
:101E30005DFCDDF840E012B0704700BF027A7AB96D
:101E4000437AA3B14268013B10B443721368032183
:101E5000141D01721A024460026010BC180E704713
:101E60000368013A02721A020260180E7047B0202D
:101E7000704700BF00B585B003AA00230092194641
:101E80000C22FFF7EBFB039805B05DF804FB00BFE5
:101E9000F0E700BF2DE9F043054685B00E464FF050
:101EA00000083046FFF7CAFFB028044600F0B280B1
:101EB000070620D500F0F003802B4DD0902B36D0B4
:101EC000A02B60D0B02B74D0C02B00F08B8000F022
:101ED000F803D02B0BD100F00702013242F40022AC
:101EE000052301212846FFF797FD0028D9D00920B6
:101EF00005B0BDE8F0830DF10C09002319468700F9
:101F0000CDF800900D222846FFF7A8FBFFB2039BF7
:101F1000CDF80090043760064CBFDF1BFF1800238C
:101F200019460D2228460397FFF7BCFBB9E700F0DE
:101F30000D030D2BDBD003AF002300F00F02194679
:101F400000972846FFF78AFB0023009719460D22C9
:101F50002846FFF7A7FBA4E73046FFF76FFF2402F0
:101F60002043B0F5004FC2D004010023A2B21946AD
:101F70002846FFF751FD0028B9D114F4004F18BFCF
:101F80004FF001088DE7C24302F007034FF47F6270
:101F90001A41010702F47F624FF0000348BF42F488
:101FA000804219462846FFF737FD00283FF479AFF5
:101FB0009DE7B12833D0B22800F08B80B32839D008
:101FC00000F0FC03B42B92D000F007020132012391
:101FD00042F4002219462846FFF71EFD00283FF470
:101FE00060AF84E7C62842D0C7284CD000F0F80381
:101FF000C02B5BD0C82860D0C9287FF478AF3046AA
:10200000FFF71CFF020300F00F0002F47022013002
:10201000024365E7B8F1000F18D0002068E73046AA
:10202000FFF70CFF024600283FF461AF10F0F00309
:10203000D0D05CE73046FFF701FF010300F00F004E
:1020400001F47021421C01230A43C3E703AC434659
:102050000E22414600942846FFF700FB00942846D4
:1020600043460F224146FFF71DFB404640E73046FE
:10207000FFF7E4FE010300F00F0001F47021421CA1
:1020800003230A43A6E73046FFF7D8FE024600289E
:102090003FF42DAF10F0F0037FF429AF0421284660
:1020A000FFF7BAFC00283FF4FCAE20E700F00F0277
:1020B0000132032342F420228CE73046FFF7BEFEB4
:1020C00000F0F00200F00F031032013343EA023255
:1020D00006E700230DF10C090D221946CDF80090FA
:1020E0002846FFF7BBFA3046FFF7A8FE02064FF07E
:1020F00002070CD5039B00F07F00B8400344304634
:102100000393FFF79BFE030607F10707F2D4039B37
:10211000CDF8009000F07F0403F50172BC4000236D
:10212000144419460D2228460394FFF7BBFAB8E67B
:1021300010B5C26C84B0536803248DF80C401B02A8
:1021400002F108040846D279019301A902948DF89E
:102150000D20FFF79FFE04B010BD00BF08B5FFF7CC
:1021600097FE806C08BD00BF08B5FFF791FEC06CFC
:10217000C379023300EB830008BD00BF704700BF86
:10218000844641EA000313F003036DD1403A41D382
:1021900051F8043B40F8043B51F8043B40F8043B41
:1021A00051F8043B40F8043B51F8043B40F8043B31
:1021B00051F8043B40F8043B51F8043B40F8043B21
:1021C00051F8043B40F8043B51F8043B40F8043B11
:1021D00051F8043B40F8043B51F8043B40F8043B01
:1021E00051F8043B40F8043B51F8043B40F8043BF1
:1021F00051F8043B40F8043B51F8043B40F8043BE1
:1022000051F8043B40F8043B51F8043B40F8043BD0
:10221000403ABDD2303211D351F8043B40F8043B70
:1022200051F8043B40F8043B51F8043B40F8043BB0
:1022300051F8043B40F8043B103AEDD20C3205D380
:1022400051F8043B40F8043B043AF9D2043208D078
:10225000D2071CBF11F8013B00F8013B01D30B88EA
:1022600003806046704700BF082A13D38B078DD0C8
:1022700010F003038AD0C3F10403D21ADB071CBF9A
:1022800011F8013B00F8013B80D331F8023B20F804
:10229000023B7BE7043AD9D3013A11F8013B00F83D
:1022A000013BF9D20B7803704B7843708B788370C5
:1022B00060467047000000000000000000000000C1
:1022C00001F0FF01102A2BDB10F0070F08D010F8E7
:1022D000013B013A8B422DD010F0070F42B3F6D1EB
:1022E000F0B441EA012141EA014122F007047FF004
:1022F00000070023F0E80256083C85EA010586EA5B
:10230000010685FA47F5A3FA87F586FA47F6A5FA96
:1023100087F68EB9EED1F0BC01F0FF0102F00702A2
:1023200032B110F8013B013A83EA010313B1F8D14D
:102330000020704701387047002D06BF354603382E
:10234000073815F0010F07D1013015F4807F02BF67
:10235000013015F4C03F0130F0BC0138704700BFB8
:10236000000000000000000000000000000000006D
:10237000000000000000000000000000000000005D
:1023800090F800F06DE9024520F007016FF0000CB5
:1023900010F0070491F820F040F049804FF000045D
:1023A0006FF00700D1E9002391F840F000F1080038
:1023B00082FA4CF2A4FA8CF283FA4CF3A2FA8CF370
:1023C0004BBBD1E9022382FA4CF200F10800A4FAD7
:1023D0008CF283FA4CF3A2FA8CF3E3B9D1E904232B
:1023E00082FA4CF200F10800A4FA8CF283FA4CF362
:1023F000A2FA8CF37BB9D1E9062301F1200182FA1C
:102400004CF200F10800A4FA8CF283FA4CF3A2FA21
:102410008CF3002BC6D0002A04BF04301A4612BA2F
:10242000B2FA82F2FDE8024500EBD2007047D1E932
:10243000002304F00305C4F100004FEAC50514F0C1
:10244000040F91F840F00CFA05F562EA05021CBF92
:1024500063EA050362464FF00004A9E780B584B043
:1024600000AFF860B9601346FB71BB681F2B05D93C
:102470000D4B0E4AFF210E4809F0B6FBFB68BA6807
:1024800053F8223023F0807323F4E063FA791202C8
:1024900002F4E06243EA0201FB68BA6843F82210E2
:1024A00000BF1037BD4680BDD8E70000E0E900005E
:1024B000E4E7000080B483B000AF78600B46FB70A7
:1024C0007B681B6823F01802FB78DB0003F018031D
:1024D0001A437B681A6000BF0C37BD465DF8047B69
:1024E0007047000080B58EB000AF786187ED020BB9
:1024F00087ED001B524A7B695B01134411331B7843
:10250000002B40F08780002387F82830002387F8CD
:102510002930002387F82A308023FB62484A7B69F0
:102520005B0113441868464A7B695B01134404331A
:102530001968434A7B695B01134410331B781A46C0
:10254000FFF78CFF3E4A7B695B01134408331B682D
:1025500007F128021146184607F0E8FD384A7B6962
:102560005B01134408331B68DBB2002201211846CB
:1025700007F062FE324A7B695B0113441133042287
:102580001A702F4A7B695B01134403F11801D7E9E4
:102590000223C1E9002302233B7600237B76284AED
:1025A0007B695B0113441833D3E9002310461946B5
:1025B000FEF7F8FC0346FB61D7E90001FEF7F2FCE9
:1025C00003463B620023BB841D4A7B695B011344C5
:1025D00008331B681B4A52F823303B630021386BD9
:1025E000FFF768FF164A7B695B01134408331868DC
:1025F000134A7B695B0113440C331B68DAB207F1A1
:102600001803194607F076FE7B695B010C4A1344F8
:102610007B630FE00A4A7B695B01134411331B782B
:10262000042B05D17B695B01054A13447B6301E000
:1026300000237B637B6B18463837BD4680BD00BFE7
:102640007801002018F4000080B483B000AF7860F7
:1026500000BF0C37BD465DF8047B704780B58AB07B
:1026600000AFF86087ED000BFB687B627B6A002B94
:102670002CD07B6A5B7C042B28D102233B74002383
:102680007B747B6AD3E9062310461946FEF78AFC61
:1026900003467B61D7E90001FEF784FC0346BB617A
:1026A0000023BB837B6A9B680A4A52F823303B6253
:1026B0000021386AFFF7FEFE7B6A98687B6ADB6858
:1026C000DAB207F11003194607F014FE00BF2837ED
:1026D000BD4680BD18F4000080B485B000AF7860BE
:1026E0007B68FB60FB68002B06D0FB685B7C042BDF
:1026F00002D1FB6800225A7400BF1437BD465DF852
:10270000047B704780B483B000AF786000BF0C37A3
:10271000BD465DF8047B704780B590B000AF78602F
:102720000B46FB70FB78002B27D107F12403002216
:102730001A605A609A60DA601A615A612D4A7B68A1
:1027400052F833307B62012387F82830012387F861
:1027500029304FF0FF333B6307F12403184607F09D
:10276000BDFE244A7B68DB00134401221A717B689A
:10277000DB00204A1344FB6336E0FB78012B31D1A8
:1027800007F10C0300221A605A609A60DA601A613D
:102790005A61184A7B6852F83330FB6001233B755D
:1027A0004FF0FF33BB6107F10C03184607F008FF39
:1027B000104A7B68DB00134402221A717B68292BC4
:1027C0000AD97B682C2B07D80A4A7B6852F8333029
:1027D0000121184607F030FF7B68DB00054A1344EF
:1027E000FB6301E00023FB63FB6B18464037BD46EB
:1027F00080BD00BF0000002080B586B000AF7860CB
:102800007B683B613B69002B0BD03B691B79012B3B
:1028100007D13B691B68184607F01CFF0346FB7590
:1028200001E00023FB753B691B681B0ADBB2FB6000
:102830003B691B68DBB2BB60FB68022B02D1BB6843
:10284000062B05D0FB68002B09D1BB68042B06D1F1
:10285000FB7D002B0CBF01230023DBB2FB75FB7D4E
:1028600018461837BD4680BD80B586B000AF786089
:102870000B46FB707B687B617B69002B2FD07B69EB
:102880001B79022B2BD17B691B681B0ADBB23B61D6
:102890007B691B68DBB2FB603B69012B05D1FB68E0
:1028A000162B08D0FB68152B05D03B69042B0FD1E4
:1028B000FB681A2B0CD17B691A68FB78012B14BFBB
:1028C00001230023DBB21946104607F0B5FE06E0EF
:1028D0007B691B68FA781146184607F0ADFE00BF09
:1028E0001837BD4680BD80B485B000AF78607B6886
:1028F000FB60FB68002B0ED0FB681B79022B03D119
:10290000FB6800221A7106E0FB681B79012B02D1DB
:10291000FB6800221A7100BF1437BD465DF8047BC6
:102920007047000080B586B000AF786026497A68AD
:1029300013465B0013449B000B4409331B78002BA8
:1029400027D107F10803184607F03EF80323FB726E
:102950001D497A6813465B0013449B000B441B68B7
:1029600007F108021146184607F040F816497A6840
:1029700013465B0013449B000B44093303221A7077
:102980007A6813465B0013449B000F4A13447B6133
:1029900015E00D497A6813465B0013449B000B4415
:1029A00009331B78032B08D17A6813465B00134464
:1029B0009B00054A13447B6101E000237B617B6936
:1029C00018461837BD4680BD3804002080B485B055
:1029D00000AFF8600B467A60FB7200BF1437BD464B
:1029E0005DF8047B7047000080B58AB000AFF860E6
:1029F000B9601346FB71FB68FB61FB69002B3AD0A1
:102A0000FB691B7A3B750023BB7500237B75FB6953
:102A10001B680121184607F031F8FB691868FB694B
:102A20005B6807F11402194607F048F8FB691A6859
:102A3000FB695B681946104607F05CF8FB691A6889
:102A4000FB695B681946104607F078F803467B83FC
:102A50007B8B07EE903AF8EE677A17EE900AFDF757
:102A600087FF0DA3D3E90023FDF7DAFF02460B46EB
:102A7000C7E9082305E04FF000024FF00003C7E963
:102A80000823B968D7E90823C1E9002300BF283724
:102A9000BD4680BDAFF30080100010001000F03E76
:102AA00080B483B000AF786000BF0C37BD465DF8DE
:102AB000047B704780B483B000AF786000BF0C37F0
:102AC000BD465DF8047B704780B483B000AF78608A
:102AD00000BF0C37BD465DF8047B704780B584B0FD
:102AE00000AFF860B9607A60BB680F2B06D90A4B5B
:102AF0000A4A40F2E2210A4809F076F8FA68BB680F
:102B00005B01134403F5805310337A681A6000BFE9
:102B10001037BD4680BD00BF1CE8000018EA000069
:102B200048E8000080B584B000AFF860B960134693
:102B3000FB71BB680F2B06D90D4B0E4A4FF4607129
:102B40000D4809F051F8BB685B0103F58053183359
:102B5000FA681344043303F1424303F580135B0125
:102B60000433FA7992B21A8000BF1037BD4680BD97
:102B70001CE8000034EA000048E8000090B587B087
:102B800000AFF8607A603B600B46FB7200237B610C
:102B9000FB681B68032B00F0E481032B05D8012B95
:102BA00000F09880022B00F04781954B00221A60BC
:102BB000934B1B68934A52F82330002B41D1904B22
:102BC0001B68914ADB00134400229A718C4B1B68EE
:102BD0008D4ADB00134400221A71894B1B688A4A14
:102BE000DB00134400225A71854B1B68864A4FF460
:102BF000E13142F83310824B1B68184604F01EFB8B
:102C00007F4B1B689B01814A13448149184607F09A
:102C100099F97B4B18687A4B1A6813461B019B1A6B
:102C20009B007C4A9918764B1B68DB00764A13445C
:102C30001A4608F087FA724B1B68724A012142F863
:102C400023107B68B3F1FF3F20D06D4B1A687249A7
:102C500013469B0013449B000B4444221A60684BAC
:102C60001A686D4913469B0013449B000B440833BC
:102C70006A4A1A60624B1A68674913469B001344FC
:102C80009B000B440C33664A1A6015E05C4B1A68D3
:102C9000614913469B0013449B000B4404334222BA
:102CA0001A60574B1A685C4913469B0013449B00FB
:102CB0000B4410335B4A1A60514B1B68504A126830
:102CC000594941F823204E4B1B689B00564A134438
:102CD0007B61DBE14A4B01221A60494B1B68494A80
:102CE00052F82330002B41D1454B1B68464ADB008C
:102CF000134400229A71424B1B68434ADB00134481
:102D000000221A713E4B1B683F4ADB00134400222D
:102D10005A713B4B1B683C4A4FF4E13142F8331087
:102D2000374B1B68184604F089FA354B1B689B012A
:102D3000364A13443649184607F004F9304B1868F0
:102D40002F4B1A6813461B019B1A9B00314A991896
:102D50002B4B1B68DB002C4A13441A4608F0F2F98F
:102D6000274B1B68274A012142F823107B68B3F1E7
:102D7000FF3F20D0224B1A68274913469B0013447B
:102D80009B000B4400221A601D4B1A68224913460F
:102D90009B0013449B000B440833244A1A60184BD1
:102DA0001A681D4913469B0013449B000B440C33C7
:102DB0001F4A1A6015E0124B1A68174913469B0008
:102DC00013449B000B44043300221A600C4B1A6816
:102DD000114913469B0013449B000B441033154AC2
:102DE0001A60074B1B68064A12680F4941F82320F6
:102DF000034B1B689B000C4A13447B6146E100BFF8
:102E00009C150020A0150020BC140020D411002027
:102E10007806002054130020F4140020081100202C
:102E20004C110020901100208415002090110020EA
:102E300090110020D4110020AD4B02221A60AC4B3F
:102E40001B68AC4A52F82330002B41D1A84B1B68B9
:102E5000A94ADB00134400229A71A54B1B68A64ABD
:102E6000DB00134400221A71A14B1B68A24ADB004D
:102E7000134400225A719E4B1B689F4A4FF4E13164
:102E800042F833109A4B1B68184604F0D7F9984B58
:102E90001B689B01994A13449949184607F052F858
:102EA000934B1868924B1A6813461B019B1A9B00A0
:102EB000944A99188E4B1B68DB008F4A13441A46BC
:102EC00008F040F98A4B1B688A4A012142F8231016
:102ED0007B68B3F1FF3F20D0854B1A688A491346BF
:102EE0009B0013449B000B4400221A60804B1A681D
:102EF000854913469B0013449B000B440833834AC7
:102F00001A607B4B1A68804913469B0013449B0050
:102F10000B440C337E4A1A6015E0754B1A687A49E7
:102F200013469B0013449B000B44043300221A6099
:102F30006F4B1A68744913469B0013449B000B4463
:102F40001033744A1A606A4B1B68694A12687249E6
:102F500041F82320664B1B689B006F4A13447B613A
:102F600094E0634B03221A60614B1B68614A52F87C
:102F70002330002B41D15E4B1B685F4ADB001344BA
:102F800000229A715A4B1B685B4ADB0013440022F3
:102F90001A71574B1B68584ADB00134400225A71C0
:102FA000534B1B68544A4FF4E13142F83310504BF5
:102FB0001B68184604F042F94D4B1B689B014F4AB1
:102FC00013444F49184606F0BDFF494B1868484B5B
:102FD0001A6813461B019B1A9B004A4A9918444BD6
:102FE0001B68DB00444A13441A4608F0ABF8404B18
:102FF0001B68404A012142F823107B68B3F1FF3F70
:1030000020D03B4B1A68404913469B0013449B0059
:103010000B4400221A60364B1A683B4913469B004A
:1030200013449B000B4408333C4A1A60304B1A6827
:10303000354913469B0013449B000B440C33384A1C
:103040001A6015E02A4B1A682F4913469B00134457
:103050009B000B44043300221A60254B1A682A494E
:1030600013469B0013449B000B4410332D4A1A60F7
:103070001F4B1B681E4A1268274941F823201C4B2E
:103080001B689B00244A13447B6100BF7B68B3F13B
:10309000FF3F27D0164B1A6813461B019B1A9B0053
:1030A0002833184A13440433114A12681E4918463B
:1030B00006F08AFF0E4B18680D4B1A68124913462A
:1030C0009B0013449B000B4408331968084B1A6893
:1030D0000D4C13469B0013449B0023441B681A4667
:1030E00000F0E0F87B6918461C37BD4690BD00BF74
:1030F0009C150020A0150020BC140020D411002035
:103100007806002054130020F414002090110020B1
:1031100090110020D411002084150020901100206F
:1031200090110020D41100205133000080B483B0EE
:1031300000AF78603960002318460C37BD465DF853
:10314000047B704780B483B000AF786008461146B6
:103150001A460346FB700B46BB7013467B70002378
:1031600018460C37BD465DF8047B704780B586B0C5
:1031700000AFF860B9607A60FB683B613B69002B87
:1031800033D03B691B681F4AD35C012B2DD13B69AF
:103190001B681D4A52F82330012B0FD13B691A6876
:1031A0001A4913469B0013449B000B4408331B68C9
:1031B0007A681946B868FEF7E3FF0EE03B691A68C3
:1031C000124913469B0013449B000B440C331B68AD
:1031D0007A681946B868FEF7D3FF3B691B68094A4D
:1031E0000021D1540023FB7506E07A680021B868FD
:1031F00009F03CF82023FB75FB7D18461837BD46C7
:1032000080BD00BFEC1400206C150020F4140020D9
:1032100080B586B000AFF860B9607A60FB683B614A
:103220003B69002B2AD03B691B680021184608F037
:10323000DDF80346082B21D03B691A681349134671
:103240009B0013449B000B4410331B687A68B968D9
:103250001846FEF795FF3B6918683B691A680B49E9
:1032600013469B0013449B000B4410331B687A6881
:10327000194608F097F80346FB7501E02023FB751B
:10328000FB7D18461837BD4680BD00BFF4140020F2
:1032900080B483B000AF786000BF0C37BD465DF8E6
:1032A000047B704780B588B000AFF860B9607A6081
:1032B000FB68052B06D9214B214A40F28911214890
:1032C00008F092FC204AFB6852F82330FB61FB694E
:1032D00093F82C301B09DBB21A461C4B53F82230F2
:1032E000BB61FB6993F82C3003F00F037B61FB6932
:1032F0005B78DBB2002B01D009231AE0FB690122C5
:103300005A70BB681A467969B869FFF7E7FB7A68B3
:103310007969B86906F054FD01227969B869FFF747
:1033200001FC7B69DBB201221946B86906F033FC67
:10333000002318462037BD4680BD00BF80E800004E
:10334000F4E90000A0E8000094490020D8F1000052
:1033500080B582B000AF78600B46FB707B68184682
:1033600000F004F800BF0837BD4680BD80B586B0C8
:1033700000AF78607B68052B06D93C4B3C4A40F295
:10338000AD113C4808F030FC3B4A7B6852F82330D2
:103390007B617B6993F82C301B09DBB21A46374BF3
:1033A00053F822303B617B6993F82C3003F00F0314
:1033B000FB600022F9683869FFF7B4FBFB68DBB2F9
:1033C00000221946386906F0E6FB7B69DB78DBB240
:1033D000002B04D07B691033184606F025F87B6972
:1033E00000225A70264A7B68134401221A70254A2B
:1033F0007B6852F82330002B1AD123497A68134690
:103400009B0013449B000B440C3319681E487A68D8
:1034100013469B0013449B0003441B681A467868BC
:10342000FFF740FF174A7B68012142F8231019E09B
:1034300015497A6813469B0013449B000B440833DC
:10344000196811487A6813469B0013449B00034493
:103450001B681A467868FFF725FF0A4A7B68002137
:1034600042F8231000BF1837BD4680BD80E8000039
:103470004CEA0000A0E8000094490020D8F10000C8
:10348000EC1400206C150020F414002080B582B0EC
:1034900000AF786006F0D2F9034618460837BD46FB
:1034A00080BD80B483B000AF78607B68023303F1E5
:1034B000424303F580135B011C3301221A7000BFE5
:1034C0000C37BD465DF8047B704780B483B000AF15
:1034D00078607B68023303F1424303F580135B019C
:1034E0000C3300221A7000BF0C37BD465DF8047B18
:1034F000704780B483B000AF78607B68023303F11B
:10350000424303F580135B010C3301221A7000BFA4
:103510000C37BD465DF8047B704780B483B000AFC4
:1035200078600B46FB707B68023303F1424303F57E
:1035300080135B0110331A46FB78137000BF0C3701
:10354000BD465DF8047B704780B483B000AF7860FF
:103550007B681B79DBB218460C37BD465DF8047BEF
:10356000704780B483B000AF78600B46FB707B6817
:10357000FA781A7100BF0C37BD465DF8047B7047BE
:1035800080B483B000AF78600B46FB707B68DB785B
:10359000DBB21A46FB7842FA03F303F00103002B77
:1035A00014BF01230023DBB218460C37BD465DF87B
:1035B000047B704780B483B000AF78607B680233CF
:1035C00003F1424303F580135B0114331B78DBB234
:1035D000002B14BF01230023DBB218460C37BD4675
:1035E0005DF8047B704780B483B000AF78600B4611
:1035F000FB707B68023303F1424303F580135B01E8
:103600001833FA781A7000BF0C37BD465DF8047B9A
:10361000704780B483B000AF78607B680222DA70B4
:1036200000BF0C37BD465DF8047B704780B584B0A1
:1036300000AFF860B9601346FB71BB681F2B05D95A
:103640000B4B0C4AD9210C4808F0CEFABB689B0002
:10365000FA68134403F1424303F580135B0114330A
:103660001A46FB79136000BF1037BD4680BD00BF0E
:1036700008E9000090EA000014E9000080B584B079
:1036800000AFF860B9601346FB71BB681F2B05D90A
:103690000D4B0E4AFF210E4808F0A6FAFB68BA68E7
:1036A00053F8223023F0807323F4E063FA79120296
:1036B00002F4E06243EA0201FB68BA6843F82210B0
:1036C00000BF1037BD4680BD08E900007CEA00005D
:1036D00014E9000080B584B000AF78607B681B6897
:1036E0000F4A52F82330FB607B681B68184600F0D5
:1036F000EFF97B681B68184606F016F9F86806F0C3
:10370000C7FFF868FFF7CDFE0121F868FFF76BFFF0
:103710000449786800F0FCF800BF1037BD4680BD52
:1037200070EA0000A086010080B584B000AF786028
:103730007B681B68054A52F82330FB60F86806F086
:10374000EDFF002318461037BD4680BD70EA00002B
:1037500080B584B000AF78600023BB607B681B68D5
:103760000E4A52F82330FB60F868FFF723FF034648
:10377000002B02D0F86806F0E1FF0023BB6004E0F4
:1037800000BF00BFBB680133BB60BB68C72BF7D964
:10379000002318461037BD4680BD00BF70EA000008
:1037A00080B586B000AF78600B46FB70104B3B6174
:1037B0007B681B680F4A52F82330FB6000237B6153
:1037C0000CE0FB781946F868FFF7DAFE0346002B99
:1037D00001D0002307E07B6901337B617A693B6993
:1037E0009A42EED3012318461837BD4680BD00BF6C
:1037F000A086010070EA000080B584B000AF786058
:103800007B681B68104A52F82330FB6001217868FE
:10381000FFF7C6FF0346002B01D0022310E0F86833
:10382000FFF7F7FE07217868FFF7BAFF0346002B82
:1038300001D0022304E00021F868FFF7A1FE03464F
:1038400018461037BD4680BD70EA000080B584B0D0
:1038500000AF78607B681B680A4A52F82330FB602F
:1038600001217868FFF79CFF0346002B01D001235C
:1038700003E0F868FFF7CDFE002318461037BD4679
:1038800080BD00BF70EA000080B584B000AF7860F2
:1038900039607B681B68094A52F82330FB603B683B
:1038A000DBB21946F868FFF75CFE7868FFF7A4FF03
:1038B000034618461037BD4680BD00BF70EA0000C1
:1038C00080B586B000AFF860B9607A60FB681B68AD
:1038D0000E4A52F823307B617B68002B03D0786955
:1038E000FFF707FE02E07869FFF7EFFD7869FFF761
:1038F0002BFE03461A46BB681A70F868FFF7A6FF4E
:10390000034618461837BD4680BD00BF70EA000068
:1039100080B584B000AF786039607B681B680E4A60
:1039200052F82330FB607B681B681846FFF7AEFD3A
:103930000346BB603B68094A82FB03129211DB1706
:10394000D31A1A460023B968F86806F0AFFE00BF24
:103950001037BD4680BD00BF70EA0000D34D621035
:1039600090B589B000AFF860B9607A603B60F868E4
:10397000FFF7DAFE0346002B05D0F868FFF7E8FEF4
:103980006FF0010355E0BB6843F001031946F86886
:10399000FFF77AFF0346002B05D0F868FFF7D8FE43
:1039A0004FF0FF3345E0FB681B68244A52F8233090
:1039B000BB610021B869FFF7B0FD0023FB6124E083
:1039C000FB69002B02D107F1120303E0FB69013B05
:1039D0007A6813447B613B68013BFA699A420CBFE9
:1039E00001230023DBB2FB74FB7C1A467969F8687B
:1039F000FFF766FF0346002B04D0F868FFF7A8FE28
:103A0000FB6916E0FB690133FB61FA693B689A4286
:103A1000D6DB3B6B002B02D0F868FFF799FEFB6901
:103A2000013B7A68D418B869FFF78EFD034623700E
:103A30003B6818462437BD4690BD00BF70EA0000C1
:103A400080B586B000AFF860B9607A603B60F86816
:103A5000FFF76AFE0346002B05D0F868FFF778FEF3
:103A60006FF0010330E0BB6803F0FE031946F8680D
:103A7000FFF70AFF0346002B05D0F868FFF768FE42
:103A80004FF0FF3320E000237B6112E07B697A680E
:103A900013441B781946F868FFF7F6FE0346002B1F
:103AA00004D0F868FFF754FE7B690DE07B690133B1
:103AB0007B617A693B689A42E8DB3B6A002B02D063
:103AC000F868FFF745FE3B6818461837BD4680BDCD
:103AD00080B582B000AF78607B68002B03D07B6834
:103AE000012B15D029E0052218211648FFF7C6FD45
:103AF000012218211348FFF799FD052219211148C9
:103B0000FFF7BCFD012219210E48FFF78FFD14E0DD
:103B100002220A210C48FFF7B1FD01220A210A48BE
:103B2000FFF784FD02220B210748FFF7A7FD0122C2
:103B30000B210548FFF77AFD00BF00BF0837BD46DF
:103B400080BD00BF00D0044000B0044080B584B008
:103B500000AF78600B46FB707B68012B11D80C49D5
:103B60007B687A6841F823207B689B00084A1344ED
:103B70001846FFF7AFFD7B689B00054A1344FB60C6
:103B800001E00023FB60FB6818461037BD4680BD8E
:103B9000B815002080B584B000AF786039607B68CC
:103BA000002B07D03B6819467868FFF7B1FE002369
:103BB000FB7301E00823FB73FB7B18461037BD46FF
:103BC00080BD80B588B002AFF8607A603B600B467C
:103BD0007B8100237B6197F82030002B0CBF0123F1
:103BE0000023DBB23B61FB68002B19D07B895900B5
:103BF0003A683B69009313467A68F868FFF7B0FEAD
:103C000003467B617B6913F1020F01D1012308E0B8
:103C10007B69B3F1FF3F01D1042302E0002300E000
:103C2000082318461837BD4680BD80B588B002AF5E
:103C3000F8607A603B600B467B8100237B6197F8DC
:103C40002030002B0CBF01230023DBB23B61FB685B
:103C5000002B19D07B8959003A683B6900931346C1
:103C60007A68F868FFF7ECFE03467B617B6913F125
:103C7000020F01D1012308E07B69B3F1FF3F01D1BD
:103C8000042302E0002300E0082318461837BD464D
:103C900080BD80B483B000AF786000BF0C37BD46F4
:103CA0005DF8047B7047000080B586B000AF786196
:103CB000184B1B681B68002B0CBF01230023DBB2D1
:103CC0001A46154B1A7011E03B461449184603F08A
:103CD00086FE01F091F80F4B1B681B68002B14BF88
:103CE00001230023DBB21A460D4B1A700A4B1B78D6
:103CF000DBB2002BE8D1084B00221A70786900F083
:103D000011F8002003F0C4FD002318461837BD4603
:103D100080BD00BFACEA00007A060020CC15002070
:103D2000C015002080B582B000AF7860074B01223B
:103D30001A60074B00221A7002F0D2FC054803F00B
:103D40003BFE002318460837BD4680BDE81500201D
:103D50007A060020C415002080B586B000AF7861D7
:103D6000396103F03BF803F003FA0A4B1B680022A9
:103D70001A6002F07DF900209FED070A03F0DAFCDB
:103D80003B460649184603F02AFE0023184618371A
:103D9000BD4680BDACEA00006F12833AC415002016
:103DA00080B586B000AF78607B6800221A727B68AD
:103DB00001225A604FF0FF337B610023FB6007F163
:103DC0000C000A237A690021FEF7D8FE02467B68C0
:103DD0001A617B681B694FF4E1311846FFF7A6F9B9
:103DE0000123FB740023BB747B681869FB7CBA7CDD
:103DF0000821FFF7A7F97B6801221A7200BF183764
:103E0000BD4680BD80B500AF064B0022C3F8EC2153
:103E1000044B002283F8E8210348FFF7C1FF00BFED
:103E200080BD00BF10180020F819002080B582B0B6
:103E300000AFB24BB3F8B221B04BA3F89821AF4B0F
:103E4000B3F8B421AD4BA3F89A21AC4BB3F8B6212B
:103E5000AA4BA3F89C21A94BB3F8B821A74BA3F810
:103E60009E21A64BB3F8BA21A44BA3F8A021A34BE3
:103E7000B3F8BC21A14BA3F8A221A04BB3F8BE21FB
:103E80009E4BA3F8A4219D4BD3E956239B49C1E93E
:103E90004C239A4BB3F8C021984BA3F8A621974B1B
:103EA000B3F8C221954BA3F8A821944BD3E958232A
:103EB0009249C1E94E23914BB3F8C4218F4BA3F82B
:103EC000AA218E4BB3F8C6218C4BA3F8AC218B4BA7
:103ED000D3E95A238949C1E95023884BD3E95C23AC
:103EE0008649C1E95223854BB3F8C821834BA3F817
:103EF000AE21824BB3F8CA21804BA3F8B0217F4B8F
:103F0000D3E95E237D49C1E9542302227C497D48DF
:103F1000FEF736F902227C497C48FEF731F902228D
:103F20007B497C48FEF72CF902227B497B48FEF74F
:103F300027F902227A497B48FEF722F902227A49C0
:103F40007A48FEF71DF9022279497A48FEF718F9F6
:103F5000082279497948FEF713F90222784979480D
:103F6000FEF70EF9022278497848FEF709F908228F
:103F700077497848FEF704F9022277497748FEF737
:103F8000FFF8022276497748FEF7FAF808227649C8
:103F90007648FEF7F5F8082275497648FEF7F0F8FE
:103FA000022275497548FEF7EBF8022274497548FC
:103FB000FEF7E6F8082274497448FEF7E1F84F4B23
:103FC00093F8CC214D4B83F8CA204C4B93F8CE216B
:103FD0004A4B83F8CC20494B93F8D021474B83F8C8
:103FE000CE20464B93F8D221444B83F8D020434B4C
:103FF00093F8D421414B83F8D220404B93F8D6213B
:104000003E4B83F8D4203D4B93F8D8213B4B83F8AB
:10401000D6203A4B93F8CD21384B83F8CB20374B41
:1040200093F8CF21354B83F8CD20344B93F8D12131
:10403000324B83F8CF20314B93F8D3212F4B83F8A9
:10404000D1202E4B93F8D5212C4B83F8D3202B4B2A
:1040500093F8D721294B83F8D520284B93F8D92101
:10406000264B83F8D720254B93F8E221234B83F886
:10407000E020224B93F8E421204B83F8E2201F4BF1
:1040800093F8E3211D4B83F8E1201C4B93F8E521C5
:104090001A4B83F8E320194B93F8EE21174B83F862
:1040A000EC20164B93F8F021144B83F8EE20134BC1
:1040B00093F8EF21114B83F8ED20104B93F8F12189
:1040C0000E4B83F8EF200D4B93F802220B4B83F835
:1040D00000210A4B93F80422084B83F80221074B76
:1040E00093F80322054B83F80121044B93F8052232
:1040F000024B83F8032100237B608DE0F015002044
:104100008E170020BC17002088170020BE17002043
:104110008A170020C01700208C170020C21700202B
:1041200090170020C417002092170020C617002007
:1041300094170020C817002020170020CA1700205D
:1041400096170020D217002098170020D4170020BF
:1041500028170020D61700209A170020DE1700200D
:104160009C170020E017002030170020E2170020E5
:1041700038170020EA1700209E170020F2170020B1
:10418000A0170020F417002040170020F617002089
:104190007B680E332F497A680A4402F5ED72117874
:1041A0002C4A13440A4683F8CA207B681A332949EB
:1041B0007A680A4402F5F3721178264A13440A46D3
:1041C00083F8CA207B68263322497A680A4402F5BC
:1041D000F97211781F4A13440A4683F8CA207B6893
:1041E0002E331C497A680A4402F5FD721178194A87
:1041F00013440A4683F8CA207B683A3315497A6823
:104200000A4402F206221178124A13440A4683F83D
:10421000CA207B6801337B607B68072BB8DD0123F4
:10422000FB700EE042220C490C48FDF7A9FF0C4B35
:10423000D3F8F831422209491846FEF7E9FF034650
:10424000FB70FB78002BEDD100BF00BF0837BD46E7
:1042500080BD00BFF0150020BA160020781600209F
:104260001018002080B500AF0D4B93F8E831002BFB
:1042700013D10B4B012283F8E821094BD3F8EC3121
:10428000012B0AD1064B93F8F031002B05D0044BDB
:10429000D3F8F8311846FEF7FBFF00BF80BD00BF22
:1042A00010180020F0B587B000AF034687ED000B73
:1042B000FB814FF000024FF00003D7E90001FCF74B
:1042C00035FE0346002B18D04FF00002204BD7E9F3
:1042D0000001FCF721FE0346002B0BD0B7F90E407E
:1042E000D7E90001FCF75EFE0346DBB204FA03F3F4
:1042F000FB8226E00023FB8223E04FF00002154BF7
:10430000D7E90001FCF712FE0346002B0FD0B7F9E6
:104310000E603C687B6883F0004520462946FCF728
:1043200041FE0346DBB246FA03F3FB8209E0B7F92C
:104330000E30002B03DA4FF6FF73FB8201E00023FF
:10434000FB82B7F9163018461C37BD46F0BD00BFDA
:1043500000002E4000002EC080B483B000AF786013
:104360007B68D3E900231449C1E94A23124B012297
:1043700083F81822104B012283F814220E4B0022DE
:1043800083F813220C4B002283F817220A4B0022D9
:1043900083F81222084B002283F81522064B0022D4
:1043A00083F81922044B012283F8162200BF0C3730
:1043B000BD465DF8047B7047F015002080B588B0DD
:1043C00000AFF860B9607A607F4B93F80632032B38
:1043D00000F0B180032B00F3DA80012B02D0022B16
:1043E00072D0D4E0BB681B78002B08D0764B042237
:1043F00083F80622744B0022C3F8FC21D8E0FB6846
:104400001B881846FCF792FA4FF000026F4BFCF73E
:1044100007FB02460B4643EC172BB0EE470AF0EEC3
:10442000670A03F0F7FA53EC102B10461946FCF715
:1044300091FD03467B617B69654AB2F8C8219B1AEE
:10444000BB617B69BA699A4201D90023BB61604BA9
:10445000B3F8CA311A46BB699B1AFB61FA69BB699A
:104460009A4201D90023FB61574BD3F8FC31FA691A
:104470009A4200F29D80544B032283F80622524B4D
:104480000022C3F8FC21524B002283F81822504B23
:10449000012283F814224E4B002283F815224C4B44
:1044A000002283F819224A4B002283F81722484B36
:1044B000002283F81222464B002283F81622444B36
:1044C000012283F8132273E0414B012283F8182262
:1044D0003F4B012283F814223D4B002283F8172220
:1044E0003B4B002283F81222394B002283F8192219
:1044F000374B012283F81622334BD3F8FC31344A70
:10450000B2F8CA21934208D32F4B012283F8062226
:104510002D4B0022C3F8FC214CE02D4BB3F8B831F1
:10452000062B47D0284B002283F80622264B052273
:1045300083F803223EE0264B002283F81822244B06
:10454000012283F81422224B002283F81922204BE7
:10455000002283F817221E4B002283F812221C4BE4
:10456000002283F81622184BD3F8FC31184AB2F80F
:10457000C821934220D3144B022283F80622124B07
:104580000022C3F8FC217868FFF7E6FE14E00E4B2A
:10459000D3F8FC310E4AB2F8CA2193420ED30A4B2B
:1045A000012283F80622084B0022C3F8FC2105E013
:1045B00000BF04E000BF02E000BF00E000BF00BF9A
:1045C0002037BD4680BD00BF101800200000E03F2E
:1045D000F015002080B483B000AF78607B68D3E929
:1045E00000231449C1E94A23124B012283F81822FF
:1045F000104B012283F814220E4B002283F8132261
:104600000C4B002283F817220A4B002283F8122257
:10461000084B002283F81522064B012283F8192249
:10462000044B002283F8162200BF0C37BD465DF80C
:10463000047B7047F015002080B588B000AFF860AB
:10464000B9607A607F4B93F80732032B00F08C80BF
:10465000032B00F3C080012B02D0022B12D0BAE052
:10466000784BD3F8FC31784AB2F8C6219342C0F0B7
:10467000DE80744B022283F80722724B0022C3F8BB
:10468000FC21D4E0BB681B78002B08D06D4B0122C5
:1046900083F807226B4B0022C3F8FC21C9E0FB68BA
:1046A0001B881846FCF742F94FF00002674BFCF7F5
:1046B000B7F902460B4643EC172BB0EE470AF0EE73
:1046C000670A03F0A7F953EC102B10461946FCF7C4
:1046D00041FC03467B617B695B4AB2F8C4219B1AAB
:1046E000BB617B69BA699A4201D90023BB61564B11
:1046F000B3F8C6311A46BB699B1AFB61FA69BB69FC
:104700009A4201D90023FB614E4BD3F8FC31FA6980
:104710009A4200F28E804B4B042283F80722494BC9
:104720000022C3F8FC21484B002283F81822464B94
:10473000012283F81422444B012283F81522424BB4
:10474000002283F81922404B002283F817223E4BA7
:10475000002283F812223C4B002283F816223A4BA7
:10476000002283F8132264E0374B012283F81822D9
:10477000354B012283F81422334B002283F8172291
:10478000314B002283F812222F4B012283F8192289
:104790002D4B002283F816222A4BD3F8FC312A4AEB
:1047A000B2F8C621934208D3264B022283F807228F
:1047B000244B0022C3F8FC213DE0234BB3F8B83171
:1047C000072B38D01F4B002283F807221D4B0522F0
:1047D00083F803222FE01C4B002283F818221A4B87
:1047E000012283F81422184B002283F81922164B59
:1047F000002283F81722144B002283F81222124B56
:10480000002283F816220F4BD3F8FC310E4AB2F87F
:10481000C421934211D30B4B032283F80722094B87
:104820000022C3F8FC217868FFF7D4FE05E000BF42
:1048300004E000BF02E000BF00E000BF00BF20377F
:10484000BD4680BD10180020F01500200000E03F9C
:1048500080B582B000AF786039604E4BB3F8B831A4
:10486000072B00F2938001A252F823F0AD4800001C
:10487000ED4800000D4900004D4900008D48000042
:10488000CD4800002D4900006D490000424B072231
:1048900083F80322404B012283F804223E4B00227E
:1048A000C3F8FC217868FFF757FD6FE03A4B06220A
:1048B00083F80322384B012283F80822364B00226A
:1048C000C3F8FC217868FFF747FD5FE0324B042214
:1048D00083F80322304B012283F805222E4B00225D
:1048E000C3F8FC213868FFF775FE4FE02A4B03221E
:1048F00083F80322284B012283F80922264B002249
:10490000C3F8FC213868FFF765FE3FE0224B082220
:1049100083F80322204B022283F80A221E4B002236
:10492000C3F8FC217868FFF717FD2FE01A4B092226
:1049300083F80322184B022283F80622164B00222A
:10494000C3F8FC217868FFF707FD1FE0124B012236
:1049500083F80322104B032283F80B220E4B002214
:10496000C3F8FC213868FFF735FE0FE00A4B02223E
:1049700083F80322084B032283F80722064B002208
:10498000C3F8FC213868FFF725FE00BF00BF0837D9
:10499000BD4680BDF015002010180020B0B588B0CD
:1049A00000AFF860B9607A60854B93F80A32032B48
:1049B00000F0BD80032B00F3E680012B02D0022B18
:1049C0007ED0E0E0BB681B78002B08D07C4B042233
:1049D00083F80A227A4B0022C3F8FC21E4E0FB684A
:1049E000D3E90045774BB3F8CA311846FBF79EFF71
:1049F00002460B4620462946FBF75AFE02460B4666
:104A000043EC172BB0EE470AF0EE670A03F002F80A
:104A1000B0EE407AF0EE607A87ED047B4FF0000252
:104A2000694BD7E90401FCF76DFA0346002B14D05B
:104A30004FF000024FF00003D7E90401FCF776FACB
:104A40000346002B06D0D7E90401FCF7ABFA034676
:104A5000FB8305E00023FB8302E04FF6FF73FB833B
:104A6000574BD3F8FC21FB8B9A42C0F09D80544BEE
:104A7000032283F80A22524B0022C3F8FC21514B37
:104A8000002283F818224F4B012283F814224D4B49
:104A9000002283F815224B4B002283F81922494B40
:104AA000002283F81722474B002283F81222454B3D
:104AB000002283F81622434B012283F8132273E06D
:104AC000404B012283F818223E4B012283F8142226
:104AD0003C4B002283F817223A4B002283F8122223
:104AE000384B002283F81922364B012283F8162214
:104AF000334BD3F8FC31334AB2F8CA21934208D37E
:104B00002F4B012283F80A222D4B0022C3F8FC21EF
:104B10004CE02C4BB3F8B831022B47D0284B002285
:104B200083F80A22264B052283F803223EE0254B18
:104B3000002283F81822234B012283F81422214BF0
:104B4000002283F819221F4B002283F817221D4BE5
:104B5000002283F812221B4B002283F81622184BE6
:104B6000D3F8FC31174AB2F8C821934220D3144B32
:104B7000022283F80A22124B0022C3F8FC21786833
:104B8000FFF7EAFB14E00E4BD3F8FC310D4AB2F804
:104B9000CA2193420ED30A4B012283F80A22084B02
:104BA0000022C3F8FC2105E000BF04E000BF02E0E2
:104BB00000BF00E000BF00BF2037BD46B0BD00BF52
:104BC00010180020F01500200000F04080B584B0DF
:104BD00002AF78607B6800221A727B6801225A60FB
:104BE0005E4B002283F81A215C4B0022C3F81C2183
:104BF0005A4BD3F81C31594A92F81A2111461846DB
:104C0000FEF7A4FF02467B689A627B68544A5A62A8
:104C10007B689A6A7B685B6A19461046FEF7BAFFA2
:104C20004E4B2B2283F80E224C4B402283F80F224E
:104C30007B68986A00230193002300930223494A6A
:104C40001D21FEF7F2FF4FF4FA7004F02DFC434BE8
:104C50002A2283F811227B68986A0023019301239A
:104C600000930123404A1D21FEF7DFFF03461A4649
:104C70003A4B83F81122394B93F81132002B10D1A3
:104C80007B68986A01230193002300930123364A2D
:104C90001D21FEF796FF012233493448FDF770FAD3
:104CA00003E02E4B002283F810222C4B2A2283F89B
:104CB0000E222A4B93F8103223F00103DAB2274B6D
:104CC00083F80F227B68986A0023019300230093E6
:104CD0000223244A1D21FEF7A8FF204B0E2283F851
:104CE0000E221E4B012283F80F227B68986A002354
:104CF00001930023009302231A4A1D21FEF795FF1A
:104D0000164B5B2283F80E22144B002283F80F22ED
:104D10007B68986A00230193002300930223114AC1
:104D20001D21FEF782FF0D4B2A2283F80E220B4B2A
:104D3000192283F80F227B68986A002301930023CD
:104D400000930223074A1D21FEF76FFF7B680122B3
:104D50001A7200BF0837BD4680BD00BFF0150020A5
:104D6000A0860100FE170020011800200018002076
:104D700080B582B000AF78607B6800221A727B68D1
:104D800001225A601A4B4FF0FF32C3F81021184B22
:104D90000022C3F81421164BD3F810310A22002147
:104DA0001448FDF7EBFE02467B681A617B681B69BD
:104DB0004FF4E1311846FEF7B9F90D4B012283F8A3
:104DC00018210B4B002283F819217B681869084BC6
:104DD00093F81921064B93F818310821FEF7B2F920
:104DE0007B6801221A7200BF0837BD4680BD00BF34
:104DF000F015002004170020F0B591B002AF944BDD
:104E0000D3E92201934BD3E90623FCF771F803465B
:104E1000002B05D18F4BD3E906238D49C1E922230D
:104E20008B4BD3F8803044228B491846FEF79EF90D
:104E30000346FB71442288498848FDF7A1F9844B59
:104E400093F80C32002B5AD1814B012283F80C22AB
:104E50007F4B012283F80D22804B0622A3F8B82154
:104E60007E4B3C22A3F8B2217C4B7822A3F8B421DC
:104E70007A4BFA22A3F8B621784B9622A3F8BA21EE
:104E8000764B0A22A3F8BC21744B1022A3F8BE2152
:104E9000724969A3D3E90023C1E956236F4B142259
:104EA000A3F8C0216D4BB422A3F8C2216B494FF087
:104EB00000026B4BC1E95823684B0A22A3F8C421B6
:104EC000664BC822A3F8C62164495DA3D3E9002339
:104ED000C1E95A2361494FF00002614BC1E95C23EB
:104EE0005E4B0A22A3F8C8215C4BC822A3F8CA2152
:104EF0005A4955A3D3E90023C1E95E23FBE0544B93
:104F000093F80D32032B10D0032B13DC012B02D0AE
:104F1000022B05D00EE04E4B042283F80D22EAE06E
:104F20004B4B042283F80D22E5E0494B042283F821
:104F30000D22E0E0FB79002B40F0DC80474B1B7832
:104F4000162B71D1454B5B78222B02D0552B07D005
:104F500065E03F4B022283F80D22FEF767FFC9E0B0
:104F60003B4B032283F80D2202223E493E48FDF7C7
:104F700007F902223D493E48FDF702F902223D4968
:104F80003D48FDF7FDF802223C493D48FDF7F8F8A1
:104F900002223C493C48FDF7F3F802223B493C48D9
:104FA000FDF7EEF802223B493B48FDF7E9F80822FD
:104FB0003A493B48FDF7E4F802223A493A48FDF7FE
:104FC000DFF8022239493A48FDF7DAF80822394970
:104FD0003948FDF7D5F8022238493948FDF7D0F8AD
:104FE000022238493848FDF7CBF8082237493848BB
:104FF000FDF7C6F8082237493748FDF7C1F8022205
:1050000036493748FDF7BCF8022236493648FDF7E5
:10501000B7F8082235493648FDF7B2F86AE00C4B7C
:10502000042283F80D2265E0094B042283F80D2247
:1050300060E000BFAFF300809A9999999999C93FB0
:10504000CDCCCCCCCCCCFC3F9A9999999999014084
:10505000101800208006002034160020F0150020D3
:1050600000000C40F2150020A8170020F4150020C5
:10507000A2170020F6150020A4170020F815002024
:10508000A6170020FA150020AA170020FC15002002
:10509000AC170020FE150020AE17002000160020DF
:1050A0004817002008160020B01700200A1600201C
:1050B000B21700200C1600205017002014160020F4
:1050C000B417002016160020B6170020181600206E
:1050D00058170020201600206017002028160020F6
:1050E000B81700202A160020BA1700202C1600201E
:1050F0006817002000BF944BD3F80861934BD3E9A5
:105100001A45934BD3E95A01904BD3E91823FBF787
:10511000B1FD02460B4620462946FBF781FC0246BC
:105120000B4643EC172BB0EE470AF0EE670A304609
:10513000FDF794FA864BD3E95801844BD3E91C233D
:10514000FBF798FD02460B46104619467F4BD3E904
:105150001E23FBF765FC02460B467D49C1E964232B
:105160007B4BD3E95C01794BD3E92023FBF782FD2C
:1051700002460B4610461946744BD3E92223FBF72F
:105180004FFC02460B467249C1E962236E4BD3E9DC
:1051900032016E4BD3E90A23FBF7AAFE0346002B2C
:1051A00005D16A4BD3E90A236749C1E93223664B2B
:1051B000D3F8C0301846FDF71FFB03467B71634BE5
:1051C000D3E92445624BB3F8B2311846FBF7AEFB86
:1051D00002460B4620462946FBF74CFD02460B468D
:1051E0005B49C1E96023584BD3E92A01574BD3E906
:1051F0001623FBF77DFE0346002B05D1534BD3E965
:1052000016235149C1E92A234F4BD3F8A030184641
:10521000FDF7F2FA0346BB714D4BB3F8B8214B4B87
:10522000B3F8AA309A4205D3484BD3E91223C7E911
:10523000082304E0454BD3E91423C7E90823D7E941
:1052400008014FF000024FF00003FBF779FE034620
:10525000002B00F026813C4BD3E904013B4BD3E902
:105260000C23FBF745FE0346002B05D1374BD3E952
:105270000C233549C1E904230123FB71324B986AA1
:10528000FA1D002301930123009301231D21FEF742
:10529000CCFC0346FB71FB79002B5BD12A4B986A4F
:1052A00007F11002012301930023009306231D211F
:1052B000FEF787FC07F1100107F1180306221846D4
:1052C000FCF75EFF07F1180107F1080302221846F8
:1052D000FCF756FF7B7A3B733B7A7B7307F10C013B
:1052E00007F1180302221846FCF74AFF07F11803DA
:1052F000991C07F1080302221846FCF741FF7B7A4C
:105300003B733B7A7B7307F10C0107F118030233FF
:1053100002221846FCF734FF07F11803191D07F1A4
:10532000080302221846FCF72BFF7B7A3B733B7A7B
:105330007B7307F10C0107F11803043302221846AE
:10534000FCF71EFF0CE000BF1018002080060020B4
:10535000F015002000233B8300237B830023BB83C5
:10536000B7F918309FEDC60B1846FEF79BFF0346B2
:105370001846FBF7EBFA02460B46FBF79BF9024691
:105380000B4610461946C0A3D3E90023FBF748FBA0
:1053900002460B46104619464FF00002BC4BFBF785
:1053A00069FC02460B4643EC172BB0EE470AF0EEC1
:1053B000670A06F081FB55EC104BB7F91A309FEDE8
:1053C000B00B1846FEF76EFF03461846FBF7BEFA11
:1053D00002460B46FBF76EF902460B46104619468D
:1053E000A9A3D3E90023FBF71BFB02460B4610469B
:1053F00019464FF00002A64BFBF73CFC02460B4659
:1054000043EC172BB0EE470AF0EE670A06F054FBA8
:1054100053EC102B20462946FBF74CF902460B466D
:1054200014461D46B7F91C309FED950B1846FEF744
:1054300039FF03461846FBF789FA02460B46FBF78D
:1054400039F902460B46104619468FA3D3E90023CB
:10545000FBF7E6FA02460B46104619464FF00002EB
:105460008B4BFBF707FC02460B4610461946894B4F
:10547000D3E91023FBF71CF902460B4643EC172B2C
:10548000B0EE470AF0EE670A06F016FB53EC102B5D
:1054900020462946FBF70EF902460B467E49C1E934
:1054A00048237D4BD3E948017B4BD3E956230124A4
:1054B000FBF73CFD0346002B01D100231C46E3B261
:1054C00087F83130744BB3F8C2311A46724BB3F8D7
:1054D000B231D31A7B63704BB3F8C2311A467B6B7F
:1054E000934201D900237B636B4BB3F8BC31002B93
:1054F0000AD17B6B9BB2002B02D100237B862BE071
:105500004FF6FF737B8627E07B6B9AB2624BB3F852
:10551000BC31B2FBF3F37B867B6B9AB25E4BB3F884
:10552000BC31798E11FB03F39BB2D31AFB85FB8D43
:10553000002B11D0FA8D584BB3F8BC315B089BB2ED
:105540001946554BB3F8BC3103F001030B449A42A2
:1055500002DB7B8E01337B86504BB3F80032002B8D
:1055600005D14D4BB3F8B2214C4BA3F8002297F86C
:105570003130002B20D0494BB3F800321A467B8ED5
:1055800013447B637B6BB3F5803F02D34FF6FF730D
:105590007B637B6B9AB2414BA3F800227B6B9AB280
:1055A0003D4BB3F8C2319A4214D93B4BB3F8C221F8
:1055B0003A4BA3F800220DE0384BB3F80022364BEB
:1055C000B3F8B2319A4205D2334BB3F8B221334B20
:1055D000A3F80022314BD3F8FC31B3F1FF3F06D0E2
:1055E0002E4BD3F8FC3101332C4AC2F8FC312B4B43
:1055F00093F80232002B09D1284B012283F80222B2
:10560000264B052283F8032200F023BC234B93F89A
:105610000332013B072B00F20E8401A252F823F063
:105620004156000075580000835800000F5A0000D2
:10563000515B00005B5B0000EB5C0000295E00003A
:10564000164B93F80B32032B00F0A980032B00F3C9
:10565000DD80012B02D0022B22D0D7E00F4BD3F8F4
:10566000FC310D4AB2F8C6219342C0F0FB800B4BCF
:10567000022283F80B22094B0022C3F8FC21F1E03F
:1056800000000000000000C008AC1C5A643BCF3F83
:1056900000408F4080060020F015002010180020E8
:1056A0007B79002B08D0BE4B012283F80B22BC4B28
:1056B0000022C3F8FC21D7E0BA4BD3E96045B94BCF
:1056C000B3F8C6311846FBF731F902460B462046BF
:1056D0002946FAF7EDFF02460B4643EC172BB0EED6
:1056E000470AF0EE670A02F095F9B0EE407AF0EE64
:1056F000607A87ED087BD7E908014FF00002AA4BDA
:10570000FBF700FC0346002B16D0D7E908014FF049
:1057100000024FF00003FBF709FC0346002B08D002
:10572000D7E9082310461946FBF73CFC03467B8665
:1057300005E000237B8602E04FF6FF737B86984BE3
:10574000D3F8FC217B8E9A42C0F08E80944B0422C9
:1057500083F80B22924B0022C3F8FC21914B0022CC
:1057600083F818228F4B012283F814228D4B0122DB
:1057700083F815228B4B002283F81922894B0022D3
:1057800083F81722874B002283F81222854B0022D0
:1057900083F81622834B002283F8132264E0814BA6
:1057A000012283F818227F4B012283F814227D4BBB
:1057B000002283F817227B4B002283F81222794BB8
:1057C000012283F81922774B002283F81622744BAA
:1057D000D3F8FC31734AB2F8C621934208D3704B18
:1057E000022283F80B226E4B0022C3F8FC213DE01D
:1057F0006C4BB3F8B831032B38D0694B002283F8D7
:105800000B22674B052283F803222FE0654B002211
:1058100083F81822634B012283F81422614B002283
:1058200083F819225F4B002283F817225D4B002278
:1058300083F812225B4B002283F81622584BD3F8D0
:10584000FC31584AB2F8C421934211D3544B03227D
:1058500083F80B22524B0022C3F8FC215348FEF779
:10586000B9FE05E000BFF4E200BFF2E200BFF0E2E3
:1058700000BFEEE27B1D4D4A19464D48FEF7DCFEA7
:10588000E7E2474B93F80932012B40F09380454BF8
:10589000012283F81822434B012283F81422414B42
:1058A000002283F817223F4B002283F812223D4B3F
:1058B000012283F819223B4B002283F81622394B30
:1058C000D3E96045374BB3F8C4311846FBF72EF8DF
:1058D00002460B4620462946FAF7EAFE02460B46E8
:1058E00043EC172BB0EE470AF0EE670A02F092F88D
:1058F000B0EE407AF0EE607A87ED087BD7E90801D8
:105900004FF00002284BFBF7FDFA0346002B16D0A0
:10591000D7E908014FF000024FF00003FBF706FB48
:105920000346002B08D0D7E9082310461946FBF799
:1059300039FB03467B8605E000237B8602E04FF6B9
:10594000FF737B86164BD3F8FC217B8E9A4218D3CB
:10595000134B022283F80922114B0022C3F8FC21C9
:10596000104B002283F818220E4B012283F81522D7
:105970000C4B002283F819220A4B002283F81322D1
:1059800060E2084BB3F8B831012B00F05B82044BA6
:10599000002283F80922024B052283F8032251E2F8
:1059A00010180020F01500200000F04080170020A3
:1059B000101A0020B04B002283F81822AE4B0122AF
:1059C00083F81422AC4B002283F81922AA4B002240
:1059D00083F81722A84B002283F81222A64B00223C
:1059E00083F81622A54BD3F8FC31A34AB2F8C421A0
:1059F0009342C0F02782A14B012283F809229F4BDA
:105A00000022C3F8FC219E48FEF7E4FD1AE29B4BFE
:105A100093F80532012B6ED1974B012283F818229F
:105A2000954B012283F81422934B002283F817220E
:105A3000914B002283F812228F4B012283F8192206
:105A40008D4B002283F816228C4BB3F80032184697
:105A5000FAF76CFF4FF000028A4BFAF7E1FF0246BB
:105A60000B4643EC172BB0EE470AF0EE670A01F045
:105A7000D1FF53EC102B10461946FBF76BFA034687
:105A8000BB62BB6A7C4AB2F8C4219B1A7B63BB6AC7
:105A90007A6B9A4201D900237B63784BD3F8FC31AF
:105AA0007A6B9A4218D8754B022283F80522734B01
:105AB0000022C3F8FC21704B002283F818226E4BA1
:105AC000012283F815226C4B002283F819226A4BBD
:105AD000002283F81322B7E1674BB3F8B831052BE6
:105AE00000F0B281654B002283F80522634B05224A
:105AF00083F80322A8E1604B002283F818225E4B52
:105B0000012283F814225C4B002283F819225A4B9D
:105B1000002283F81722584B002283F81222564B9A
:105B2000002283F81622554BD3F8FC31524AB2F8C2
:105B3000C4219342C0F08881504B012283F8052292
:105B40004E4B0022C3F8FC214D48FEF743FD7BE19C
:105B50004B494D48FEF77CFE7BE1484B93F80832F9
:105B6000012B40F09580444B012283F81822424BD0
:105B7000012283F81422404B002283F817223E4B67
:105B8000002283F812223C4B002283F819223A4B60
:105B9000012283F81622384BD3E96045364BB3F81F
:105BA000C8311846FAF7C2FE02460B46204629467F
:105BB000FAF77EFD02460B4643EC172BB0EE470A80
:105BC000F0EE670A01F026FFB0EE407AF0EE607A60
:105BD00087ED087BD7E908014FF000022B4BFBF75C
:105BE00091F90346002B16D0D7E908014FF00002C7
:105BF0004FF00003FBF79AF90346002B08D0D7E9D2
:105C0000082310461946FBF7CDF903467B8605E0CD
:105C100000237B8602E04FF6FF737B86174BD3F899
:105C2000FC217B8E9A4218D3144B022283F808225F
:105C3000124B0022C3F8FC210F4B002283F81822DC
:105C40000D4B002283F815220B4B002283F81622FD
:105C5000094B012283F81322F8E0074BB3F8B8315F
:105C6000002B00F0F380054B002283F80822034B41
:105C7000052283F80322E9E0F01500201018002027
:105C8000801700200000E03F781700200000F0405F
:105C9000814B002283F818227F4B012283F81422C3
:105CA0007D4B002283F819227B4B002283F81722B8
:105CB000794B002283F81222774B002283F81622B8
:105CC000764BD3F8FC31744AB2F8C8219342C0F045
:105CD000BD80724B012283F80822704B0022C3F86A
:105CE000FC216F48FEF738FBB0E06C4B93F80432B0
:105CF000012B6DD1684B012283F81822664B0122DB
:105D000083F81422644B002283F81722624B00228E
:105D100083F81222604B002283F819225E4B012285
:105D200083F816225C4BB3F8B831042B08D05B4BD8
