:1000000000000020FD040000E3750000E975000019
:10001000EF750000F5750000FB75000000000000A2
:100020000000000000000000000000006D0500005E
:1000300001760000000000001306000073060000B7
:10004000A1740000AF740000BD740000CB74000008
:10005000D9740000E7740000F57400000375000017
:10006000117500001F7500002D7500003B75000024
:100070004975000057750000657500007375000034
:1000800081750000077600000D76000013760000F1
:10009000197600001F760000257600002B76000000
:1000A00031760000377600003D7600004376000090
:1000B000497600004F760000557600008F750000ED
:1000C0005B7600009D75000061760000AB75000056
:1000D00067760000B97500006D7600007376000049
:1000E000797600007F760000857600008B76000030
:1000F00091760000977600009D760000A3760000C0
:100100000D0500000D0500000D0500000D050000A7
:10011000A9760000AF760000B5760000BB7600003F
:10012000C1760000C7760000CD760000D3760000CF
:10013000D9760000DF760000E5760000EB7600005F
:10014000F1760000F7760000C7750000FD7600002C
:10015000D575000003770000097700000F770000D5
:10016000157700001B77000021770000277700003B
:100170002D77000033770000397700003F770000CB
:10018000457700000D0500000D0500000D0500007D
:100190000D0500000D0500000D0500000D05000017
:1001A0000D0500000D0500000D0500000D05000007
:1001B0000D0500000D0500000D0500000D050000F7
:1001C0000D0500000D0500000D0500000D050000E7
:1003F0000D0500000D0500000D050000FFFFFFFFCB
:10040000FFFFFFFFFFFFFFFFFFFFFFFFFEFFFFFFFD
:1004400010B5054C237833B9044B13B10448AFF30E
:1004500000800123237010BDE81000200000000080
:100460009CFD000008B5034B1BB103490348AFF3E3
:10047000008008BD00000000EC1000209CFD000082
:10048000A3F5803A704700BF174B002B08BF134BF2
:100490009D46FFF7F5FF00218B460F461348144A8F
:1004A000121A0BF04BFF0E4B002B00D098470D4B50
:1004B000002B00D098470020002104000D000D48BB
:1004C000002802D00C480BF015FC0BF059FC200062
:1004D000290003F021FC0BF019FC00BF000008000C
:1004E00000000000CD78000000000020E81000208F
:1004F000C04A0020F5BC00002DBD000072B606F019
:10050000E7FB06F07DFB62B6FFF7BEFFFFF7FEBF1D
:1005100080F309887047EFF309807047684680F3DD
:1005200009885A480078C00714BF0220032080F3CE
:1005300014887047DFF858C1EFF305831B0618BF16
:100540006047EFF31483DB0708BF604700DF7047A5
:10055000DFF840C1EFF305831B0618BF6047EFF3D8
:100560001483DB0708BF604700DF7047EFF30980A3
:10057000816911F8021CE1BB90E80F1010B5E0474B
:10058000BDE81040EFF3098C8CE80700424B93E87C
:100590000600914208BF704741B91EF0100F16D1F6
:1005A0003E49086820F00100086010E01EF0100FBE
:1005B00006BF2CED108A0120002081F825002CE9CF
:1005C000F00FC1F828C00CB408F082FC0CBC1A6013
:1005D000D2F828C0BCE8F00F92F8250000280EBF22
:1005E0006FF0020E6FF0120EBCEC108A8CF30988CB
:1005F000704710B52A4A1268914209D8294C54F81C
:10060000214090E80F10A047EFF3098C8CE80F0011
:1006100010BD10B508F0CEFBBDE810401E4B93E8AE
:100620000600914208BF7047EFF3098C1EF0100FCF
:1006300006BF2CED108A0120002081F825002CE94E
:10064000F00FC1F828C00CB408F042FC0CBC1A60D2
:10065000D2F828C0BCE8F00F92F8250000280EBFA1
:100660006FF0020E6FF0120EBCEC108A8CF309884A
:10067000704710B508F00EFCFFF7CEBF10B508F0BC
:1006800007FC08F007FCFFF7C7BF0000CCEB000039
:10069000418700005D8700005C4A002034EF00E0E5
:1006A00000000000FCFFFFFF81F0004102E000BFFE
:1006B00083F0004330B54FEA41044FEA430594EA22
:1006C000050F08BF90EA020F1FBF54EA000C55EA5D
:1006D000020C7FEA645C7FEA655C00F0E2804FEA2E
:1006E0005454D4EB5555B8BF6D420CDD2C4480EA10
:1006F000020281EA030382EA000083EA010180EA40
:10070000020281EA0303362D88BF30BD11F0004F8D
:100710004FEA01314FF4801C4CEA113102D04042C3
:1007200061EB410113F0004F4FEA03334CEA1333FE
:1007300002D0524263EB430394EA050F00F0A78016
:10074000A4F10104D5F1200E0DDB02FA0EFC22FA11
:1007500005F2801841F1000103FA0EF2801843FA05
:1007600005F359410EE0A5F120050EF1200E012AF6
:1007700003FA0EFC28BF4CF0020C43FA05F3C01834
:1007800051EBE37101F0004507D54FF0000EDCF1AD
:10079000000C7EEB00006EEB0101B1F5801F1BD356
:1007A000B1F5001F0CD349085FEA30004FEA3C0C5A
:1007B00004F101044FEA445212F5800F80F09A8050
:1007C000BCF1004F08BF5FEA500C50F1000041EB54
:1007D000045141EA050130BD5FEA4C0C404141EB58
:1007E0000101013C28BFB1F5801FE9D291F0000F53
:1007F00004BF01460020B1FA81F308BF2033A3F102
:100800000B03B3F120020CDA0C3208DD02F1140CF8
:10081000C2F10C0201FA0CF021FA02F10CE002F133
:100820001402D8BFC2F1200C01FA02F120FA0CFC2C
:10083000DCBF41EA0C019040E41AA2BF01EB045175
:10084000294330BD6FEA04041F3C1CDA0C340EDC73
:1008500004F11404C4F1200220FA04F001FA02F3B6
:1008600040EA030021FA04F345EA030130BDC4F174
:100870000C04C4F1200220FA02F001FA04F340EA69
:100880000300294630BD21FA04F0294630BD94F01A
:10089000000F83F4801306BF81F480110134013D01
:1008A0004EE77FEA645C18BF7FEA655C29D094EA72
:1008B000050F08BF90EA020F05D054EA000C04BFF0
:1008C0001946104630BD91EA030F1EBF00210020DB
:1008D00030BD5FEA545C05D14000494128BF41F07A
:1008E000004130BD14F580043CBF01F5801130BDDE
:1008F00001F0004545F0FE4141F470014FF0000069
:1009000030BD7FEA645C1ABF194610467FEA655C19
:100910001CBF0B46024650EA013406BF52EA0335BB
:1009200091EA030F41F4002130BD00BF90F0000FA9
:1009300004BF0021704730B54FF4806404F13204E5
:100940004FF000054FF0000150E700BF90F0000F9E
:1009500004BF0021704730B54FF4806404F13204C5
:1009600010F0004548BF40424FF000013EE700BF95
:1009700042004FEAE2014FEA31014FEA02701FBF25
:1009800012F07F4393F07F4F81F06051704732F057
:100990007F4208BF704793F07F4F04BF41F40021AE
:1009A000704730B54FF4607401F0004521F000410C
:1009B0001CE700BF50EA010208BF704730B54FF096
:1009C00000050AE050EA010208BF704730B511F097
:1009D000004502D5404261EB41014FF4806404F1CF
:1009E00032045FEA915C3FF4D8AE4FF003025FEA55
:1009F000DC0C18BF03325FEADC0C18BF033202EBD9
:100A0000DC02C2F1200300FA03FC20FA02F001FA32
:100A100003FE40EA0E0021FA02F11444BDE600BFD5
:100A200070B54FF0FF0C4CF4E06C1CEA11541DBF84
:100A30001CEA135594EA0C0F95EA0C0F00F0DEF84F
:100A40002C4481EA030621EA4C5123EA4C5350EA34
:100A5000013518BF52EA033541F4801143F4801385
:100A600038D0A0FB02CE4FF00005E1FB02E506F016
:100A70000042E0FB03E54FF00006E1FB03569CF06B
:100A8000000F18BF4EF0010EA4F1FF04B6F5007F71
:100A900064F5407404D25FEA4E0E6D4146EB0606E3
:100AA00042EAC62141EA55514FEAC52040EA5E506C
:100AB0004FEACE2EB4F1FD0C88BFBCF5E06F1ED816
:100AC000BEF1004F08BF5FEA500E50F1000041EB4D
:100AD000045170BD06F0004646EA010140EA0200FA
:100AE00081EA0301B4EB5C04C2BFD4EB0C0541EA1C
:100AF000045170BD41F480114FF0000E013C00F331
:100B0000AB8014F1360FDEBF002001F0004170BD54
:100B1000C4F10004203C35DA0C341BDC04F114046D
:100B2000C4F1200500FA05F320FA04F001FA05F2F9
:100B300040EA020001F0004221F0004110EBD370C6
:100B400021FA04F642EB06015EEA430E08BF20EAF2
:100B5000D37070BDC4F10C04C4F1200500FA04F395
:100B600020FA05F001FA04F240EA020001F0004127
:100B700010EBD37041F100015EEA430E08BF20EA9A
:100B8000D37070BDC4F1200500FA05F24EEA020EE2
:100B900020FA04F301FA05F243EA020321FA04F011
:100BA00001F0004121FA04F220EA020000EBD370C8
:100BB0005EEA430E08BF20EAD37070BD94F0000FC8
:100BC0000FD101F00046400041EB010111F4801FFC
:100BD00008BF013CF7D041EA060195F0000F18BFAD
:100BE000704703F00046520043EB030313F4801FE9
:100BF00008BF013DF7D043EA0603704794EA0C0FA3
:100C00000CEA135518BF95EA0C0F0CD050EA4106B8
:100C100018BF52EA4306D1D181EA030101F0004135
:100C20004FF0000070BD50EA410606BF104619465D
:100C300052EA430619D094EA0C0F02D150EA013669
:100C400013D195EA0C0F05D152EA03361CBF1046AA
:100C500019460AD181EA030101F0004141F0FE4149
:100C600041F470014FF0000070BD41F0FE4141F4CD
:100C7000780170BD70B54FF0FF0C4CF4E06C1CEACD
:100C800011541DBF1CEA135594EA0C0F95EA0C0F82
:100C900000F0A7F8A4EB050481EA030E52EA03353D
:100CA0004FEA013100F088804FEA03334FF080555E
:100CB00045EA131343EA12634FEA022245EA11158B
:100CC00045EA10654FEA00260EF000419D4208BF3C
:100CD000964244F1FD0404F5407402D25B084FEAE9
:100CE0003202B61A65EB03055B084FEA32024FF495
:100CF00080104FF4002CB6EB020E75EB030E22BFF2
:100D0000B61A754640EA0C005B084FEA3202B6EBB1
:100D1000020E75EB030E22BFB61A754640EA5C0060
:100D20005B084FEA3202B6EB020E75EB030E22BFF0
:100D3000B61A754640EA9C005B084FEA3202B6EBF1
:100D4000020E75EB030E22BFB61A754640EADC00B0
:100D500055EA060E18D04FEA051545EA16754FEA12
:100D600006164FEAC30343EA52734FEAC2025FEA30
:100D70001C1CC0D111F4801F0BD141EA00014FF0BF
:100D800000004FF0004CB6E711F4801F04BF014390
:100D90000020B4F1FD0C88BFBCF5E06F3FF6AFAEAC
:100DA000B5EB030C04BFB6EB020C5FEA500C50F13C
:100DB000000041EB045170BD0EF0004E4EEA1131BF
:100DC00014EB5C04C2BFD4EB0C0541EA045170BDC6
:100DD00041F480114FF0000E013C90E645EA060E0A
:100DE0008DE60CEA135594EA0C0F08BF95EA0C0F38
:100DF0003FF43BAF94EA0C0F0AD150EA01347FF480
:100E000034AF95EA0C0F7FF425AF104619462CE756
:100E100095EA0C0F06D152EA03353FF4FDAE1046B9
:100E2000194622E750EA410618BF52EA43067FF40A
:100E3000C5AE50EA41047FF40DAF52EA43057FF49A
:100E4000EBAE12E74FF0FF3C06E000BF4FF0010CA5
:100E500002E000BF4FF0010C4DF804CD4FEA410C09
:100E60007FEA6C5C4FEA430C18BF7FEA6C5C1BD0D6
:100E700001B050EA410C0CBF52EA430C91EA030F57
:100E800002BF90EA020F0020704710F1000F91EAB4
:100E9000030F58BF994208BF90422CBFD8176FEA82
:100EA000E37040F0010070474FEA410C7FEA6C5C50
:100EB00002D150EA013C07D14FEA430C7FEA6C5C57
:100EC000D6D152EA033CD3D05DF8040B704700BF83
:100ED0008446104662468C461946634600E000BFD1
:100EE00001B5FFF7B7FF002848BF10F1000F01BDA3
:100EF0004DF808EDFFF7F4FF0CBF012000205DF86E
:100F000008FB00BF4DF808EDFFF7EAFF34BF0120F2
:100F100000205DF808FB00BF4DF808EDFFF7E0FF8B
:100F200094BF012000205DF808FB00BF4DF808EDDC
:100F3000FFF7CEFF94BF012000205DF808FB00BF43
:100F40004DF808EDFFF7C4FF34BF012000205DF825
:100F500008FB00BF4A0011D212F5001211D20DD5C4
:100F60006FF47873B3EB62520ED44FEAC12343F0AF
:100F7000004343EA505323FA02F070474FF0000059
:100F8000704750EA013002D14FF0FF3070474FF008
:100F90000000704753B94AB9002908BF00281CBF98
:100FA0004FF0FF314FF0FF3001F0C0B8ADF1080C49
:100FB0006DE904CE00F006F8DDF804E0DDE9022377
:100FC00004B070472DE9F047089D04468C46002B7D
:100FD00040F083808A42174647D9B2FA82F242B182
:100FE000C2F1200024FA00F09140974040EA010C41
:100FF00094404FEA1748230CBCFBF8F61FFA87FE13
:1010000008FB16C143EA014306FB0EF1994209D9D8
:10101000FB1806F1FF3080F01981994240F21681E9
:10102000023E3B445B1AA4B2B3FBF8F008FB10335A
:1010300044EA034400FB0EFEA64509D93C1900F121
:10104000FF3380F00581A64540F2028102383C441E
:1010500040EA0640A4EB0E0400261DB1D440002354
:10106000C5E900433146BDE8F08702B9FFDEB2FAB8
:1010700082F2002A50D1CB1B4FEA174E1FFA87F895
:101080000126B3FBFEFC210C0EFB1C3341EA03419D
:1010900008FB0CF38B4207D979180CF1FF3002D210
:1010A0008B4200F2E9808446C91AA3B2B1FBFEF07C
:1010B0000EFB101143EA014408FB00F8A04507D9D4
:1010C0003C1900F1FF3302D2A04500F2D980184646
:1010D000A4EB080440EA0C40BFE78B4209D9002D7D
:1010E00000F0B1800026C5E9000130463146BDE878
:1010F000F087B3FA83F6002E4AD18B4202D38242A4
:1011000000F2B880841A61EB030101208C46002DA7
:10111000A8D0C5E9004CA5E7C2F1200320FA03F6E8
:10112000974001FA02F04FEA174ED9403043030CC2
:10113000B1FBFEF61FFA87F80EFB161143EA0143D6
:1011400006FB08F1994204FA02F409D9FB1806F1EA
:10115000FF3C80F08D80994240F28A80023E3B4401
:101160005B1A81B2B3FBFEF00EFB103341EA034180
:1011700000FB08F38B4207D9791800F1FF3C73D2CA
:101180008B4271D902383944CB1A40EA064678E7D7
:10119000C6F1200C03FA06F422FA0CF31C4320FAE1
:1011A0000CF701FA06F34FEA144E21FA0CF11F4333
:1011B0003B0CB1FBFEF91FFA84F80EFB191143EA50
:1011C000014109FB08FA8A4502FA06F200FA06F321
:1011D00008D9611809F1FF3048D28A4546D9A9F1EA
:1011E00002092144A1EB0A01BFB2B1FBFEF00EFBE4
:1011F000101147EA014700FB08F8B84507D9E7197D
:1012000000F1FF312ED2B8452CD90238274440EAEC
:101210000940A7EB0807A0FB02894F45C64649468F
:101220001AD317D05DB1B3EB0E0267EB010707FAD3
:101230000CFCF2404CEA0202F740C5E90027002608
:101240003146BDE8F0872E4628460BE70646E9E61C
:101250001846FDE64345E5D2B8EB020E69EB040102
:101260000138DFE70846D2E760468DE78146B9E7F7
:10127000664675E730464AE7ACF1020C394413E79D
:1012800002383C4424E700BF03685A004CBF43F0D7
:10129000004323F000431844704700BF2DE9F84392
:1012A00029B34F1E044615463E464FF0000808EB92
:1012B000060101EBD171491004EBC1094846FFF763
:1012C000E3FF0346C80008308F42204409D0AB42F8
:1012D00009D8FFF7D9FF0138A8420AD201F1010865
:1012E000E5E7AB4205D9884501D04E1EDFE74FF058
:1012F00000094846BDE8F883012807D0022807D036
:10130000044B00280CBF1846002070470248704765
:1013100002487047BD190000C1190000C51900003E
:1013200030B5234B83B004468D1E3BB301A928463C
:10133000AFF30080E8B101992A46FFF7AFFF0146FD
:10134000B8B1FFF7A1FF4B68A064012B2BD0002B95
:1013500001F1040023DBFFF797FF0023C4E9130327
:101360000368002B10DBFFF78FFF2061002003B024
:1013700030BD00230920236103B030BD0D490E4864
:10138000091AC9100191D7E7C3F30360FFF7B4FF4F
:101390000028206114BF0020092003B030BD0123C4
:1013A000C4E91303DCE7002323610520DFE700BF66
:1013B0000000000034040100B40001000368DA07F3
:1013C00010B5044606D49B0700F1480009D500F08B
:1013D0004BFC2368590709D51A070ED5DB0613D530
:1013E00010BD00F039FC23685907F5D404F1D00092
:1013F00000F042FC23681A07F0D404F5A87000F04E
:1014000043FC2368DB06EBD404F5E870BDE810402C
:1014100000F07EBC0346006800B11844704700BF6E
:1014200009207047704700BF70B504460E46316C06
:101430002046FFF775FF054688B9336C6361324675
:1014400023692146012098470828F0D0072806D1B3
:101450002846316CFFF7E6FF301D00F0F1FB0AF083
:1014600023FC00BF2DE9F0470D1D064614460FCDA5
:10147000ADF5727D0DF10C0CACE80F000FCDACE8B2
:101480000F000FCDACE80F0095E80F0002ADF76834
:10149000D6F818808CE80F0000232B6021E02B6C1D
:1014A00073614FF4F07229467AA800F041FE336967
:1014B0007AAA314650469847889BCDE90058214684
:1014C0006B648146334632460120B8470446E8B98A
:1014D0004FF4F0727AA9284600F02AFEB9F1080FFD
:1014E0001BD1296C3046FFF71BFF09345FFA84FAE1
:1014F00081460028D3D0AB6B4AF01001CDE90058EB
:1015000032466B6401203346B84708B14FF00909F1
:1015100048460DF5727DBDE8F087B9F1070FF5D1AA
:101520002046296CFFF77EFF03A800F089FB00BF6F
:10153000406C7047F0B5CB6B0B640E1D0F46054633
:101540000FCEF9B001AC0FC40FCE0FC40FCE0FC435
:1015500096E80F004FF0FF3684E80F00009606E093
:101560002B696A46294698470828044608D11099ED
:101570002846FFF7D5FE0028F2D0092079B0F0BD4B
:101580006846FFF71BFF062CF7D139462846FFF7C0
:101590004BFF00BF30B4DD6BC160826119461D6432
:1015A000002230BC5EE700BF70B5C66843690B64BB
:1015B000AEB903690A4604460D4601460220984723
:1015C000072805D008280FD129462046FFF72CFF11
:1015D0003046296CFFF726FF281D00F031FB012261
:1015E000FFF740FF0AF060FB0AF05EFBC2681AB129
:1015F000CA6B0A64002235E79CE700BF704700BF52
:10160000836801460BB1012018477047012912D0A9
:1016100009D873B90F2A0CD800EB82021846536818
:10162000009A136070470339012994BF01200220FA
:101630007047022070470846704700BF10B584B05D
:10164000002303AC0A4600941946FFF7DFFF039816
:1016500004B010BD012912D009D873B90F2A0CD8D3
:1016600000EB8200009A1268426018467047033906
:10167000012994BF012002207047022070470846CC
:10168000704700BF10B584B0002303AC03920094F0
:101690000A461946FFF7DEFF04B010BDF0B5D36B64
:1016A0001364151D8C4606460FCDADF50F7D17ACA6
:1016B0000FC40FCD0FC40FCD0FC495E80F004FF02E
:1016C000FF3784E80F006546169710E0FFF7DAFF52
:1016D000294616A8B047034616AA6946082083B9CA
:1016E000049B9847052804460CD0092809D0269960
:1016F0006846FFF715FE03466A460C2116A8002B24
:10170000E4D0092416A8FFF759FE20460DF50F7DF9
:10171000F0BD00BF2DE9F04FCC6C89B00D4654F8F8
:10172000041B0694174600F003081E46002B79D0D0
:101730000B0CDAB209048DF81D30022304EB82048D
:1017400005918DF81C302B6DB8F1020F08BFAC6B02
:1017500013F001030CD0384605A900F073FB18B94B
:10176000082009B0BDE8F08F092009B0BDE8F08F6E
:10177000D4F800A0BAF1000FEDD0019300F00803F7
:101780000293022E4AD0B4F800A0B4F802900434B8
:10179000AA6C29F0010B0F2138469344FFF74EFF46
:1017A000834539D82AF001025A44824294BF00206E
:1017B00001204FEA490303F002030AF0010A43EA59
:1017C0000A03012B49D0022B32D0002BCCD1B8F127
:1017D000000F02D0002840F0CD800434D4F800A0DF
:1017E000BAF1000FCDD105A9384600F02BFB002837
:1017F000BAD1019B002BB3D00F213846FFF71EFF53
:101800000E2102463846FFF73DFF38466A4A0F214F
:10181000FFF738FF0720A8E70020CAE7D4F80490B4
:101820000834B5E7090203230591ADF81C308AE7B7
:10183000236823F0004BB8F1000F45D128B1029A7C
:10184000002A5CD0BBF1000F74D0002B00DA043406
:101850000BF1010B04EB8B04C0E7B8F1000F19D1B9
:10186000B0B1D4E90023991C4FEAD2723FF47CAFA7
:1018700005F158010133049100F09080201DFFF71D
:10188000C9FD04AB01462846AFF3008000285BD1B8
:101890000834A3E70D213846D5F82090FFF7CEFE97
:1018A0008145F5D1AB6A9C42F2D12046FFF7ECFCB2
:1018B0000F2102463846FFF7E5FE38462A4600214A
:1018C000FFF7E0FE072050E70D213846D5F82090BD
:1018D000FFF7B4FE814501D02368B6E7AB6A9C42AE
:1018E000FAD104220021C5E90B12A318C5F828B0CB
:1018F0006B6323688B4259DB01230193A8E705F151
:101900005803CDF80C8004F1040AB04691461E46F7
:101910000DE00496FFF77EFD04AB01460022284649
:10192000AFF3008009F101090AF1040AE8B9D945C9
:101930005046EED138460D21FFF780FE049B286209
:10194000C5E90934062010E781460D213846FFF726
:1019500075FEB9F1020F286225D12B46049A43F88F
:101960002C2F6B62AC620620FFE646462368DDF84A
:101970000C806AE72046FFF787FC04340246AC631C
:1019800028461446AFF3008000283FF4EDAE3846F9
:1019900022460F21FFF776FE0720E6E638460D21A6
:1019A000FFF74CFE2862049B6B62DBE70BF1010042
:1019B00004EB80007AE700BF000000000023A9E6E6
:1019C0000123A7E60223A5E62DE9F0430646C3B0AE
:1019D00015461C46042900F2B980DFE801F09A534D
:1019E000B7290300002C40F0B180102A00F2AE802D
:1019F0000368D80600F1F38020AF384600F092F972
:101A0000B06B0023012404FA03F22A42014604D0F9
:101A100051F8042B47F8232008460133042BF2D158
:101A2000B063384600F074F9002043B0BDE8F0839D
:101A3000032C40F08B8094B204EB1243102B4FEA3E
:101A4000124500F2838003681F0700F1D08020AFA9
:101A5000384600F03BF907EBC501B56B54B10B46B6
:101A6000E81A01EBC401E4001A5843F8042B8B4236
:101A7000FAD125443846B56300F006F9002043B09A
:101A8000BDE8F083012C4FEA124895B25AD0052CDC
:101A90005CD108EB0509B9F1200F57D8B8F10F0F49
:101AA00077D9A946002D40F08880B36B6DB320AF85
:101AB0004FF0000907EBC807043F03EBC50553F8D7
:101AC000041B47F8041FAB42F9D1B9F1000F0FD046
:101AD0006F464146102938BF102107EBC1018439F8
:101AE00003EBC90553F8040B41F8040FAB42F9D1DD
:101AF000012C00F08480B8F10F0FB56345D9B9F11E
:101B0000000F02D0684600F0B7F8002043B0BDE8EF
:101B1000F083DCB9876B2346012094B206F1040CF4
:101B200000FA03F22242394604D051F8042B4CF853
:101B300023200F460133102BF2D115F40050E4D1CD
:101B4000B76304E008EB0503102B03D9022043B070
:101B5000BDE8F083B8F10F0FF8D83368DA0706D57F
:101B6000304623F0030340F8483B00F079F820AFFB
:101B7000384600F075F8B36B002D99D11D46043539
:101B8000B563384600F068F8BFE720A800F06CF8AD
:101B9000B5E7B9F1100F40D9A9F110093368D90799
:101BA00008D523F00103304643F0020340F8483BD8
:101BB00000F05EF8B9F1000F32D033685A0720D434
:101BC000B8F10F0F25D96F463846C8F1100500F05F
:101BD00057F8002DB36B7FF77CAF20AF6AE723F097
:101BE0001003336006F5E87000F09CF804E723F07A
:101BF0000803036000F5A87000F068F827E720AF3D
:101C0000BDE7304623F0040340F8D03B00F038F83D
:101C1000D6E720A800F02CF8D5E74FF00009BDE783
:101C2000B8F10F0F3FF641AF20AF384600F020F873
:101C3000B36B002D7FF43CAF384600F015F864E735
:101C400000F1340191E838009C46A6464CF8045D4A
:101C500090E8FF0FE54600BD90EC210B704700BFF8
:101C600080EC210B704700BF90EC200B704700BF49
:101C700080EC200B704700BFD0EC200B704700BFFA
:101C8000C0EC200B704700BFF0EC0201F0EC021139
:101C9000F0EC0221F0EC0231F0EC0241F0EC0251E8
:101CA000F0EC0261F0EC0271F0EC0281F0EC0291D8
:101CB000F0EC02A1F0EC02B1F0EC02C1F0EC02D1C8
:101CC000F0EC02E1F0EC02F1704700BFE0EC020141
:101CD000E0EC0211E0EC0221E0EC0231E0EC024128
:101CE000E0EC0251E0EC0261E0EC0271E0EC028118
:101CF000E0EC0291E0EC02A1E0EC02B1E0EC02C108
:101D0000E0EC02D1E0EC02E1E0EC02F1704700BF50
:101D1000B0FC0181B0FC0191B0FC01A1B0FC01B1AB
:101D2000704700BFA0FC0181A0FC0191A0FC01A1B3
:101D3000A0FC01B1704700BFEC4600B52DE9005092
:101D40002DE9FF1F4FF000032DE90C0001A9FFF75B
:101D5000F1FBDDF840E012B0704700BFEC4600B583
:101D60002DE900502DE9FF1F4FF000032DE90C0075
:101D700001A9FFF719FCDDF840E012B0704700BF81
:101D8000EC4600B52DE900502DE9FF1F4FF0000390
:101D90002DE90C0001A9FFF729FCDDF840E012B0A5
:101DA000704700BFEC4600B52DE900502DE9FF1F3C
:101DB0004FF000032DE90C0001ABFFF7EBFBDDF862
:101DC00040E012B0704700BFEC4600B52DE900506E
:101DD0002DE9FF1F4FF000032DE90C0001AAFFF7CA
:101DE0005DFCDDF840E012B0704700BF027A7AB9BE
:101DF000437AA3B14268013B10B4437213680321D4
:101E0000141D01721A024460026010BC180E704763
:101E10000368013A02721A020260180E7047B0207D
:101E2000704700BF00B585B003AA00230092194691
:101E30000C22FFF7EBFB039805B05DF804FB00BF35
:101E4000F0E700BF2DE9F043054685B00E464FF0A0
:101E500000083046FFF7CAFFB028044600F0B28001
:101E6000070620D500F0F003802B4DD0902B36D004
:101E7000A02B60D0B02B74D0C02B00F08B8000F072
:101E8000F803D02B0BD100F00702013242F40022FC
:101E9000052301212846FFF797FD0028D9D0092006
:101EA00005B0BDE8F0830DF10C0900231946870049
:101EB000CDF800900D222846FFF7A8FBFFB2039B48
:101EC000CDF80090043760064CBFDF1BFF180023DD
:101ED00019460D2228460397FFF7BCFBB9E700F02F
:101EE0000D030D2BDBD003AF002300F00F021946CA
:101EF00000972846FFF78AFB0023009719460D221A
:101F00002846FFF7A7FBA4E73046FFF76FFF240240
:101F10002043B0F5004FC2D004010023A2B21946FD
:101F20002846FFF751FD0028B9D114F4004F18BF1F
:101F30004FF001088DE7C24302F007034FF47F62C0
:101F40001A41010702F47F624FF0000348BF42F4D8
:101F5000804219462846FFF737FD00283FF479AF45
:101F60009DE7B12833D0B22800F08B80B32839D058
:101F700000F0FC03B42B92D000F0070201320123E1
:101F800042F4002219462846FFF71EFD00283FF4C0
:101F900060AF84E7C62842D0C7284CD000F0F803D1
:101FA000C02B5BD0C82860D0C9287FF478AF3046FA
:101FB000FFF71CFF020300F00F0002F47022013053
:101FC000024365E7B8F1000F18D0002068E73046FB
:101FD000FFF70CFF024600283FF461AF10F0F0035A
:101FE000D0D05CE73046FFF701FF010300F00F009F
:101FF00001F47021421C01230A43C3E703AC4346AA
:102000000E22414600942846FFF700FB0094284624
:1020100043460F224146FFF71DFB404640E730464E
:10202000FFF7E4FE010300F00F0001F47021421CF1
:1020300003230A43A6E73046FFF7D8FE02460028EE
:102040003FF42DAF10F0F0037FF429AF04212846B0
:10205000FFF7BAFC00283FF4FCAE20E700F00F02C7
:102060000132032342F420228CE73046FFF7BEFE04
:1020700000F0F00200F00F031032013343EA0232A5
:1020800006E700230DF10C090D221946CDF800904A
:102090002846FFF7BBFA3046FFF7A8FE02064FF0CE
:1020A00002070CD5039B00F07F00B8400344304684
:1020B0000393FFF79BFE030607F10707F2D4039B88
:1020C000CDF8009000F07F0403F50172BC400023BE
:1020D000144419460D2228460394FFF7BBFAB8E6CC
:1020E00010B5C26C84B0536803248DF80C401B02F9
:1020F00002F108040846D279019301A902948DF8EF
:102100000D20FFF79FFE04B010BD00BF08B5FFF71C
:1021100097FE806C08BD00BF08B5FFF791FEC06C4C
:10212000C379023300EB830008BD00BF704700BFD6
:10213000844641EA000313F003036DD1403A41D3D2
:1021400051F8043B40F8043B51F8043B40F8043B91
:1021500051F8043B40F8043B51F8043B40F8043B81
:1021600051F8043B40F8043B51F8043B40F8043B71
:1021700051F8043B40F8043B51F8043B40F8043B61
:1021800051F8043B40F8043B51F8043B40F8043B51
:1021900051F8043B40F8043B51F8043B40F8043B41
:1021A00051F8043B40F8043B51F8043B40F8043B31
:1021B00051F8043B40F8043B51F8043B40F8043B21
:1021C000403ABDD2303211D351F8043B40F8043BC1
:1021D00051F8043B40F8043B51F8043B40F8043B01
:1021E00051F8043B40F8043B103AEDD20C3205D3D1
:1021F00051F8043B40F8043B043AF9D2043208D0C9
:10220000D2071CBF11F8013B00F8013B01D30B883A
:1022100003806046704700BF082A13D38B078DD018
:1022200010F003038AD0C3F10403D21ADB071CBFEA
:1022300011F8013B00F8013B80D331F8023B20F854
:10224000023B7BE7043AD9D3013A11F8013B00F88D
:10225000013BF9D20B7803704B7843708B78837015
:102260006046704700000000000000000000000011
:1022700001F0FF01102A2BDB10F0070F08D010F837
:10228000013B013A8B422DD010F0070F42B3F6D13B
:10229000F0B441EA012141EA014122F007047FF054
:1022A00000070023F0E80256083C85EA010586EAAB
:1022B000010685FA47F5A3FA87F586FA47F6A5FAE7
:1022C00087F68EB9EED1F0BC01F0FF0102F00702F3
:1022D00032B110F8013B013A83EA010313B1F8D19E
:1022E0000020704701387047002D06BF354603387F
:1022F000073815F0010F07D1013015F4807F02BFB8
:10230000013015F4C03F0130F0BC0138704700BF08
:1023100000000000000000000000000000000000BD
:1023200000000000000000000000000000000000AD
:10233000000000000000000000000000000000009D
:1023400090F800F06DE9024520F007016FF0000CF5
:1023500010F0070491F820F040F049804FF000049D
:102360006FF00700D1E9002391F840F000F1080078
:1023700082FA4CF2A4FA8CF283FA4CF3A2FA8CF3B0
:102380004BBBD1E9022382FA4CF200F10800A4FA17
:102390008CF283FA4CF3A2FA8CF3E3B9D1E904236B
:1023A00082FA4CF200F10800A4FA8CF283FA4CF3A2
:1023B000A2FA8CF37BB9D1E9062301F1200182FA5C
:1023C0004CF200F10800A4FA8CF283FA4CF3A2FA62
:1023D0008CF3002BC6D0002A04BF04301A4612BA70
:1023E000B2FA82F2FDE8024500EBD2007047D1E973
:1023F000002304F00305C4F100004FEAC50514F002
:10240000040F91F840F00CFA05F562EA05021CBFD2
:1024100063EA050362464FF00004A9E780B584B083
:1024200000AFF860B9601346FB71BB681F2B05D97C
:102430000D4B0E4AFF210E4809F03EFCFB68BA68BE
:1024400053F8223023F0807323F4E063FA79120208
:1024500002F4E06243EA0201FB68BA6843F8221022
:1024600000BF1037BD4680BDA8E80000B0EA0000FC
:10247000B4E8000080B483B000AF78600B46FB7016
:102480007B681B6823F01802FB78DB0003F018035D
:102490001A437B681A6000BF0C37BD465DF8047BA9
:1024A0007047000080B58EB000AF786187ED020BF9
:1024B00087ED001B524A7B695B01134411331B7883
:1024C000002B40F08780002387F82830002387F80E
:1024D0002930002387F82A308023FB62484A7B6931
:1024E0005B0113441868464A7B695B01134404335B
:1024F0001968434A7B695B01134410331B781A4601
:10250000FFF78CFF3E4A7B695B01134408331B686D
:1025100007F128021146184607F070FE384A7B6919
:102520005B01134408331B68DBB20022012118460B
:1025300007F0EAFE324A7B695B011344113304223F
:102540001A702F4A7B695B01134403F11801D7E924
:102550000223C1E9002302233B7600237B76284A2D
:102560007B695B0113441833D3E9002310461946F5
:10257000FEF7F0FC0346FB61D7E90001FEF7EAFC39
:1025800003463B620023BB841D4A7B695B01134405
:1025900008331B681B4A52F823303B630021386B19
:1025A000FFF768FF164A7B695B011344083318681C
:1025B000134A7B695B0113440C331B68DAB207F1E1
:1025C0001803194607F0FEFE7B695B010C4A1344B1
:1025D0007B630FE00A4A7B695B01134411331B786C
:1025E000042B05D17B695B01054A13447B6301E041
:1025F00000237B637B6B18463837BD4680BD00BF28
:1026000078010020E8F4000080B483B000AF786067
:1026100000BF0C37BD465DF8047B704780B58AB0BB
:1026200000AFF86087ED000BFB687B627B6A002BD4
:102630002CD07B6A5B7C042B28D102233B740023C3
:102640007B747B6AD3E9062310461946FEF782FCA9
:1026500003467B61D7E90001FEF77CFC0346BB61C2
:102660000023BB837B6A9B680A4A52F823303B6293
:102670000021386AFFF7FEFE7B6A98687B6ADB6898
:10268000DAB207F11003194607F09CFE00BF2837A5
:10269000BD4680BDE8F4000080B485B000AF78602E
:1026A0007B68FB60FB68002B06D0FB685B7C042B1F
:1026B00002D1FB6800225A7400BF1437BD465DF892
:1026C000047B704780B483B000AF786000BF0C37E4
:1026D000BD465DF8047B704780B590B000AF786070
:1026E0000B46FB70FB78002B27D107F12403002257
:1026F0001A605A609A60DA601A615A612D4A7B68E2
:1027000052F833307B62012387F82830012387F8A1
:1027100029304FF0FF333B6307F12403184607F0DD
:1027200045FF244A7B68DB00134401221A717B6851
:10273000DB00204A1344FB6336E0FB78012B31D1E8
:1027400007F10C0300221A605A609A60DA601A617D
:102750005A61184A7B6852F83330FB6001233B759D
:102760004FF0FF33BB6107F10C03184607F090FFF1
:10277000104A7B68DB00134402221A717B68292B04
:102780000AD97B682C2B07D80A4A7B6852F8333069
:102790000121184607F0B8FF7B68DB00054A1344A7
:1027A000FB6301E00023FB63FB6B18464037BD462B
:1027B00080BD00BF0000002080B586B000AF78600B
:1027C0007B683B613B69002B0BD03B691B79012B7C
:1027D00007D13B691B68184607F0A4FF0346FB7549
:1027E00001E00023FB753B691B681B0ADBB2FB6041
:1027F0003B691B68DBB2BB60FB68022B02D1BB6884
:10280000062B05D0FB68002B09D1BB68042B06D131
:10281000FB7D002B0CBF01230023DBB2FB75FB7D8E
:1028200018461837BD4680BD80B586B000AF7860C9
:102830000B46FB707B687B617B69002B2FD07B692B
:102840001B79022B2BD17B691B681B0ADBB23B6116
:102850007B691B68DBB2FB603B69012B05D1FB6820
:10286000162B08D0FB68152B05D03B69042B0FD124
:10287000FB681A2B0CD17B691A68FB78012B14BFFB
:1028800001230023DBB21946104607F03DFF06E0A6
:102890007B691B68FA781146184607F035FF00BFC0
:1028A0001837BD4680BD80B485B000AF78607B68C6
:1028B000FB60FB68002B0ED0FB681B79022B03D159
:1028C000FB6800221A7106E0FB681B79012B02D11C
:1028D000FB6800221A7100BF1437BD465DF8047B07
:1028E0007047000080B586B000AF786026497A68EE
:1028F00013465B0013449B000B4409331B78002BE9
:1029000027D107F10803184607F0C6F80323FB7226
:102910001D497A6813465B0013449B000B441B68F7
:1029200007F108021146184607F0C8F816497A68F8
:1029300013465B0013449B000B44093303221A70B7
:102940007A6813465B0013449B000F4A13447B6173
:1029500015E00D497A6813465B0013449B000B4455
:1029600009331B78032B08D17A6813465B001344A4
:102970009B00054A13447B6101E000237B617B6976
:1029800018461837BD4680BD3804002080B485B095
:1029900000AFF8600B467A60FB7200BF1437BD468B
:1029A0005DF8047B7047000080B58AB000AFF86026
:1029B000B9601346FB71FB68FB61FB69002B3AD0E1
:1029C000FB691B7A3B750023BB7500237B75FB6994
:1029D0001B680121184607F0B9F8FB691868FB6904
:1029E0005B6807F11402194607F0D0F8FB691A6812
:1029F000FB695B681946104607F0E4F8FB691A6842
:102A0000FB695B681946104607F000F903467B83B3
:102A10007B8B07EE903AF8EE677A17EE900AFDF797
:102A2000A7FF0DA3D3E90023FDF7FAFF02460B46EB
:102A3000C7E9082305E04FF000024FF00003C7E9A3
:102A40000823B968D7E90823C1E9002300BF283764
:102A5000BD4680BDAFF30080100010001000F03EB6
:102A600080B483B000AF786000BF0C37BD465DF81E
:102A7000047B704780B483B000AF786000BF0C3730
:102A8000BD465DF8047B704780B483B000AF7860CA
:102A900000BF0C37BD465DF8047B704780B584B03D
:102AA00000AFF860B9607A60BB680F2B06D90A4B9B
:102AB0000A4A40F2E2210A4809F0FEF8FA68BB68C7
:102AC0005B01134403F5805310337A681A6000BF2A
:102AD0001037BD4680BD00BFECE80000E8EA00000A
:102AE00018E9000080B584B000AFF860B960134603
:102AF000FB71BB680F2B06D90D4B0E4A4FF460716A
:102B00000D4809F0D9F8BB685B0103F58053183311
:102B1000FA681344043303F1424303F580135B0165
:102B20000433FA7992B21A8000BF1037BD4680BDD7
:102B3000ECE8000004EB000018E9000090B587B055
:102B400000AFF8607A603B600B46FB7200237B614C
:102B5000FB681B68032B00F0E481032B05D8012BD5
:102B600000F09880022B00F04781954B00221A60FC
:102B7000934B1B68934A52F82330002B41D1904B62
:102B80001B68914ADB00134400229A718C4B1B682E
:102B90008D4ADB00134400221A71894B1B688A4A54
:102BA000DB00134400225A71854B1B68864A4FF4A0
:102BB000E13142F83310824B1B68184604F0A6FB43
:102BC0007F4B1B689B01814A13448149184607F0DB
:102BD00021FA7B4B18687A4B1A6813461B019B1A23
:102BE0009B007C4A9918764B1B68DB00764A13449D
:102BF0001A4608F00FFB724B1B68724A012142F81B
:102C000023107B68B3F1FF3F20D06D4B1A687249E7
:102C100013469B0013449B000B444A221A60684BE6
:102C20001A686D4913469B0013449B000B440833FC
:102C30006A4A1A60624B1A68674913469B0013443C
:102C40009B000B440C33664A1A6015E05C4B1A6813
:102C5000614913469B0013449B000B4404334822F4
:102C60001A60574B1A685C4913469B0013449B003B
:102C70000B4410335B4A1A60514B1B68504A126870
:102C8000594941F823204E4B1B689B00564A134478
:102C90007B61DBE14A4B01221A60494B1B68494AC0
:102CA00052F82330002B41D1454B1B68464ADB00CC
:102CB000134400229A71424B1B68434ADB001344C1
:102CC00000221A713E4B1B683F4ADB00134400226E
:102CD0005A713B4B1B683C4A4FF4E13142F83310C8
:102CE000374B1B68184604F011FB354B1B689B01E2
:102CF000364A13443649184607F08CF9304B1868A9
:102D00002F4B1A6813461B019B1A9B00314A9918D6
:102D10002B4B1B68DB002C4A13441A4608F07AFA46
:102D2000274B1B68274A012142F823107B68B3F127
:102D3000FF3F20D0224B1A68274913469B001344BB
:102D40009B000B4400221A601D4B1A68224913464F
:102D50009B0013449B000B440833244A1A60184B11
:102D60001A681D4913469B0013449B000B440C3307
:102D70001F4A1A6015E0124B1A68174913469B0048
:102D800013449B000B44043300221A600C4B1A6856
:102D9000114913469B0013449B000B441033154A02
:102DA0001A60074B1B68064A12680F4941F8232036
:102DB000034B1B689B000C4A13447B6146E100BF38
:102DC000B0150020B4150020D0140020E811002018
:102DD0007806002068130020081500200811002044
:102DE00054110020A011002098150020A0110020EF
:102DF000A0110020E8110020AD4B02221A60AC4B5C
:102E00001B68AC4A52F82330002B41D1A84B1B68F9
:102E1000A94ADB00134400229A71A54B1B68A64AFD
:102E2000DB00134400221A71A14B1B68A24ADB008D
:102E3000134400225A719E4B1B689F4A4FF4E131A4
:102E400042F833109A4B1B68184604F05FFA984B0F
:102E50001B689B01994A13449949184607F0DAF810
:102E6000934B1868924B1A6813461B019B1A9B00E0
:102E7000944A99188E4B1B68DB008F4A13441A46FC
:102E800008F0C8F98A4B1B688A4A012142F82310CE
:102E90007B68B3F1FF3F20D0854B1A688A491346FF
:102EA0009B0013449B000B4400221A60804B1A685D
:102EB000854913469B0013449B000B440833834A07
:102EC0001A607B4B1A68804913469B0013449B0091
:102ED0000B440C337E4A1A6015E0754B1A687A4928
:102EE00013469B0013449B000B44043300221A60DA
:102EF0006F4B1A68744913469B0013449B000B44A4
:102F00001033744A1A606A4B1B68694A1268724926
:102F100041F82320664B1B689B006F4A13447B617A
:102F200094E0634B03221A60614B1B68614A52F8BC
:102F30002330002B41D15E4B1B685F4ADB001344FA
:102F400000229A715A4B1B685B4ADB001344002233
:102F50001A71574B1B68584ADB00134400225A7100
:102F6000534B1B68544A4FF4E13142F83310504B35
:102F70001B68184604F0CAF94D4B1B689B014F4A69
:102F800013444F49184607F045F8494B1868484B19
:102F90001A6813461B019B1A9B004A4A9918444B16
:102FA0001B68DB00444A13441A4608F033F9404BCF
:102FB0001B68404A012142F823107B68B3F1FF3FB0
:102FC00020D03B4B1A68404913469B0013449B009A
:102FD0000B4400221A60364B1A683B4913469B008B
:102FE00013449B000B4408333C4A1A60304B1A6868
:102FF000354913469B0013449B000B440C33384A5D
:103000001A6015E02A4B1A682F4913469B00134497
:103010009B000B44043300221A60254B1A682A498E
:1030200013469B0013449B000B4410332D4A1A6037
:103030001F4B1B681E4A1268274941F823201C4B6E
:103040001B689B00244A13447B6100BF7B68B3F17B
:10305000FF3F27D0164B1A6813461B019B1A9B0093
:103060002833184A13440433114A12681E4918467B
:1030700007F012F80E4B18680D4B1A6812491346E8
:103080009B0013449B000B4408331968084B1A68D3
:103090000D4C13469B0013449B0023441B681A46A7
:1030A00000F0E0F87B6918461C37BD4690BD00BFB4
:1030B000B0150020B4150020D0140020E811002025
:1030C000780600206813002008150020A0110020B9
:1030D000A0110020E811002098150020A011002068
:1030E000A0110020E81100201133000080B483B04B
:1030F00000AF78603960002318460C37BD465DF894
:10310000047B704780B483B000AF786008461146F6
:103110001A460346FB700B46BB7013467B700023B8
:1031200018460C37BD465DF8047B704780B586B005
:1031300000AFF860B9607A60FB683B613B69002BC7
:1031400033D03B691B681F4AD35C012B2DD13B69EF
:103150001B681D4A52F82330012B0FD13B691A68B6
:103160001A4913469B0013449B000B4408331B6809
:103170007A681946B868FEF7DBFF0EE03B691A680B
:10318000124913469B0013449B000B440C331B68ED
:103190007A681946B868FEF7CBFF3B691B68094A95
:1031A0000021D1540023FB7506E07A680021B8683D
:1031B00009F0C4F82023FB75FB7D18461837BD467F
:1031C00080BD00BF001500208015002008150020DC
:1031D00080B586B000AFF860B9607A60FB683B618B
:1031E0003B69002B2AD03B691B680021184608F078
:1031F00065F90346082B21D03B691A681349134629
:103200009B0013449B000B4410331B687A68B96819
:103210001846FEF78DFF3B6918683B691A680B4931
:1032200013469B0013449B000B4410331B687A68C1
:10323000194608F01FF90346FB7501E02023FB75D2
:10324000FB7D18461837BD4680BD00BF081500201D
:1032500080B483B000AF786000BF0C37BD465DF826
:10326000047B704780B588B000AFF860B9607A60C1
:10327000FB68052B06D9214B214A40F289112148D0
:1032800008F01AFD204AFB6852F82330FB61FB6905
:1032900093F82C301B09DBB21A461C4B53F8223032
:1032A000BB61FB6993F82C3003F00F037B61FB6972
:1032B0005B78DBB2002B01D009231AE0FB69012205
:1032C0005A70BB681A467969B869FFF7E7FB7A68F4
:1032D0007969B86906F0DCFD01227969B869FFF700
:1032E00001FC7B69DBB201221946B86906F0BBFC20
:1032F000002318462037BD4680BD00BF50E90000BE
:10330000C4EA000070E90000CC490020A8F20000E7
:1033100080B582B000AF78600B46FB707B681846C2
:1033200000F004F800BF0837BD4680BD80B586B008
:1033300000AF78607B68052B06D93C4B3C4A40F2D5
:10334000AD113C4808F0B8FC3B4A7B6852F823308A
:103350007B617B6993F82C301B09DBB21A46374B33
:1033600053F822303B617B6993F82C3003F00F0354
:10337000FB600022F9683869FFF7B4FBFB68DBB239
:1033800000221946386906F06EFC7B69DB78DBB2F7
:10339000002B04D07B691033184606F0ADF87B692A
:1033A00000225A70264A7B68134401221A70254A6B
:1033B0007B6852F82330002B1AD123497A681346D0
:1033C0009B0013449B000B440C3319681E487A6819
:1033D00013469B0013449B0003441B681A467868FD
:1033E000FFF740FF174A7B68012142F8231019E0DC
:1033F00015497A6813469B0013449B000B4408331D
:10340000196811487A6813469B0013449B000344D3
:103410001B681A467868FFF725FF0A4A7B68002177
:1034200042F8231000BF1837BD4680BD50E90000A8
:103430001CEB000070E90000CC490020A8F200005D
:1034400000150020801500200815002080B582B0EE
:1034500000AF786006F05AFA034618460837BD46B2
:1034600080BD80B483B000AF78607B68023303F125
:10347000424303F580135B011C3301221A7000BF25
:103480000C37BD465DF8047B704780B483B000AF55
:1034900078607B68023303F1424303F580135B01DC
:1034A0000C3300221A7000BF0C37BD465DF8047B58
:1034B000704780B483B000AF78607B68023303F15B
:1034C000424303F580135B010C3301221A7000BFE5
:1034D0000C37BD465DF8047B704780B483B000AF05
:1034E00078600B46FB707B68023303F1424303F5BF
:1034F00080135B0110331A46FB78137000BF0C3742
:10350000BD465DF8047B704780B483B000AF78603F
:103510007B681B79DBB218460C37BD465DF8047B2F
:10352000704780B483B000AF78600B46FB707B6857
:10353000FA781A7100BF0C37BD465DF8047B7047FE
:1035400080B483B000AF78600B46FB707B68DB789B
:10355000DBB21A46FB7842FA03F303F00103002BB7
:1035600014BF01230023DBB218460C37BD465DF8BB
:10357000047B704780B483B000AF78607B6802330F
:1035800003F1424303F580135B0114331B78DBB274
:10359000002B14BF01230023DBB218460C37BD46B5
:1035A0005DF8047B704780B483B000AF78600B4651
:1035B000FB707B68023303F1424303F580135B0128
:1035C0001833FA781A7000BF0C37BD465DF8047BDB
:1035D000704780B483B000AF78607B680222DA70F5
:1035E00000BF0C37BD465DF8047B704780B584B0E2
:1035F00000AFF860B9601346FB71BB681F2B05D99B
:103600000B4B0C4AD9210C4808F056FBBB689B00B9
:10361000FA68134403F1424303F580135B0114334A
:103620001A46FB79136000BF1037BD4680BD00BF4E
:10363000D8E9000060EB0000E4E9000080B584B048
:1036400000AFF860B9601346FB71BB681F2B05D94A
:103650000D4B0E4AFF210E4808F02EFBFB68BA689E
:1036600053F8223023F0807323F4E063FA791202D6
:1036700002F4E06243EA0201FB68BA6843F82210F0
:1036800000BF1037BD4680BDD8E900004CEB0000FC
:10369000E4E9000080B584B000AF78607B681B6807
:1036A0000F4A52F82330FB607B681B68184600F015
:1036B000EFF97B681B68184606F09EF9F86807F07A
:1036C0004FF8F868FFF7CDFE0121F868FFF76BFFB0
:1036D0000449786800F0FCF800BF1037BD4680BD93
:1036E00040EB0000A086010080B584B000AF786098
:1036F0007B681B68054A52F82330FB60F86807F0C6
:1037000075F8002318461037BD4680BD40EB000019
:1037100080B584B000AF78600023BB607B681B6815
:103720000E4A52F82330FB60F868FFF723FF034688
:10373000002B02D0F86807F069F80023BB6004E0B2
:1037400000BF00BFBB680133BB60BB68C72BF7D9A4
:10375000002318461037BD4680BD00BF40EB000077
:1037600080B586B000AF78600B46FB70104B3B61B4
:103770007B681B680F4A52F82330FB6000237B6193
:103780000CE0FB781946F868FFF7DAFE0346002BD9
:1037900001D0002307E07B6901337B617A693B69D3
:1037A0009A42EED3012318461837BD4680BD00BFAC
:1037B000A086010040EB000080B584B000AF7860C7
:1037C0007B681B68104A52F82330FB60012178683F
:1037D000FFF7C6FF0346002B01D0022310E0F86874
:1037E000FFF7F7FE07217868FFF7BAFF0346002BC3
:1037F00001D0022304E00021F868FFF7A1FE034690
:1038000018461037BD4680BD40EB000080B584B03F
:1038100000AF78607B681B680A4A52F82330FB606F
:1038200001217868FFF79CFF0346002B01D001239C
:1038300003E0F868FFF7CDFE002318461037BD46B9
:1038400080BD00BF40EB000080B584B000AF786061
:1038500039607B681B68094A52F82330FB603B687B
:10386000DBB21946F868FFF75CFE7868FFF7A4FF43
:10387000034618461037BD4680BD00BF40EB000030
:1038800080B586B000AFF860B9607A60FB681B68ED
:103890000E4A52F823307B617B68002B03D0786995
:1038A000FFF707FE02E07869FFF7EFFD7869FFF7A1
:1038B0002BFE03461A46BB681A70F868FFF7A6FF8E
:1038C000034618461837BD4680BD00BF40EB0000D8
:1038D00080B584B000AF786039607B681B680E4AA1
:1038E00052F82330FB607B681B681846FFF7AEFD7B
:1038F0000346BB603B68094A82FB03129211DB1747
:10390000D31A1A460023B968F86806F037FF00BFDB
:103910001037BD4680BD00BF40EB0000D34D6210A4
:1039200090B589B000AFF860B9607A603B60F86824
:10393000FFF7DAFE0346002B05D0F868FFF7E8FE34
:103940006FF0010355E0BB6843F001031946F868C6
:10395000FFF77AFF0346002B05D0F868FFF7D8FE83
:103960004FF0FF3345E0FB681B68244A52F82330D0
:10397000BB610021B869FFF7B0FD0023FB6124E0C3
:10398000FB69002B02D107F1120303E0FB69013B45
:103990007A6813447B613B68013BFA699A420CBF29
:1039A00001230023DBB2FB74FB7C1A467969F868BB
:1039B000FFF766FF0346002B04D0F868FFF7A8FE68
:1039C000FB6916E0FB690133FB61FA693B689A42C7
:1039D000D6DB3B6B002B02D0F868FFF799FEFB6942
:1039E000013B7A68D418B869FFF78EFD034623704F
:1039F0003B6818462437BD4690BD00BF40EB000031
:103A000080B586B000AFF860B9607A603B60F86856
:103A1000FFF76AFE0346002B05D0F868FFF778FE33
:103A20006FF0010330E0BB6803F0FE031946F8684D
:103A3000FFF70AFF0346002B05D0F868FFF768FE82
:103A40004FF0FF3320E000237B6112E07B697A684E
:103A500013441B781946F868FFF7F6FE0346002B5F
:103A600004D0F868FFF754FE7B690DE07B690133F1
:103A70007B617A693B689A42E8DB3B6A002B02D0A3
:103A8000F868FFF745FE3B6818461837BD4680BD0D
:103A900080B582B000AF78607B68002B03D07B6874
:103AA000012B15D029E0052218211648FFF7C6FD85
:103AB000012218211348FFF799FD05221921114809
:103AC000FFF7BCFD012219210E48FFF78FFD14E01E
:103AD00002220A210C48FFF7B1FD01220A210A48FF
:103AE000FFF784FD02220B210748FFF7A7FD012203
:103AF0000B210548FFF77AFD00BF00BF0837BD4620
:103B000080BD00BF00D0044000B0044080B584B048
:103B100000AF78600B46FB707B68012B11D80C4915
:103B20007B687A6841F823207B689B00084A13442D
:103B30001846FFF7AFFD7B689B00054A1344FB6006
:103B400001E00023FB60FB6818461037BD4680BDCE
:103B5000CC15002080B584B000AF786039607B68F8
:103B6000002B07D03B6819467868FFF7B1FE0023A9
:103B7000FB7301E00823FB73FB7B18461037BD463F
:103B800080BD80B588B002AFF8607A603B600B46BC
:103B90007B8100237B6197F82030002B0CBF012331
:103BA0000023DBB23B61FB68002B19D07B895900F5
:103BB0003A683B69009313467A68F868FFF7B0FEED
:103BC00003467B617B6913F1020F01D1012308E0F9
:103BD0007B69B3F1FF3F01D1042302E0002300E041
:103BE000082318461837BD4680BD80B588B002AF9F
:103BF000F8607A603B600B467B8100237B6197F81D
:103C00002030002B0CBF01230023DBB23B61FB689B
:103C1000002B19D07B8959003A683B690093134601
:103C20007A68F868FFF7ECFE03467B617B6913F165
:103C3000020F01D1012308E07B69B3F1FF3F01D1FD
:103C4000042302E0002300E0082318461837BD468D
:103C500080BD80B483B000AF786000BF0C37BD4634
:103C60005DF8047B7047000080B586B000AF7861D6
:103C7000184B1B681B68002B0CBF01230023DBB211
:103C80001A46154B1A7011E03B461449184603F0CA
:103C90000EFF01F0E5F80F4B1B681B68002B14BFEB
:103CA00001230023DBB21A460D4B1A700A4B1B7816
:103CB000DBB2002BE8D1084B00221A70786900F0C3
:103CC00011F8002003F04CFE002318461837BD46BB
:103CD00080BD00BF7CEB00007A060020E0150020CC
:103CE000D415002080B582B000AF7860074B012268
:103CF0001A60074B00221A7002F05AFD054803F0C3
:103D0000C3FE002318460837BD4680BDFC150020C1
:103D10007A060020D815002080B586B000AF786103
:103D2000396103F0C3F803F08BFA0A4B1B680022D9
:103D30001A6002F005FA00209FED070A03F062FD09
:103D40003B460649184603F0B2FE002318461837D2
:103D5000BD4680BD7CEB00006F12833AD815002071
:103D600080B586B000AF78607B6800221A727B68ED
:103D700001225A604FF0FF337B610023FB6007F1A3
:103D80000C000A237A690021FEF7D8FE02467B6800
:103D90001A617B681B694FF4E1311846FFF7A6F9F9
:103DA0000123FB740023BB747B681869FB7CBA7C1D
:103DB0000821FFF7A7F97B6801221A7200BF1837A4
:103DC000BD4680BD80B500AF064B0022C3F8EC2194
:103DD000044B002283F8E8210348FFF7C1FF00BF2E
:103DE00080BD00BF48180020301A002080B582B086
:103DF00000AF944B93F83422924B83F80A22914BF4
:103E000093F835228F4B83F80B228E4BB3F8DA21CF
:103E10008C4BA3F8D0218B4B93F83622894B83F837
:103E20000C22884B93F83722864B83F80D22854B62
:103E3000B3F8DC21834BA3F8D221824B93F83822CC
:103E4000804B83F80E227F4BD3E960237D49C1E983
:103E500052237C4BB3F8DE217A4BA3F8D421794B63
:103E600093F83922774B83F80F22764BD3E96223FC
:103E70007449C1E95423734BD3E964237149C1E9FF
:103E80005623704BB3F8E0216E4BA3F8D6216D4B4F
:103E9000D3E966236B49C1E958236A4BD3E9682308
:103EA0006849C1E95A23674BD3E96A236549C1E9E7
:103EB0005C23644BB3F8E221624BA3F8D821614B39
:103EC000D3E96C235F49C1E95E2301225E495F4863
:103ED000FEF72EF901225E495E48FEF729F901221C
:103EE0005D495E48FEF724F902225D495D48FEF710
:103EF0001FF901225C495D48FEF71AF902225C496C
:103F00005C48FEF715F901225B495C48FEF710F9A1
:103F100008225B495B48FEF70BF902225A495B48CD
:103F2000FEF706F901225A495A48FEF701F908221C
:103F300059495A48FEF7FCF8082259495948FEF7F2
:103F4000F7F8022258495948FEF7F2F80822584972
:103F50005848FEF7EDF8082257495848FEF7E8F8A8
:103F6000082257495748FEF7E3F8022256495748B6
:103F7000FEF7DEF8082256495648FEF7D9F8314BCD
:103F800093F810222F4B83F8DC202E4B93F811224C
:103F90002C4B83F8DD202B4B93F81222294B83F80E
:103FA000DE20284B93F81322264B83F8E120254B83
:103FB00093F8E421234B83F8DF20224B93F814225B
:103FC000204B83F8E2201F4B93F8E5211D4B83F82B
:103FD000E0201C4B93F815221A4B83F8E320194B71
:103FE00093F81622174B83F8E420164B93F81F2200
:103FF000144B83F8ED20134B93F82022114B83F8D8
:10400000EE20104B93F821220E4B83F8EF200D4B3E
:1040100093F832220B4B83F800210A4B93F833229A
:10402000084B83F80121074B93F8FE21054B83F8D9
:104030001A21044B93F8FF21024B83F81B21002324
:104040007B60A7E0001600200C180020101800204C
:104050000A180020111800200B1800201218002048
:10406000D0170020E41700200D180020131800209E
:10407000D2170020141800200E1800201618002057
:104080004817002017180020D41700201F18002000
:104090000F1800202118002050170020221800209F
:1040A000581700202A180020D617002032180020A8
:1040B00060170020E617002068170020EE17002088
:1040C00070170020F6170020D8170020FE170020D8
:1040D00078170020001800207B6809333C497A6873
:1040E0000A4402F217221178394A13440A4683F827
:1040F000DC207B68143336497A680A4402F22222B3
:104100001178334A13440A4683F8DC207B681C3359
:104110002F497A680A4402F22A2211782C4A134461
:104120000A4683F8DC207B68263329497A680A44EA
:1041300002F5F3721178264A13440A4683F8DC200C
:104140007B682E3322497A680A4402F5F7721178A7
:104150001F4A13440A4683F8DC207B6836331C4927
:104160007A680A4402F5FB721178194A13440A4628
:1041700083F8DC207B68403315497A680A4402F5ED
:1041800000721178124A13440A4683F8DC207B68D7
:1041900001337B607B68072B9EDD0123FB700EE003
:1041A00048220C490C48FDF7C3FF0C4BD3F8F831FB
:1041B000482209491846FFF70BF80346FB70FB78C5
:1041C000002BEDD100BF00BF0837BD4680BD00BF4A
:1041D00000160020DC16002094160020481800204D
:1041E00080B500AF0D4B93F8E831002B13D10B4B8A
:1041F000012283F8E821094BD3F8EC31012B0AD1D5
:10420000064B93F8F031002B05D0044BD3F8F8316E
:104210001846FFF71DF800BF80BD00BF48180020FA
:10422000F0B587B000AF034687ED000BFB814FF080
:1042300000024FF00003D7E90001FCF777FE0346C8
:10424000002B18D04FF00002204BD7E90001FCF7FB
:1042500063FE0346002B0BD0B7F90E40D7E90001EF
:10426000FCF778FE0346DBB204FA03F3FB8226E098
:104270000023FB8223E04FF00002154BD7E9000139
:10428000FCF754FE0346002B0FD0B7F90E603C68D4
:104290007B6883F0004520462946FCF75BFE034619
:1042A000DBB246FA03F3FB8209E0B7F90E30002BCC
:1042B00003DA4FF6FF73FB8201E00023FB82B7F9BC
:1042C000163018461C37BD46F0BD00BF00002E401A
:1042D00000002EC080B483B000AF78607B68D3E963
:1042E00000231449C1E95023124B012283F84222D2
:1042F000104B012283F83E220E4B002283F83D2210
:104300000C4B002283F841220A4B002283F83C2206
:10431000084B002283F83F22064B002283F84322F9
:10432000044B012283F8402200BF0C37BD465DF8E4
:10433000047B70470016002090B589B000AFF8608C
:10434000B9607A60984B93F80532032B00F0D68061
:10435000032B00F30C81012B03D0022B00F097807C
:1043600005E1BB681B78002B08D08F4B042283F833
:1043700005228D4B0022C3F8FC2109E1FB681B8854
:104380001846FCF7D3FA4FF00002884BFCF748FBC5
:1043900002460B4643EC172BB0EE470AF0EE670AD5
:1043A00003F0A0FB51EC100B814BD3E96A23FCF71F
:1043B0007FF902460B4643EC172BB0EE470AF0EEAE
:1043C000670A03F08FFBB0EE407AF0EE607A87ED7B
:1043D000047B4FF00002774BD7E90401FCF792FD14
:1043E0000346002B14D04FF000024FF00003D7E932
:1043F0000401FCF79BFD0346002B06D0D7E904011E
:10440000FCF7A8FD03467B8305E000237B8302E0E5
:104410004FF6FF737B837B8B654AB2F8E2219B1AD0
:10442000FB617B8BFA699A4201D90023FB615E4BE9
:10443000D3F8FC31FA699A4200F2AA805A4B03225F
:1044400083F80522584B0022C3F8FC21584B002268
:1044500083F84222564B012283F83E22544B00221D
:1044600083F83F22524B002283F84322504B002214
:1044700083F841224E4B002283F83C224C4B002211
:1044800083F840224A4B012283F83D2280E0484BCA
:10449000012283F84222464B012283F83E22444BFC
:1044A000002283F84122424B002283F83C22404BF9
:1044B000002283F843223E4B012283F840223A4BEC
:1044C000D3F8FC313A4AB2F8E221934208D3364B92
:1044D000012283F80522344B0022C3F8FC2159E065
:1044E000334B93F83632062B54D02F4B002283F8EF
:1044F00005222D4B052283F802224BE02C4B002293
:1045000083F842222A4B012283F83E22284B0022C4
:1045100083F84322264B002283F84122244B0022B9
:1045200083F83C22224B002283F840221E4BD3F812
:10453000FC411F4B93ED6A7BB0EE470AF0EE670A31
:1045400007F0A2FA53EC102B10461946FCF702FDB7
:1045500003469C4220D3144B022283F80522124BBF
:104560000022C3F8FC217868FFF7B4FE14E00E4B7C
:10457000D3F8FC310E4AB2F8E22193420ED30A4B33
:10458000012283F80522084B0022C3F8FC2105E034
:1045900000BF04E000BF02E000BF00E000BF00BFBA
:1045A0002437BD4690BD00BF481800200000E03F02
:1045B000001600200000F04080B483B000AF7860A7
:1045C0007B68D3E900231449C1E95023124B01222F
:1045D00083F84222104B012283F83E220E4B002228
:1045E00083F83D220C4B002283F841220A4B002223
:1045F00083F83C22084B002283F83F22064B01221D
:1046000083F84322044B002283F8402200BF0C377A
:10461000BD465DF8047B70470016002090B589B058
:1046200000AFF860B9607A60984B93F80632032BBC
:1046300000F0B080032B00F3E480012B02D0022BAA
:1046400012D0DEE0914BD3F8FC31914AB2F8E02170
:104650009342C0F00F818D4B022283F806228B4BD0
:104660000022C3F8FC2105E1BB681B78002B08D0B1
:10467000864B012283F80622844B0022C3F8FC21DA
:10468000FAE0FB681B881846FCF750F94FF000026F
:10469000804BFCF7C5F902460B4643EC172BB0EEF6
:1046A000470AF0EE670A03F01DFA51EC100B784B45
:1046B000D3E96423FBF7FCFF02460B4643EC172BC0
:1046C000B0EE470AF0EE670A03F00CFAB0EE407A5B
:1046D000F0EE607A87ED047B4FF000026E4BD7E975
:1046E0000401FCF70FFC0346002B14D04FF000022E
:1046F0004FF00003D7E90401FCF718FC0346002B38
:1047000006D0D7E90401FCF725FC03467B8305E0CE
:1047100000237B8302E04FF6FF737B837B8B5C4A35
:10472000B2F8E0219B1AFB617B8BFA699A4201D9AE
:104730000023FB61554BD3F8FC31FA699A4200F231
:104740009B80524B042283F80622504B0022C3F870
:10475000FC214F4B002283F842224D4B012283F86B
:104760003E224B4B012283F83F22494B002283F823
:104770004322474B002283F84122454B002283F815
:104780003C22434B002283F84022414B002283F815
:104790003D2271E03E4B012283F842223C4B012234
:1047A00083F83E223A4B002283F84122384B002204
:1047B00083F83C22364B012283F84322344B0022FB
:1047C00083F84022314BD3F8FC31314AB2F8E02172
:1047D000934208D32D4B022283F806222B4B002252
:1047E000C3F8FC214AE02A4B93F83632072B45D018
:1047F000264B002283F80622244B052283F802224E
:104800003CE0234B002283F84222214B012283F813
:104810003E221F4B002283F843221D4B002283F8C7
:1048200041221B4B002283F83C22194B002283F8C3
:104830004022164BD3F8FC41154B93ED647BB0EE50
:10484000470AF0EE670A07F01FF953EC102B1046E9
:104850001946FCF77FFB03469C4211D30B4B032206
:1048600083F80622094B0022C3F8FC217868FFF781
:10487000A3FE05E000BF04E000BF02E000BF00E0CF
:1048800000BF00BF2437BD4690BD00BF48180020C0
:10489000001600200000E03F0000F04080B582B02C
:1048A00000AF786039604E4B93F83632072B00F238
:1048B000938001A252F823F01949000059490000E1
:1048C0007949000099490000F94800003949000081
:1048D000D9480000B9490000424B092283F802225E
:1048E000404B022283F805223E4B0022C3F8FC21F4
:1048F0007868FFF7EFFC6FE03A4B072283F802225B
:10490000384B012283F80322364B0022C3F8FC21E6
:104910007868FFF7DFFC5FE0324B062283F8022263
:10492000304B012283F807222E4B0022C3F8FC21D2
:104930007868FFF7CFFC4FE02A4B042283F802226D
:10494000284B012283F80422264B0022C3F8FC21C5
:104950003868FFF731FE3FE0224B032283F8022242
:10496000204B012283F808221E4B0022C3F8FC21B1
:104970003868FFF721FE2FE01A4B082283F8022245
:10498000184B022283F80922164B0022C3F8FC219F
:104990007868FFF79FFC1FE0124B012283F8022288
:1049A000104B032283F80A220E4B0022C3F8FC218D
:1049B0003868FFF701FE0FE00A4B022283F802225B
:1049C000084B032283F80622064B0022C3F8FC2181
:1049D0003868FFF7F1FD00BF00BF0837BD4680BD56
:1049E0000016002048180020B0B588B000AFF8606D
:1049F000B9607A608B4B93F80932032B00F0BD80CD
:104A0000032B00F3F380012B02D0022B7ED0EDE0CC
:104A1000BB681B78002B08D0824B042283F8092244
:104A2000804B0022C3F8FC21F1E0FB68D3E900458C
:104A30007D4BB3F8E2311846FBF778FF02460B4690
:104A400020462946FBF734FE02460B4643EC172B63
:104A5000B0EE470AF0EE670A03F044F8B0EE407A91
:104A6000F0EE607A87ED047B4FF000026F4BD7E9E0
:104A70000401FCF747FA0346002B14D04FF0000264
:104A80004FF00003D7E90401FCF750FA0346002B6E
:104A900006D0D7E90401FCF75DFA0346FB8305E085
:104AA0000023FB8302E04FF6FF73FB835D4BD3F8DB
:104AB000FC21FB8B9A42C0F0AA805A4B032283F858
:104AC0000922584B0022C3F8FC21574B002283F8DF
:104AD0004222554B012283F83E22534B002283F899
:104AE0003F22514B002283F843224F4B002283F890
:104AF00041224D4B002283F83C224B4B002283F88D
:104B00004022494B012283F83D2280E0464B01229E
:104B100083F84222444B012283F83E22424B00227A
:104B200083F84122404B002283F83C223E4B002276
:104B300083F843223C4B012283F84022394BD3F8BF
:104B4000FC31394AB2F8E221934208D3354B0122B5
:104B500083F80922334B0022C3F8FC2159E0324B81
:104B600093F83632022B54D02E4B002283F80922C0
:104B70002C4B052283F802224BE02B4B002283F8BA
:104B80004222294B012283F83E22274B002283F840
:104B90004322254B002283F84122234B002283F835
:104BA0003C22214B002283F840221E4BD3F8FC41CB
:104BB0001D4B93ED6A7BB0EE470AF0EE670A06F0F4
:104BC00063FF53EC102B10461946FCF7C3F903465C
:104BD0009C4220D3134B022283F80922114B00225E
:104BE000C3F8FC217868FFF775FB14E00D4BD3F890
:104BF000FC310D4AB2F8E22193420ED3094B012257
:104C000083F80922074B0022C3F8FC2105E000BF0E
:104C100004E000BF02E000BF00E000BF00BF20379B
:104C2000BD46B0BD48180020001600200000F0402E
:104C300080B584B002AF78607B6800221A727B680E
:104C400001225A605E4B002283F832215C4B002225
:104C5000C3F834215A4BD3F83431594A92F83221EF
:104C600011461846FEF752FF02467B689A627B683F
:104C7000544A5A627B689A6A7B685B6A1946104696
:104C8000FEF768FF4E4B2B2283F808224C4B402244
:104C900083F809227B68986A00230193002300931C
:104CA0000223494A1D21FEF7A0FF4FF4FA7004F0D9
:104CB00063FC434B2A2283F83B227B68986A0023DB
:104CC0000193012300930123404A1D21FEF78DFF2C
:104CD00003461A463A4B83F83B22394B93F83B3252
:104CE000002B10D17B68986A012301930023009365
:104CF0000123364A1D21FEF744FF0122334934487F
:104D0000FDF716FA03E02E4B002283F83A222C4BD3
:104D10002A2283F808222A4B93F83A3223F001031F
:104D2000DAB2274B83F809227B68986A0023019343
:104D3000002300930223244A1D21FEF756FF204B37
:104D40000E2283F808221E4B012283F809227B6879
:104D5000986A002301930023009302231A4A1D211D
:104D6000FEF743FF164B5B2283F80822144B002208
:104D700083F809227B68986A00230193002300933B
:104D80000223114A1D21FEF730FF0D4B2A2283F822
:104D900008220B4B192283F809227B68986A0023AA
:104DA0000193002300930223074A1D21FEF71DFFF4
:104DB0007B6801221A7200BF0837BD4680BD00BF64
:104DC00000160020A0860100081800203B180020D3
:104DD0003A18002080B582B000AF78607B6800226E
:104DE0001A727B6801225A601A4B4FF0FF32C3F8E7
:104DF0002821184B0022C3F82C21164BD3F8283158
:104E00000A2200211448FDF799FE02467B681A61C8
:104E10007B681B694FF4E1311846FEF767F90D4BCB
:104E2000012283F830210B4B002283F831217B686B
:104E30001869084B93F83121064B93F8303108215B
:104E4000FEF760F97B6801221A7200BF0837BD4681
:104E500080BD00BF001600202C17002000000000BD
:104E6000F0B591B002AF944BD3E92201934BD3E953
:104E70000623FCF73DF80346002B05D18F4BD3E901
:104E800006238D49C1E922238B4BD3F880304A2277
:104E90008B491846FEF74AF90346FB714A228849B6
:104EA0008848FDF745F9844B93F80B32002B5ED10F
:104EB000814B012283F80B227F4B012283F80C22C5
:104EC000804B002283F836227E4B3C2283F834222A
:104ED0007C4B782283F835227A4BC822A3F8DA215A
:104EE000784B962283F83722764B0A22A3F8DC21EE
:104EF000744B102283F83822724969A3D3E9002346
:104F0000C1E960236F4B1422A3F8DE216D4BB4225C
:104F100083F839226B494FF000026B4BC1E96223E1
:104F200068494FF00002694BC1E96423654BAF2229
:104F3000A3F8E02163495CA3D3E90023C1E9662318
:104F400060494FF00002604BC1E968235D494FF0B2
:104F500000025E4BC1E96A235A4BB022A3F8E2215A
:104F6000584953A3D3E90023C1E96C23E1E0524B34
:104F700093F80C32032B10D0032B13DC012B02D03F
:104F8000022B05D00EE04C4B042283F80C22D0E01B
:104F9000494B042283F80C22CBE0474B042283F8D0
:104FA0000C22C6E0FB79002B40F0C280454B1B78F9
:104FB000162B70D1434B5B78222B60D0552B65D1DB
:104FC0003D4B032283F80C223E4B9A783D4B83F8ED
:104FD00036223C4BDA783B4B83F83422394B1A7932
:104FE000384B83F83522022239493A48FDF7A0F8B8
:104FF000344BDA79334B83F837220222364937486B
:10500000FDF796F82F4B9A7A2E4B83F83822082218
:1050100033493448FDF78CF8022233493348FDF711
:1050200087F8284B5A7D274B83F8392208223049CC
:105030003048FDF77DF808222F493048FDF778F811
:1050400002222F492F48FDF773F808222E492F48D6
:10505000FDF76EF808222E492E48FDF769F8082260
:105060002D492E48FDF764F802222D492D48FDF701
:105070005FF808222C492D48FDF75AF858E00E4BEE
:10508000022283F80C22FEF7B1FE51E00A4B042203
:1050900083F80C224CE0084B042283F80C2247E0F2
:1050A0006666666666660240CDCCCCCCCCCCFC3F56
:1050B0009A999999999901404818002080060020F2
:1050C0004A1600200016002000000C40000024407A
:1050D00005160020DA17002008160020DC17002033
:1050E0000B1600208017002013160020DE1700206A
:1050F00016160020881700201E160020901700208A
:1051000026160020E01700202816002098170020FF
:1051100030160020A017002038160020A817002005
:1051200040160020E217002042160020B017002091
:1051300000BF944BD3F80861934BD3E91A45934BC6
:10514000D3E96601904BD3E91823FBF793FD0246A0
:105150000B4620462946FBF763FC02460B4643EC10
:10516000172BB0EE470AF0EE670A3046FDF756FA05
:10517000864BD3E96201844BD3E91C23FBF77AFD0C
:1051800002460B46104619467F4BD3E91E23FBF718
:1051900047FC02460B467D49C1E972237B4BD3E9AC
:1051A0006801794BD3E92023FBF764FD02460B46E7
:1051B00010461946744BD3E92223FBF731FC024613
:1051C0000B467249C1E970236E4BD3E932016E4B35
:1051D000D3E90A23FBF78CFE0346002B05D16A4B6B
:1051E000D3E90A236749C1E93223664BD3F8C030BB
:1051F0001846FDF7E1FA03467B71634BD3E924457A
:10520000624B93F834321846FBF790FB02460B468C
:1052100020462946FBF72EFD02460B465B49C1E9B5
:105220006E23584BD3E92A01574BD3E91623FBF7DA
:105230005FFE0346002B05D1534BD3E9162351499A
:10524000C1E92A234F4BD3F8A0301846FDF7B4FA32
:105250000346BB714D4B93F836224B4B93F8A93064
:105260009A4205D3484BD3E91223C7E9082304E047
:10527000454BD3E91423C7E90823D7E908014FF0C8
:1052800000024FF00003FBF75BFE0346002B00F02B
:1052900026813C4BD3E904013B4BD3E90C23FBF7BC
:1052A00027FE0346002B05D1374BD3E90C233549A4
:1052B000C1E904230123FB71324B986AFA1D0023D4
:1052C00001930123009301231D21FEF78EFC034669
:1052D000FB71FB79002B5BD12A4B986A07F1100216
:1052E000012301930023009306231D21FEF749FCAF
:1052F00007F1100107F1180306221846FCF718FF02
:1053000007F1180107F1080302221846FCF710FF05
:105310007B7A3B733B7A7B7307F10C0107F118032F
:1053200002221846FCF704FF07F11803991C07F145
:10533000080302221846FCF7FBFE7B7A3B733B7A9C
:105340007B7307F10C0107F11803023302221846A0
:10535000FCF7EEFE07F11803191D07F108030222FE
:105360001846FCF7E5FE7B7A3B733B7A7B7307F1CB
:105370000C0107F11803043302221846FCF7D8FE8B
:105380000CE000BF48180020800600200016002016
:1053900000233B8300237B830023BB83B7F91830B2
:1053A0009FEDC30B1846FEF73BFF03461846FBF77D
:1053B000CDFA02460B46FBF77DF902460B46104636
:1053C0001946BDA3D3E90023FBF72AFB02460B468F
:1053D000104619464FF00002B94BFBF74BFC024652
:1053E0000B4643EC172BB0EE470AF0EE670A06F0C7
:1053F000CBFB55EC104BB7F91A309FEDAD0B1846AF
:10540000FEF70EFF03461846FBF7A0FA02460B46CE
:10541000FBF750F902460B4610461946A6A3D3E9FE
:105420000023FBF7FDFA02460B46104619464FF0E3
:105430000002A34BFBF71EFC02460B4643EC172B66
:10544000B0EE470AF0EE670A06F09EFB53EC102B15
:1054500020462946FBF72EF902460B4614461D4608
:10546000B7F91C309FED920B1846FEF7D9FE0346A4
:105470001846FBF76BFA02460B46FBF71BF9024690
:105480000B46104619468CA3D3E90023FBF7C8FA54
:1054900002460B46104619464FF00002884BFBF7B8
:1054A000E9FB02460B4610461946864BD3E910230A
:1054B000FBF7FEF802460B4643EC172BB0EE470A0B
:1054C000F0EE670A06F060FB53EC102B20462946ED
:1054D000FBF7F0F802460B467B49C1E94E237A4BB5
:1054E000D3E94E01784BD3E960230124FBF71EFD7D
:1054F0000346002B01D100231C46E3B287F82F306E
:10550000714B93F839321A466F4B93F83432D31AF1
:105510003B636D4B93F839321A463B6B934201D98A
:1055200000233B63684BB3F8DC31DBB2002B09D1BD
:105530003B6BDBB2002B02D10023FB7133E0FF2376
:10554000FB7130E03B6BDAB25F4BB3F8DC31DBB2BE
:10555000B2FBF3F3DBB2FB713B6BDAB25A4BB3F83D
:10556000DC31D9B2FB7911FB03F3DBB2D31A87F834
:105570002E3097F82E30002B15D097F82E20524B56
:10558000B3F8DC31DBB25B08DBB219464E4BB3F843
:10559000DC31DBB203F001030B449A4203DBFB79FD
:1055A0000133DBB2FB71494B93F80032002B05D17C
:1055B000454B93F83422454B83F8002297F82F305F
:1055C000002B1ED0414B93F800321A46FB7913444E
:1055D0007B637B6BFF2B01D9FF237B637B6BDAB291
:1055E0003A4B83F800227B6BDAB2374B93F83932AF
:1055F0009A4214D9344B93F83922344B83F8002261
:105600000DE0324B93F800222F4B93F834329A423C
:1056100005D22D4B93F834222C4B83F800222B4BD0
:1056200093F800329BB2FB82284BD3F8FC31B3F1E4
:10563000FF3F06D0254BD3F8FC310133234AC2F893
:10564000FC31224B93F80132002B09D11F4B012270
:1056500083F801221D4B052283F8022200F061BC71
:105660001A4B93F80232013B072B00F24B8401A244
:1056700052F823F095560000E5580000F558000058
:10568000415A0000EF5B0000F95B00004D5D000037
:10569000F75E00000D4B93F80A32032B00F0AA804E
:1056A000032B00F3DE80012B12D0022B22D0D8E096
:1056B00000000000000000C008AC1C5A643BCF3F53
:1056C00000408F408006002000160020481800206F
:1056D000BA4BD3F8FC31BA4AB2F8E0219342C0F099
:1056E000F980B64B022283F80A22B44B0022C3F899
:1056F000FC21EFE07B79002B08D0B04B012283F82E
:105700000A22AE4B0022C3F8FC21E5E0AC4BD3E902
:105710006E45AB4BB3F8E0311846FBF707F902468C
:105720000B4620462946FAF7C3FF02460B4643ECD8
:10573000172BB0EE470AF0EE670A02F0D3F9B0EE8D
:10574000407AF0EE607A87ED087BD7E908014FF0E8
:1057500000029C4BFBF7D6FB0346002B17D0D7E982
:1057600008014FF000024FF00003FBF7DFFB034698
:10577000002B09D0D7E9082310461946FBF7EAFBAE
:1057800003469BB2FB8205E00023FB8202E04FF65A
:10579000FF73FB82894BD3F8FC31FA8A9342C0F045
:1057A0009B80864B042283F80A22844B0022C3F894
:1057B000FC21834B002283F84222814B012283F893
:1057C0003E227F4B012283F83F227D4B002283F84B
:1057D00043227B4B002283F84122794B002283F83D
:1057E0003C22774B002283F84022754B002283F83D
:1057F0003D2271E0724B012283F84222704B01225C
:1058000083F83E226E4B002283F841226C4B00222B
:1058100083F83C226A4B012283F84322684B002222
:1058200083F84022654BD3F8FC31654AB2F8E02199
:10583000934208D3614B022283F80A225F4B002275
:10584000C3F8FC214AE05E4B93F83632032B45D077
:105850005A4B002283F80A22584B052283F8022271
:105860003CE0574B002283F84222554B012283F83B
:105870003E22534B002283F84322514B002283F8EF
:1058800041224F4B002283F83C224D4B002283F8EB
:1058900040224A4BD3F8FC41494B93ED647BB0EE78
:1058A000470AF0EE670A06F0EFF853EC102B1046AB
:1058B0001946FBF74FFB03469C4211D33F4B032293
:1058C00083F80A223D4B0022C3F8FC213E48FEF734
:1058D00073FE05E000BF24E300BF22E300BF20E326
:1058E00000BF1EE3791D07F11603374A1846FEF77D
:1058F00095FE16E3314B93F80832012B66D1304BFD
:10590000012283F842222E4B012283F83E222C4BA7
:10591000002283F841222A4B002283F83C22284BA4
:10592000012283F84322264B002283F84022234B96
:10593000D3F8FC41224BD3E96E01214BD3E9642318
:10594000FAF7B6FE02460B4643EC172BB0EE470AB9
:10595000F0EE670A06F098F853EC102B1046194643
:10596000FBF7F8FA03469C4218D3144B022283F843
:105970000822124B0022C3F8FC21114B002283F8AD
:1059800042220F4B012283F83F220D4B002283F865
:1059900043220B4B002283F83D22BBE2084B93F8D5
:1059A0003632012B00F0B682044B002283F8082225
:1059B000024B052283F80222ACE200BF4818002007
:1059C000001600200000F040C8170020BC4B002249
:1059D00083F84222BA4B012283F83E22B84B0022C0
:1059E00083F84322B64B002283F84122B44B0022B5
:1059F00083F83C22B24B002283F84022B14BD3F80B
:105A0000FC41AF4B93ED647BB0EE470AF0EE670AC2
:105A100006F03AF853EC102B10461946FBF79AFAA9
:105A200003469C42C0F07682A64B012283F80822EE
:105A3000A44B0022C3F8FC21A348FEF7BDFD69E298
:105A4000A04B93F80432012B40F097809C4B01222D
:105A500083F842229A4B012283F83E22984B00227F
:105A600083F84122964B002283F83C22944B01227A
:105A700083F84322924B002283F84022914B93F803
:105A800000321846FAF752FF4FF000028F4BFAF738
:105A9000C7FF02460B4643EC172BB0EE470AF0EE69
:105AA000670A02F01FF851EC100B854BD3E9642311
:105AB000FAF7FEFD02460B4643EC172BB0EE470A01
:105AC000F0EE670A02F00EF8B0EE407AF0EE607A7F
:105AD00087ED087BD7E908014FF000027C4BFBF70C
:105AE00011FA0346002B17D0D7E908014FF0000246
:105AF0004FF00003FBF71AFA0346002B09D0D7E951
:105B0000082310461946FBF725FA03469BB2FB8291
:105B100005E00023FB8202E04FF6FF73FB82694B36
:105B2000D3F8FC31FA8A934218D3664B022283F8E9
:105B30000422644B0022C3F8FC21614B002283F84D
:105B400042225F4B012283F83F225D4B002283F803
:105B500043225B4B002283F83D22DDE1584B93F852
:105B60003632052B00F0D881564B002283F80422F0
:105B7000544B052283F80222CEE1514B002283F8D8
:105B800042224F4B012283F83E224D4B002283F8E4
:105B900043224B4B002283F84122494B002283F8D9
:105BA0003C22474B002283F84022464BD3F8FC416D
:105BB000434B93ED647BB0EE470AF0EE670A05F0C5
:105BC00063FF53EC102B10461946FBF7C3F903464D
:105BD0009C42C0F0A1813B4B012283F80422394B47
:105BE0000022C3F8FC213848FEF7E6FC94E1364970
:105BF0003848FEF753FE94E1324B93F80732012BFD
:105C00006AD12F4B012283F842222D4B012283F8C7
:105C10003E222B4B002283F84122294B002283F89D
:105C20003C22274B002283F84322254B012283F894
:105C30004022244BD3F8FC41214BD3E96E01204B89
:105C4000D3E96A23FAF734FD02460B4643EC172BDF
:105C5000B0EE470AF0EE670A05F016FF53EC102B82
:105C600010461946FBF776F903469C4218D3154BAC
:105C7000022283F80722134B0022C3F8FC21104BA9
:105C8000002283F842220E4B002283F83F220C4B65
:105C9000002283F840220A4B012283F83D223DE195
:105CA000074B93F83632002B00F03881054B002269
:105CB00083F80722034B052283F802222EE100BF5E
:105CC0000016002048180020C81700200000E03F00
:105CD0000000F040C0170020A34B002283F84222AE
:105CE000A14B012283F83E229F4B002283F84322DE
:105CF0009D4B002283F841229B4B002283F83C22DB
:105D0000994B002283F84022984BD3F8FC41964BE4
:105D100093ED6A7BB0EE470AF0EE670A05F0B4FE39
:105D200053EC102B10461946FBF714F903469C421E
