:1000000000000020FD0400009F750000A5750000A1
:10001000AB750000B1750000B7750000000000006E
:100020000000000000000000000000006D0500005E
:10003000BD750000000000001306000073060000FC
:100040005D7400006B740000797400008774000018
:1000500095740000A3740000B1740000BF74000028
:10006000CD740000DB740000E9740000F774000038
:100070000575000013750000217500002F75000044
:100080003D750000C3750000C9750000CF75000004
:10009000D5750000DB750000E1750000E775000014
:1000A000ED750000F3750000F9750000FF750000A4
:1000B000057600000B760000117600004B750000FD
:1000C00017760000597500001D7600006775000066
:1000D0002376000075750000297600002F76000059
:1000E000357600003B760000417600004776000040
:1000F0004D76000053760000597600005F760000D0
:100100000D0500000D0500000D0500000D050000A7
:10011000657600006B76000071760000777600004F
:100120007D76000083760000897600008F760000DF
:10013000957600009B760000A1760000A77600006F
:10014000AD760000B376000083750000B97600003C
:1001500091750000BF760000C5760000CB760000E8
:10016000D1760000D7760000DD760000E37600004F
:10017000E9760000EF760000F5760000FB760000DF
:10018000017700000D0500000D0500000D050000C1
:100190000D0500000D0500000D0500000D05000017
:1001A0000D0500000D0500000D0500000D05000007
:1001B0000D0500000D0500000D0500000D050000F7
:1001C0000D0500000D0500000D0500000D050000E7
:1003F0000D0500000D0500000D050000FFFFFFFFCB
:10040000FFFFFFFFFFFFFFFFFFFFFFFFFEFFFFFFFD
:1004400010B5054C237833B9044B13B10448AFF30E
:1004500000800123237010BDF01000200000000078
:100460005CFD000008B5034B1BB103490348AFF323
:10047000008008BD00000000F41000205CFD0000BA
:10048000A3F5803A704700BF174B002B08BF134BF2
:100490009D46FFF7F5FF00218B460F461348144A8F
:1004A000121A0BF02BFF0E4B002B00D098470D4B70
:1004B000002B00D098470020002104000D000D48BB
:1004C000002802D00C480BF0F5FB0BF039FC2000A3
:1004D000290003F021FC0BF0F9FB00BF000008002D
:1004E000000000008978000000000020F0100020CB
:1004F000204B0020B5BC0000EDBC000072B606F039
:10050000C5FB06F05BFB62B6FFF7BEFFFFF7FEBF61
:1005100080F309887047EFF309807047684680F3DD
:1005200009885A480078C00714BF0220032080F3CE
:1005300014887047DFF858C1EFF305831B0618BF16
:100540006047EFF31483DB0708BF604700DF7047A5
:10055000DFF840C1EFF305831B0618BF6047EFF3D8
:100560001483DB0708BF604700DF7047EFF30980A3
:10057000816911F8021CE1BB90E80F1010B5E0474B
:10058000BDE81040EFF3098C8CE80700424B93E87C
:100590000600914208BF704741B91EF0100F16D1F6
:1005A0003E49086820F00100086010E01EF0100FBE
:1005B00006BF2CED108A0120002081F825002CE9CF
:1005C000F00FC1F828C00CB408F060FC0CBC1A6035
:1005D000D2F828C0BCE8F00F92F8250000280EBF22
:1005E0006FF0020E6FF0120EBCEC108A8CF30988CB
:1005F000704710B52A4A1268914209D8294C54F81C
:10060000214090E80F10A047EFF3098C8CE80F0011
:1006100010BD10B508F0ACFBBDE810401E4B93E8D0
:100620000600914208BF7047EFF3098C1EF0100FCF
:1006300006BF2CED108A0120002081F825002CE94E
:10064000F00FC1F828C00CB408F020FC0CBC1A60F4
:10065000D2F828C0BCE8F00F92F8250000280EBFA1
:100660006FF0020E6FF0120EBCEC108A8CF309884A
:10067000704710B508F0ECFBFFF7CEBF10B508F0DF
:10068000E5FB08F0E5FBFFF7C7BF00008CEB0000BF
:10069000FD86000019870000BC4A002034EF00E00E
:1006A00000000000FCFFFFFF81F0004102E000BFFE
:1006B00083F0004330B54FEA41044FEA430594EA22
:1006C000050F08BF90EA020F1FBF54EA000C55EA5D
:1006D000020C7FEA645C7FEA655C00F0E2804FEA2E
:1006E0005454D4EB5555B8BF6D420CDD2C4480EA10
:1006F000020281EA030382EA000083EA010180EA40
:10070000020281EA0303362D88BF30BD11F0004F8D
:100710004FEA01314FF4801C4CEA113102D04042C3
:1007200061EB410113F0004F4FEA03334CEA1333FE
:1007300002D0524263EB430394EA050F00F0A78016
:10074000A4F10104D5F1200E0DDB02FA0EFC22FA11
:1007500005F2801841F1000103FA0EF2801843FA05
:1007600005F359410EE0A5F120050EF1200E012AF6
:1007700003FA0EFC28BF4CF0020C43FA05F3C01834
:1007800051EBE37101F0004507D54FF0000EDCF1AD
:10079000000C7EEB00006EEB0101B1F5801F1BD356
:1007A000B1F5001F0CD349085FEA30004FEA3C0C5A
:1007B00004F101044FEA445212F5800F80F09A8050
:1007C000BCF1004F08BF5FEA500C50F1000041EB54
:1007D000045141EA050130BD5FEA4C0C404141EB58
:1007E0000101013C28BFB1F5801FE9D291F0000F53
:1007F00004BF01460020B1FA81F308BF2033A3F102
:100800000B03B3F120020CDA0C3208DD02F1140CF8
:10081000C2F10C0201FA0CF021FA02F10CE002F133
:100820001402D8BFC2F1200C01FA02F120FA0CFC2C
:10083000DCBF41EA0C019040E41AA2BF01EB045175
:10084000294330BD6FEA04041F3C1CDA0C340EDC73
:1008500004F11404C4F1200220FA04F001FA02F3B6
:1008600040EA030021FA04F345EA030130BDC4F174
:100870000C04C4F1200220FA02F001FA04F340EA69
:100880000300294630BD21FA04F0294630BD94F01A
:10089000000F83F4801306BF81F480110134013D01
:1008A0004EE77FEA645C18BF7FEA655C29D094EA72
:1008B000050F08BF90EA020F05D054EA000C04BFF0
:1008C0001946104630BD91EA030F1EBF00210020DB
:1008D00030BD5FEA545C05D14000494128BF41F07A
:1008E000004130BD14F580043CBF01F5801130BDDE
:1008F00001F0004545F0FE4141F470014FF0000069
:1009000030BD7FEA645C1ABF194610467FEA655C19
:100910001CBF0B46024650EA013406BF52EA0335BB
:1009200091EA030F41F4002130BD00BF90F0000FA9
:1009300004BF0021704730B54FF4806404F13204E5
:100940004FF000054FF0000150E700BF90F0000F9E
:1009500004BF0021704730B54FF4806404F13204C5
:1009600010F0004548BF40424FF000013EE700BF95
:1009700042004FEAE2014FEA31014FEA02701FBF25
:1009800012F07F4393F07F4F81F06051704732F057
:100990007F4208BF704793F07F4F04BF41F40021AE
:1009A000704730B54FF4607401F0004521F000410C
:1009B0001CE700BF50EA010208BF704730B54FF096
:1009C00000050AE050EA010208BF704730B511F097
:1009D000004502D5404261EB41014FF4806404F1CF
:1009E00032045FEA915C3FF4D8AE4FF003025FEA55
:1009F000DC0C18BF03325FEADC0C18BF033202EBD9
:100A0000DC02C2F1200300FA03FC20FA02F001FA32
:100A100003FE40EA0E0021FA02F11444BDE600BFD5
:100A200070B54FF0FF0C4CF4E06C1CEA11541DBF84
:100A30001CEA135594EA0C0F95EA0C0F00F0DEF84F
:100A40002C4481EA030621EA4C5123EA4C5350EA34
:100A5000013518BF52EA033541F4801143F4801385
:100A600038D0A0FB02CE4FF00005E1FB02E506F016
:100A70000042E0FB03E54FF00006E1FB03569CF06B
:100A8000000F18BF4EF0010EA4F1FF04B6F5007F71
:100A900064F5407404D25FEA4E0E6D4146EB0606E3
:100AA00042EAC62141EA55514FEAC52040EA5E506C
:100AB0004FEACE2EB4F1FD0C88BFBCF5E06F1ED816
:100AC000BEF1004F08BF5FEA500E50F1000041EB4D
:100AD000045170BD06F0004646EA010140EA0200FA
:100AE00081EA0301B4EB5C04C2BFD4EB0C0541EA1C
:100AF000045170BD41F480114FF0000E013C00F331
:100B0000AB8014F1360FDEBF002001F0004170BD54
:100B1000C4F10004203C35DA0C341BDC04F114046D
:100B2000C4F1200500FA05F320FA04F001FA05F2F9
:100B300040EA020001F0004221F0004110EBD370C6
:100B400021FA04F642EB06015EEA430E08BF20EAF2
:100B5000D37070BDC4F10C04C4F1200500FA04F395
:100B600020FA05F001FA04F240EA020001F0004127
:100B700010EBD37041F100015EEA430E08BF20EA9A
:100B8000D37070BDC4F1200500FA05F24EEA020EE2
:100B900020FA04F301FA05F243EA020321FA04F011
:100BA00001F0004121FA04F220EA020000EBD370C8
:100BB0005EEA430E08BF20EAD37070BD94F0000FC8
:100BC0000FD101F00046400041EB010111F4801FFC
:100BD00008BF013CF7D041EA060195F0000F18BFAD
:100BE000704703F00046520043EB030313F4801FE9
:100BF00008BF013DF7D043EA0603704794EA0C0FA3
:100C00000CEA135518BF95EA0C0F0CD050EA4106B8
:100C100018BF52EA4306D1D181EA030101F0004135
:100C20004FF0000070BD50EA410606BF104619465D
:100C300052EA430619D094EA0C0F02D150EA013669
:100C400013D195EA0C0F05D152EA03361CBF1046AA
:100C500019460AD181EA030101F0004141F0FE4149
:100C600041F470014FF0000070BD41F0FE4141F4CD
:100C7000780170BD70B54FF0FF0C4CF4E06C1CEACD
:100C800011541DBF1CEA135594EA0C0F95EA0C0F82
:100C900000F0A7F8A4EB050481EA030E52EA03353D
:100CA0004FEA013100F088804FEA03334FF080555E
:100CB00045EA131343EA12634FEA022245EA11158B
:100CC00045EA10654FEA00260EF000419D4208BF3C
:100CD000964244F1FD0404F5407402D25B084FEAE9
:100CE0003202B61A65EB03055B084FEA32024FF495
:100CF00080104FF4002CB6EB020E75EB030E22BFF2
:100D0000B61A754640EA0C005B084FEA3202B6EBB1
:100D1000020E75EB030E22BFB61A754640EA5C0060
:100D20005B084FEA3202B6EB020E75EB030E22BFF0
:100D3000B61A754640EA9C005B084FEA3202B6EBF1
:100D4000020E75EB030E22BFB61A754640EADC00B0
:100D500055EA060E18D04FEA051545EA16754FEA12
:100D600006164FEAC30343EA52734FEAC2025FEA30
:100D70001C1CC0D111F4801F0BD141EA00014FF0BF
:100D800000004FF0004CB6E711F4801F04BF014390
:100D90000020B4F1FD0C88BFBCF5E06F3FF6AFAEAC
:100DA000B5EB030C04BFB6EB020C5FEA500C50F13C
:100DB000000041EB045170BD0EF0004E4EEA1131BF
:100DC00014EB5C04C2BFD4EB0C0541EA045170BDC6
:100DD00041F480114FF0000E013C90E645EA060E0A
:100DE0008DE60CEA135594EA0C0F08BF95EA0C0F38
:100DF0003FF43BAF94EA0C0F0AD150EA01347FF480
:100E000034AF95EA0C0F7FF425AF104619462CE756
:100E100095EA0C0F06D152EA03353FF4FDAE1046B9
:100E2000194622E750EA410618BF52EA43067FF40A
:100E3000C5AE50EA41047FF40DAF52EA43057FF49A
:100E4000EBAE12E74FF0FF3C06E000BF4FF0010CA5
:100E500002E000BF4FF0010C4DF804CD4FEA410C09
:100E60007FEA6C5C4FEA430C18BF7FEA6C5C1BD0D6
:100E700001B050EA410C0CBF52EA430C91EA030F57
:100E800002BF90EA020F0020704710F1000F91EAB4
:100E9000030F58BF994208BF90422CBFD8176FEA82
:100EA000E37040F0010070474FEA410C7FEA6C5C50
:100EB00002D150EA013C07D14FEA430C7FEA6C5C57
:100EC000D6D152EA033CD3D05DF8040B704700BF83
:100ED0008446104662468C461946634600E000BFD1
:100EE00001B5FFF7B7FF002848BF10F1000F01BDA3
:100EF0004DF808EDFFF7F4FF0CBF012000205DF86E
:100F000008FB00BF4DF808EDFFF7EAFF34BF0120F2
:100F100000205DF808FB00BF4DF808EDFFF7E0FF8B
:100F200094BF012000205DF808FB00BF4DF808EDDC
:100F3000FFF7CEFF94BF012000205DF808FB00BF43
:100F40004DF808EDFFF7C4FF34BF012000205DF825
:100F500008FB00BF4A0011D212F5001211D20DD5C4
:100F60006FF47873B3EB62520ED44FEAC12343F0AF
:100F7000004343EA505323FA02F070474FF0000059
:100F8000704750EA013002D14FF0FF3070474FF008
:100F90000000704753B94AB9002908BF00281CBF98
:100FA0004FF0FF314FF0FF3001F0C0B8ADF1080C49
:100FB0006DE904CE00F006F8DDF804E0DDE9022377
:100FC00004B070472DE9F047089D04468C46002B7D
:100FD00040F083808A42174647D9B2FA82F242B182
:100FE000C2F1200024FA00F09140974040EA010C41
:100FF00094404FEA1748230CBCFBF8F61FFA87FE13
:1010000008FB16C143EA014306FB0EF1994209D9D8
:10101000FB1806F1FF3080F01981994240F21681E9
:10102000023E3B445B1AA4B2B3FBF8F008FB10335A
:1010300044EA034400FB0EFEA64509D93C1900F121
:10104000FF3380F00581A64540F2028102383C441E
:1010500040EA0640A4EB0E0400261DB1D440002354
:10106000C5E900433146BDE8F08702B9FFDEB2FAB8
:1010700082F2002A50D1CB1B4FEA174E1FFA87F895
:101080000126B3FBFEFC210C0EFB1C3341EA03419D
:1010900008FB0CF38B4207D979180CF1FF3002D210
:1010A0008B4200F2E9808446C91AA3B2B1FBFEF07C
:1010B0000EFB101143EA014408FB00F8A04507D9D4
:1010C0003C1900F1FF3302D2A04500F2D980184646
:1010D000A4EB080440EA0C40BFE78B4209D9002D7D
:1010E00000F0B1800026C5E9000130463146BDE878
:1010F000F087B3FA83F6002E4AD18B4202D38242A4
:1011000000F2B880841A61EB030101208C46002DA7
:10111000A8D0C5E9004CA5E7C2F1200320FA03F6E8
:10112000974001FA02F04FEA174ED9403043030CC2
:10113000B1FBFEF61FFA87F80EFB161143EA0143D6
:1011400006FB08F1994204FA02F409D9FB1806F1EA
:10115000FF3C80F08D80994240F28A80023E3B4401
:101160005B1A81B2B3FBFEF00EFB103341EA034180
:1011700000FB08F38B4207D9791800F1FF3C73D2CA
:101180008B4271D902383944CB1A40EA064678E7D7
:10119000C6F1200C03FA06F422FA0CF31C4320FAE1
:1011A0000CF701FA06F34FEA144E21FA0CF11F4333
:1011B0003B0CB1FBFEF91FFA84F80EFB191143EA50
:1011C000014109FB08FA8A4502FA06F200FA06F321
:1011D00008D9611809F1FF3048D28A4546D9A9F1EA
:1011E00002092144A1EB0A01BFB2B1FBFEF00EFBE4
:1011F000101147EA014700FB08F8B84507D9E7197D
:1012000000F1FF312ED2B8452CD90238274440EAEC
:101210000940A7EB0807A0FB02894F45C64649468F
:101220001AD317D05DB1B3EB0E0267EB010707FAD3
:101230000CFCF2404CEA0202F740C5E90027002608
:101240003146BDE8F0872E4628460BE70646E9E61C
:101250001846FDE64345E5D2B8EB020E69EB040102
:101260000138DFE70846D2E760468DE78146B9E7F7
:10127000664675E730464AE7ACF1020C394413E79D
:1012800002383C4424E700BF03685A004CBF43F0D7
:10129000004323F000431844704700BF2DE9F84392
:1012A00029B34F1E044615463E464FF0000808EB92
:1012B000060101EBD171491004EBC1094846FFF763
:1012C000E3FF0346C80008308F42204409D0AB42F8
:1012D00009D8FFF7D9FF0138A8420AD201F1010865
:1012E000E5E7AB4205D9884501D04E1EDFE74FF058
:1012F00000094846BDE8F883012807D0022807D036
:10130000044B00280CBF1846002070470248704765
:1013100002487047BD190000C1190000C51900003E
:1013200030B5234B83B004468D1E3BB301A928463C
:10133000AFF30080E8B101992A46FFF7AFFF0146FD
:10134000B8B1FFF7A1FF4B68A064012B2BD0002B95
:1013500001F1040023DBFFF797FF0023C4E9130327
:101360000368002B10DBFFF78FFF2061002003B024
:1013700030BD00230920236103B030BD0D490E4864
:10138000091AC9100191D7E7C3F30360FFF7B4FF4F
:101390000028206114BF0020092003B030BD0123C4
:1013A000C4E91303DCE7002323610520DFE700BF66
:1013B00000000000F4030100740001000368DA0774
:1013C00010B5044606D49B0700F1480009D500F08B
:1013D0004BFC2368590709D51A070ED5DB0613D530
:1013E00010BD00F039FC23685907F5D404F1D00092
:1013F00000F042FC23681A07F0D404F5A87000F04E
:1014000043FC2368DB06EBD404F5E870BDE810402C
:1014100000F07EBC0346006800B11844704700BF6E
:1014200009207047704700BF70B504460E46316C06
:101430002046FFF775FF054688B9336C6361324675
:1014400023692146012098470828F0D0072806D1B3
:101450002846316CFFF7E6FF301D00F0F1FB0AF083
:1014600003FC00BF2DE9F0470D1D064614460FCDC5
:10147000ADF5727D0DF10C0CACE80F000FCDACE8B2
:101480000F000FCDACE80F0095E80F0002ADF76834
:10149000D6F818808CE80F0000232B6021E02B6C1D
:1014A00073614FF4F07229467AA800F041FE336967
:1014B0007AAA314650469847889BCDE90058214684
:1014C0006B648146334632460120B8470446E8B98A
:1014D0004FF4F0727AA9284600F02AFEB9F1080FFD
:1014E0001BD1296C3046FFF71BFF09345FFA84FAE1
:1014F00081460028D3D0AB6B4AF01001CDE90058EB
:1015000032466B6401203346B84708B14FF00909F1
:1015100048460DF5727DBDE8F087B9F1070FF5D1AA
:101520002046296CFFF77EFF03A800F089FB00BF6F
:10153000406C7047F0B5CB6B0B640E1D0F46054633
:101540000FCEF9B001AC0FC40FCE0FC40FCE0FC435
:1015500096E80F004FF0FF3684E80F00009606E093
:101560002B696A46294698470828044608D11099ED
:101570002846FFF7D5FE0028F2D0092079B0F0BD4B
:101580006846FFF71BFF062CF7D139462846FFF7C0
:101590004BFF00BF30B4DD6BC160826119461D6432
:1015A000002230BC5EE700BF70B5C66843690B64BB
:1015B000AEB903690A4604460D4601460220984723
:1015C000072805D008280FD129462046FFF72CFF11
:1015D0003046296CFFF726FF281D00F031FB012261
:1015E000FFF740FF0AF040FB0AF03EFBC2681AB169
:1015F000CA6B0A64002235E79CE700BF704700BF52
:10160000836801460BB1012018477047012912D0A9
:1016100009D873B90F2A0CD800EB82021846536818
:10162000009A136070470339012994BF01200220FA
:101630007047022070470846704700BF10B584B05D
:10164000002303AC0A4600941946FFF7DFFF039816
:1016500004B010BD012912D009D873B90F2A0CD8D3
:1016600000EB8200009A1268426018467047033906
:10167000012994BF012002207047022070470846CC
:10168000704700BF10B584B0002303AC03920094F0
:101690000A461946FFF7DEFF04B010BDF0B5D36B64
:1016A0001364151D8C4606460FCDADF50F7D17ACA6
:1016B0000FC40FCD0FC40FCD0FC495E80F004FF02E
:1016C000FF3784E80F006546169710E0FFF7DAFF52
:1016D000294616A8B047034616AA6946082083B9CA
:1016E000049B9847052804460CD0092809D0269960
:1016F0006846FFF715FE03466A460C2116A8002B24
:10170000E4D0092416A8FFF759FE20460DF50F7DF9
:10171000F0BD00BF2DE9F04FCC6C89B00D4654F8F8
:10172000041B0694174600F003081E46002B79D0D0
:101730000B0CDAB209048DF81D30022304EB82048D
:1017400005918DF81C302B6DB8F1020F08BFAC6B02
:1017500013F001030CD0384605A900F073FB18B94B
:10176000082009B0BDE8F08F092009B0BDE8F08F6E
:10177000D4F800A0BAF1000FEDD0019300F00803F7
:101780000293022E4AD0B4F800A0B4F802900434B8
:10179000AA6C29F0010B0F2138469344FFF74EFF46
:1017A000834539D82AF001025A44824294BF00206E
:1017B00001204FEA490303F002030AF0010A43EA59
:1017C0000A03012B49D0022B32D0002BCCD1B8F127
:1017D000000F02D0002840F0CD800434D4F800A0DF
:1017E000BAF1000FCDD105A9384600F02BFB002837
:1017F000BAD1019B002BB3D00F213846FFF71EFF53
:101800000E2102463846FFF73DFF38466A4A0F214F
:10181000FFF738FF0720A8E70020CAE7D4F80490B4
:101820000834B5E7090203230591ADF81C308AE7B7
:10183000236823F0004BB8F1000F45D128B1029A7C
:10184000002A5CD0BBF1000F74D0002B00DA043406
:101850000BF1010B04EB8B04C0E7B8F1000F19D1B9
:10186000B0B1D4E90023991C4FEAD2723FF47CAFA7
:1018700005F158010133049100F09080201DFFF71D
:10188000C9FD04AB01462846AFF3008000285BD1B8
:101890000834A3E70D213846D5F82090FFF7CEFE97
:1018A0008145F5D1AB6A9C42F2D12046FFF7ECFCB2
:1018B0000F2102463846FFF7E5FE38462A4600214A
:1018C000FFF7E0FE072050E70D213846D5F82090BD
:1018D000FFF7B4FE814501D02368B6E7AB6A9C42AE
:1018E000FAD104220021C5E90B12A318C5F828B0CB
:1018F0006B6323688B4259DB01230193A8E705F151
:101900005803CDF80C8004F1040AB04691461E46F7
:101910000DE00496FFF77EFD04AB01460022284649
:10192000AFF3008009F101090AF1040AE8B9D945C9
:101930005046EED138460D21FFF780FE049B286209
:10194000C5E90934062010E781460D213846FFF726
:1019500075FEB9F1020F286225D12B46049A43F88F
:101960002C2F6B62AC620620FFE646462368DDF84A
:101970000C806AE72046FFF787FC04340246AC631C
:1019800028461446AFF3008000283FF4EDAE3846F9
:1019900022460F21FFF776FE0720E6E638460D21A6
:1019A000FFF74CFE2862049B6B62DBE70BF1010042
:1019B00004EB80007AE700BF000000000023A9E6E6
:1019C0000123A7E60223A5E62DE9F0430646C3B0AE
:1019D00015461C46042900F2B980DFE801F09A534D
:1019E000B7290300002C40F0B180102A00F2AE802D
:1019F0000368D80600F1F38020AF384600F092F972
:101A0000B06B0023012404FA03F22A42014604D0F9
:101A100051F8042B47F8232008460133042BF2D158
:101A2000B063384600F074F9002043B0BDE8F0839D
:101A3000032C40F08B8094B204EB1243102B4FEA3E
:101A4000124500F2838003681F0700F1D08020AFA9
:101A5000384600F03BF907EBC501B56B54B10B46B6
:101A6000E81A01EBC401E4001A5843F8042B8B4236
:101A7000FAD125443846B56300F006F9002043B09A
:101A8000BDE8F083012C4FEA124895B25AD0052CDC
:101A90005CD108EB0509B9F1200F57D8B8F10F0F49
:101AA00077D9A946002D40F08880B36B6DB320AF85
:101AB0004FF0000907EBC807043F03EBC50553F8D7
:101AC000041B47F8041FAB42F9D1B9F1000F0FD046
:101AD0006F464146102938BF102107EBC1018439F8
:101AE00003EBC90553F8040B41F8040FAB42F9D1DD
:101AF000012C00F08480B8F10F0FB56345D9B9F11E
:101B0000000F02D0684600F0B7F8002043B0BDE8EF
:101B1000F083DCB9876B2346012094B206F1040CF4
:101B200000FA03F22242394604D051F8042B4CF853
:101B300023200F460133102BF2D115F40050E4D1CD
:101B4000B76304E008EB0503102B03D9022043B070
:101B5000BDE8F083B8F10F0FF8D83368DA0706D57F
:101B6000304623F0030340F8483B00F079F820AFFB
:101B7000384600F075F8B36B002D99D11D46043539
:101B8000B563384600F068F8BFE720A800F06CF8AD
:101B9000B5E7B9F1100F40D9A9F110093368D90799
:101BA00008D523F00103304643F0020340F8483BD8
:101BB00000F05EF8B9F1000F32D033685A0720D434
:101BC000B8F10F0F25D96F463846C8F1100500F05F
:101BD00057F8002DB36B7FF77CAF20AF6AE723F097
:101BE0001003336006F5E87000F09CF804E723F07A
:101BF0000803036000F5A87000F068F827E720AF3D
:101C0000BDE7304623F0040340F8D03B00F038F83D
:101C1000D6E720A800F02CF8D5E74FF00009BDE783
:101C2000B8F10F0F3FF641AF20AF384600F020F873
:101C3000B36B002D7FF43CAF384600F015F864E735
:101C400000F1340191E838009C46A6464CF8045D4A
:101C500090E8FF0FE54600BD90EC210B704700BFF8
:101C600080EC210B704700BF90EC200B704700BF49
:101C700080EC200B704700BFD0EC200B704700BFFA
:101C8000C0EC200B704700BFF0EC0201F0EC021139
:101C9000F0EC0221F0EC0231F0EC0241F0EC0251E8
:101CA000F0EC0261F0EC0271F0EC0281F0EC0291D8
:101CB000F0EC02A1F0EC02B1F0EC02C1F0EC02D1C8
:101CC000F0EC02E1F0EC02F1704700BFE0EC020141
:101CD000E0EC0211E0EC0221E0EC0231E0EC024128
:101CE000E0EC0251E0EC0261E0EC0271E0EC028118
:101CF000E0EC0291E0EC02A1E0EC02B1E0EC02C108
:101D0000E0EC02D1E0EC02E1E0EC02F1704700BF50
:101D1000B0FC0181B0FC0191B0FC01A1B0FC01B1AB
:101D2000704700BFA0FC0181A0FC0191A0FC01A1B3
:101D3000A0FC01B1704700BFEC4600B52DE9005092
:101D40002DE9FF1F4FF000032DE90C0001A9FFF75B
:101D5000F1FBDDF840E012B0704700BFEC4600B583
:101D60002DE900502DE9FF1F4FF000032DE90C0075
:101D700001A9FFF719FCDDF840E012B0704700BF81
:101D8000EC4600B52DE900502DE9FF1F4FF0000390
:101D90002DE90C0001A9FFF729FCDDF840E012B0A5
:101DA000704700BFEC4600B52DE900502DE9FF1F3C
:101DB0004FF000032DE90C0001ABFFF7EBFBDDF862
:101DC00040E012B0704700BFEC4600B52DE900506E
:101DD0002DE9FF1F4FF000032DE90C0001AAFFF7CA
:101DE0005DFCDDF840E012B0704700BF027A7AB9BE
:101DF000437AA3B14268013B10B4437213680321D4
:101E0000141D01721A024460026010BC180E704763
:101E10000368013A02721A020260180E7047B0207D
:101E2000704700BF00B585B003AA00230092194691
:101E30000C22FFF7EBFB039805B05DF804FB00BF35
:101E4000F0E700BF2DE9F043054685B00E464FF0A0
:101E500000083046FFF7CAFFB028044600F0B28001
:101E6000070620D500F0F003802B4DD0902B36D004
:101E7000A02B60D0B02B74D0C02B00F08B8000F072
:101E8000F803D02B0BD100F00702013242F40022FC
:101E9000052301212846FFF797FD0028D9D0092006
:101EA00005B0BDE8F0830DF10C0900231946870049
:101EB000CDF800900D222846FFF7A8FBFFB2039B48
:101EC000CDF80090043760064CBFDF1BFF180023DD
:101ED00019460D2228460397FFF7BCFBB9E700F02F
:101EE0000D030D2BDBD003AF002300F00F021946CA
:101EF00000972846FFF78AFB0023009719460D221A
:101F00002846FFF7A7FBA4E73046FFF76FFF240240
:101F10002043B0F5004FC2D004010023A2B21946FD
:101F20002846FFF751FD0028B9D114F4004F18BF1F
:101F30004FF001088DE7C24302F007034FF47F62C0
:101F40001A41010702F47F624FF0000348BF42F4D8
:101F5000804219462846FFF737FD00283FF479AF45
:101F60009DE7B12833D0B22800F08B80B32839D058
:101F700000F0FC03B42B92D000F0070201320123E1
:101F800042F4002219462846FFF71EFD00283FF4C0
:101F900060AF84E7C62842D0C7284CD000F0F803D1
:101FA000C02B5BD0C82860D0C9287FF478AF3046FA
:101FB000FFF71CFF020300F00F0002F47022013053
:101FC000024365E7B8F1000F18D0002068E73046FB
:101FD000FFF70CFF024600283FF461AF10F0F0035A
:101FE000D0D05CE73046FFF701FF010300F00F009F
:101FF00001F47021421C01230A43C3E703AC4346AA
:102000000E22414600942846FFF700FB0094284624
:1020100043460F224146FFF71DFB404640E730464E
:10202000FFF7E4FE010300F00F0001F47021421CF1
:1020300003230A43A6E73046FFF7D8FE02460028EE
:102040003FF42DAF10F0F0037FF429AF04212846B0
:10205000FFF7BAFC00283FF4FCAE20E700F00F02C7
:102060000132032342F420228CE73046FFF7BEFE04
:1020700000F0F00200F00F031032013343EA0232A5
:1020800006E700230DF10C090D221946CDF800904A
:102090002846FFF7BBFA3046FFF7A8FE02064FF0CE
:1020A00002070CD5039B00F07F00B8400344304684
:1020B0000393FFF79BFE030607F10707F2D4039B88
:1020C000CDF8009000F07F0403F50172BC400023BE
:1020D000144419460D2228460394FFF7BBFAB8E6CC
:1020E00010B5C26C84B0536803248DF80C401B02F9
:1020F00002F108040846D279019301A902948DF8EF
:102100000D20FFF79FFE04B010BD00BF08B5FFF71C
:1021100097FE806C08BD00BF08B5FFF791FEC06C4C
:10212000C379023300EB830008BD00BF704700BFD6
:10213000844641EA000313F003036DD1403A41D3D2
:1021400051F8043B40F8043B51F8043B40F8043B91
:1021500051F8043B40F8043B51F8043B40F8043B81
:1021600051F8043B40F8043B51F8043B40F8043B71
:1021700051F8043B40F8043B51F8043B40F8043B61
:1021800051F8043B40F8043B51F8043B40F8043B51
:1021900051F8043B40F8043B51F8043B40F8043B41
:1021A00051F8043B40F8043B51F8043B40F8043B31
:1021B00051F8043B40F8043B51F8043B40F8043B21
:1021C000403ABDD2303211D351F8043B40F8043BC1
:1021D00051F8043B40F8043B51F8043B40F8043B01
:1021E00051F8043B40F8043B103AEDD20C3205D3D1
:1021F00051F8043B40F8043B043AF9D2043208D0C9
:10220000D2071CBF11F8013B00F8013B01D30B883A
:1022100003806046704700BF082A13D38B078DD018
:1022200010F003038AD0C3F10403D21ADB071CBFEA
:1022300011F8013B00F8013B80D331F8023B20F854
:10224000023B7BE7043AD9D3013A11F8013B00F88D
:10225000013BF9D20B7803704B7843708B78837015
:102260006046704700000000000000000000000011
:1022700001F0FF01102A2BDB10F0070F08D010F837
:10228000013B013A8B422DD010F0070F42B3F6D13B
:10229000F0B441EA012141EA014122F007047FF054
:1022A00000070023F0E80256083C85EA010586EAAB
:1022B000010685FA47F5A3FA87F586FA47F6A5FAE7
:1022C00087F68EB9EED1F0BC01F0FF0102F00702F3
:1022D00032B110F8013B013A83EA010313B1F8D19E
:1022E0000020704701387047002D06BF354603387F
:1022F000073815F0010F07D1013015F4807F02BFB8
:10230000013015F4C03F0130F0BC0138704700BF08
:1023100000000000000000000000000000000000BD
:1023200000000000000000000000000000000000AD
:10233000000000000000000000000000000000009D
:1023400090F800F06DE9024520F007016FF0000CF5
:1023500010F0070491F820F040F049804FF000049D
:102360006FF00700D1E9002391F840F000F1080078
:1023700082FA4CF2A4FA8CF283FA4CF3A2FA8CF3B0
:102380004BBBD1E9022382FA4CF200F10800A4FA17
:102390008CF283FA4CF3A2FA8CF3E3B9D1E904236B
:1023A00082FA4CF200F10800A4FA8CF283FA4CF3A2
:1023B000A2FA8CF37BB9D1E9062301F1200182FA5C
:1023C0004CF200F10800A4FA8CF283FA4CF3A2FA62
:1023D0008CF3002BC6D0002A04BF04301A4612BA70
:1023E000B2FA82F2FDE8024500EBD2007047D1E973
:1023F000002304F00305C4F100004FEAC50514F002
:10240000040F91F840F00CFA05F562EA05021CBFD2
:1024100063EA050362464FF00004A9E780B584B083
:1024200000AFF860B9601346FB71BB681F2B05D97C
:102430000D4B0E4AFF210E4809F01EFCFB68BA68DE
:1024400053F8223023F0807323F4E063FA79120208
:1024500002F4E06243EA0201FB68BA6843F8221022
:1024600000BF1037BD4680BD68E8000070EA00007C
:1024700074E8000080B483B000AF78600B46FB7056
:102480007B681B6823F01802FB78DB0003F018035D
:102490001A437B681A6000BF0C37BD465DF8047BA9
:1024A0007047000080B58EB000AF786187ED020BF9
:1024B00087ED001B524A7B695B01134411331B7883
:1024C000002B40F08780002387F82830002387F80E
:1024D0002930002387F82A308023FB62484A7B6931
:1024E0005B0113441868464A7B695B01134404335B
:1024F0001968434A7B695B01134410331B781A4601
:10250000FFF78CFF3E4A7B695B01134408331B686D
:1025100007F128021146184607F04EFE384A7B693B
:102520005B01134408331B68DBB20022012118460B
:1025300007F0C8FE324A7B695B0113441133042261
:102540001A702F4A7B695B01134403F11801D7E924
:102550000223C1E9002302233B7600237B76284A2D
:102560007B695B0113441833D3E9002310461946F5
:10257000FEF7F0FC0346FB61D7E90001FEF7EAFC39
:1025800003463B620023BB841D4A7B695B01134405
:1025900008331B681B4A52F823303B630021386B19
:1025A000FFF768FF164A7B695B011344083318681C
:1025B000134A7B695B0113440C331B68DAB207F1E1
:1025C0001803194607F0DCFE7B695B010C4A1344D3
:1025D0007B630FE00A4A7B695B01134411331B786C
:1025E000042B05D17B695B01054A13447B6301E041
:1025F00000237B637B6B18463837BD4680BD00BF28
:1026000078010020A8F4000080B483B000AF7860A7
:1026100000BF0C37BD465DF8047B704780B58AB0BB
:1026200000AFF86087ED000BFB687B627B6A002BD4
:102630002CD07B6A5B7C042B28D102233B740023C3
:102640007B747B6AD3E9062310461946FEF782FCA9
:1026500003467B61D7E90001FEF77CFC0346BB61C2
:102660000023BB837B6A9B680A4A52F823303B6293
:102670000021386AFFF7FEFE7B6A98687B6ADB6898
:10268000DAB207F11003194607F07AFE00BF2837C7
:10269000BD4680BDA8F4000080B485B000AF78606E
:1026A0007B68FB60FB68002B06D0FB685B7C042B1F
:1026B00002D1FB6800225A7400BF1437BD465DF892
:1026C000047B704780B483B000AF786000BF0C37E4
:1026D000BD465DF8047B704780B590B000AF786070
:1026E0000B46FB70FB78002B27D107F12403002257
:1026F0001A605A609A60DA601A615A612D4A7B68E2
:1027000052F833307B62012387F82830012387F8A1
:1027100029304FF0FF333B6307F12403184607F0DD
:1027200023FF244A7B68DB00134401221A717B6873
:10273000DB00204A1344FB6336E0FB78012B31D1E8
:1027400007F10C0300221A605A609A60DA601A617D
:102750005A61184A7B6852F83330FB6001233B759D
:102760004FF0FF33BB6107F10C03184607F06EFF13
:10277000104A7B68DB00134402221A717B68292B04
:102780000AD97B682C2B07D80A4A7B6852F8333069
:102790000121184607F096FF7B68DB00054A1344C9
:1027A000FB6301E00023FB63FB6B18464037BD462B
:1027B00080BD00BF0000002080B586B000AF78600B
:1027C0007B683B613B69002B0BD03B691B79012B7C
:1027D00007D13B691B68184607F082FF0346FB756B
:1027E00001E00023FB753B691B681B0ADBB2FB6041
:1027F0003B691B68DBB2BB60FB68022B02D1BB6884
:10280000062B05D0FB68002B09D1BB68042B06D131
:10281000FB7D002B0CBF01230023DBB2FB75FB7D8E
:1028200018461837BD4680BD80B586B000AF7860C9
:102830000B46FB707B687B617B69002B2FD07B692B
:102840001B79022B2BD17B691B681B0ADBB23B6116
:102850007B691B68DBB2FB603B69012B05D1FB6820
:10286000162B08D0FB68152B05D03B69042B0FD124
:10287000FB681A2B0CD17B691A68FB78012B14BFFB
:1028800001230023DBB21946104607F01BFF06E0C8
:102890007B691B68FA781146184607F013FF00BFE2
:1028A0001837BD4680BD80B485B000AF78607B68C6
:1028B000FB60FB68002B0ED0FB681B79022B03D159
:1028C000FB6800221A7106E0FB681B79012B02D11C
:1028D000FB6800221A7100BF1437BD465DF8047B07
:1028E0007047000080B586B000AF786026497A68EE
:1028F00013465B0013449B000B4409331B78002BE9
:1029000027D107F10803184607F0A4F80323FB7248
:102910001D497A6813465B0013449B000B441B68F7
:1029200007F108021146184607F0A6F816497A681A
:1029300013465B0013449B000B44093303221A70B7
:102940007A6813465B0013449B000F4A13447B6173
:1029500015E00D497A6813465B0013449B000B4455
:1029600009331B78032B08D17A6813465B001344A4
:102970009B00054A13447B6101E000237B617B6976
:1029800018461837BD4680BD3804002080B485B095
:1029900000AFF8600B467A60FB7200BF1437BD468B
:1029A0005DF8047B7047000080B58AB000AFF86026
:1029B000B9601346FB71FB68FB61FB69002B3AD0E1
:1029C000FB691B7A3B750023BB7500237B75FB6994
:1029D0001B680121184607F097F8FB691868FB6926
:1029E0005B6807F11402194607F0AEF8FB691A6834
:1029F000FB695B681946104607F0C2F8FB691A6864
:102A0000FB695B681946104607F0DEF803467B83D6
:102A10007B8B07EE903AF8EE677A17EE900AFDF797
:102A2000A7FF0DA3D3E90023FDF7FAFF02460B46EB
:102A3000C7E9082305E04FF000024FF00003C7E9A3
:102A40000823B968D7E90823C1E9002300BF283764
:102A5000BD4680BDAFF30080100010001000F03EB6
:102A600080B483B000AF786000BF0C37BD465DF81E
:102A7000047B704780B483B000AF786000BF0C3730
:102A8000BD465DF8047B704780B483B000AF7860CA
:102A900000BF0C37BD465DF8047B704780B584B03D
:102AA00000AFF860B9607A60BB680F2B06D90A4B9B
:102AB0000A4A40F2E2210A4809F0DEF8FA68BB68E7
:102AC0005B01134403F5805310337A681A6000BF2A
:102AD0001037BD4680BD00BFACE80000A8EA00008A
:102AE000D8E8000080B584B000AFF860B960134644
:102AF000FB71BB680F2B06D90D4B0E4A4FF460716A
:102B00000D4809F0B9F8BB685B0103F58053183331
:102B1000FA681344043303F1424303F580135B0165
:102B20000433FA7992B21A8000BF1037BD4680BDD7
:102B3000ACE80000C4EA0000D8E8000090B587B017
:102B400000AFF8607A603B600B46FB7200237B614C
:102B5000FB681B68032B00F0E481032B05D8012BD5
:102B600000F09880022B00F04781954B00221A60FC
:102B7000934B1B68934A52F82330002B41D1904B62
:102B80001B68914ADB00134400229A718C4B1B682E
:102B90008D4ADB00134400221A71894B1B688A4A54
:102BA000DB00134400225A71854B1B68864A4FF4A0
:102BB000E13142F83310824B1B68184604F084FB65
:102BC0007F4B1B689B01814A13448149184607F0DB
:102BD000FFF97B4B18687A4B1A6813461B019B1A46
:102BE0009B007C4A9918764B1B68DB00764A13449D
:102BF0001A4608F0EDFA724B1B68724A012142F83E
:102C000023107B68B3F1FF3F20D06D4B1A687249E7
:102C100013469B0013449B000B444A221A60684BE6
:102C20001A686D4913469B0013449B000B440833FC
:102C30006A4A1A60624B1A68674913469B0013443C
:102C40009B000B440C33664A1A6015E05C4B1A6813
:102C5000614913469B0013449B000B4404335822E4
:102C60001A60574B1A685C4913469B0013449B003B
:102C70000B4410335B4A1A60514B1B68504A126870
:102C8000594941F823204E4B1B689B00564A134478
:102C90007B61DBE14A4B01221A60494B1B68494AC0
:102CA00052F82330002B41D1454B1B68464ADB00CC
:102CB000134400229A71424B1B68434ADB001344C1
:102CC00000221A713E4B1B683F4ADB00134400226E
:102CD0005A713B4B1B683C4A4FF4E13142F83310C8
:102CE000374B1B68184604F0EFFA354B1B689B0105
:102CF000364A13443649184607F06AF9304B1868CB
:102D00002F4B1A6813461B019B1A9B00314A9918D6
:102D10002B4B1B68DB002C4A13441A4608F058FA68
:102D2000274B1B68274A012142F823107B68B3F127
:102D3000FF3F20D0224B1A68274913469B001344BB
:102D40009B000B4400221A601D4B1A68224913464F
:102D50009B0013449B000B440833244A1A60184B11
:102D60001A681D4913469B0013449B000B440C3307
:102D70001F4A1A6015E0124B1A68174913469B0048
:102D800013449B000B44043300221A600C4B1A6856
:102D9000114913469B0013449B000B441033154A02
:102DA0001A60074B1B68064A12680F4941F8232036
:102DB000034B1B689B000C4A13447B6146E100BF38
:102DC000C8150020CC150020E814002000120020B7
:102DD000780600208013002020150020101100200C
:102DE0005C110020A8110020B0150020A8110020BF
:102DF000A811002000120020AD4B02221A60AC4B3B
:102E00001B68AC4A52F82330002B41D1A84B1B68F9
:102E1000A94ADB00134400229A71A54B1B68A64AFD
:102E2000DB00134400221A71A14B1B68A24ADB008D
:102E3000134400225A719E4B1B689F4A4FF4E131A4
:102E400042F833109A4B1B68184604F03DFA984B31
:102E50001B689B01994A13449949184607F0B8F832
:102E6000934B1868924B1A6813461B019B1A9B00E0
:102E7000944A99188E4B1B68DB008F4A13441A46FC
:102E800008F0A6F98A4B1B688A4A012142F82310F0
:102E90007B68B3F1FF3F20D0854B1A688A491346FF
:102EA0009B0013449B000B4400221A60804B1A685D
:102EB000854913469B0013449B000B440833834A07
:102EC0001A607B4B1A68804913469B0013449B0091
:102ED0000B440C337E4A1A6015E0754B1A687A4928
:102EE00013469B0013449B000B44043300221A60DA
:102EF0006F4B1A68744913469B0013449B000B44A4
:102F00001033744A1A606A4B1B68694A1268724926
:102F100041F82320664B1B689B006F4A13447B617A
:102F200094E0634B03221A60614B1B68614A52F8BC
:102F30002330002B41D15E4B1B685F4ADB001344FA
:102F400000229A715A4B1B685B4ADB001344002233
:102F50001A71574B1B68584ADB00134400225A7100
:102F6000534B1B68544A4FF4E13142F83310504B35
:102F70001B68184604F0A8F94D4B1B689B014F4A8B
:102F800013444F49184607F023F8494B1868484B3B
:102F90001A6813461B019B1A9B004A4A9918444B16
:102FA0001B68DB00444A13441A4608F011F9404BF1
:102FB0001B68404A012142F823107B68B3F1FF3FB0
:102FC00020D03B4B1A68404913469B0013449B009A
:102FD0000B4400221A60364B1A683B4913469B008B
:102FE00013449B000B4408333C4A1A60304B1A6868
:102FF000354913469B0013449B000B440C33384A5D
:103000001A6015E02A4B1A682F4913469B00134497
:103010009B000B44043300221A60254B1A682A498E
:1030200013469B0013449B000B4410332D4A1A6037
:103030001F4B1B681E4A1268274941F823201C4B6E
:103040001B689B00244A13447B6100BF7B68B3F17B
:10305000FF3F27D0164B1A6813461B019B1A9B0093
:103060002833184A13440433114A12681E4918467B
:1030700006F0F0FF0E4B18680D4B1A681249134604
:103080009B0013449B000B4408331968084B1A68D3
:103090000D4C13469B0013449B0023441B681A46A7
:1030A00000F0E0F87B6918461C37BD4690BD00BFB4
:1030B000C8150020CC150020E814002000120020C4
:1030C000780600208013002020150020A811002081
:1030D000A811002000120020B0150020A811002027
:1030E000A8110020001200201133000080B483B02A
:1030F00000AF78603960002318460C37BD465DF894
:10310000047B704780B483B000AF786008461146F6
:103110001A460346FB700B46BB7013467B700023B8
:1031200018460C37BD465DF8047B704780B586B005
:1031300000AFF860B9607A60FB683B613B69002BC7
:1031400033D03B691B681F4AD35C012B2DD13B69EF
:103150001B681D4A52F82330012B0FD13B691A68B6
:103160001A4913469B0013449B000B4408331B6809
:103170007A681946B868FEF7DBFF0EE03B691A680B
:10318000124913469B0013449B000B440C331B68ED
:103190007A681946B868FEF7CBFF3B691B68094A95
:1031A0000021D1540023FB7506E07A680021B8683D
:1031B00009F0A4F82023FB75FB7D18461837BD469F
:1031C00080BD00BF18150020981500202015002094
:1031D00080B586B000AFF860B9607A60FB683B618B
:1031E0003B69002B2AD03B691B680021184608F078
:1031F00043F90346082B21D03B691A68134913464B
:103200009B0013449B000B4410331B687A68B96819
:103210001846FEF78DFF3B6918683B691A680B4931
:1032200013469B0013449B000B4410331B687A68C1
:10323000194608F0FDF80346FB7501E02023FB75F5
:10324000FB7D18461837BD4680BD00BF2015002005
:1032500080B483B000AF786000BF0C37BD465DF826
:10326000047B704780B588B000AFF860B9607A60C1
:10327000FB68052B06D9214B214A40F289112148D0
:1032800008F0FAFC204AFB6852F82330FB61FB6926
:1032900093F82C301B09DBB21A461C4B53F8223032
:1032A000BB61FB6993F82C3003F00F037B61FB6972
:1032B0005B78DBB2002B01D009231AE0FB69012205
:1032C0005A70BB681A467969B869FFF7E7FB7A68F4
:1032D0007969B86906F0BAFD01227969B869FFF722
:1032E00001FC7B69DBB201221946B86906F099FC42
:1032F000002318462037BD4680BD00BF10E90000FE
:1033000084EA000030E900002C4A002068F2000046
:1033100080B582B000AF78600B46FB707B681846C2
:1033200000F004F800BF0837BD4680BD80B586B008
:1033300000AF78607B68052B06D93C4B3C4A40F2D5
:10334000AD113C4808F098FC3B4A7B6852F82330AA
:103350007B617B6993F82C301B09DBB21A46374B33
:1033600053F822303B617B6993F82C3003F00F0354
:10337000FB600022F9683869FFF7B4FBFB68DBB239
:1033800000221946386906F04CFC7B69DB78DBB219
:10339000002B04D07B691033184606F08BF87B694C
:1033A00000225A70264A7B68134401221A70254A6B
:1033B0007B6852F82330002B1AD123497A681346D0
:1033C0009B0013449B000B440C3319681E487A6819
:1033D00013469B0013449B0003441B681A467868FD
:1033E000FFF740FF174A7B68012142F8231019E0DC
:1033F00015497A6813469B0013449B000B4408331D
:10340000196811487A6813469B0013449B000344D3
:103410001B681A467868FFF725FF0A4A7B68002177
:1034200042F8231000BF1837BD4680BD10E90000E8
:10343000DCEA000030E900002C4A002068F20000BD
:1034400018150020981500202015002080B582B0A6
:1034500000AF786006F038FA034618460837BD46D4
:1034600080BD80B483B000AF78607B68023303F125
:10347000424303F580135B011C3301221A7000BF25
:103480000C37BD465DF8047B704780B483B000AF55
:1034900078607B68023303F1424303F580135B01DC
:1034A0000C3300221A7000BF0C37BD465DF8047B58
:1034B000704780B483B000AF78607B68023303F15B
:1034C000424303F580135B010C3301221A7000BFE5
:1034D0000C37BD465DF8047B704780B483B000AF05
:1034E00078600B46FB707B68023303F1424303F5BF
:1034F00080135B0110331A46FB78137000BF0C3742
:10350000BD465DF8047B704780B483B000AF78603F
:103510007B681B79DBB218460C37BD465DF8047B2F
:10352000704780B483B000AF78600B46FB707B6857
:10353000FA781A7100BF0C37BD465DF8047B7047FE
:1035400080B483B000AF78600B46FB707B68DB789B
:10355000DBB21A46FB7842FA03F303F00103002BB7
:1035600014BF01230023DBB218460C37BD465DF8BB
:10357000047B704780B483B000AF78607B6802330F
:1035800003F1424303F580135B0114331B78DBB274
:10359000002B14BF01230023DBB218460C37BD46B5
:1035A0005DF8047B704780B483B000AF78600B4651
:1035B000FB707B68023303F1424303F580135B0128
:1035C0001833FA781A7000BF0C37BD465DF8047BDB
:1035D000704780B483B000AF78607B680222DA70F5
:1035E00000BF0C37BD465DF8047B704780B584B0E2
:1035F00000AFF860B9601346FB71BB681F2B05D99B
:103600000B4B0C4AD9210C4808F036FBBB689B00D9
:10361000FA68134403F1424303F580135B0114334A
:103620001A46FB79136000BF1037BD4680BD00BF4E
:1036300098E9000020EB0000A4E9000080B584B008
:1036400000AFF860B9601346FB71BB681F2B05D94A
:103650000D4B0E4AFF210E4808F00EFBFB68BA68BE
:1036600053F8223023F0807323F4E063FA791202D6
:1036700002F4E06243EA0201FB68BA6843F82210F0
:1036800000BF1037BD4680BD98E900000CEB00007C
:10369000A4E9000080B584B000AF78607B681B6847
:1036A0000F4A52F82330FB607B681B68184600F015
:1036B000EFF97B681B68184606F07CF9F86807F09C
:1036C0002DF8F868FFF7CDFE0121F868FFF76BFFD2
:1036D0000449786800F0FCF800BF1037BD4680BD93
:1036E00000EB0000A086010080B584B000AF7860D8
:1036F0007B681B68054A52F82330FB60F86807F0C6
:1037000053F8002318461037BD4680BD00EB00007B
:1037100080B584B000AF78600023BB607B681B6815
:103720000E4A52F82330FB60F868FFF723FF034688
:10373000002B02D0F86807F047F80023BB6004E0D4
:1037400000BF00BFBB680133BB60BB68C72BF7D9A4
:10375000002318461037BD4680BD00BF00EB0000B7
:1037600080B586B000AF78600B46FB70104B3B61B4
:103770007B681B680F4A52F82330FB6000237B6193
:103780000CE0FB781946F868FFF7DAFE0346002BD9
:1037900001D0002307E07B6901337B617A693B69D3
:1037A0009A42EED3012318461837BD4680BD00BFAC
:1037B000A086010000EB000080B584B000AF786007
:1037C0007B681B68104A52F82330FB60012178683F
:1037D000FFF7C6FF0346002B01D0022310E0F86874
:1037E000FFF7F7FE07217868FFF7BAFF0346002BC3
:1037F00001D0022304E00021F868FFF7A1FE034690
:1038000018461037BD4680BD00EB000080B584B07F
:1038100000AF78607B681B680A4A52F82330FB606F
:1038200001217868FFF79CFF0346002B01D001239C
:1038300003E0F868FFF7CDFE002318461037BD46B9
:1038400080BD00BF00EB000080B584B000AF7860A1
:1038500039607B681B68094A52F82330FB603B687B
:10386000DBB21946F868FFF75CFE7868FFF7A4FF43
:10387000034618461037BD4680BD00BF00EB000070
:1038800080B586B000AFF860B9607A60FB681B68ED
:103890000E4A52F823307B617B68002B03D0786995
:1038A000FFF707FE02E07869FFF7EFFD7869FFF7A1
:1038B0002BFE03461A46BB681A70F868FFF7A6FF8E
:1038C000034618461837BD4680BD00BF00EB000018
:1038D00080B584B000AF786039607B681B680E4AA1
:1038E00052F82330FB607B681B681846FFF7AEFD7B
:1038F0000346BB603B68094A82FB03129211DB1747
:10390000D31A1A460023B968F86806F015FF00BFFD
:103910001037BD4680BD00BF00EB0000D34D6210E4
:1039200090B589B000AFF860B9607A603B60F86824
:10393000FFF7DAFE0346002B05D0F868FFF7E8FE34
:103940006FF0010355E0BB6843F001031946F868C6
:10395000FFF77AFF0346002B05D0F868FFF7D8FE83
:103960004FF0FF3345E0FB681B68244A52F82330D0
:10397000BB610021B869FFF7B0FD0023FB6124E0C3
:10398000FB69002B02D107F1120303E0FB69013B45
:103990007A6813447B613B68013BFA699A420CBF29
:1039A00001230023DBB2FB74FB7C1A467969F868BB
:1039B000FFF766FF0346002B04D0F868FFF7A8FE68
:1039C000FB6916E0FB690133FB61FA693B689A42C7
:1039D000D6DB3B6B002B02D0F868FFF799FEFB6942
:1039E000013B7A68D418B869FFF78EFD034623704F
:1039F0003B6818462437BD4690BD00BF00EB000071
:103A000080B586B000AFF860B9607A603B60F86856
:103A1000FFF76AFE0346002B05D0F868FFF778FE33
:103A20006FF0010330E0BB6803F0FE031946F8684D
:103A3000FFF70AFF0346002B05D0F868FFF768FE82
:103A40004FF0FF3320E000237B6112E07B697A684E
:103A500013441B781946F868FFF7F6FE0346002B5F
:103A600004D0F868FFF754FE7B690DE07B690133F1
:103A70007B617A693B689A42E8DB3B6A002B02D0A3
:103A8000F868FFF745FE3B6818461837BD4680BD0D
:103A900080B582B000AF78607B68002B03D07B6874
:103AA000012B15D029E0052218211648FFF7C6FD85
:103AB000012218211348FFF799FD05221921114809
:103AC000FFF7BCFD012219210E48FFF78FFD14E01E
:103AD00002220A210C48FFF7B1FD01220A210A48FF
:103AE000FFF784FD02220B210748FFF7A7FD012203
:103AF0000B210548FFF77AFD00BF00BF0837BD4620
:103B000080BD00BF00D0044000B0044080B584B048
:103B100000AF78600B46FB707B68012B11D80C4915
:103B20007B687A6841F823207B689B00084A13442D
:103B30001846FFF7AFFD7B689B00054A1344FB6006
:103B400001E00023FB60FB6818461037BD4680BDCE
:103B5000E415002080B584B000AF786039607B68E0
:103B6000002B07D03B6819467868FFF7B1FE0023A9
:103B7000FB7301E00823FB73FB7B18461037BD463F
:103B800080BD80B588B002AFF8607A603B600B46BC
:103B90007B8100237B6197F82030002B0CBF012331
:103BA0000023DBB23B61FB68002B19D07B895900F5
:103BB0003A683B69009313467A68F868FFF7B0FEED
:103BC00003467B617B6913F1020F01D1012308E0F9
:103BD0007B69B3F1FF3F01D1042302E0002300E041
:103BE000082318461837BD4680BD80B588B002AF9F
:103BF000F8607A603B600B467B8100237B6197F81D
:103C00002030002B0CBF01230023DBB23B61FB689B
:103C1000002B19D07B8959003A683B690093134601
:103C20007A68F868FFF7ECFE03467B617B6913F165
:103C3000020F01D1012308E07B69B3F1FF3F01D1FD
:103C4000042302E0002300E0082318461837BD468D
:103C500080BD80B483B000AF786000BF0C37BD4634
:103C60005DF8047B7047000080B586B000AF7861D6
:103C7000184B1B681B68002B0CBF01230023DBB211
:103C80001A46154B1A7011E03B461449184603F0CA
:103C9000ECFE01F00DF90F4B1B681B68002B14BFE5
:103CA00001230023DBB21A460D4B1A700A4B1B7816
:103CB000DBB2002BE8D1084B00221A70786900F0C3
:103CC00011F8002003F02AFE002318461837BD46DD
:103CD00080BD00BF3CEB00007A060020F8150020F4
:103CE000EC15002080B582B000AF7860074B012250
:103CF0001A60074B00221A7002F038FD054803F0E5
:103D0000A1FE002318460837BD4680BD14160020CA
:103D10007A060020F015002080B586B000AF7861EB
:103D2000396103F0A1F803F069FA0A4B1B6800221D
:103D30001A6002F0E9F900209FED070A03F040FD48
:103D40003B460649184603F090FE002318461837F4
:103D5000BD4680BD3CEB00006F12833AF015002099
:103D600080B586B000AF78607B6800221A727B68ED
:103D700001225A604FF0FF337B610023FB6007F1A3
:103D80000C000A237A690021FEF7D8FE02467B6800
:103D90001A617B681B694FF4E1311846FFF7A6F9F9
:103DA0000123FB740023BB747B681869FB7CBA7C1D
:103DB0000821FFF7A7F97B6801221A7200BF1837A4
:103DC000BD4680BD80B500AF064B0022C3F8EC2194
:103DD000044B002283F8E8210348FFF7C1FF00BF2E
:103DE00080BD00BFA0180020881A002080B582B0D6
:103DF00000AF9F4B93F874229D4B83F842229C4B5B
:103E000093F875229A4B83F84322994BB3F80A2210
:103E1000974BA3F80022964B93F87622944B83F8A5
:103E20004422934B93F87722914B83F84522904B91
:103E3000B3F80C228E4BA3F802228D4B93F8782214
:103E40008B4B83F846228A4BD3E96E238849C1E91C
:103E50005A23874BB3F80E22854BA3F80422844BD8
:103E600093F87922824B83F84722814BD3E9702360
:103E70007F49C1E95C237E4BD3E972237C49C1E9C8
:103E80005E237B4BB3F81022794BA3F80622784BC4
:103E9000D3E974237649C1E96023754BD3E97623CE
:103EA0007349C1E96223724BD3E978237049C1E9B0
:103EB00064236F4BB3F812226D4BA3F808226C4BAE
:103EC000D3E97A236A49C1E96623694BD3E97C23A4
:103ED0006749C1E96823664BD3E96C236449C1E9AA
:103EE0006A23012263496448FEF722F901226349EB
:103EF0006348FEF71DF9012262496348FEF718F98D
:103F0000022262496248FEF713F9012261496248C0
:103F1000FEF70EF9022261496148FEF709F9012214
:103F200060496148FEF704F9082260496048FEF7DD
:103F3000FFF802225F496048FEF7FAF801225F4964
:103F40005F48FEF7F5F808225E495F48FEF7F0F893
:103F500008225E495E48FEF7EBF802225D495E48A2
:103F6000FEF7E6F808225D495D48FEF7E1F8082211
:103F70005C495D48FEF7DCF808225C495C48FEF7C6
:103F8000D7F802225B495C48FEF7D2F808225B4969
:103F90005B48FEF7CDF808225A495B48FEF7C8F89F
:103FA00008225A495A48FEF7C3F8314B93F8482281
:103FB0002F4B83F858202E4B93F849222C4B83F833
:103FC00059202B4B93F84A22294B83F85A20284B2F
:103FD00093F84B22264B83F85D20254B93F814224F
:103FE000234B83F85B20224B93F84C22204B83F821
:103FF0005E201F4B93F815221D4B83F85C201C4B51
:1040000093F84D221A4B83F85F20194B93F84E22F8
:10401000174B83F86020164B93F85722144B83F804
:104020006920134B93F85822114B83F86A20104BE8
:1040300093F859220E4B83F86B200D4B93F86A22AC
:104040000B4B83F87C200A4B93F86B22084B83F8C8
:104050007D20074B93F82622054B83F89620044BCE
:1040600093F82722024B83F8972000237B60C9E056
:10407000181600205C180020601800205A18002034
:10408000611800205B18002062180020181800201A
:104090002C1800205D180020631800201A1800203A
:1040A000641800205E180020661800208017002089
:1040B000671800201C1800206F1800205F180020CF
:1040C0007118002088170020721800209017002017
:1040D0007A1800201E18002082180020981700204F
:1040E00084180020A01700202E180020A8170020F8
:1040F00036180020201800203E180020B01700209D
:1041000040180020B817002048180020C0170020D1
:10411000501800207B68093349497A680A4402F242
:104120004F221178464A13440A4683F858207B6888
:10413000143343497A680A4402F25A221178404AF9
:1041400013440A4683F858207B681C333C497A683C
:104150000A4402F262221178394A13440A4683F86B
:1041600058207B68263336497A680A4402F51B7268
:104170001178334A13440A4683F858207B682E335B
:104180002F497A680A4402F2162211782C4A134405
:104190000A4683F858207B68363329497A680A44EE
:1041A00002F21E221178264A13440A4683F8582048
:1041B0007B68403322497A680A4402F50A72117812
:1041C0001F4A13440A4683F858207B6848331C4929
:1041D0007A680A4402F50C721178194A13440A46A7
:1041E00083F858207B68503315497A680A4402F5F1
:1041F0000E721178124A13440A4683F858207B68DD
:1042000001337B607B68072B84DD0123FB700EE0AC
:1042100058220C490A48FDF78BFF0B4BD3F8F831B5
:10422000582207491846FEF7D3FF0346FB70FB7878
:10423000002BEDD100BF00BF0837BD4680BD00BFD9
:104240001816002070160020A018002080B500AFBE
:104250000D4B93F8E831002B13D10B4B012283F85F
:10426000E821094BD3F8EC31012B0AD1064B93F826
:10427000F031002B05D0044BD3F8F8311846FEF787
:10428000E7FF00BF80BD00BFA0180020F0B587B0D9
:1042900000AF034687ED000BFB814FF000024FF0AB
:1042A0000003D7E90001FCF741FE0346002B18D0BC
:1042B0004FF00002204BD7E90001FCF72DFE03462A
:1042C000002B0BD0B7F90E40D7E90001FCF742FEF6
:1042D0000346DBB204FA03F3FB8226E00023FB82F1
:1042E00023E04FF00002154BD7E90001FCF71EFE5A
:1042F0000346002B0FD0B7F90E603C687B6883F053
:10430000004520462946FCF725FE0346DBB246FA67
:1043100003F3FB8209E0B7F90E30002B03DA4FF606
:10432000FF73FB8201E00023FB82B7F916301846C9
:104330001C37BD46F0BD00BF00002E4000002EC05F
:1043400080B483B000AF78607B68D3E90023144960
:10435000C1E95823124B012283F88222104B01221B
:1043600083F87E220E4B002283F87D220C4B002224
:1043700083F881220A4B002283F87C22084B00221A
:1043800083F87F22064B002283F88322044B01220C
:1043900083F8802200BF0C37BD465DF8047B704770
:1043A00018160020B0B588B000AFF860B9607A6028
:1043B000954B93F81032032B00F0D080032B00F3C1
:1043C0000681012B03D0022B00F09180FFE0BB6837
:1043D0001B78002B08D08C4B042283F810228A4BC8
:1043E0000022C3F8082203E1FB68D3E900014FF083
:1043F0000002864BFCF714FB02460B46104619469A
:10440000834BD3E97823FCF753F902460B46144655
:104410001D467F4BB3F812321846FCF787FA024666
:104420000B4620462946FCF743F902460B4643EC6F
:10443000172BB0EE470AF0EE670A03F031FBB0EE3F
:10444000407AF0EE607A87ED047B4FF00002714B0A
:10445000D7E90401FCF756FD0346002B14D04FF0BA
:1044600000024FF00003D7E90401FCF75FFD0346AB
:10447000002B06D0D7E90401FCF76CFD0346FB8353
:1044800005E00023FB8302E04FF6FF73FB835E4BE6
:10449000D3F80822FB8B9A42C0F0AA805A4B032221
:1044A00083F81022584B0022C3F80822584B0022F0
:1044B00083F88222564B012283F87E22544B00223D
:1044C00083F87F22524B002283F88322504B002234
:1044D00083F881224E4B002283F87C224C4B002231
:1044E00083F880224A4B012283F87D2280E0484BEA
:1044F000012283F88222464B012283F87E22444B1C
:10450000002283F88122424B002283F87C22404B18
:10451000002283F883223E4B012283F880223A4B0B
:10452000D3F808323A4AB2F81222934208D3364BF3
:10453000012283F81022344B0022C3F8082259E0EC
:10454000334B93F87632062B54D02F4B002283F84E
:1045500010222D4B052283F80D224BE02C4B00221C
:1045600083F882222A4B012283F87E22284B0022E4
:1045700083F88322264B002283F88122244B0022D9
:1045800083F87C22224B002283F880221E4BD3F832
:1045900008421F4B93ED787BB0EE470AF0EE670AB6
:1045A00007F052FA53EC102B10461946FCF7D2FCD8
:1045B00003469C4220D3144B022283F81022124B54
:1045C0000022C3F808227868FFF7BAFE14E00E4B09
:1045D000D3F808320E4AB2F8122293420ED30A4B95
:1045E000012283F81022084B0022C3F8082205E0BC
:1045F00000BF04E000BF02E000BF00E000BF00BF5A
:104600002037BD46B0BD00BFA01800200000E03F2D
:10461000181600200000F04080B483B000AF78602E
:104620007B68D3E900231449C1E95823124B0122C6
:1046300083F88222104B012283F87E220E4B002247
:1046400083F87D220C4B002283F881220A4B002242
:1046500083F87C22084B002283F87F22064B01223C
:1046600083F88322044B002283F8802200BF0C379A
:10467000BD465DF8047B704718160020B0B588B0C1
:1046800000AFF860B9607A60954B93F81132032B54
:1046900000F0AA80032B00F3DE80012B02D0022B56
:1046A00012D0D8E08E4BD3F808328E4AB2F81022DE
:1046B0009342C0F009818A4B022283F81122884B71
:1046C0000022C3F80822FFE0BB681B78002B08D04B
:1046D000834B012283F81122814B0022C3F8082268
:1046E000F4E0FB68D3E900014FF000027E4BFCF7D9
:1046F00097F902460B46104619467A4BD3E97223C6
:10470000FBF7D6FF02460B4614461D46754BB3F821
:1047100010321846FCF70AF902460B462046294695
:10472000FBF7C6FF02460B4643EC172BB0EE470AD9
:10473000F0EE670A03F0B4F9B0EE407AF0EE607A7A
:1047400087ED047B4FF00002684BD7E90401FCF7CA
:10475000D9FB0346002B14D04FF000024FF00003AA
:10476000D7E90401FCF7E2FB0346002B06D0D7E9AA
:104770000401FCF7EFFB0346FB8305E00023FB830A
:1047800002E04FF6FF73FB83554BD3F80822FB8BF7
:104790009A42C0F09B80524B042283F81122504B66
:1047A0000022C3F808224F4B002283F882224D4B8F
:1047B000012283F87E224B4B012283F87F22494B52
:1047C000002283F88322474B002283F88122454B45
:1047D000002283F87C22434B002283F88022414B45
:1047E000002283F87D2271E03E4B012283F8822271
:1047F0003C4B012283F87E223A4B002283F881222F
:10480000384B002283F87C22364B012283F8832226
:10481000344B002283F88022314BD3F80832314ADE
:10482000B2F81022934208D32D4B022283F81122B2
:104830002B4B0022C3F808224AE02A4B93F8763229
:10484000072B45D0264B002283F81122244B05224A
:1048500083F80D223CE0234B002283F88222214B77
:10486000012283F87E221F4B002283F883221D4BF6
:10487000002283F881221B4B002283F87C22194BF3
:10488000002283F88022164BD3F80842154B93ED93
:10489000727BB0EE470AF0EE670A07F0D5F853ECEA
:1048A000102B10461946FCF755FB03469C4211D3CA
:1048B0000B4B032283F81122094B0022C3F8082274
:1048C0007868FFF7A9FE05E000BF04E000BF02E042
:1048D00000BF00E000BF00BF2037BD46B0BD00BF35
:1048E000A0180020181600200000E03F0000F04053
:1048F00080B582B000AF786039604E4B93F8763265
:10490000072B00F2938001A252F823F06D490000BA
:10491000AD490000CD490000ED4900004D490000BF
:104920008D4900002D4900000D4A0000424B09222C
:1049300083F80D22404B022283F810223E4B0022C6
:10494000C3F808227868FFF7FBFC6FE03A4B0722B8
:1049500083F80D22384B012283F80E22364B0022B9
:10496000C3F808227868FFF7EBFC5FE0324B0622C1
:1049700083F80D22304B012283F812222E4B0022A5
:10498000C3F808227868FFF7DBFC4FE02A4B0422CB
:1049900083F80D22284B012283F80F22264B002298
:1049A000C3F808223868FFF737FE3FE0224B0322A6
:1049B00083F80D22204B012283F813221E4B002284
:1049C000C3F808223868FFF727FE2FE01A4B0822A9
:1049D00083F80D22184B022283F81422164B002272
:1049E000C3F808227868FFF7ABFC1FE0124B0122E6
:1049F00083F80D22104B032283F815220E4B002260
:104A0000C3F808223868FFF707FE0FE00A4B0222BE
:104A100083F80D22084B032283F81122064B002253
:104A2000C3F808223868FFF7F7FD00BF00BF08375A
:104A3000BD4680BD18160020A0180020B0B588B073
:104A400000AFF860B9607A608B4B93F81432032B97
:104A500000F0BD80032B00F3F380012B02D0022B6A
:104A60007ED0EDE0BB681B78002B08D0824B04227F
:104A700083F81422804B0022C3F80822F1E0FB687F
:104A8000D3E900457D4BB3F812321846FBF74EFFD1
:104A900002460B4620462946FBF70AFE02460B4615
:104AA00043EC172BB0EE470AF0EE670A02F0F8FF6E
:104AB000B0EE407AF0EE607A87ED047B4FF00002B2
:104AC0006F4BD7E90401FCF71DFA0346002B14D005
:104AD0004FF000024FF00003D7E90401FCF726FA7B
:104AE0000346002B06D0D7E90401FCF733FA03464E
:104AF000FB8305E00023FB8302E04FF6FF73FB839B
:104B00005D4BD3F80822FB8B9A42C0F0AA805A4B27
:104B1000032283F81422584B0022C3F80822574B73
:104B2000002283F88222554B012283F87E22534BC8
:104B3000002283F87F22514B002283F883224F4BBF
:104B4000002283F881224D4B002283F87C224B4BBC
:104B5000002283F88022494B012283F87D2280E0E5
:104B6000464B012283F88222444B012283F87E22A5
:104B7000424B002283F88122404B002283F87C22A2
:104B80003E4B002283F883223C4B012283F8802293
:104B9000394BD3F80832394AB2F81222934208D37B
:104BA000354B012283F81422334B0022C3F808222C
:104BB00059E0324B93F87632022B54D02E4B002220
:104BC00083F814222C4B052283F80D224BE02B4B4B
:104BD000002283F88222294B012283F87E22274B70
:104BE000002283F88322254B002283F88122234B65
:104BF000002283F87C22214B002283F880221E4B66
:104C0000D3F808421D4B93ED787BB0EE470AF0EEE7
:104C1000670A06F019FF53EC102B10461946FCF7F3
:104C200099F903469C4220D3134B022283F81422A5
:104C3000114B0022C3F808227868FFF781FB14E0CB
:104C40000D4BD3F808320D4AB2F8122293420ED31C
:104C5000094B012283F81422074B0022C3F80822D3
:104C600005E000BF04E000BF02E000BF00E000BFBD
:104C700000BF2037BD46B0BDA01800201816002088
:104C80000000F04080B584B002AF78607B680022FD
:104C90001A727B6801225A605E4B002283F852210F
:104CA0005C4B0022C3F854215A4BD3F85431594A73
:104CB00092F8522111461846FEF728FF02467B68FB
:104CC0009A627B68544A5A627B689A6A7B685B6A1C
:104CD00019461046FEF73EFF4E4B2B2283F840222A
:104CE0004C4B402283F841227B68986A0023019351
:104CF000002300930223494A1D21FEF776FF4FF45B
:104D0000FA7004F017FC434B2A2283F87B227B685D
:104D1000986A00230193012300930123404A1D2137
:104D2000FEF763FF03461A463A4B83F87B22394B62
:104D300093F87B32002B10D17B68986A0123019392
:104D4000002300930123364A1D21FEF71AFF01229A
:104D500033493448FDF7ECF903E02E4B002283F889
:104D60007A222C4B2A2283F840222A4B93F87A325B
:104D700023F00103DAB2274B83F841227B68986A5B
:104D800000230193002300930223244A1D21FEF7F0
:104D90002CFF204B0E2283F840221E4B012283F869
:104DA00041227B68986A0023019300230093022329
:104DB0001A4A1D21FEF719FF164B5B2283F8402289
:104DC000144B002283F841227B68986A00230193E8
:104DD000002300930223114A1D21FEF706FF0D4B0D
:104DE0002A2283F840220B4B192283F841227B6848
:104DF000986A00230193002300930223074A1D2190
:104E0000FEF7F3FE7B6801221A7200BF0837BD4629
:104E100080BD00BF18160020A08601005818002091
:104E2000931800209218002080B582B000AF7860FF
:104E30007B6800221A727B6801225A601A4B4FF07D
:104E4000FF32C3F84821184B0022C3F84C21164BFF
:104E5000D3F848310A2200211448FDF76FFE0246BC
:104E60007B681A617B681B694FF4E1311846FEF7D5
:104E70003DF90D4B012283F850210B4B002283F8A2
:104E800051217B681869084B93F85121064B93F820
:104E900050310821FEF736F97B6801221A7200BFF3
:104EA0000837BD4680BD00BF1816002064170020DB
:104EB0002DE9F04393B002AFAF4BD3E92201AF4BE2
:104EC000D3E90223FCF714F80346002B05D1AB4BC2
:104ED000D3E90223A849C1E92223A74BD3F88030A4
:104EE0004A22A7491846FEF721F90346FB714A22D8
:104EF000A349A448FDF71CF99F4BD3E91A019F4B26
:104F0000D3E90023FBF7F4FF0346002B05D19B4BAD
:104F1000D3E900239849C1E91A23974B1B6E184621
:104F2000FDF79EFD944B1B6E072297491846FDF72F
:104F30003BFD914BD3E91201904BD3E90423FBF7DE
:104F4000D7FF0346002B05D18C4BD3E904238A49B4
:104F5000C1E91223884B1B6C1846FDF781FD864B77
:104F60001B6C072289491846FDF71EFD824B93F8FA
:104F70001632002B5ED1804B012283F816227E4B25
:104F8000012283F81722824B002283F87622804B7D
:104F90003C2283F874227E4B782283F875227C4B66
:104FA000C822A3F80A227A4B962283F87722784BFC
:104FB0000A22A3F80C22764B102283F87822744937
:104FC00067A3D3E90023C1E96E23714B1422A3F830
:104FD0000E226F4BB42283F879226D494FF0000204
:104FE0006C4BC1E970236A494FF000026A4BC1E97A
:104FF0007223674BAF22A3F8102265495AA3D3E965
:105000000023C1E9742362494FF00002614BC1E9FA
:1050100076235F494FF000025F4BC1E978235C4B78
:10502000B022A3F812225A4951A3D3E90023C1E9BF
:105030007A23F5E0504B93F81732032B10D0032B53
:1050400013DC012B02D0022B05D00EE04A4B0422C8
:1050500083F81722E4E0484B042283F81722DFE0AC
:10506000454B042283F81722DAE0FB79002B40F04D
:10507000D680474B93F8B030162B40F0CB80444B92
:1050800093F8B130222B00F0B980552B40F0BD8051
:10509000394B032283F817223D4B93F8B2203C4B47
:1050A00083F876223A4B93F8B320394B83F8742275
:1050B000374B93F8B420364B83F8752202223749D8
:1050C0003748FDF735F8324B93F8B720304B83F86B
:1050D0007722022233493448FDF72AF82C4B93F803
:1050E000BA202B4B83F87822082230493048FDF74C
:1050F0001FF802222F493048FDF71AF8244B93F885
:10510000C520234B83F8792208222C492C48FDF72F
:105110000FF808222B492C48FDF70AF802222B49E8
:105120002B48FDF705F808222A492B48FDF700F81F
:1051300008222A492A48FCF7FBFF082229492A4865
:10514000FCF7F6FF022229492948FCF7F1FF082263
:1051500028492948FCF7ECFF61E000BFAFF300806D
:105160006666666666660240CDCCCCCCCCCCFC3F95
:105170009A99999999990140A018002080060020D9
:1051800012170020C816002008180020C817002099
:105190001816002000000C4000002440CD1600200E
:1051A00022180020D016002024180020D31600203A
:1051B000D0170020DB16002026180020DE16002065
:1051C000D8170020E6160020E0170020EE16002079
:1051D00028180020F0160020E8170020F8160020FC
:1051E000F017002000170020F817002008170020F3
:1051F0002A1800200A170020001800209C4B0222C9
:1052000083F81722FEF7F2FD09E0994B042283F898
:10521000172204E0964B042283F81722FFE700BF11
:10522000934BD3F80861934BD3E91689924BD3E99A
:105230007401904BD3E91423FBF71CFD02460B4687
:1052400040464946FBF7ECFB02460B4643EC172B66
:10525000B0EE470AF0EE670A3046FDF7DFF9864BFD
:10526000D3E97001834BD3E91823FBF703FD024612
:105270000B46104619467F4BD3E91A23FBF7D0FBA8
:1052800002460B46C7E90A237B4BD3E97601794BEB
:10529000D3E91C23FBF7EEFC02460B4610461946E9
:1052A000744BD3E91E23FBF7BBFB02460B46C7E951
:1052B00008236F4BD3E932016E4BD3E90623FBF78A
:1052C00017FE0346002B05D16A4BD3E90623684934
:1052D000C1E93223664BD3F8C0301846FDF76CFAAB
:1052E00003467B71634BD3E92089634B93F8743297
:1052F0001846FBF71BFB02460B4640464946FBF7A8
:10530000B9FC02460B46C7E90C23594BD3E92A01E5
:10531000584BD3E91223FBF7EBFD0346002B05D1D5
:10532000544BD3E912235249C1E92A23504BD3F8F5
:10533000A0301846FDF740FA0346BB714E4B93F878
:1053400076224C4B93F8B0309A4206D3494BD3E9BE
:105350000E234949C1E97E2305E0464BD3E91023DA
:105360004549C1E97E23444BD3E97E014FF0000259
:105370004FF00003FBF7E4FD0346002B00F025810E
:105380003B4BD3E904013B4BD3E90823FBF7B0FDCA
:105390000346002B05D1374BD3E908233449C1E933
:1053A00004230123FB71324B986AFA1D00230193F9
:1053B0000123009301231D21FEF717FC0346FB7117
:1053C000FB79002B5AD12A4B986A07F1100201236E
:1053D00001930023009306231D21FEF7D2FB07F162
:1053E000100107F1180306221846FCF7A1FE07F189
:1053F000180107F1080302221846FCF799FE7B7A90
:105400003B733B7A7B7307F10C0107F1180302220F
:105410001846FCF78DFE07F11803991C07F10803E5
:1054200002221846FCF784FE7B7A3B733B7A7B733F
:1054300007F10C0107F11803023302221846FCF7AA
:1054400077FE07F11803191D07F108030222184619
:10545000FCF76EFE7B7A3B733B7A7B7307F10C01A2
:1054600007F11803043302221846FCF761FE0BE033
:10547000A0180020800600201816002000233B837F
:1054800000237B830023BB83B7F918309FEDCC0B3F
:105490001846FEF7FBFE03461846FBF757FA02468E
:1054A0000B46FBF707F902460B4610461946C6A302
:1054B000D3E90023FBF7B4FA02460B46104619461F
:1054C0004FF00002C24BFBF7D5FB02460B4643EC04
:1054D000172BB0EE470AF0EE670A06F035FB59ECE1
:1054E000108BB7F91A309FEDB60B1846FEF7CEFEBB
:1054F00003461846FBF72AFA02460B46FBF7DAF892
:1055000002460B4610461946AFA3D3E90023FBF72A
:1055100087FA02460B46104619464FF00002AC4B84
:10552000FBF7A8FB02460B4643EC172BB0EE470AED
:10553000F0EE670A06F008FB53EC102B4046494694
:10554000FBF7B8F802460B4690469946B7F91C306F
:105550009FED9B0B1846FEF799FE03461846FBF796
:10556000F5F902460B46FBF7A5F802460B46104636
:10557000194695A3D3E90023FBF752FA02460B46DE
:10558000104619464FF00002914BFBF773FB0246A1
:105590000B46104619468F4BD3E90C23FBF788F8CE
:1055A00002460B4643EC172BB0EE470AF0EE670AB3
:1055B00006F0CAFA53EC102B40464946FBF77AF83E
:1055C00002460B468449C1E95623834BD3E9560171
:1055D000814BD3E96E230126FBF7A8FC0346002B81
:1055E00001D100231E46F3B287F83D307B4BD3E94F
:1055F00080014FF000024FF00003FBF779FC0346F7
:10560000002B0AD0744B93F874321846FBF78EF9CE
:1056100002460B467149C1E9802397F83D30002BC3
:1056200044D06E4BD3E980456B4B93F879321A46E0
:10563000694B93F87432D31A1846FBF787F9804602
:105640008946654BB3F80C321846FBF76FF90246F2
:105650000B4640464946FBF70DFB02460B462046EB
:105660002946FBF727F802460B465C49C1E980232F
:105670005A4BD3E98045584B93F879321846FBF7DB
:1056800065F902460B4620462946FBF759FC0346BE
:10569000002B52D0504B93F879321846FBF746F95D
:1056A00002460B464D49C1E9802346E04B4BD3E906
:1056B0008089494B93F879321A46474B93F87432F4
:1056C000D31A1846FBF742F902460B46144683F0FC
:1056D0000045414BB3F80E321846FBF727F9024656
:1056E0000B4620462946FBF7C5FA02460B464046C4
:1056F0004946FAF7DFFF02460B463849C1E98023E5
:10570000364BD3E98045344B93F874321846FBF797
:105710001DF902460B4620462946FBF7F3FB0346DC
:10572000002B0AD02C4B93F874321846FBF7FEF886
:1057300002460B462949C1E98023264BD3E92201C1
:10574000264BD3E98023FBF795FA02460B46224904
:10575000C1E97E23214BD3F80832B3F1FF3F06D0D5
:105760001E4BD3F8083201331C4AC2F808321B4BD7
:1057700093F80C32002B09D1184B012283F80C222C
:10578000164B052283F80D2200F008BC134B93F84A
:105790000D32013B072B00F2F28301A252F823F0F5
:1057A000E1570000195A0000295A0000755B0000FB
:1057B000C55C0000D75C0000215E00006D5F00004A
:1057C00000000000000000C008AC1C5A643BCF3F42
:1057D00000408F408006002018160020A0180020EE
:1057E000C24B93F81532032B00F09C80032B00F37F
:1057F000D080012B02D0022B12D0CAE0BB4BD3F8D1
:105800000832BB4AB2F810229342C0F0FD80B74B79
:10581000022283F81522B54B0022C3F80822F3E0D8
:105820007B79002B08D0B14B012283F81522AF4BB6
:105830000022C3F80822E9E0D7E90C45AC4BB3F8E5
:1058400010321846FBF772F802460B4620462946EE
:10585000FAF72EFF02460B4643EC172BB0EE470A31
:10586000F0EE670A02F01CF9B0EE407AF0EE607AD2
:105870009F4B83ED7E7B9E4BD3E97E014FF0000270
:105880009C4BFBF73FFB0346002B18D0984BD3E90A
:105890007E014FF000024FF00003FBF747FB034689
:1058A000002B09D0924BD3E97E2310461946FBF713
:1058B00051FB0346FB8705E00023FB8702E04FF620
:1058C000FF73FB87894BD3F80822FB8F9A42C0F005
:1058D0009D80864B042283F81522844B0022C3F856
:1058E0000822834B002283F88222814B012283F815
:1058F0007E227F4B012283F87F227D4B002283F89A
:1059000083227B4B002283F88122794B002283F88B
:105910007C22774B002283F88022754B002283F88B
:105920007D2273E0724B012283F88222704B0122A8
:1059300083F87E226E4B002283F881226C4B00227A
:1059400083F87C226A4B012283F88322684B002271
:1059500083F88022654BD3F80832654AB2F81022EA
:10596000934208D3614B022283F815225F4B002239
:10597000C3F808224CE05E4B93F87632032B47D0F5
:105980005A4B002283F81522584B052283F80D222A
:105990003EE0574B002283F88222554B012283F8C8
:1059A0007E22534B002283F88322514B002283F83E
:1059B00081224F4B002283F87C224D4B002283F83A
:1059C00080224A4BD3F80842494B93ED727BB0EEEC
:1059D000470AF0EE670A06F037F853EC102B104632
:1059E0001946FBF7B7FA03469C4213D33F4B0322F9
:1059F00083F815223D4B0022C3F8082207F1280343
:105A00001846FEF709FE05E000BFC7E200BFC5E289
:105A100000BFC3E200BFC1E207F128027B1D1946A7
:105A20003548FEF72BFEB9E2304B93F81332012BC9
:105A300064D12F4B012283F882222D4B012283F85F
:105A40007E222B4B002283F88122294B002283F8EF
:105A50007C22274B012283F88322254B002283F8E6
:105A60008022224BD3F80842D7E90C01204BD3E91E
:105A70007223FAF71DFE02460B4643EC172BB0EEDD
:105A8000470AF0EE670A05F0DFFF53EC102B1046D3
:105A90001946FBF75FFA03469C4218D3134B0222C8
:105AA00083F81322114B0022C3F80822104B002266
:105AB00083F882220E4B012283F87F220C4B0022B6
:105AC00083F883220A4B002283F87D225FE2084B91
:105AD00093F87632012B00F05A82044B002283F8AF
:105AE0001322024B052283F80D2250E2A018002059
:105AF000181600200000F04010180020C54B0022AE
:105B000083F88222C34B012283F87E22C14B0022FC
:105B100083F88322BF4B002283F88122BD4B0022F1
:105B200083F87C22BB4B002283F88022BA4BD3F847
:105B30000842B84B93ED727BB0EE470AF0EE670A6D
:105B400005F082FF53EC102B10461946FBF702FAC2
:105B500003469C42C0F01B82AF4B012283F8132204
:105B6000AD4B0022C3F8082207F128031846FEF7C0
:105B700053FD0CE2A84B93F80F32012B66D1A54BD5
:105B8000012283F88222A34B012283F87E22A14BBB
:105B9000002283F881229F4B002283F87C229D4BB8
:105BA000012283F883229B4B002283F880229A4BA8
:105BB000D3F80842974BD3E97E014FF00002974B90
:105BC000FAF72EFF02460B4610461946914BD3E9D1
:105BD0007223FAF76DFD02460B4643EC172BB0EE2D
:105BE000470AF0EE670A05F02FFF53EC102B104622
:105BF0001946FBF7AFF903469C4218D3864B0222A5
:105C000083F80F22844B0022C3F80822814B002224
:105C100083F882227F4B012283F87F227D4B002272
:105C200083F883227B4B002283F87D22B1E1794BFC
:105C300093F87632052B00F0AC81774B002283F885
:105C40000F22754B052283F80D22A2E1714B002231
:105C500083F882226F4B012283F87E226D4B002253
:105C600083F883226B4B002283F88122694B002248
:105C700083F87C22674B002283F88022664BD3F89E
:105C80000842644B93ED727BB0EE470AF0EE670A70
:105C900005F0DAFE53EC102B10461946FBF75AF9C3
:105CA00003469C42C0F075815B4B012283F80F22B2
:105CB000594B0022C3F8082207F128031846FEF7C3
:105CC000ABFC66E107F1280207F1200311461846F4
:105CD000FEF70EFE62E1504B93F81232012B5CD1BD
:105CE0004C4B012283F882224A4B012283F87E2208
:105CF000484B002283F88122464B002283F87C2205
:105D0000444B002283F88322424B012283F88022F5
:105D1000414BD3F80842D7E90C013E4BD3E9782335
:105D2000FAF7C6FC02460B4643EC172BB0EE470AC7
