:1000000000000020FD040000179400001D94000073
:1000100023940000299400002F94000000000000A9
:100020000000000000000000000000006D0500005E
:100030003594000000000000130600007306000065
:10004000D5920000E3920000F1920000FF920000C0
:100050000D9300001B9300002993000037930000CC
:100060004593000053930000619300006F930000DC
:100070007D9300008B93000099930000A7930000EC
:10008000B59300003B9400004194000047940000A9
:100090004D94000053940000599400005F940000B8
:1000A000659400006B940000719400007794000048
:1000B0007D9400008394000089940000C3930000A5
:1000C0008F940000D193000095940000DF9300000E
:1000D0009B940000ED930000A1940000A794000001
:1000E000AD940000B3940000B9940000BF940000E8
:1000F000C5940000CB940000D1940000D794000078
:100100000D0500000D0500000D0500000D050000A7
:10011000DD940000E3940000E9940000EF940000F7
:10012000F5940000FB940000019500000795000085
:100130000D95000013950000199500001F95000013
:10014000259500002B950000FB93000031950000E1
:1001500009940000379500003D950000439500008C
:10016000499500004F950000559500005B950000F3
:1001700061950000679500006D9500007395000083
:10018000799500000D0500000D0500000D0500002B
:100190000D0500000D0500000D0500000D05000017
:1001A0000D0500000D0500000D0500000D05000007
:1001B0000D0500000D0500000D0500000D050000F7
:1001C0000D0500000D0500000D0500000D050000E7
:1003F0000D0500000D0500000D050000FFFFFFFFCB
:10040000FFFFFFFFFFFFFFFFFFFFFFFFFEFFFFFFFD
:1004400010B5054C237833B9044B13B10448AFF30E
:1004500000800123237010BDD01000200000000098
:10046000E823010008B5034B1BB103490348AFF370
:10047000008008BD00000000D4100020E823010027
:10048000A3F5803A704700BF174B002B08BF134BF2
:100490009D46FFF7F5FF00218B460F461348144A8F
:1004A000121A0EF069FA0E4B002B00D098470D4B34
:1004B000002B00D098470020002104000D000D48BB
:1004C000002802D00C480DF033FF0DF077FF20001C
:1004D000290003F0A1FC0DF037FF00BF0000080069
:1004E000000000000197000000000020D010002054
:1004F0004064002031E3000069E3000072B608F0B8
:1005000001FB08F097FA62B6FFF7BEFFFFF7FEBFE8
:1005100080F309887047EFF309807047684680F3DD
:1005200009885A480078C00714BF0220032080F3CE
:1005300014887047DFF858C1EFF305831B0618BF16
:100540006047EFF31483DB0708BF604700DF7047A5
:10055000DFF840C1EFF305831B0618BF6047EFF3D8
:100560001483DB0708BF604700DF7047EFF30980A3
:10057000816911F8021CE1BB90E80F1010B5E0474B
:10058000BDE81040EFF3098C8CE80700424B93E87C
:100590000600914208BF704741B91EF0100F16D1F6
:1005A0003E49086820F00100086010E01EF0100FBE
:1005B00006BF2CED108A0120002081F825002CE9CF
:1005C000F00FC1F828C00CB40AF01CFD0CBC1A6076
:1005D000D2F828C0BCE8F00F92F8250000280EBF22
:1005E0006FF0020E6FF0120EBCEC108A8CF30988CB
:1005F000704710B52A4A1268914209D8294C54F81C
:10060000214090E80F10A047EFF3098C8CE80F0011
:1006100010BD10B50AF068FCBDE810401E4B93E811
:100620000600914208BF7047EFF3098C1EF0100FCF
:1006300006BF2CED108A0120002081F825002CE94E
:10064000F00FC1F828C00CB40AF0DCFC0CBC1A6036
:10065000D2F828C0BCE8F00F92F8250000280EBFA1
:100660006FF0020E6FF0120EBCEC108A8CF309884A
:10067000704710B50AF0A8FCFFF7CEBF10B50AF01E
:10068000A1FC0AF0A1FCFFF7C7BF0000081201009F
:1006900075A8000091A80000DC63002034EF00E0A2
:1006A00000000000FCFFFFFF81F0004102E000BFFE
:1006B00083F0004330B54FEA41044FEA430594EA22
:1006C000050F08BF90EA020F1FBF54EA000C55EA5D
:1006D000020C7FEA645C7FEA655C00F0E2804FEA2E
:1006E0005454D4EB5555B8BF6D420CDD2C4480EA10
:1006F000020281EA030382EA000083EA010180EA40
:10070000020281EA0303362D88BF30BD11F0004F8D
:100710004FEA01314FF4801C4CEA113102D04042C3
:1007200061EB410113F0004F4FEA03334CEA1333FE
:1007300002D0524263EB430394EA050F00F0A78016
:10074000A4F10104D5F1200E0DDB02FA0EFC22FA11
:1007500005F2801841F1000103FA0EF2801843FA05
:1007600005F359410EE0A5F120050EF1200E012AF6
:1007700003FA0EFC28BF4CF0020C43FA05F3C01834
:1007800051EBE37101F0004507D54FF0000EDCF1AD
:10079000000C7EEB00006EEB0101B1F5801F1BD356
:1007A000B1F5001F0CD349085FEA30004FEA3C0C5A
:1007B00004F101044FEA445212F5800F80F09A8050
:1007C000BCF1004F08BF5FEA500C50F1000041EB54
:1007D000045141EA050130BD5FEA4C0C404141EB58
:1007E0000101013C28BFB1F5801FE9D291F0000F53
:1007F00004BF01460020B1FA81F308BF2033A3F102
:100800000B03B3F120020CDA0C3208DD02F1140CF8
:10081000C2F10C0201FA0CF021FA02F10CE002F133
:100820001402D8BFC2F1200C01FA02F120FA0CFC2C
:10083000DCBF41EA0C019040E41AA2BF01EB045175
:10084000294330BD6FEA04041F3C1CDA0C340EDC73
:1008500004F11404C4F1200220FA04F001FA02F3B6
:1008600040EA030021FA04F345EA030130BDC4F174
:100870000C04C4F1200220FA02F001FA04F340EA69
:100880000300294630BD21FA04F0294630BD94F01A
:10089000000F83F4801306BF81F480110134013D01
:1008A0004EE77FEA645C18BF7FEA655C29D094EA72
:1008B000050F08BF90EA020F05D054EA000C04BFF0
:1008C0001946104630BD91EA030F1EBF00210020DB
:1008D00030BD5FEA545C05D14000494128BF41F07A
:1008E000004130BD14F580043CBF01F5801130BDDE
:1008F00001F0004545F0FE4141F470014FF0000069
:1009000030BD7FEA645C1ABF194610467FEA655C19
:100910001CBF0B46024650EA013406BF52EA0335BB
:1009200091EA030F41F4002130BD00BF90F0000FA9
:1009300004BF0021704730B54FF4806404F13204E5
:100940004FF000054FF0000150E700BF90F0000F9E
:1009500004BF0021704730B54FF4806404F13204C5
:1009600010F0004548BF40424FF000013EE700BF95
:1009700042004FEAE2014FEA31014FEA02701FBF25
:1009800012F07F4393F07F4F81F06051704732F057
:100990007F4208BF704793F07F4F04BF41F40021AE
:1009A000704730B54FF4607401F0004521F000410C
:1009B0001CE700BF50EA010208BF704730B54FF096
:1009C00000050AE050EA010208BF704730B511F097
:1009D000004502D5404261EB41014FF4806404F1CF
:1009E00032045FEA915C3FF4D8AE4FF003025FEA55
:1009F000DC0C18BF03325FEADC0C18BF033202EBD9
:100A0000DC02C2F1200300FA03FC20FA02F001FA32
:100A100003FE40EA0E0021FA02F11444BDE600BFD5
:100A200070B54FF0FF0C4CF4E06C1CEA11541DBF84
:100A30001CEA135594EA0C0F95EA0C0F00F0DEF84F
:100A40002C4481EA030621EA4C5123EA4C5350EA34
:100A5000013518BF52EA033541F4801143F4801385
:100A600038D0A0FB02CE4FF00005E1FB02E506F016
:100A70000042E0FB03E54FF00006E1FB03569CF06B
:100A8000000F18BF4EF0010EA4F1FF04B6F5007F71
:100A900064F5407404D25FEA4E0E6D4146EB0606E3
:100AA00042EAC62141EA55514FEAC52040EA5E506C
:100AB0004FEACE2EB4F1FD0C88BFBCF5E06F1ED816
:100AC000BEF1004F08BF5FEA500E50F1000041EB4D
:100AD000045170BD06F0004646EA010140EA0200FA
:100AE00081EA0301B4EB5C04C2BFD4EB0C0541EA1C
:100AF000045170BD41F480114FF0000E013C00F331
:100B0000AB8014F1360FDEBF002001F0004170BD54
:100B1000C4F10004203C35DA0C341BDC04F114046D
:100B2000C4F1200500FA05F320FA04F001FA05F2F9
:100B300040EA020001F0004221F0004110EBD370C6
:100B400021FA04F642EB06015EEA430E08BF20EAF2
:100B5000D37070BDC4F10C04C4F1200500FA04F395
:100B600020FA05F001FA04F240EA020001F0004127
:100B700010EBD37041F100015EEA430E08BF20EA9A
:100B8000D37070BDC4F1200500FA05F24EEA020EE2
:100B900020FA04F301FA05F243EA020321FA04F011
:100BA00001F0004121FA04F220EA020000EBD370C8
:100BB0005EEA430E08BF20EAD37070BD94F0000FC8
:100BC0000FD101F00046400041EB010111F4801FFC
:100BD00008BF013CF7D041EA060195F0000F18BFAD
:100BE000704703F00046520043EB030313F4801FE9
:100BF00008BF013DF7D043EA0603704794EA0C0FA3
:100C00000CEA135518BF95EA0C0F0CD050EA4106B8
:100C100018BF52EA4306D1D181EA030101F0004135
:100C20004FF0000070BD50EA410606BF104619465D
:100C300052EA430619D094EA0C0F02D150EA013669
:100C400013D195EA0C0F05D152EA03361CBF1046AA
:100C500019460AD181EA030101F0004141F0FE4149
:100C600041F470014FF0000070BD41F0FE4141F4CD
:100C7000780170BD70B54FF0FF0C4CF4E06C1CEACD
:100C800011541DBF1CEA135594EA0C0F95EA0C0F82
:100C900000F0A7F8A4EB050481EA030E52EA03353D
:100CA0004FEA013100F088804FEA03334FF080555E
:100CB00045EA131343EA12634FEA022245EA11158B
:100CC00045EA10654FEA00260EF000419D4208BF3C
:100CD000964244F1FD0404F5407402D25B084FEAE9
:100CE0003202B61A65EB03055B084FEA32024FF495
:100CF00080104FF4002CB6EB020E75EB030E22BFF2
:100D0000B61A754640EA0C005B084FEA3202B6EBB1
:100D1000020E75EB030E22BFB61A754640EA5C0060
:100D20005B084FEA3202B6EB020E75EB030E22BFF0
:100D3000B61A754640EA9C005B084FEA3202B6EBF1
:100D4000020E75EB030E22BFB61A754640EADC00B0
:100D500055EA060E18D04FEA051545EA16754FEA12
:100D600006164FEAC30343EA52734FEAC2025FEA30
:100D70001C1CC0D111F4801F0BD141EA00014FF0BF
:100D800000004FF0004CB6E711F4801F04BF014390
:100D90000020B4F1FD0C88BFBCF5E06F3FF6AFAEAC
:100DA000B5EB030C04BFB6EB020C5FEA500C50F13C
:100DB000000041EB045170BD0EF0004E4EEA1131BF
:100DC00014EB5C04C2BFD4EB0C0541EA045170BDC6
:100DD00041F480114FF0000E013C90E645EA060E0A
:100DE0008DE60CEA135594EA0C0F08BF95EA0C0F38
:100DF0003FF43BAF94EA0C0F0AD150EA01347FF480
:100E000034AF95EA0C0F7FF425AF104619462CE756
:100E100095EA0C0F06D152EA03353FF4FDAE1046B9
:100E2000194622E750EA410618BF52EA43067FF40A
:100E3000C5AE50EA41047FF40DAF52EA43057FF49A
:100E4000EBAE12E74FF0FF3C06E000BF4FF0010CA5
:100E500002E000BF4FF0010C4DF804CD4FEA410C09
:100E60007FEA6C5C4FEA430C18BF7FEA6C5C1BD0D6
:100E700001B050EA410C0CBF52EA430C91EA030F57
:100E800002BF90EA020F0020704710F1000F91EAB4
:100E9000030F58BF994208BF90422CBFD8176FEA82
:100EA000E37040F0010070474FEA410C7FEA6C5C50
:100EB00002D150EA013C07D14FEA430C7FEA6C5C57
:100EC000D6D152EA033CD3D05DF8040B704700BF83
:100ED0008446104662468C461946634600E000BFD1
:100EE00001B5FFF7B7FF002848BF10F1000F01BDA3
:100EF0004DF808EDFFF7F4FF0CBF012000205DF86E
:100F000008FB00BF4DF808EDFFF7EAFF34BF0120F2
:100F100000205DF808FB00BF4DF808EDFFF7E0FF8B
:100F200094BF012000205DF808FB00BF4DF808EDDC
:100F3000FFF7CEFF94BF012000205DF808FB00BF43
:100F40004DF808EDFFF7C4FF34BF012000205DF825
:100F500008FB00BF4FEA410C7FEA6C5C02D150EA0B
:100F6000013C0AD14FEA430C7FEA6C5C02D152EAA1
:100F7000033C02D14FF0000070474FF00100704772
:100F80004FEA410212F5001215D211D56FF47873B1
:100F9000B3EB625212D94FEAC12343F0004343EA54
:100FA000505311F0004F23FA02F018BF404270472F
:100FB0004FF00000704750EA013005D111F00040B9
:100FC00008BF6FF0004070474FF00000704700BF4F
:100FD0004A0011D212F5001211D20DD56FF47873B8
:100FE000B3EB62520ED44FEAC12343F0004343EA0D
:100FF000505323FA02F070474FF00000704750EA58
:10100000013002D14FF0FF3070474FF000007047C1
:101010004FEA4102B2F1E04324BFB3F5001CDCF11A
:10102000FE5C0DD901F0004C4FEAC0024CEA507052
:10103000B2F1004F40EB830008BF20F00100704781
:1010400011F0804F21D113F13872BCBF01F0004084
:10105000704741F480114FEA5252C2F11802C2F1B6
:10106000200C10FA0CF320FA02F018BF40F0010037
:101070004FEAC1234FEAD32303FA0CFC40EA0C00E9
:1010800023FA02F34FEA4303CCE77FEA625307D126
:1010900050EA01331EBF4FF0FE4040F4400070475D
:1010A00001F0004040F0FE4040F40000704700BFF7
:1010B00053B94AB9002908BF00281CBF4FF0FF31BF
:1010C0004FF0FF3001F0C0B8ADF1080C6DE904CE6F
:1010D00000F006F8DDF804E0DDE9022304B0704713
:1010E0002DE9F047089D04468C46002B40F0838094
:1010F0008A42174647D9B2FA82F242B1C2F12000C1
:1011000024FA00F09140974040EA010C94404FEAE5
:101110001748230CBCFBF8F61FFA87FE08FB16C124
:1011200043EA014306FB0EF1994209D9FB1806F187
:10113000FF3080F01981994240F21681023E3B4413
:101140005B1AA4B2B3FBF8F008FB103344EA034483
:1011500000FB0EFEA64509D93C1900F1FF3380F0D3
:101160000581A64540F2028102383C4440EA06402F
:10117000A4EB0E0400261DB1D4400023C5E90043B2
:101180003146BDE8F08702B9FFDEB2FA82F2002AEA
:1011900050D1CB1B4FEA174E1FFA87F80126B3FB3D
:1011A000FEFC210C0EFB1C3341EA034108FB0CF34F
:1011B0008B4207D979180CF1FF3002D28B4200F232
:1011C000E9808446C91AA3B2B1FBFEF00EFB1011F0
:1011D00043EA014408FB00F8A04507D93C1900F197
:1011E000FF3302D2A04500F2D9801846A4EB0804D0
:1011F00040EA0C40BFE78B4209D9002D00F0B180D6
:101200000026C5E9000130463146BDE8F087B3FA53
:1012100083F6002E4AD18B4202D3824200F2B8807C
:10122000841A61EB030101208C46002DA8D0C5E98A
:10123000004CA5E7C2F1200320FA03F6974001FA1B
:1012400002F04FEA174ED9403043030CB1FBFEF6D3
:101250001FFA87F80EFB161143EA014306FB08F15B
:10126000994204FA02F409D9FB1806F1FF3C80F018
:101270008D80994240F28A80023E3B445B1A81B2E3
:10128000B3FBFEF00EFB103341EA034100FB08F311
:101290008B4207D9791800F1FF3C73D28B4271D988
:1012A00002383944CB1A40EA064678E7C6F1200CEA
:1012B00003FA06F422FA0CF31C4320FA0CF701FAA5
:1012C00006F34FEA144E21FA0CF11F433B0CB1FB1D
:1012D000FEF91FFA84F80EFB191143EA014109FBDC
:1012E00008FA8A4502FA06F200FA06F308D96118EC
:1012F00009F1FF3048D28A4546D9A9F102092144B3
:10130000A1EB0A01BFB2B1FBFEF00EFB101147EAE0
:10131000014700FB08F8B84507D9E71900F1FF318C
:101320002ED2B8452CD90238274440EA0940A7EB11
:101330000807A0FB02894F45C64649461AD317D075
:101340005DB1B3EB0E0267EB010707FA0CFCF2404C
:101350004CEA0202F740C5E9002700263146BDE805
:10136000F0872E4628460BE70646E9E61846FDE6D6
:101370004345E5D2B8EB020E69EB04010138DFE723
:101380000846D2E760468DE78146B9E7664675E7CD
:1013900030464AE7ACF1020C394413E702383C44CA
:1013A00024E700BF03685A004CBF43F0004323F01A
:1013B00000431844704700BF2DE9F84329B34F1E7E
:1013C000044615463E464FF0000808EB060101EBC7
:1013D000D171491004EBC1094846FFF7E3FF03460A
:1013E000C80008308F42204409D0AB4209D8FFF72B
:1013F000D9FF0138A8420AD201F10108E5E7AB4262
:1014000005D9884501D04E1EDFE74FF00009484658
:10141000BDE8F883012807D0022807D0044B002834
:101420000CBF1846002070470248704702487047BA
:10143000D91A0000DD1A0000E11A000030B5234B74
:1014400083B004468D1E3BB301A92846AFF300804C
:10145000E8B101992A46FFF7AFFF0146B8B1FFF79F
:10146000A1FF4B68A064012B2BD0002B01F10400DD
:1014700023DBFFF797FF0023C4E913030368002B66
:1014800010DBFFF78FFF2061002003B030BD002389
:101490000920236103B030BD0D490E48091AC91057
:1014A0000191D7E7C3F30360FFF7B4FF0028206181
:1014B00014BF0020092003B030BD0123C4E9130389
:1014C000DCE7002323610520DFE700BF0000000008
:1014D000A82B0100902701000368DA0710B5044625
:1014E00006D49B0700F1480009D500F04BFC2368A7
:1014F000590709D51A070ED5DB0613D510BD00F024
:1015000039FC23685907F5D404F1D00000F042FCFF
:1015100023681A07F0D404F5A87000F043FC236890
:10152000DB06EBD404F5E870BDE8104000F07EBCAB
:101530000346006800B11844704700BF0920704797
:10154000704700BF70B504460E46316C2046FFF769
:1015500075FF054688B9336C6361324623692146BD
:10156000012098470828F0D0072806D12846316C7A
:10157000FFF7E6FF301D00F0F1FB0CF0B3FE00BFFB
:101580002DE9F0470D1D064614460FCDADF5727DD1
:101590000DF10C0CACE80F000FCDACE80F000FCD37
:1015A000ACE80F0095E80F0002ADF768D6F8188098
:1015B0008CE80F0000232B6021E02B6C73614FF44B
:1015C000F07229467AA800F041FE33697AAA3146C2
:1015D00050469847889BCDE9005821466B64814668
:1015E000334632460120B8470446E8B94FF4F0725A
:1015F0007AA9284600F02AFEB9F1080F1BD1296C00
:101600003046FFF71BFF09345FFA84FA8146002851
:10161000D3D0AB6B4AF01001CDE9005832466B6471
:1016200001203346B84708B14FF0090948460DF587
:10163000727DBDE8F087B9F1070FF5D12046296C1E
:10164000FFF77EFF03A800F089FB00BF406C7047E6
:10165000F0B5CB6B0B640E1D0F4605460FCEF9B0EF
:1016600001AC0FC40FCE0FC40FCE0FC496E80F000D
:101670004FF0FF3684E80F00009606E02B696A46BB
:10168000294698470828044608D110992846FFF7AC
:10169000D5FE0028F2D0092079B0F0BD6846FFF7EA
:1016A0001BFF062CF7D139462846FFF74BFF00BF3A
:1016B00030B4DD6BC160826119461D64002230BC0C
:1016C0005EE700BF70B5C66843690B64AEB90369D5
:1016D0000A4604460D46014602209847072805D0D1
:1016E00008280FD129462046FFF72CFF3046296CE9
:1016F000FFF726FF281D00F031FB0122FFF740FF16
:101700000CF0F0FD0CF0EEFDC2681AB1CA6B0A6471
:10171000002235E79CE700BF704700BF83680146A1
:101720000BB1012018477047012912D009D873B9AD
:101730000F2A0CD800EB820218465368009A1360F7
:1017400070470339012994BF01200220704702200D
:1017500070470846704700BF10B584B0002303AC43
:101760000A4600941946FFF7DFFF039804B010BD46
:10177000012912D009D873B90F2A0CD800EB8200C6
:10178000009A12684260184670470339012994BFD5
:10179000012002207047022070470846704700BFB2
:1017A00010B584B0002303AC039200940A46194696
:1017B000FFF7DEFF04B010BDF0B5D36B1364151D49
:1017C0008C4606460FCDADF50F7D17AC0FC40FCD7F
:1017D0000FC40FCD0FC495E80F004FF0FF3784E81A
:1017E0000F006546169710E0FFF7DAFF294616A8A6
:1017F000B047034616AA6946082083B9049B984758
:10180000052804460CD0092809D026996846FFF718
:1018100015FE03466A460C2116A8002BE4D00924C5
:1018200016A8FFF759FE20460DF50F7DF0BD00BF4D
:101830002DE9F04FCC6C89B00D4654F8041B06948A
:10184000174600F003081E46002B79D00B0CDAB2C5
:1018500009048DF81D30022304EB820405918DF8F4
:101860001C302B6DB8F1020F08BFAC6B13F00103F5
:101870000CD0384605A900F073FB18B9082009B050
:10188000BDE8F08F092009B0BDE8F08FD4F800A0C2
:10189000BAF1000FEDD0019300F008030293022E7D
:1018A0004AD0B4F800A0B4F802900434AA6C29F02D
:1018B000010B0F2138469344FFF74EFF834539D87B
:1018C0002AF001025A44824294BF002001204FEACC
:1018D000490303F002030AF0010A43EA0A03012B59
:1018E00049D0022B32D0002BCCD1B8F1000F02D05E
:1018F000002840F0CD800434D4F800A0BAF1000FE5
:10190000CDD105A9384600F02BFB0028BAD1019BA8
:10191000002BB3D00F213846FFF71EFF0E210246E1
:101920003846FFF73DFF38466A4A0F21FFF738FF78
:101930000720A8E70020CAE7D4F804900834B5E7E8
:10194000090203230591ADF81C308AE7236823F0D0
:10195000004BB8F1000F45D128B1029A002A5CD0A3
:10196000BBF1000F74D0002B00DA04340BF1010B33
:1019700004EB8B04C0E7B8F1000F19D1B0B1D4E982
:101980000023991C4FEAD2723FF47CAF05F1580155
:101990000133049100F09080201DFFF7C9FD04ABD6
:1019A00001462846AFF3008000285BD10834A3E746
:1019B0000D213846D5F82090FFF7CEFE8145F5D1B0
:1019C000AB6A9C42F2D12046FFF7ECFC0F210246A5
:1019D0003846FFF7E5FE38462A460021FFF7E0FECD
:1019E000072050E70D213846D5F82090FFF7B4FEC8
:1019F000814501D02368B6E7AB6A9C42FAD1042244
:101A00000021C5E90B12A318C5F828B06B63236841
:101A10008B4259DB01230193A8E705F15803CDF868
:101A20000C8004F1040AB04691461E460DE004966F
:101A3000FFF77EFD04AB014600222846AFF300808D
:101A400009F101090AF1040AE8B9D9455046EED175
:101A500038460D21FFF780FE049B2862C5E9093452
:101A6000062010E781460D213846FFF775FEB9F1D3
:101A7000020F286225D12B46049A43F82C2F6B6263
:101A8000AC620620FFE646462368DDF80C806AE774
:101A90002046FFF787FC04340246AC632846144610
:101AA000AFF3008000283FF4EDAE384622460F2108
:101AB000FFF776FE0720E6E638460D21FFF74CFEDD
:101AC0002862049B6B62DBE70BF1010004EB8000F2
:101AD0007AE700BF000000000023A9E60123A7E683
:101AE0000223A5E62DE9F0430646C3B015461C4681
:101AF000042900F2B980DFE801F09A53B729030006
:101B0000002C40F0B180102A00F2AE800368D806A5
:101B100000F1F38020AF384600F092F9B06B00235B
:101B2000012404FA03F22A42014604D051F8042B9E
:101B300047F8232008460133042BF2D1B06338461E
:101B400000F074F9002043B0BDE8F083032C40F0AE
:101B50008B8094B204EB1243102B4FEA124500F233
:101B6000838003681F0700F1D08020AF384600F063
:101B70003BF907EBC501B56B54B10B46E81A01EB15
:101B8000C401E4001A5843F8042B8B42FAD12544CF
:101B90003846B56300F006F9002043B0BDE8F08395
:101BA000012C4FEA124895B25AD0052C5CD108EBB3
:101BB0000509B9F1200F57D8B8F10F0F77D9A94609
:101BC000002D40F08880B36B6DB320AF4FF000095B
:101BD00007EBC807043F03EBC50553F8041B47F8A0
:101BE000041FAB42F9D1B9F1000F0FD06F46414647
:101BF000102938BF102107EBC101843903EBC90557
:101C000053F8040B41F8040FAB42F9D1012C00F05A
:101C10008480B8F10F0FB56345D9B9F1000F02D038
:101C2000684600F0B7F8002043B0BDE8F083DCB9A7
:101C3000876B2346012094B206F1040C00FA03F2EC
:101C40002242394604D051F8042B4CF823200F4689
:101C50000133102BF2D115F40050E4D1B76304E046
:101C600008EB0503102B03D9022043B0BDE8F08335
:101C7000B8F10F0FF8D83368DA0706D5304623F0ED
:101C8000030340F8483B00F079F820AF384600F0F5
:101C900075F8B36B002D99D11D460435B5633846F0
:101CA00000F068F8BFE720A800F06CF8B5E7B9F1DC
:101CB000100F40D9A9F110093368D90708D523F0CE
:101CC0000103304643F0020340F8483B00F05EF861
:101CD000B9F1000F32D033685A0720D4B8F10F0F92
:101CE00025D96F463846C8F1100500F057F8002D89
:101CF000B36B7FF77CAF20AF6AE723F0100333604C
:101D000006F5E87000F09CF804E723F00803036090
:101D100000F5A87000F068F827E720AFBDE730466F
:101D200023F0040340F8D03B00F038F8D6E720A8B1
:101D300000F02CF8D5E74FF00009BDE7B8F10F0F20
:101D40003FF641AF20AF384600F020F8B36B002DCE
:101D50007FF43CAF384600F015F864E700F1340139
:101D600091E838009C46A6464CF8045D90E8FF0FC9
:101D7000E54600BD90EC210B704700BF80EC210BC5
:101D8000704700BF90EC200B704700BF80EC200B29
:101D9000704700BFD0EC200B704700BFC0EC200B99
:101DA000704700BFF0EC0201F0EC0211F0EC0221F0
:101DB000F0EC0231F0EC0241F0EC0251F0EC026187
:101DC000F0EC0271F0EC0281F0EC0291F0EC02A177
:101DD000F0EC02B1F0EC02C1F0EC02D1F0EC02E167
:101DE000F0EC02F1704700BFE0EC0201E0EC021100
:101DF000E0EC0221E0EC0231E0EC0241E0EC0251C7
:101E0000E0EC0261E0EC0271E0EC0281E0EC0291B6
:101E1000E0EC02A1E0EC02B1E0EC02C1E0EC02D1A6
:101E2000E0EC02E1E0EC02F1704700BFB0FC0181A0
:101E3000B0FC0191B0FC01A1B0FC01B1704700BF42
:101E4000A0FC0181A0FC0191A0FC01A1A0FC01B1BA
:101E5000704700BFEC4600B52DE900502DE9FF1F8B
:101E60004FF000032DE90C0001A9FFF7F1FBDDF8AD
:101E700040E012B0704700BFEC4600B52DE90050BD
:101E80002DE9FF1F4FF000032DE90C0001A9FFF71A
:101E900019FCDDF840E012B0704700BFEC4600B519
:101EA0002DE900502DE9FF1F4FF000032DE90C0034
:101EB00001A9FFF729FCDDF840E012B0704700BF30
:101EC000EC4600B52DE900502DE9FF1F4FF000034F
:101ED0002DE90C0001ABFFF7EBFBDDF840E012B0A1
:101EE000704700BFEC4600B52DE900502DE9FF1FFB
:101EF0004FF000032DE90C0001AAFFF75DFCDDF8AF
:101F000040E012B0704700BF027A7AB9437AA3B1B9
:101F10004268013B10B4437213680321141D01721F
:101F20001A024460026010BC180E70470368013A40
:101F300002721A020260180E7047B020704700BF8C
:101F400000B585B003AA0023009219460C22FFF7C2
:101F5000EBFB039805B05DF804FB00BFF0E700BFA2
:101F60002DE9F043054685B00E464FF00008304697
:101F7000FFF7CAFFB028044600F0B280070620D55C
:101F800000F0F003802B4DD0902B36D0A02B60D0EA
:101F9000B02B74D0C02B00F08B8000F0F803D02B56
:101FA0000BD100F00702013242F400220523012187
:101FB0002846FFF797FD0028D9D0092005B0BDE8D5
:101FC000F0830DF10C09002319468700CDF800902D
:101FD0000D222846FFF7A8FBFFB2039BCDF8009027
:101FE000043760064CBFDF1BFF18002319460D2283
:101FF00028460397FFF7BCFBB9E700F00D030D2B54
:10200000DBD003AF002300F00F02194600972846EB
:10201000FFF78AFB0023009719460D222846FFF799
:10202000A7FBA4E73046FFF76FFF24022043B0F57B
:10203000004FC2D004010023A2B219462846FFF780
:1020400051FD0028B9D114F4004F18BF4FF001081A
:102050008DE7C24302F007034FF47F621A41010784
:1020600002F47F624FF0000348BF42F480421946F9
:102070002846FFF737FD00283FF479AF9DE7B128E8
:1020800033D0B22800F08B80B32839D000F0FC03A5
:10209000B42B92D000F007020132012342F4002257
:1020A00019462846FFF71EFD00283FF460AF84E77D
:1020B000C62842D0C7284CD000F0F803C02B5BD014
:1020C000C82860D0C9287FF478AF3046FFF71CFFDE
:1020D000020300F00F0002F470220130024365E7B2
:1020E000B8F1000F18D0002068E73046FFF70CFF6A
:1020F000024600283FF461AF10F0F003D0D05CE757
:102100003046FFF701FF010300F00F0001F47021DA
:10211000421C01230A43C3E703AC43460E22414657
:1021200000942846FFF700FB0094284643460F2200
:102130004146FFF71DFB404640E73046FFF7E4FE0F
:10214000010300F00F0001F47021421C03230A4335
:10215000A6E73046FFF7D8FE024600283FF42DAF31
:1021600010F0F0037FF429AF04212846FFF7BAFCF2
:1021700000283FF4FCAE20E700F00F0201320323F9
:1021800042F420228CE73046FFF7BEFE00F0F0025A
:1021900000F00F031032013343EA023206E7002356
:1021A0000DF10C090D221946CDF800902846FFF7D5
:1021B000BBFA3046FFF7A8FE02064FF002070CD527
:1021C000039B00F07F00B840034430460393FFF7C1
:1021D0009BFE030607F10707F2D4039BCDF800909E
:1021E00000F07F0403F50172BC400023144419463B
:1021F0000D2228460394FFF7BBFAB8E610B5C26C6F
:1022000084B0536803248DF80C401B0202F10804CB
:102210000846D279019301A902948DF80D20FFF7A9
:102220009FFE04B010BD00BF08B5FFF797FE806C9D
:1022300008BD00BF08B5FFF791FEC06CC37902333B
:1022400000EB830008BD00BF704700BF844641EA31
:10225000000313F003036DD1403A41D351F8043B1E
:1022600040F8043B51F8043B40F8043B51F8043B70
:1022700040F8043B51F8043B40F8043B51F8043B60
:1022800040F8043B51F8043B40F8043B51F8043B50
:1022900040F8043B51F8043B40F8043B51F8043B40
:1022A00040F8043B51F8043B40F8043B51F8043B30
:1022B00040F8043B51F8043B40F8043B51F8043B20
:1022C00040F8043B51F8043B40F8043B51F8043B10
:1022D00040F8043B51F8043B40F8043B403ABDD27F
:1022E000303211D351F8043B40F8043B51F8043B21
:1022F00040F8043B51F8043B40F8043B51F8043BE0
:1023000040F8043B103AEDD20C3205D351F8043BAF
:1023100040F8043B043AF9D2043208D0D2071CBF7B
:1023200011F8013B00F8013B01D30B8803806046A4
:10233000704700BF082A13D38B078DD010F003031A
:102340008AD0C3F10403D21ADB071CBF11F8013B8A
:1023500000F8013B80D331F8023B20F8023B7BE7D9
:10236000043AD9D3013A11F8013B00F8013BF9D204
:102370000B7803704B7843708B788370604670479E
:1023800001F0FF01102A2BDB10F0070F08D010F826
:10239000013B013A8B422DD010F0070F42B3F6D12A
:1023A000F0B441EA012141EA014122F007047FF043
:1023B00000070023F0E80256083C85EA010586EA9A
:1023C000010685FA47F5A3FA87F586FA47F6A5FAD6
:1023D00087F68EB9EED1F0BC01F0FF0102F00702E2
:1023E00032B110F8013B013A83EA010313B1F8D18D
:1023F0000020704701387047002D06BF354603386E
:10240000073815F0010F07D1013015F4807F02BFA6
:10241000013015F4C03F0130F0BC0138704700BFF7
:1024200000000000000000000000000000000000AC
:10243000000000000000000000000000000000009C
:1024400090F800F06DE9024520F007016FF0000CF4
:1024500010F0070491F820F040F049804FF000049C
:102460006FF00700D1E9002391F840F000F1080077
:1024700082FA4CF2A4FA8CF283FA4CF3A2FA8CF3AF
:102480004BBBD1E9022382FA4CF200F10800A4FA16
:102490008CF283FA4CF3A2FA8CF3E3B9D1E904236A
:1024A00082FA4CF200F10800A4FA8CF283FA4CF3A1
:1024B000A2FA8CF37BB9D1E9062301F1200182FA5B
:1024C0004CF200F10800A4FA8CF283FA4CF3A2FA61
:1024D0008CF3002BC6D0002A04BF04301A4612BA6F
:1024E000B2FA82F2FDE8024500EBD2007047D1E972
:1024F000002304F00305C4F100004FEAC50514F001
:10250000040F91F840F00CFA05F562EA05021CBFD1
:1025100063EA050362464FF00004A9E780B586B080
:1025200000AF786026497A6813465B0013449B002D
:102530000B4409331B78002B27D107F108031846F9
:1025400009F044FB0323FB721D497A6813465B00C4
:1025500013449B000B441B6807F108021146184600
:1025600009F046FB16497A6813465B0013449B004A
:102570000B44093303221A707A6813465B00134434
:102580009B000F4A13447B6115E00D497A6813469E
:102590005B0013449B000B4409331B78032B08D1C9
:1025A0007A6813465B0013449B00054A13447B6121
:1025B00001E000237B617B6918461837BD4680BD6A
:1025C0003804002080B485B000AFF8600B467A6014
:1025D000FB7200BF1437BD465DF8047B70470000F6
:1025E00080B58AB000AFF860B9601346FB71FB6834
:1025F000FB61FB69002B3AD0FB691B7A3B7500231A
:10260000BB7500237B75FB691B680121184609F027
:1026100037FBFB691868FB695B6807F11402194610
:1026200009F04EFBFB691A68FB695B6819461046A6
:1026300009F062FBFB691A68FB695B681946104682
:1026400009F07EFB03467B837B8B07EE903AF8EE26
:10265000677A17EE900AFEF78BF90DA3D3E90023F2
:10266000FEF7DEF902460B46C7E9082305E04FF006
:1026700000024FF00003C7E90823B968D7E908232F
:10268000C1E9002300BF2837BD4680BDAFF30080FD
:10269000100010001000F03E80B483B000AF7860EE
:1026A00000BF0C37BD465DF8047B704780B483B033
:1026B00000AF786000BF0C37BD465DF8047B704703
:1026C00080B483B000AF786000BF0C37BD465DF8C2
:1026D000047B704780B590B000AF78600B46FB700C
:1026E000FB78002B27D107F1240300221A605A60DF
:1026F0009A60DA601A615A612D4A7B6852F8333069
:102700007B62012387F82830012387F829304FF0B6
:10271000FF333B6307F12403184609F0E1FF244A25
:102720007B68DB00134401221A717B68DB00204ABE
:102730001344FB6336E0FB78012B31D107F10C0326
:1027400000221A605A609A60DA601A615A61184A67
:102750007B6852F83330FB6001233B754FF0FF3349
:10276000BB6107F10C0318460AF02CF8104A7B688D
:10277000DB00134402221A717B68292B0AD97B687B
:102780002C2B07D80A4A7B6852F8333001211846AF
:102790000AF054F87B68DB00054A1344FB6301E050
:1027A0000023FB63FB6B18464037BD4680BD00BF6E
:1027B0000000002080B586B000AF78607B683B6188
:1027C0003B69002B0BD03B691B79012B07D13B697F
:1027D0001B6818460AF040F80346FB7501E0002329
:1027E000FB753B691B681B0ADBB2FB603B691B681E
:1027F000DBB2BB60FB68022B02D1BB68062B05D0A5
:10280000FB68002B09D1BB68042B06D1FB7D002B94
:102810000CBF01230023DBB2FB75FB7D1846183784
:10282000BD4680BD80B586B000AF78600B46FB70BA
:102830007B687B617B69002B2FD07B691B79022B26
:102840002BD17B691B681B0ADBB23B617B691B6870
:10285000DBB2FB603B69012B05D1FB68162B08D06E
:10286000FB68152B05D03B69042B0FD1FB681A2B95
:102870000CD17B691A68FB78012B14BF012300235C
:10288000DBB21946104609F0D9FF06E07B691B68E8
:10289000FA781146184609F0D1FF00BF1837BD4637
:1028A00080BD80B485B000AF78607B68FB60FB685A
:1028B000002B0ED0FB681B79022B03D1FB68002292
:1028C0001A7106E0FB681B79012B02D1FB6800221C
:1028D0001A7100BF1437BD465DF8047B70470000D5
:1028E00080B584B000AFF860B9607A60BB680F2B28
:1028F00006D90A4B0A4A40F2E2210A480BF0FAFCD8
:10290000FA68BB685B01134403F5805310337A689F
:102910001A6000BF1037BD4680BD00BFE40E010045
:1029200010110100100F010080B584B000AFF860F5
:10293000B9601346FB71BB680F2B06D90D4B0E4ACD
:102940004FF460710D480BF0D5FCBB685B0103F5DB
:1029500080531833FA681344043303F1424303F5F8
:1029600080135B010433FA7992B21A8000BF1037EA
:10297000BD4680BDE40E01002C110100100F0100C6
:1029800090B587B000AFF8607A603B600B46FB7291
:1029900000237B61FB681B68032B00F0E481032BA1
:1029A00005D8012B00F09880022B00F04781954B51
:1029B00000221A60934B1B68934A52F82330002B75
:1029C00041D1904B1B68914ADB00134400229A715D
:1029D0008C4B1B688D4ADB00134400221A71894B13
:1029E0001B688A4ADB00134400225A71854B1B681E
:1029F000864A4FF4E13142F83310824B1B68184687
:102A000006F09EFB7F4B1B689B01814A1344814962
:102A1000184609F099FB7B4B18687A4B1A681346E5
:102A20001B019B1A9B007C4A9918764B1B68DB00A4
:102A3000764A13441A460AF087FC724B1B68724AA6
:102A4000012142F823107B68B3F1FF3F20D06D4B8A
:102A50001A68724913469B0013449B000B4454228E
:102A60001A60684B1A686D4913469B0013449B001B
:102A70000B4408336A4A1A60624B1A686749134666
:102A80009B0013449B000B440C33664A1A6015E00C
:102A90005C4B1A68614913469B0013449B000B442E
:102AA000043362221A60574B1A685C4913469B0034
:102AB00013449B000B4410335B4A1A60514B1B6854
:102AC000504A1268594941F823204E4B1B689B001D
:102AD000564A13447B61DBE14A4B01221A60494BA1
:102AE0001B68494A52F82330002B41D1454B1B68E3
:102AF000464ADB00134400229A71424B1B68434A4A
:102B0000DB00134400221A713E4B1B683F4ADB0076
:102B1000134400225A713B4B1B683C4A4FF4E1318D
:102B200042F83310374B1B68184606F009FB354B4B
:102B30001B689B01364A13443649184609F004FBCA
:102B4000304B18682F4B1A6813461B019B1A9B00C9
:102B5000314A99182B4B1B68DB002C4A13441A4648
:102B60000AF0F2FB274B1B68274A012142F8231089
:102B70007B68B3F1FF3F20D0224B1A6827491346E8
:102B80009B0013449B000B4400221A601D4B1A68E3
:102B9000224913469B0013449B000B440833244AEC
:102BA0001A60184B1A681D4913469B0013449B007A
:102BB0000B440C331F4A1A6015E0124B1A68174970
:102BC00013469B0013449B000B44043300221A60FD
:102BD0000C4B1A68114913469B0013449B000B448D
:102BE0001033154A1A60074B1B68064A12680F49D2
:102BF00041F82320034B1B689B000C4A13447B6164
:102C000046E100BFC4150020C8150020E4140020D0
:102C1000FC110020780600207C1300201C150020E9
:102C2000F01000204411002098110020AC15002065
:102C30009811002098110020FC110020AD4B0222B9
:102C40001A60AC4B1B68AC4A52F82330002B41D1C0
:102C5000A84B1B68A94ADB00134400229A71A54BBC
:102C60001B68A64ADB00134400221A71A14B1B68A3
:102C7000A24ADB00134400225A719E4B1B689F4AF4
:102C80004FF4E13142F833109A4B1B68184606F0B6
:102C900057FA984B1B689B01994A13449949184667
:102CA00009F052FA934B1868924B1A6813461B01AD
:102CB0009B1A9B00944A99188E4B1B68DB008F4A25
:102CC00013441A460AF040FB8A4B1B688A4A0121CA
:102CD00042F823107B68B3F1FF3F20D0854B1A6880
:102CE0008A4913469B0013449B000B4400221A6040
:102CF000804B1A68854913469B0013449B000B4484
:102D00000833834A1A607B4B1A68804913469B003C
:102D100013449B000B440C337E4A1A6015E0754B3C
:102D20001A687A4913469B0013449B000B440433F2
:102D300000221A606F4B1A68744913469B001344B3
:102D40009B000B441033744A1A606A4B1B68694A33
:102D50001268724941F82320664B1B689B006F4A3A
:102D600013447B6194E0634B03221A60614B1B6840
:102D7000614A52F82330002B41D15E4B1B685F4AF9
:102D8000DB00134400229A715A4B1B685B4ADB003C
:102D9000134400221A71574B1B68584ADB00134436
:102DA00000225A71534B1B68544A4FF4E13142F8E8
:102DB0003310504B1B68184606F0C2F94D4B1B6888
:102DC0009B014F4A13444F49184609F0BDF9494B3E
:102DD0001868484B1A6813461B019B1A9B004A4A05
:102DE0009918444B1B68DB00444A13441A460AF006
:102DF000ABFA404B1B68404A012142F823107B6824
:102E0000B3F1FF3F20D03B4B1A68404913469B006B
:102E100013449B000B4400221A60364B1A683B494E
:102E200013469B0013449B000B4408333C4A1A6032
:102E3000304B1A68354913469B0013449B000B44E2
:102E40000C33384A1A6015E02A4B1A682F4913468A
:102E50009B0013449B000B44043300221A60254B53
:102E60001A682A4913469B0013449B000B441033F5
:102E70002D4A1A601F4B1B681E4A1268274941F8E9
:102E800023201C4B1B689B00244A13447B6100BF1A
:102E90007B68B3F1FF3F27D0164B1A6813461B011E
:102EA0009B1A9B002833184A13440433114A1268B2
:102EB0001E49184609F08AF90E4B18680D4B1A681E
:102EC000124913469B0013449B000B4408331968B6
:102ED000084B1A680D4C13469B0013449B00234477
:102EE0001B681A4600F0E0F87B6918461C37BD469F
:102EF00090BD00BFC4150020C8150020E4140020B8
:102F0000FC110020780600207C1300201C150020F6
:102F10009811002098110020FC110020AC15002011
:102F20009811002098110020FC110020553100005C
:102F300080B483B000AF78603960002318460C3746
:102F4000BD465DF8047B704780B483B000AF786005
:102F5000084611461A460346FB700B46BB701346E3
:102F60007B70002318460C37BD465DF8047B704724
:102F700080B586B000AFF860B9607A60FB683B61ED
:102F80003B69002B33D03B691B681F4AD35C012B84
:102F90002DD13B691B681D4A52F82330012B0FD1FC
:102FA0003B691A681A4913469B0013449B000B4463
:102FB00008331B687A681946B868FFF747F90EE0CE
:102FC0003B691A68124913469B0013449B000B444B
:102FD0000C331B687A681946B868FFF737F93B6904
:102FE0001B68094A0021D1540023FB7506E07A686A
:102FF0000021B8680BF0C0FC2023FB75FB7D184650
:103000001837BD4680BD00BF141500209415002060
:103010001C15002080B586B000AFF860B9607A60FA
:10302000FB683B613B69002B2AD03B691B68002190
:1030300018460AF0DDFA0346082B21D03B691A68CE
:10304000134913469B0013449B000B4410331B6829
:103050007A68B9681846FFF7F9F83B6918683B6960
:103060001A680B4913469B0013449B000B44103312
:103070001B687A6819460AF097FA0346FB7501E067
:103080002023FB75FB7D18461837BD4680BD00BF69
:103090001C15002080B483B000AF786000BF0C37EF
:1030A000BD465DF8047B704780B588B000AFF8601E
:1030B000B9607A60FB68052B06D9214B214A40F2A2
:1030C000891121480BF016F9204AFB6852F8233089
:1030D000FB61FB6993F82C301B09DBB21A461C4BD1
:1030E00053F82230BB61FB6993F82C3003F00F03D7
:1030F0007B61FB695B78DBB2002B01D009231AE00E
:10310000FB6901225A70BB681A467969B869FFF7F2
:10311000E7FB7A687969B86908F054FF0122796998
:10312000B869FFF701FC7B69DBB201221946B86977
:1031300008F033FE002318462037BD4680BD00BF8F
:10314000480F0100EC100100680F01004C630020E3
:10315000E418010080B582B000AF78600B46FB70C8
:103160007B68184600F004F800BF0837BD4680BDF4
:1031700080B586B000AF78607B68052B06D93C4BE4
:103180003C4A40F2AD113C480BF0B4F83B4A7B6836
:1031900052F823307B617B6993F82C301B09DBB23A
:1031A0001A46374B53F822303B617B6993F82C3039
:1031B00003F00F03FB600022F9683869FFF7B4FBE6
:1031C000FB68DBB200221946386908F0E6FD7B692E
:1031D000DB78DBB2002B04D07B691033184608F093
:1031E00025FA7B6900225A70264A7B681344012223
:1031F0001A70254A7B6852F82330002B1AD12349D4
:103200007A6813469B0013449B000B440C331968E7
:103210001E487A6813469B0013449B0003441B68B6
:103220001A467868FFF740FF174A7B68012142F889
:10323000231019E015497A6813469B0013449B003C
:103240000B440833196811487A6813469B001344ED
:103250009B0003441B681A467868FFF725FF0A4A5B
:103260007B68002142F8231000BF1837BD4680BD9F
:10327000480F010044110100680F01004C63002059
:10328000E418010014150020941500201C150020DE
:1032900080B584B000AFF860B9601346FB71BB68BD
:1032A0001F2B05D90D4B0E4AFF210E480BF022F8BB
:1032B000FB68BA6853F8223023F0807323F4E0638C
:1032C000FA79120202F4E06243EA0201FB68BA688A
:1032D00043F8221000BF1037BD4680BDD00F01005B
:1032E00068110100DC0F010080B483B000AF78608A
:1032F0000B46FB707B681B6823F01802FB78DB0031
:1033000003F018031A437B681A6000BF0C37BD46F0
:103310005DF8047B7047000080B58EB000AF786127
:1033200087ED020B87ED001B524A7B695B0113445A
:1033300011331B78002B40F08780002387F828305A
:10334000002387F82930002387F82A308023FB6286
:10335000484A7B695B0113441868464A7B695B01F4
:10336000134404331968434A7B695B0113441033E7
:103370001B781A46FFF78CFF3E4A7B695B011344BA
:1033800008331B6807F128021146184608F0D0FFE1
:10339000384A7B695B01134408331B68DBB20022A7
:1033A0000121184609F04AF8324A7B695B0113444F
:1033B000113304221A702F4A7B695B01134403F115
:1033C0001801D7E90223C1E9002302233B76002339
:1033D0007B76284A7B695B0113441833D3E90023C9
:1033E00010461946FDF7F4FD0346FB61D7E90001DD
:1033F000FDF7EEFD03463B620023BB841D4A7B695B
:103400005B01134408331B681B4A52F823303B63AB
:103410000021386BFFF768FF164A7B695B01134494
:1034200008331868134A7B695B0113440C331B682B
:10343000DAB207F11803194609F05EF87B695B01FF
:103440000C4A13447B630FE00A4A7B695B01134417
:1034500011331B78042B05D17B695B01054A1344AA
:103460007B6301E000237B637B6B18463837BD46E6
:1034700080BD00BF78010020241B010080B483B010
:1034800000AF786000BF0C37BD465DF8047B704725
:1034900080B58AB000AFF86087ED000BFB687B62F7
:1034A0007B6A002B2CD07B6A5B7C042B28D1022307
:1034B0003B7400237B747B6AD3E9062310461946CC
:1034C000FDF786FD03467B61D7E90001FDF780FD2E
:1034D0000346BB610023BB837B6A9B680A4A52F8A0
:1034E00023303B620021386AFFF7FEFE7B6A986852
:1034F0007B6ADB68DAB207F11003194608F0FCFFBB
:1035000000BF2837BD4680BD241B010080B485B0B4
:1035100000AF78607B68FB60FB68002B06D0FB681F
:103520005B7C042B02D1FB6800225A7400BF143765
:10353000BD465DF8047B704780B483B000AF78600F
:1035400000BF0C37BD465DF8047B704780B582B084
:1035500000AF786008F074FA034618460837BD4695
:1035600080BD80B483B000AF78607B68023303F124
:10357000424303F580135B011C3301221A7000BF24
:103580000C37BD465DF8047B704780B483B000AF54
:1035900078607B68023303F1424303F580135B01DB
:1035A0000C3300221A7000BF0C37BD465DF8047B57
:1035B000704780B483B000AF78607B68023303F15A
:1035C000424303F580135B010C3301221A7000BFE4
:1035D0000C37BD465DF8047B704780B483B000AF04
:1035E00078600B46FB707B68023303F1424303F5BE
:1035F00080135B0110331A46FB78137000BF0C3741
:10360000BD465DF8047B704780B483B000AF78603E
:103610007B681B79DBB218460C37BD465DF8047B2E
:10362000704780B483B000AF78600B46FB707B6856
:10363000FA781A7100BF0C37BD465DF8047B7047FD
:1036400080B483B000AF78600B46FB707B68DB789A
:10365000DBB21A46FB7842FA03F303F00103002BB6
:1036600014BF01230023DBB218460C37BD465DF8BA
:10367000047B704780B483B000AF78607B6802330E
:1036800003F1424303F580135B0114331B78DBB273
:10369000002B14BF01230023DBB218460C37BD46B4
:1036A0005DF8047B704780B483B000AF78600B4650
:1036B000FB707B68023303F1424303F580135B0127
:1036C0001833FA781A7000BF0C37BD465DF8047BDA
:1036D000704780B483B000AF78607B680222DA70F4
:1036E00000BF0C37BD465DF8047B704780B584B0E1
:1036F00000AFF860B9601346FB71BB681F2B05D99A
:103700000B4B0C4AD9210C480AF0F4FDBB689B0016
:10371000FA68134403F1424303F580135B01143349
:103720001A46FB79136000BF1037BD4680BD00BF4D
:10373000141001009C1101002010010080B584B01C
:1037400000AFF860B9601346FB71BB681F2B05D949
:103750000D4B0E4AFF210E480AF0CCFDFB68BA68FB
:1037600053F8223023F0807323F4E063FA791202D5
:1037700002F4E06243EA0201FB68BA6843F82210EF
:1037800000BF1037BD4680BD141001008811010034
:103790002010010080B584B000AF78607B681B68A2
:1037A0000F4A52F82330FB607B681B68184600F014
:1037B000EFF97B681B68184608F0B8F9F86809F05B
:1037C00069F8F868FFF7CDFE0121F868FFF76BFF95
:1037D0000449786800F0FCF800BF1037BD4680BD92
:1037E0007C110100A086010080B584B000AF786034
:1037F0007B681B68054A52F82330FB60F86809F0C3
:103800008FF8002318461037BD4680BD7C1101009B
:1038100080B584B000AF78600023BB607B681B6814
:103820000E4A52F82330FB60F868FFF723FF034687
:10383000002B02D0F86809F083F80023BB6004E095
:1038400000BF00BFBB680133BB60BB68C72BF7D9A3
:10385000002318461037BD4680BD00BF7C11010013
:1038600080B586B000AF78600B46FB70104B3B61B3
:103870007B681B680F4A52F82330FB6000237B6192
:103880000CE0FB781946F868FFF7DAFE0346002BD8
:1038900001D0002307E07B6901337B617A693B69D2
:1038A0009A42EED3012318461837BD4680BD00BFAB
:1038B000A08601007C11010080B584B000AF786063
:1038C0007B681B68104A52F82330FB60012178683E
:1038D000FFF7C6FF0346002B01D0022310E0F86873
:1038E000FFF7F7FE07217868FFF7BAFF0346002BC2
:1038F00001D0022304E00021F868FFF7A1FE03468F
:1039000018461037BD4680BD7C11010080B584B0DB
:1039100000AF78607B681B680A4A52F82330FB606E
:1039200001217868FFF79CFF0346002B01D001239B
:1039300003E0F868FFF7CDFE002318461037BD46B8
:1039400080BD00BF7C11010080B584B000AF7860FD
:1039500039607B681B68094A52F82330FB603B687A
:10396000DBB21946F868FFF75CFE7868FFF7A4FF42
:10397000034618461037BD4680BD00BF7C110100CC
:1039800080B586B000AFF860B9607A60FB681B68EC
:103990000E4A52F823307B617B68002B03D0786994
:1039A000FFF707FE02E07869FFF7EFFD7869FFF7A0
:1039B0002BFE03461A46BB681A70F868FFF7A6FF8D
:1039C000034618461837BD4680BD00BF7C11010074
:1039D00080B584B000AF786039607B681B680E4AA0
:1039E00052F82330FB607B681B681846FFF7AEFD7A
:1039F0000346BB603B68094A82FB03129211DB1746
:103A0000D31A1A460023B968F86808F051FF00BFBE
:103A10001037BD4680BD00BF7C110100D34D621040
:103A200090B589B000AFF860B9607A603B60F86823
:103A3000FFF7DAFE0346002B05D0F868FFF7E8FE33
:103A40006FF0010355E0BB6843F001031946F868C5
:103A5000FFF77AFF0346002B05D0F868FFF7D8FE82
:103A60004FF0FF3345E0FB681B68244A52F82330CF
:103A7000BB610021B869FFF7B0FD0023FB6124E0C2
:103A8000FB69002B02D107F1120303E0FB69013B44
:103A90007A6813447B613B68013BFA699A420CBF28
:103AA00001230023DBB2FB74FB7C1A467969F868BA
:103AB000FFF766FF0346002B04D0F868FFF7A8FE67
:103AC000FB6916E0FB690133FB61FA693B689A42C6
:103AD000D6DB3B6B002B02D0F868FFF799FEFB6941
:103AE000013B7A68D418B869FFF78EFD034623704E
:103AF0003B6818462437BD4690BD00BF7C110100CD
:103B000080B586B000AFF860B9607A603B60F86855
:103B1000FFF76AFE0346002B05D0F868FFF778FE32
:103B20006FF0010330E0BB6803F0FE031946F8684C
:103B3000FFF70AFF0346002B05D0F868FFF768FE81
:103B40004FF0FF3320E000237B6112E07B697A684D
:103B500013441B781946F868FFF7F6FE0346002B5E
:103B600004D0F868FFF754FE7B690DE07B690133F0
:103B70007B617A693B689A42E8DB3B6A002B02D0A2
:103B8000F868FFF745FE3B6818461837BD4680BD0C
:103B900080B582B000AF78607B68002B03D07B6873
:103BA000012B15D029E0052218211648FFF7C6FD84
:103BB000012218211348FFF799FD05221921114808
:103BC000FFF7BCFD012219210E48FFF78FFD14E01D
:103BD00002220A210C48FFF7B1FD01220A210A48FE
:103BE000FFF784FD02220B210748FFF7A7FD012202
:103BF0000B210548FFF77AFD00BF00BF0837BD461F
:103C000080BD00BF00D0044000B0044080B584B047
:103C100000AF78600B46FB707B68012B11D80C4914
:103C20007B687A6841F823207B689B00084A13442C
:103C30001846FFF7AFFD7B689B00054A1344FB6005
:103C400001E00023FB60FB6818461037BD4680BDCD
:103C5000E015002080B584B000AF786039607B68E3
:103C6000002B07D03B6819467868FFF7B1FE0023A8
:103C7000FB7301E00823FB73FB7B18461037BD463E
:103C800080BD80B588B002AFF8607A603B600B46BB
:103C90007B8100237B6197F82030002B0CBF012330
:103CA0000023DBB23B61FB68002B19D07B895900F4
:103CB0003A683B69009313467A68F868FFF7B0FEEC
:103CC00003467B617B6913F1020F01D1012308E0F8
:103CD0007B69B3F1FF3F01D1042302E0002300E040
:103CE000082318461837BD4680BD80B588B002AF9E
:103CF000F8607A603B600B467B8100237B6197F81C
:103D00002030002B0CBF01230023DBB23B61FB689A
:103D1000002B19D07B8959003A683B690093134600
:103D20007A68F868FFF7ECFE03467B617B6913F164
:103D3000020F01D1012308E07B69B3F1FF3F01D1FC
:103D4000042302E0002300E0082318461837BD468C
:103D500080BD80B483B000AF786000BF0C37BD4633
:103D60005DF8047B7047000080B586B000AF7861D5
:103D7000184B1B681B68002B0CBF01230023DBB210
:103D80001A46154B1A7011E03B461449184605F0C7
:103D9000A8FD01F0D9FA0F4B1B681B68002B14BF5C
:103DA00001230023DBB21A460D4B1A700A4B1B7815
:103DB000DBB2002BE8D1084B00221A70786900F0C2
:103DC00011F8002005F0E6FC002318461837BD4620
:103DD00080BD00BFB81101007A060020F415002054
:103DE000E815002080B582B000AF7860074B012253
:103DF0001A60074B00221A7004F0CEF8054805F04F
:103E00005DFD002318460837BD4680BD1016002012
:103E10007A060020EC15002080B586B000AF7861EE
:103E2000396104F05DFF05F025F90A4B1B6800229B
:103E30001A6003F0C1FC00209FED070A05F0FCFBAF
:103E40003B460649184605F04CFD00231846183736
:103E5000BD4680BDB81101006F12833AEC150020F9
:103E6000F0B587B000AF034687ED000BFB814FF044
:103E700000024FF00003D7E90001FDF757F80346B1
:103E8000002B18D04FF00002204BD7E90001FDF7BE
:103E900043F80346002B0BD0B7F90E40D7E90001D9
:103EA000FDF796F80346DBB204FA03F3FB8226E043
:103EB0000023FB8223E04FF00002154BD7E90001FD
:103EC000FDF734F80346002B0FD0B7F90E603C68BD
:103ED0007B6883F0004520462946FDF779F80346C4
:103EE000DBB246FA03F3FB8209E0B7F90E30002B90
:103EF00003DA4FF6FF73FB8201E00023FB82B7F980
:103F0000163018461C37BD46F0BD00BF00002E40DD
:103F100000002EC080B483B000AF7860274BD3F888
:103F20005C3E274AB2F8B02E934208D3234B1B22A3
:103F300083F8692E214B0022C3F85C2E37E01F4B1B
:103F400093F86C2E1E4B83F81E2F1C4B93F86D2E8E
:103F50001B4B83F81A2F194B93F86D2E184B83F8CF
:103F60001D2F164B93F86D2E154B83F8192F134BFD
:103F700093F86C2E124B83F81C2F104B93F86D2E78
:103F80000F4B83F8182F0D4B93F86D2E0C4B83F8C5
:103F90001B2F7B68D3E90023094901F68851C1E949
:103FA0000023064B93F86C2E054B83F81F2F00BFA0
:103FB0000C37BD465DF8047B704700BF40250020EC
:103FC00018160020B0B588B000AFF860B9607A600C
:103FD000BB681A785B4B93F86C3E9A4210D1594BF0
:103FE000D3F85C3E584AB2F8982E934208D3554B0A
:103FF000032283F8692E534B0022C3F85C2E9DE008
:104000007B68D3E90045504BB3F8AA3E1846FCF74D
:104010008DFC02460B4620462946FCF749FB02462A
:104020000B4643EC172BB0EE470AF0EE670A05F09B
:104030002DFDB0EE407AF0EE607A87ED047B4FF014
:104040000002424BD7E90401FCF75CFF0346002B5A
:1040500014D04FF000024FF00003D7E90401FCF741
:1040600065FF0346002B06D0D7E90401FCF7B0FF3B
:1040700003467B8305E000237B8302E04FF6FF735A
:104080007B837B8B304AB2F8AC2E9B1AFB617B8B17
:10409000FA699A4201D90023FB612A4BD3F85C3EAE
:1040A000FA699A4208D8274B022283F8692E254BD9
:1040B0000022C3F85C2E41E0234BB3F89E3E022B56
:1040C00004D0204B132283F8692E37E0FB68D3E934
:1040D00000231D4901F68851C1E90023194B93F8CB
:1040E0006C2E194B83F81F2F164B93F86C2E164B22
:1040F00083F81E2F134B93F86D2E134B83F81B2F51
:10410000104B93F86D2E104B83F81A2F0D4B93F82C
:104110006D2E0D4B83F81D2F0A4B93F86D2E0A4B15
:1041200083F8182F074B93F86C2E074B83F8192F41
:10413000044B93F86D2E044B83F81C2F00BF2037DF
:10414000BD46B0BD40250020181600200000F040FC
:1041500080B483B000AF7860274BD3F85C3E274A29
:10416000B2F8AC2E934208D3234B012283F8692E78
:10417000214B0022C3F85C2E37E01F4B93F86C2EC6
:104180001E4B83F81E2F1C4B93F86D2E1B4B83F890
:104190001A2F194B93F86D2E184B83F81D2F164BC1
:1041A00093F86C2E154B83F8192F134B93F86D2E43
:1041B000124B83F81C2F104B93F86D2E0F4B83F886
:1041C000182F0D4B93F86D2E0C4B83F81B2F7B682B
:1041D000D3E90023094901F68851C1E90023064BC0
:1041E00093F86C2E054B83F81F2F00BF0C37BD468C
:1041F0005DF8047B704700BF4025002018160020A2
:10420000B0B588B000AFF860B9607A60BB681A7862
:104210005B4B93F86C3E9A4210D1594BD3F85C3EFD
:10422000584AB2F8982E934208D3554B062283F889
:10423000692E534B0022C3F85C2E9DE07B68D3E9C6
:104240000045504BB3F8AA3E1846FCF76FFB0246F8
:104250000B4620462946FCF72BFA02460B4643EC58
:10426000172BB0EE470AF0EE670A05F00FFCB0EE30
:10427000407AF0EE607A87ED047B4FF00002424B0B
:10428000D7E90401FCF73EFE0346002B14D04FF0A3
:1042900000024FF00003D7E90401FCF747FE034694
:1042A000002B06D0D7E90401FCF792FE03467B837E
:1042B00005E000237B8302E04FF6FF737B837B8B5B
:1042C000304AB2F8AC2E9B1AFB617B8BFA699A429A
:1042D00001D90023FB612A4BD3F85C3EFA699A426C
:1042E00008D8274B052283F8692E254B0022C3F8F6
:1042F0005C2E41E0234BB3F89E3E092B04D0204BAB
:10430000132283F8692E37E0FB68D3E900231D49A7
:1043100001F68851C1E90023194B93F86C2E194B13
:1043200083F81F2F164B93F86C2E164B83F81E2F15
:10433000134B93F86D2E134B83F81B2F104B93F8F0
:104340006D2E104B83F81A2F0D4B93F86D2E0D4BDD
:1043500083F81D2F0A4B93F86D2E0A4B83F8182F04
:10436000074B93F86C2E074B83F8192F044B93F8E7
:104370006D2E044B83F81C2F00BF2037BD46B0BD07
:1043800040250020181600200000F04080B483B0C3
:1043900000AF7860274BD3F85C3E274AB2F8AC2ECA
:1043A000934208D3234B042283F8692E214B002229
:1043B000C3F85C2E37E01F4B93F86C2E1E4B83F82E
:1043C0001E2F1C4B93F86D2E1B4B83F81A2F194B85
:1043D00093F86D2E184B83F81D2F164B93F86C2E07
:1043E000154B83F8192F134B93F86D2E124B83F84E
:1043F0001C2F104B93F86D2E0F4B83F8182F0D4B7D
:1044000093F86D2E0C4B83F81B2F7B68D3E90023A8
:10441000094901F68851C1E90023064B93F86C2E37
:10442000054B83F81F2F00BF0C37BD465DF8047B9A
:10443000704700BF4025002018160020B0B586B098
:1044400000AF786039603B68D3E90045494BB3F869
:10445000AA3E1846FCF76AFA02460B462046294651
:10446000FCF726F902460B4643EC172BB0EE470A41
:10447000F0EE670A05F00AFBB0EE407AF0EE607AE3
:1044800087ED027B4FF000023B4BD7E90201FCF7BE
:1044900039FD0346002B14D04FF000024FF000030B
:1044A000D7E90201FCF742FD0346002B06D0D7E90D
:1044B0000201FCF78DFD0346FB8205E00023FB8231
:1044C00002E04FF6FF73FB822C4BD3F85C2EFB8A85
:1044D0009A4208D3294B082283F8692E274B0022E1
:1044E000C3F85C2E41E0234BB3F89E3E012B04D071
:1044F000224B132283F8692E37E07B68D3E900232F
:104500001C4901F68851C1E900231C4B93F86C2E1D
:10451000184B83F81F2F194B93F86C2E154B83F80B
:104520001E2F164B93F86D2E124B83F81B2F134B37
:1045300093F86D2E0F4B83F81A2F104B93F86D2EB6
:104540000C4B83F81D2F0D4B93F86D2E094B83F800
:10455000182F0A4B93F86C2E064B83F8192F074B34
:1045600093F86D2E034B83F81C2F00BF1837BD4600
:10457000B0BD00BF181600200000F040402500200C
:10458000B0B586B000AF786039603B68D3E90045CC
:10459000494BB3F8AA3E1846FCF7C8F902460B4649
:1045A00020462946FCF784F802460B4643EC172BBD
:1045B000B0EE470AF0EE670A05F068FAB0EE407A0E
:1045C000F0EE607A87ED027B4FF000023B4BD7E9BB
:1045D0000201FCF797FC0346002B14D04FF00002B9
:1045E0004FF00003D7E90201FCF7A0FC0346002BC3
:1045F00006D0D7E90201FCF7EBFC0346FB8205E09D
:104600000023FB8202E04FF6FF73FB822C4BD3F8B2
:104610005C2EFB8A9A4208D3294B0A2283F8692E22
:10462000274B0022C3F85C2E41E0234BB3F89E3E9B
:10463000072B04D0224B132283F8692E37E07B68C6
:10464000D3E900231C4901F68851C1E900231C4B22
:1046500093F86C2E184B83F81F2F194B93F86C2E80
:10466000154B83F81E2F164B93F86D2E124B83F8C3
:104670001B2F134B93F86D2E0F4B83F81A2F104BF3
:1046800093F86D2E0C4B83F81D2F0D4B93F86D2E68
:10469000094B83F8182F0A4B93F86C2E064B83F8BE
:1046A000192F074B93F86D2E034B83F81C2F00BF77
:1046B0001837BD46B0BD00BF181600200000F040FE
:1046C00040250020B0B586B000AF786039603B6807
:1046D000D3E900454F4BB3F8AE3E1846FCF726F938
:1046E00002460B4620462946FBF7E2FF02460B46F0
:1046F00043EC172BB0EE470AF0EE670A05F0C6F957
:10470000B0EE407AF0EE607A87ED027B4FF0000267
:10471000414BD7E90201FCF7F5FB0346002B14D00F
:104720004FF000024FF00003D7E90201FCF7FEFB57
:104730000346002B06D0D7E90201FCF749FC0346EB
:104740007B8205E000237B8202E04FF6FF737B82D1
:104750007B8A304AB2F8A02E9B1A7B617B8A7A69E9
:104760009A4201D900237B612C4BD3F85C3E7A69D5
:104770009A4208D8294B0C2283F8692E274B002235
:10478000C3F85C2E41E0234BB3F89E3E052B04D0CA
:10479000224B132283F8692E37E07B68D3E900238C
:1047A0001C4901F68851C1E900231C4B93F86C2E7B
:1047B000184B83F81F2F194B93F86C2E154B83F869
:1047C0001E2F164B93F86D2E124B83F81B2F134B95
:1047D00093F86D2E0F4B83F81A2F104B93F86D2E14
:1047E0000C4B83F81D2F0D4B93F86D2E094B83F85E
:1047F000182F0A4B93F86D2E064B83F8192F074B91
:1048000093F86C2E034B83F81C2F00BF1837BD465E
:10481000B0BD00BF181600200000F0404025002069
:10482000B0B586B000AF78603960514BB3F89E3EAA
:10483000062B04D04F4B132283F8692E93E07B683C
:10484000D3E900454A4BB3F8AE3E1846FCF76EF884
:1048500002460B4620462946FBF72AFF02460B4636
:1048600043EC172BB0EE470AF0EE670A05F00EF99D
:10487000B0EE407AF0EE607A87ED027B4FF00002F6
:104880003D4BD7E90201FCF73DFB0346002B14D05A
:104890004FF000024FF00003D7E90201FCF746FB9E
:1048A0000346002B06D0D7E90201FCF791FB034633
:1048B0007B8205E000237B8202E04FF6FF737B8260
:1048C0007B8A2B4AB2F8A02E9B1A7B617B8A7A697D
:1048D0009A4201D900237B61264BD3F85C3E7A696A
:1048E0009A4208D8234B102283F8692E214B0022CC
:1048F000C3F85C2E37E03B68D3E900231C4901F67E
:104900008851C1E900231B4B93F86C2E184B83F898
:104910001F2F184B93F86C2E154B83F81E2F154B39
:1049200093F86D2E124B83F81B2F124B93F86D2EBC
:104930000F4B83F81A2F0F4B93F86D2E0C4B83F807
:104940001D2F0C4B93F86D2E094B83F8182F094B34
:1049500093F86D2E064B83F8192F064B93F86C2EA7
:10496000034B83F81C2F00BF1837BD46B0BD00BFF6
:1049700018160020402500200000F04080B400AF51
:104980003E4BB3F89E3E013B092B71D801A252F871
:1049900023F000BFBD490000CF490000054A0000D8
:1049A000F3490000E1490000174A0000294A0000CD
:1049B0003B4A00004D4A00005F4A0000304B07228E
:1049C00083F8692E2E4B0022C3F85C2E50E02C4B4E
:1049D000012283F8692E2A4B0022C3F85C2E47E09F
:1049E000274B0D2283F8692E254B0022C3F85C2E3D
:1049F0003EE0234B182283F8692E214B0022C3F896
:104A00005C2E35E01E4B142283F8692E1C4B0022CD
:104A1000C3F85C2E2CE01A4B112283F8692E184B38
:104A20000022C3F85C2E23E0154B092283F8692E7F
:104A3000134B0022C3F85C2E1AE0114B162283F8A8
:104A4000692E0F4B0022C3F85C2E11E00C4B0422A0
:104A500083F8692E0A4B0022C3F85C2E08E0084B4D
:104A60001B2283F8692E064B0022C3F85C2E00BF80
:104A700000BFBD465DF8047B704700BF18160020DC
:104A800040250020B0B586B000AF786039603B6843
:104A9000D3E90045494BB3F8AE3E1846FBF746FF55
:104AA00002460B4620462946FBF702FE02460B460D
:104AB00043EC172BB0EE470AF0EE670A04F0E6FF6E
:104AC000B0EE407AF0EE607A87ED027B4FF00002A4
:104AD0003B4BD7E90201FCF715FA0346002B14D033
:104AE0004FF000024FF00003D7E90201FCF71EFA75
:104AF0000346002B06D0D7E90201FCF769FA03460A
:104B0000FB8205E00023FB8202E04FF6FF73FB828D
:104B10002C4BD3F85C2EFB8A9A4208D3294B1522E2
:104B200083F8692E274B0022C3F85C2E41E0234B0B
:104B3000B3F89E3E032B04D0224B132283F8692E38
:104B400037E07B68D3E900231C4901F68851C1E9AD
:104B500000231C4B93F86C2E184B83F81F2F194B16
:104B600093F86C2E154B83F81E2F164B93F86D2E71
:104B7000124B83F81B2F134B93F86D2E0F4B83F8BA
:104B80001A2F104B93F86D2E0C4B83F81D2F0D4BE5
:104B900093F86D2E094B83F8182F0A4B93F86D2E5E
:104BA000064B83F8192F074B93F86C2E034B83F8B1
:104BB0001C2F00BF1837BD46B0BD00BF181600201F
:104BC0000000F04040250020B0B586B000AF78600E
:104BD00039607B68D3E90045494BB3F8AE3E1846CF
:104BE000FBF7A4FE02460B4620462946FBF760FD74
:104BF00002460B4643EC172BB0EE470AF0EE670A6D
:104C000004F044FFB0EE407AF0EE607A87ED027B6C
:104C10004FF000023B4BD7E90201FCF773F9034662
:104C2000002B14D04FF000024FF00003D7E902012F
:104C3000FCF77CF90346002B06D0D7E90201FCF70C
:104C4000C7F90346FB8205E00023FB8202E04FF632
:104C5000FF73FB822C4BD3F85C2EFB8A9A4208D35D
:104C6000294B172283F8692E274B0022C3F85C2EAC
:104C700041E0234BB3F89E3E082B04D0224B132275
:104C800083F8692E37E03B68D3E900231C4901F61D
:104C90008851C1E900231C4B93F86C2E184B83F804
:104CA0001F2F194B93F86C2E154B83F81E2F164BA4
:104CB00093F86D2E124B83F81B2F134B93F86D2E28
:104CC0000F4B83F81A2F104B93F86D2E0C4B83F873
:104CD0001D2F0D4B93F86D2E094B83F8182F0A4B9F
:104CE00093F86D2E064B83F8192F074B93F86C2E13
:104CF000034B83F81C2F00BF1837BD46B0BD00BF63
:104D0000181600200000F04040250020B0B588B003
:104D100000AFF860B9607A607B681A785B4B93F8F3
:104D20006C3E9A4210D1594BD3F85C3E584AB2F8C7
:104D3000982E934208D3554B1A2283F8692E534B71
:104D40000022C3F85C2E9DE0BB68D3E90045504BC0
:104D5000B3F8AE3E1846FBF7E9FD02460B46204687
:104D60002946FBF7A5FC02460B4643EC172BB0EE99
:104D7000470AF0EE670A04F089FEB0EE407AF0EEE2
:104D8000607A87ED047B4FF00002424BD7E90401C3
:104D9000FCF7B8F80346002B14D04FF000024FF098
:104DA0000003D7E90401FCF7C1F80346002B06D045
:104DB000D7E90401FCF70CF903467B8305E00023E7
:104DC0007B8302E04FF6FF737B837B8B304AB2F824
:104DD000B02E9B1AFB617B8BFA699A4201D90023A2
:104DE000FB612A4BD3F85C3EFA699A4208D8274BFC
:104DF000192283F8692E254B0022C3F85C2E41E06E
:104E0000234BB3F89E3E042B04D0204B132283F88F
:104E1000692E37E0FB68D3E900231D4901F688516C
:104E2000C1E90023194B93F86C2E194B83F81F2FFF
:104E3000164B93F86C2E164B83F81E2F134B93F8DA
:104E40006D2E134B83F81B2F104B93F86D2E104BC8
:104E500083F81A2F0D4B93F86D2E0D4B83F81D2FF1
:104E60000A4B93F86D2E0A4B83F8182F074B93F8D3
:104E70006D2E074B83F8192F044B93F86C2E044BBF
:104E800083F81C2F00BF2037BD46B0BD4025002051
:104E9000181600200000F04080B483B000AF7860A6
:104EA000274BD3F85C3E274AB2F8B02E934208D382
:104EB000234B182283F8692E214B0022C3F85C2E65
:104EC00037E01F4B93F86C2E1E4B83F81E2F1C4BA4
:104ED00093F86D2E1B4B83F81A2F194B93F86D2EF8
:104EE000184B83F81D2F164B93F86D2E154B83F836
:104EF000192F134B93F86C2E124B83F81C2F104B69
:104F000093F86D2E0F4B83F8182F0D4B93F86D2EE1
:104F10000C4B83F81B2F7B68D3E90023094901F66A
:104F20008851C1E90023064B93F86C2E054B83F89A
:104F30001F2F00BF0C37BD465DF8047B704700BFD4
:104F40004025002018160020B0B588B000AFF860EA
:104F5000B9607A607B681A785B4B93F86C3E9A4232
:104F600010D1594BD3F85C3E584AB2F8982E934270
:104F700008D3554B1D2283F8692E534B0022C3F8EA
:104F80005C2E9DE0FB68D3E90045504BB3F8AE3E84
:104F90001846FBF7CBFC02460B4620462946FBF79A
:104FA00087FB02460B4643EC172BB0EE470AF0EEA8
:104FB000670A04F06BFDB0EE407AF0EE607A87EDA0
:104FC000047B4FF00002424BD7E90401FBF79AFF44
:104FD0000346002B14D04FF000024FF00003D7E936
:104FE0000401FBF7A3FF0346002B06D0D7E9040119
:104FF000FBF7EEFF03467B8305E000237B8302E0A3
:105000004FF6FF737B837B8B304AB2F8B02E9B1A2E
:10501000FB617B8BFA699A4201D90023FB612A4B21
:10502000D3F85C3EFA699A4208D8274B1C2283F8D1
:10503000692E254B0022C3F85C2E41E0234BB3F8C8
:105040009E3E0A2B04D0204B132283F8692E37E0B2
:10505000BB68D3E900231D4901F68851C1E900234B
:10506000194B93F86C2E194B83F81F2F164B93F89E
:105070006C2E164B83F81E2F134B93F86D2E134B8B
:1050800083F81B2F104B93F86D2E104B83F81A2FBB
:105090000D4B93F86D2E0D4B83F81D2F0A4B93F893
:1050A0006D2E0A4B83F8182F074B93F86D2E074B84
:1050B00083F8192F044B93F86C2E044B83F81C2FA4
:1050C00000BF2037BD46B0BD402500201816002087
:1050D0000000F04080B584B002AF78607B680022A9
:1050E0001A727B6801225A605E4B002283F87A2D87
:1050F0005C4B0022C3F87C2D5A4BD3F87C3D594AB7
:1051000092F87A2D11461846FEF780FD02467B681C
:105110009A627B68544A5A627B689A6A7B685B6AC7
:1051200019461046FEF796FD4E4B2B2283F8142F9E
:105130004C4B402283F8152F7B68986A002301931B
:10514000002300930223494A1D21FEF7CEFD4FF4B0
:10515000FA7006F0ABFA434B2A2283F8172F7B68CC
:10516000986A00230193012300930123404A1D21E3
:10517000FEF7BBFD03461A463A4B83F8172F394B0F
:1051800093F8173F002B10D17B68986A0123019395
:10519000002300930123364A1D21FEF772FD0122F0
:1051A00033493448FDF752F803E02E4B002283F8D0
:1051B000162F2C4B2A2283F8142F2A4B93F8163FD4
:1051C00023F00103DAB2274B83F8152F7B68986A26
:1051D00000230193002300930223244A1D21FEF79C
:1051E00084FD204B0E2283F8142F1E4B012283F8DE
:1051F000152F7B68986A00230193002300930223F4
:105200001A4A1D21FEF771FD164B5B2283F8142FFD
:10521000144B002283F8152F7B68986A00230193B2
:10522000002300930223114A1D21FEF75EFD0D4B62
:105230002A2283F8142F0B4B012283F8152F7B6849
:10524000986A00230193002300930223074A1D213B
:10525000FEF74BFD7B6801221A7200BF0837BD467E
:1052600080BD00BF18160020A08601002C2500205C
:105270002F2500202E25002080B483B000AF786059
:105280007B6800221A727B6801225A607B680122C7
:105290001A637B6800229A637B6800229A637B68AA
:1052A00003F138027B68DA627B6801221A727B683C
:1052B00000225A7200BF0C37BD465DF8047B704770
:1052C00080B582B000AF78607B6800221A727B687C
:1052D00001225A601A4B4FF0FF32C3F8702D184B61
:1052E0000022C3F8742D164BD3F8703D0A2200211A
:1052F0001448FDF745FB02467B681A617B681B6911
:105300004FF4E1311846FDF713FE0D4B012283F8EF
:10531000782D0B4B002283F8792D7B681869084B98
:1053200093F8792D064B93F8783D0821FDF70CFE94
:105330007B6801221A7200BF0837BD4680BD00BFDE
:10534000181600208C2300202DE9F04F8FB002AFFB
:10535000934B03F55563D3E90001924BD3E90A233C
:10536000FBF7C6FD0346002B07D18E4BD3E90A237A
:105370008B4901F55561C1E90023894BD3F8483DBC
:10538000542289491846FDF7F3FD0346FB70542269
:1053900085498648FCF75AFF814B03F54D63D3E9F5
:1053A0000001804BD3E90223FBF7A2FD0346002B4B
:1053B00007D17C4BD3E90223794901F54D61C1E95D
:1053C0000023774BD3F8C83C1846FDF765F9744BBA
:1053D000D3F8C83C072276491846FDF701F9704B0F
:1053E00003F54B63D3E900016E4BD3E90C23FBF7C4
:1053F0007FFD0346002B07D16A4BD3E90C23684994
:1054000001F54B61C1E90023654BD3F8A83C184670
:10541000FDF742F9624BD3F8A83C072265491846CC
:10542000FDF7DEF85E4B93F86A3E002B74D15C4BBF
:10543000012283F86A2E5A4B012283F86B2E5E4BB1
:105440000622A3F89E2E5C4B3C22A3F8982E5A4BC2
:105450007822A3F89A2E584BFA22A3F89C2E564B8A
:105460009622A3F8A02E544B0A22A3F8A22E524B48
:105470001022A3F8A42E504B03F55E6140A3D3E99C
:105480000023C1E900234C4B1422A3F8A62E4A4B5B
:10549000B422A3F8A82E484B03F6E8514FF00002BF
:1054A000464BC1E90023444B0A22A3F8AA2E424BE3
:1054B000C822A3F8AC2E404B03F55F6132A3D3E9B9
:1054C0000023C1E900233C4B03F6F85130A3D3E994
:1054D0000023C1E90023384B03F560614FF000025F
:1054E000364BC1E90023344B0A22A3F8AE2E324BCF
:1054F000C822A3F8B02E304B03F6086126A3D3E9E7
:105500000023C1E900232C4B03F5616120A3D3E9FB
:105510000023C1E90023C7E0214B93F86B3E032B26
:1055200010D0032B13DC012B02D0022B05D00EE090
:105530001B4B042283F86B2EB6E0194B042283F830
:105540006B2EB1E0164B042283F86B2EACE0FB7897
:10555000002B40F0A880184B93F8C43C162B40F069
:105560009D80154B93F8C53C222B02D0552B27D09C
:105570008FE00B4B022283F86B2E02F08BFF92E040
:105580009A9999999999C93FCDCCCCCCCCCCFC3F78
:1055900033333333333303409A99999999990140BE
:1055A000402500208006002030230020DC2200203F
:1055B00030240020F02300201816002000000C40AA
:1055C0006A4B032283F86B2E022269496948FCF773
:1055D0003DFE022268496948FCF738FE022268490C
:1055E0006848FCF733FE022267496848FCF72EFE44
:1055F000022267496748FCF729FE0222664967488C
:10560000FCF724FE022266496648FCF71FFE0822CA
:1056100065496648FCF71AFE022265496548FCF7B1
:1056200015FE022264496548FCF710FE0822644911
:105630006448FCF70BFE022263496448FCF706FE4F
:10564000022263496348FCF701FE0822624963486D
:10565000FCF7FCFD082262496248FCF7F7FD0822CE
:1056600061496248FCF7F2FD022261496148FCF79A
:10567000EDFD022260496148FCF7E8FD082260491F
:105680006048FCF7E3FD08225F496048FCF7DEFD57
:1056900009E0364B042283F86B2E04E0334B0422DE
:1056A00083F86B2EFFE700BF304B03F55163D3E95E
:1056B0000001574BD3E90423FBF71AFC0346002BE8
:1056C00007D1534BD3E90423284901F55161C1E9BE
:1056D0000023264BD3F8083D1846FDF76BF8034628
:1056E000BB70224B03F54F63D3E90001484BD3E96C
:1056F0000623FBF7FDFB0346002B07D1444BD3E900
:1057000006231A4901F54F61C1E90023174BD3F86D
:10571000E83C1846FDF74EF803467B70134B03F543
:105720005363D3E900013A4BD3E90823FBF7E0FBCD
:105730000346002B07D1364BD3E908230B4901F56B
:105740005361C1E90023094BD3F8283D1846FDF702
:1057500031F8034687F8233097F82330002B02D125
:105760007B78002B56D0012355E000BF4025002058
:10577000DE220020B6240020E0220020B0240020F9
:10578000E2220020B2240020E4220020B4240020E1
:10579000E6220020B8240020E8220020BA240020BD
:1057A000EA220020BC240020EC220020F823002064
:1057B000F4220020BE240020F6220020C024002075
:1057C000F82200200024002000230020C224002012
:1057D00002230020C42400200423002008240020E9
:1057E0000C23002010240020142300201824002063
:1057F0001C230020C62400201E230020C8240020D3
:1058000020230020202400202823002028240020FA
:10581000800600200023DBB27B706A4BD3E912893B
:10582000694BB3F8983E1846FBF780F802460B46E2
:1058300040464946FBF71EFA02460B46624901F60E
:105840005861C1E90023604B03F6E853D3E9000136
:105850005C4BD3E91423FBF70DFA02460B461046C6
:105860001946584BD3E91623FBF7DAF802460B46E4
:10587000554901F64861C1E90023534B03F56063C4
:10588000D3E900014F4BD3E91423FBF7F3F90246A8
:105890000B46104619464B4BD3E91823FBF7C0F8CB
:1058A00002460B46484901F56561C1E90023464BB4
:1058B000B3F89E2E434B1B889A4240F26786424BB8
:1058C000B3F89E2E3F4B5B889A4200F05F863F4BB9
:1058D00003F67843D3E900013A4BD3E90E23FBF7F3
:1058E00007FB0346002B07D1364BD3E90E2337497C
:1058F00001F67841C1E900230123FB70334BD3F853
:10590000900CFA1C002301930123009301231D2115
:10591000FEF7EBF90346FB70FB78002B58D12B4BBD
:10592000D3F8900C07F10C0201230193002300939C
:1059300006231D21FEF7A5F907F10C0107F1140359
:1059400006221846FCF782FC07F114013B1D0222D7
:105950001846FCF77BFC7B793B723B797B7207F145
:10596000080107F1140302221846FCF76FFC07F147
:105970001403991C3B1D02221846FCF767FC7B7937
:105980003B723B797B7207F1080107F11403023384
:1059900002221846FCF75AFC07F11403191D3B1D9F
:1059A00002221846FCF752FC7B793B723B797B72F2
:1059B00007F1080107F11403043302221846FCF72B
:1059C00045FC0BE080060020181600204025002032
:1059D0000023BB820023FB8200233B83B7F91430F2
:1059E0009FEDB70B1846FEF73BFA03461846FAF749
:1059F000ADFF02460B46FAF75DFE02460B46104627
:105A00001946B1A3D3E90023FBF70AF802460B4677
:105A1000104619464FF00002AD4BFBF72BF902463A
:105A20000B46AC4901F56661C1E90023B7F91630B0
:105A30009FEDA30B1846FEF713FA03461846FAF734
:105A400085FF02460B46FAF735FE02460B46104626
:105A500019469DA3D3E90023FAF7E2FF02460B465D
:105A6000104619464FF00002994BFBF703F9024626
:105A70000B46984901F66861C1E90023B7F918306F
:105A80009FED8F0B1846FEF7EBF903461846FAF721
:105A90005DFF02460B46FAF70DFE02460B46104626
:105AA000194689A3D3E90023FAF7BAFF02460B4649
:105AB000104619464FF00002854BFBF7DBF8024613
:105AC0000B46844901F56761C1E90023814B03F569
:105AD0006663D3E900017F4B03F56663D3E90023D6
:105AE000FAF79EFF02460B4690469946794B03F61D
:105AF0006863D3E90001774B03F66863D3E90023B9
:105B0000FAF78EFF02460B4640464946FAF7D2FDA9
:105B100002460B46904699466E4B03F56763D3E900
:105B200000016C4B03F56763D3E90023FAF778FFB4
:105B300002460B4640464946FAF7BCFD02460B4674
:105B400043EC172BB0EE470AF0EE670A08F08CF929
:105B5000B0EE407AF0EE607A5E4B03F5646383ED5D
:105B6000007B5D4B5B7A002B02D05B4B00225A72AC
:105B7000594BDB6AFB61FB691B68012B00F0EC8071
:105B8000FB6900221A71FB6901221A600023FB6283
:105B90000DE0FA69FB6A0133DB00D1184FF0000217
:105BA0004FF00003C1E90023FB6A0133FB62FB6A8B
:105BB0007F2BEEDD0023FB620DE0FA69FB6A813387
:105BC000DB00D1184FF000024FF00003C1E90023C1
:105BD000FB6A0133FB62FB6A7F2BEEDD0023FB6275
:105BE0000EE0FA69FB6A03F20113DB00D1184FF0F3
:105BF00000024FF00003C1E90023FB6A0133FB629E
:105C0000FB6A7F2BEDDDFB6903F608414FF00002D4
:105C10004FF00003C1E90023FB6903F541614FF038
:105C200000024FF00003C1E90023FB6903F61841AD
:105C30004FF000024FF00003C1E90023FB6903F5B8
:105C400042614FF000024FF00003C1E90023FB69FD
:105C500003F628414FF000024FF00003C1E9002392
:105C6000FB6901221A710023FB620DE0FA69FB6AED
:105C70000133DB00D1184FF000024FF00003C1E9FF
:105C80000023FB6A0133FB62FB6A7F2BEEDD0023FE
:105C9000FB620DE0FA69FB6A8133DB00D1184FF03B
:105CA00000024FF00003C1E90023FB6A0133FB62ED
:105CB000FB6A7F2BEEDD0023FB621EE0AFF300806A
:105CC00000000000000000C008AC1C5A643BCF3F3D
:105CD00000408F401816002040250020FA69FB6A1A
:105CE00003F20113DB00D1184FF000024FF0000364
:105CF000C1E90023FB6A0133FB62FB6A7F2BEDDD08
:105D0000FB6903F608414FF000024FF00003C1E9C0
:105D10000023FB6903F541614FF000024FF00003DF
:105D2000C1E90023FB6903F618414FF000024FF070
